{
	"data": {
		"bytecode": {
			"linkReferences": {},
			"object": "6080604052600160045573a36085f69e2889c224210f603d836748e7dc0088600660006101000a81548173ffffffffffffffffffffffffffffffffffffffff021916908373ffffffffffffffffffffffffffffffffffffffff16021790555073fb0951ba1929336d2f621cc0f0928d89a91d508f600760006101000a81548173ffffffffffffffffffffffffffffffffffffffff021916908373ffffffffffffffffffffffffffffffffffffffff160217905550348015620000c057600080fd5b50620000f4600660009054906101000a900473ffffffffffffffffffffffffffffffffffffffff166200012d60201b60201c565b62000127600760009054906101000a900473ffffffffffffffffffffffffffffffffffffffff166200017160201b60201c565b620001b5565b80600260006101000a81548173ffffffffffffffffffffffffffffffffffffffff021916908373ffffffffffffffffffffffffffffffffffffffff16021790555050565b80600360006101000a81548173ffffffffffffffffffffffffffffffffffffffff021916908373ffffffffffffffffffffffffffffffffffffffff16021790555050565b612ca480620001c56000396000f3fe608060405234801561001057600080fd5b50600436106100a85760003560e01c806393d070721161007157806393d0707214610139578063a294360814610155578063b075f53214610185578063de00d107146101a3578063e3c046a7146101d3578063ec65d0f814610203576100a8565b8062aa2967146100ad578063303a712f146100c957806341ea27ca146100e557806349687cca146101015780637adbf9731461011d575b600080fd5b6100c760048036038101906100c29190611a4f565b61021f565b005b6100e360048036038101906100de9190611cf6565b610325565b005b6100ff60048036038101906100fa9190611db0565b610351565b005b61011b60048036038101906101169190611e4b565b6103f9565b005b61013760048036038101906101329190611f38565b610582565b005b610153600480360381019061014e9190611cf6565b61058e565b005b61016f600480360381019061016a9190611f65565b6106c0565b60405161017c919061202d565b60405180910390f35b61018d610779565b60405161019a919061205e565b60405180910390f35b6101bd60048036038101906101b89190611f65565b610788565b6040516101ca919061216c565b60405180910390f35b6101ed60048036038101906101e89190611f65565b610858565b6040516101fa9190612218565b60405180910390f35b61021d60048036038101906102189190612292565b610928565b005b6000610232866393d0707260e01b61093a565b905061027e6040518060400160405280600681526020017f6d61726b65740000000000000000000000000000000000000000000000000000815250858361096a9092919063ffffffff16565b6102c86040518060400160405280600881526020017f6c65616775654964000000000000000000000000000000000000000000000000815250848361096a9092919063ffffffff16565b6103126040518060400160405280600481526020017f6461746500000000000000000000000000000000000000000000000000000000815250838361096a9092919063ffffffff16565b61031c818661099d565b50505050505050565b8060086000848152602001908152602001600020908051906020019061034c929190611778565b505050565b600061035b6109d4565b90506103f48173ffffffffffffffffffffffffffffffffffffffff1663a9059cbb84866040518363ffffffff1660e01b815260040161039b929190612367565b602060405180830381600087803b1580156103b557600080fd5b505af11580156103c9573d6000803e3d6000fd5b505050506040513d601f19601f820116820180604052508101906103ed91906123c8565b83856109fe565b505050565b600061040c886393d0707260e01b61093a565b90506104586040518060400160405280600681526020017f6d61726b65740000000000000000000000000000000000000000000000000000815250878361096a9092919063ffffffff16565b6104a26040518060400160405280600881526020017f6c65616775654964000000000000000000000000000000000000000000000000815250868361096a9092919063ffffffff16565b6104ec6040518060400160405280600481526020017f6461746500000000000000000000000000000000000000000000000000000000815250858361096a9092919063ffffffff16565b61056d816040518060400160405280600781526020017f67616d6549647300000000000000000000000000000000000000000000000000815250858580806020026020016040519081016040528093929190818152602001838360200280828437600081840152601f19601f82011690508083019250505050505050610a47565b610577818861099d565b505050505050505050565b61058b81610ad5565b50565b816005600082815260200190815260200160002060009054906101000a900473ffffffffffffffffffffffffffffffffffffffff1673ffffffffffffffffffffffffffffffffffffffff163373ffffffffffffffffffffffffffffffffffffffff1614610630576040517f08c379a000000000000000000000000000000000000000000000000000000000815260040161062790612478565b60405180910390fd5b6005600082815260200190815260200160002060006101000a81549073ffffffffffffffffffffffffffffffffffffffff0219169055807f7cc135e0cebb02c3480ae5d74d377283180a2601f8f644edf7987b009316c63a60405160405180910390a2816008600085815260200190815260200160002090805190602001906106ba929190611778565b50505050565b600860205281600052604060002081815481106106dc57600080fd5b906000526020600020016000915091505080546106f8906124c7565b80601f0160208091040260200160405190810160405280929190818152602001828054610724906124c7565b80156107715780601f1061074657610100808354040283529160200191610771565b820191906000526020600020905b81548152906001019060200180831161075457829003601f168201915b505050505081565b6000610783610b19565b905090565b6107906117d8565b6108506008600085815260200190815260200160002083815481106107b8576107b76124f9565b5b9060005260206000200180546107cd906124c7565b80601f01602080910402602001604051908101604052809291908181526020018280546107f9906124c7565b80156108465780601f1061081b57610100808354040283529160200191610846565b820191906000526020600020905b81548152906001019060200180831161082957829003601f168201915b5050505050610b43565b905092915050565b61086061180c565b610920600860008581526020019081526020016000208381548110610888576108876124f9565b5b90600052602060002001805461089d906124c7565b80601f01602080910402602001604051908101604052809291908181526020018280546108c9906124c7565b80156109165780601f106108eb57610100808354040283529160200191610916565b820191906000526020600020905b8154815290600101906020018083116108f957829003601f168201915b5050505050610c03565b905092915050565b61093484848484610ce0565b50505050565b610942611841565b61094a611841565b61096184308584610df3909392919063ffffffff16565b91505092915050565b610981828460800151610ea390919063ffffffff16565b610998818460800151610ec890919063ffffffff16565b505050565b60006109cc600360009054906101000a900473ffffffffffffffffffffffffffffffffffffffff168484610ef8565b905092915050565b6000600260009054906101000a900473ffffffffffffffffffffffffffffffffffffffff16905090565b82610a425781816040517f7ab2f977000000000000000000000000000000000000000000000000000000008152600401610a39929190612528565b60405180910390fd5b505050565b6000839050610a63838260800151610ea390919063ffffffff16565b610a708160800151610fc2565b60008251905060005b81811015610abd57610ab2848281518110610a9757610a966124f9565b5b60200260200101518460800151610ec890919063ffffffff16565b806001019050610a79565b50610acb8260800151610fd0565b8194505050505050565b80600360006101000a81548173ffffffffffffffffffffffffffffffffffffffff021916908373ffffffffffffffffffffffffffffffffffffffff16021790555050565b6000600360009054906101000a900473ffffffffffffffffffffffffffffffffffffffff16905090565b610b4b6117d8565b6000610b5a6000600485610fde565b610b6390612583565b60e01c9050600083600481518110610b7e57610b7d6124f9565b5b602001015160f81c60f81b60f81c9050600084600581518110610ba457610ba36124f9565b5b602001015160f81c60f81b60f81c90506000610bc36006875188610fde565b9050600060405180608001604052808663ffffffff1681526020018560ff1681526020018460ff1681526020018381525090508095505050505050919050565b610c0b61180c565b6000610c1a6000600485610fde565b610c2390612583565b60e01c90506000610c376004600986610fde565b610c409061262b565b60d81c9050600084600981518110610c5b57610c5a6124f9565b5b602001015160f81c60f81b60f81c9050600081600a610c7a91906126c1565b60ff1690506000610c8d600a8389610fde565b90506000610c9d8389518a610fde565b9050600060405180608001604052808863ffffffff1681526020018764ffffffffff16815260200184815260200183815250905080975050505050505050919050565b60006005600086815260200190815260200160002060009054906101000a900473ffffffffffffffffffffffffffffffffffffffff1690506005600086815260200190815260200160002060006101000a81549073ffffffffffffffffffffffffffffffffffffffff0219169055847fe1fe3afa0f7f761ff0a8b89086790efd5140d2907ebd5b7ff6bfcb5e075fd4c560405160405180910390a28073ffffffffffffffffffffffffffffffffffffffff16636ee4d553868686866040518563ffffffff1660e01b8152600401610dba9493929190612716565b600060405180830381600087803b158015610dd457600080fd5b505af1158015610de8573d6000803e3d6000fd5b505050505050505050565b610dfb611841565b610e0b85608001516101006110da565b508385600001818152505082856020019073ffffffffffffffffffffffffffffffffffffffff16908173ffffffffffffffffffffffffffffffffffffffff16815250508185604001907bffffffffffffffffffffffffffffffffffffffffffffffffffffffff191690817bffffffffffffffffffffffffffffffffffffffffffffffffffffffff191681525050849050949350505050565b610eb08260038351611144565b610ec381836112c990919063ffffffff16565b505050565b67ffffffffffffffff811115610ee757610ee282826112eb565b610ef4565b610ef382600083611144565b5b5050565b6000806004549050600181610f0d919061275b565b6004819055506000633c6d41b960e01b600080876000015188604001518660028b6080015160000151604051602401610f4c97969594939291906127b1565b604051602081830303815290604052907bffffffffffffffffffffffffffffffffffffffffffffffffffffffff19166020820180517bffffffffffffffffffffffffffffffffffffffffffffffffffffffff83818316178352505050509050610fb786838684611337565b925050509392505050565b610fcd8160046114db565b50565b610fdb8160076114db565b50565b606060008484610fee9190612827565b67ffffffffffffffff81111561100757611006611ae0565b5b6040519080825280601f01601f1916602001820160405280156110395781602001600182028036833780820191505090505b50905060005b858561104b9190612827565b8110156110ce5783818761105f919061275b565b815181106110705761106f6124f9565b5b602001015160f81c60f81b82828151811061108e5761108d6124f9565b5b60200101907effffffffffffffffffffffffffffffffffffffffffffffffffffffffffffff1916908160001a905350806110c79061285b565b905061103f565b50809150509392505050565b6110e26118ae565b60006020836110f191906128d3565b1461111d5760208261110391906128d3565b602061110f9190612827565b8261111a919061275b565b91505b81836020018181525050604051808452600081528281016020016040525082905092915050565b60178167ffffffffffffffff161161117b576111758160058460ff16901b60ff1617846114fd90919063ffffffff16565b506112c4565b60ff8167ffffffffffffffff16116111d1576111aa601860058460ff16901b17846114fd90919063ffffffff16565b506111cb8167ffffffffffffffff1660018561151d9092919063ffffffff16565b506112c3565b61ffff8167ffffffffffffffff161161122857611201601960058460ff16901b17846114fd90919063ffffffff16565b506112228167ffffffffffffffff1660028561151d9092919063ffffffff16565b506112c2565b63ffffffff8167ffffffffffffffff16116112815761125a601a60058460ff16901b17846114fd90919063ffffffff16565b5061127b8167ffffffffffffffff1660048561151d9092919063ffffffff16565b506112c1565b61129e601b60058460ff16901b17846114fd90919063ffffffff16565b506112bf8167ffffffffffffffff1660088561151d9092919063ffffffff16565b505b5b5b5b505050565b6112d16118ae565b6112e38384600001515184855161153f565b905092915050565b61130960026005600660ff16901b17836114fd90919063ffffffff16565b50611333828260405160200161131f9190612904565b60405160208183030381529060405261162e565b5050565b6000308460405160200161134c92919061299a565b604051602081830303815290604052805190602001209050846005600083815260200190815260200160002060006101000a81548173ffffffffffffffffffffffffffffffffffffffff021916908373ffffffffffffffffffffffffffffffffffffffff160217905550807fb5e6e01e79f91267dc17b4e6314d5d4d03593d2ceee0fbb452b750bd70ea5af960405160405180910390a2600260009054906101000a900473ffffffffffffffffffffffffffffffffffffffff1673ffffffffffffffffffffffffffffffffffffffff16634000aea08685856040518463ffffffff1660e01b8152600401611442939291906129c6565b602060405180830381600087803b15801561145c57600080fd5b505af1158015611470573d6000803e3d6000fd5b505050506040513d601f19601f8201168201806040525081019061149491906123c8565b6114d3576040517f08c379a00000000000000000000000000000000000000000000000000000000081526004016114ca90612a76565b60405180910390fd5b949350505050565b6114f8601f60058360ff16901b17836114fd90919063ffffffff16565b505050565b6115056118ae565b6115158384600001515184611653565b905092915050565b6115256118ae565b6115368485600001515185856116aa565b90509392505050565b6115476118ae565b825182111561155557600080fd5b84602001518285611566919061275b565b111561159b5761159a85600261158b88602001518887611586919061275b565b611738565b6115959190612a96565b611754565b5b6000808651805187602083010193508088870111156115ba5787860182525b60208701925050505b6020841061160157805182526020826115dc919061275b565b91506020816115eb919061275b565b90506020846115fa9190612827565b93506115c3565b60006001856020036101000a03905080198251168184511681811785525050508692505050949350505050565b61163b8260028351611144565b61164e81836112c990919063ffffffff16565b505050565b61165b6118ae565b8360200151831061168157611680846002866020015161167b9190612a96565b611754565b5b835180516020858301018481538186141561169d576001820183525b5050508390509392505050565b6116b26118ae565b846020015184836116c3919061275b565b11156116eb576116ea85600286856116db919061275b565b6116e59190612a96565b611754565b5b60006001836101006116fd9190612c23565b6117079190612827565b9050855183868201018583198251161781528151858801111561172a5784870182525b505085915050949350505050565b60008183111561174a5782905061174e565b8190505b92915050565b60008260000151905061176783836110da565b5061177283826112c9565b50505050565b8280548282559060005260206000209081019282156117c7579160200282015b828111156117c65782518290805190602001906117b69291906118c8565b5091602001919060010190611798565b5b5090506117d4919061194e565b5090565b6040518060800160405280600063ffffffff168152602001600060ff168152602001600060ff168152602001606081525090565b6040518060800160405280600063ffffffff168152602001600064ffffffffff16815260200160608152602001606081525090565b6040518060a0016040528060008019168152602001600073ffffffffffffffffffffffffffffffffffffffff16815260200160007bffffffffffffffffffffffffffffffffffffffffffffffffffffffff19168152602001600081526020016118a86118ae565b81525090565b604051806040016040528060608152602001600081525090565b8280546118d4906124c7565b90600052602060002090601f0160209004810192826118f6576000855561193d565b82601f1061190f57805160ff191683800117855561193d565b8280016001018555821561193d579182015b8281111561193c578251825591602001919060010190611921565b5b50905061194a9190611972565b5090565b5b8082111561196e5760008181611965919061198f565b5060010161194f565b5090565b5b8082111561198b576000816000905550600101611973565b5090565b50805461199b906124c7565b6000825580601f106119ad57506119cc565b601f0160209004906000526020600020908101906119cb9190611972565b5b50565b6000604051905090565b600080fd5b600080fd5b6000819050919050565b6119f6816119e3565b8114611a0157600080fd5b50565b600081359050611a13816119ed565b92915050565b6000819050919050565b611a2c81611a19565b8114611a3757600080fd5b50565b600081359050611a4981611a23565b92915050565b600080600080600060a08688031215611a6b57611a6a6119d9565b5b6000611a7988828901611a04565b9550506020611a8a88828901611a3a565b9450506040611a9b88828901611a3a565b9350506060611aac88828901611a3a565b9250506080611abd88828901611a3a565b9150509295509295909350565b600080fd5b6000601f19601f8301169050919050565b7f4e487b7100000000000000000000000000000000000000000000000000000000600052604160045260246000fd5b611b1882611acf565b810181811067ffffffffffffffff82111715611b3757611b36611ae0565b5b80604052505050565b6000611b4a6119cf565b9050611b568282611b0f565b919050565b600067ffffffffffffffff821115611b7657611b75611ae0565b5b602082029050602081019050919050565b600080fd5b600080fd5b600067ffffffffffffffff821115611bac57611bab611ae0565b5b611bb582611acf565b9050602081019050919050565b82818337600083830152505050565b6000611be4611bdf84611b91565b611b40565b905082815260208101848484011115611c0057611bff611b8c565b5b611c0b848285611bc2565b509392505050565b600082601f830112611c2857611c27611aca565b5b8135611c38848260208601611bd1565b91505092915050565b6000611c54611c4f84611b5b565b611b40565b90508083825260208201905060208402830185811115611c7757611c76611b87565b5b835b81811015611cbe57803567ffffffffffffffff811115611c9c57611c9b611aca565b5b808601611ca98982611c13565b85526020850194505050602081019050611c79565b5050509392505050565b600082601f830112611cdd57611cdc611aca565b5b8135611ced848260208601611c41565b91505092915050565b60008060408385031215611d0d57611d0c6119d9565b5b6000611d1b85828601611a04565b925050602083013567ffffffffffffffff811115611d3c57611d3b6119de565b5b611d4885828601611cc8565b9150509250929050565b600073ffffffffffffffffffffffffffffffffffffffff82169050919050565b6000611d7d82611d52565b9050919050565b611d8d81611d72565b8114611d9857600080fd5b50565b600081359050611daa81611d84565b92915050565b60008060408385031215611dc757611dc66119d9565b5b6000611dd585828601611a3a565b9250506020611de685828601611d9b565b9150509250929050565b600080fd5b60008083601f840112611e0b57611e0a611aca565b5b8235905067ffffffffffffffff811115611e2857611e27611df0565b5b602083019150836020820283011115611e4457611e43611b87565b5b9250929050565b600080600080600080600060c0888a031215611e6a57611e696119d9565b5b6000611e788a828b01611a04565b9750506020611e898a828b01611a3a565b9650506040611e9a8a828b01611a3a565b9550506060611eab8a828b01611a3a565b9450506080611ebc8a828b01611a3a565b93505060a088013567ffffffffffffffff811115611edd57611edc6119de565b5b611ee98a828b01611df5565b925092505092959891949750929550565b6000611f0582611d52565b9050919050565b611f1581611efa565b8114611f2057600080fd5b50565b600081359050611f3281611f0c565b92915050565b600060208284031215611f4e57611f4d6119d9565b5b6000611f5c84828501611f23565b91505092915050565b60008060408385031215611f7c57611f7b6119d9565b5b6000611f8a85828601611a04565b9250506020611f9b85828601611a3a565b9150509250929050565b600081519050919050565b600082825260208201905092915050565b60005b83811015611fdf578082015181840152602081019050611fc4565b83811115611fee576000848401525b50505050565b6000611fff82611fa5565b6120098185611fb0565b9350612019818560208601611fc1565b61202281611acf565b840191505092915050565b600060208201905081810360008301526120478184611ff4565b905092915050565b61205881611efa565b82525050565b6000602082019050612073600083018461204f565b92915050565b600063ffffffff82169050919050565b61209281612079565b82525050565b600060ff82169050919050565b6120ae81612098565b82525050565b600081519050919050565b600082825260208201905092915050565b60006120db826120b4565b6120e581856120bf565b93506120f5818560208601611fc1565b6120fe81611acf565b840191505092915050565b60006080830160008301516121216000860182612089565b50602083015161213460208601826120a5565b50604083015161214760408601826120a5565b506060830151848203606086015261215f82826120d0565b9150508091505092915050565b600060208201905081810360008301526121868184612109565b905092915050565b600064ffffffffff82169050919050565b6121a88161218e565b82525050565b60006080830160008301516121c66000860182612089565b5060208301516121d9602086018261219f565b50604083015184820360408601526121f182826120d0565b9150506060830151848203606086015261220b82826120d0565b9150508091505092915050565b6000602082019050818103600083015261223281846121ae565b905092915050565b60007fffffffff0000000000000000000000000000000000000000000000000000000082169050919050565b61226f8161223a565b811461227a57600080fd5b50565b60008135905061228c81612266565b92915050565b600080600080608085870312156122ac576122ab6119d9565b5b60006122ba87828801611a04565b94505060206122cb87828801611a3a565b93505060406122dc8782880161227d565b92505060606122ed87828801611a3a565b91505092959194509250565b6000819050919050565b600061231e61231961231484611d52565b6122f9565b611d52565b9050919050565b600061233082612303565b9050919050565b600061234282612325565b9050919050565b61235281612337565b82525050565b61236181611a19565b82525050565b600060408201905061237c6000830185612349565b6123896020830184612358565b9392505050565b60008115159050919050565b6123a581612390565b81146123b057600080fd5b50565b6000815190506123c28161239c565b92915050565b6000602082840312156123de576123dd6119d9565b5b60006123ec848285016123b3565b91505092915050565b600082825260208201905092915050565b7f536f75726365206d75737420626520746865206f7261636c65206f662074686560008201527f2072657175657374000000000000000000000000000000000000000000000000602082015250565b60006124626028836123f5565b915061246d82612406565b604082019050919050565b6000602082019050818103600083015261249181612455565b9050919050565b7f4e487b7100000000000000000000000000000000000000000000000000000000600052602260045260246000fd5b600060028204905060018216806124df57607f821691505b602082108114156124f3576124f2612498565b5b50919050565b7f4e487b7100000000000000000000000000000000000000000000000000000000600052603260045260246000fd5b600060408201905061253d600083018561204f565b61254a6020830184612358565b9392505050565b6000819050602082019050919050565b600061256d825161223a565b80915050919050565b600082821b905092915050565b600061258e82611fa5565b8261259884612551565b90506125a381612561565b925060048210156125e3576125de7fffffffff0000000000000000000000000000000000000000000000000000000083600403600802612576565b831692505b5050919050565b60007fffffffffff00000000000000000000000000000000000000000000000000000082169050919050565b600061262282516125ea565b80915050919050565b600061263682611fa5565b8261264084612551565b905061264b81612616565b9250600582101561268b576126867fffffffffff00000000000000000000000000000000000000000000000000000083600503600802612576565b831692505b5050919050565b7f4e487b7100000000000000000000000000000000000000000000000000000000600052601160045260246000fd5b60006126cc82612098565b91506126d783612098565b92508260ff038211156126ed576126ec612692565b5b828201905092915050565b612701816119e3565b82525050565b6127108161223a565b82525050565b600060808201905061272b60008301876126f8565b6127386020830186612358565b6127456040830185612707565b6127526060830184612358565b95945050505050565b600061276682611a19565b915061277183611a19565b9250827fffffffffffffffffffffffffffffffffffffffffffffffffffffffffffffffff038211156127a6576127a5612692565b5b828201905092915050565b600060e0820190506127c6600083018a61204f565b6127d36020830189612358565b6127e060408301886126f8565b6127ed6060830187612707565b6127fa6080830186612358565b61280760a0830185612358565b81810360c08301526128198184611ff4565b905098975050505050505050565b600061283282611a19565b915061283d83611a19565b9250828210156128505761284f612692565b5b828203905092915050565b600061286682611a19565b91507fffffffffffffffffffffffffffffffffffffffffffffffffffffffffffffffff82141561289957612898612692565b5b600182019050919050565b7f4e487b7100000000000000000000000000000000000000000000000000000000600052601260045260246000fd5b60006128de82611a19565b91506128e983611a19565b9250826128f9576128f86128a4565b5b828206905092915050565b60006020820190506129196000830184612358565b92915050565b600061292a82612325565b9050919050565b60008160601b9050919050565b600061294982612931565b9050919050565b600061295b8261293e565b9050919050565b61297361296e8261291f565b612950565b82525050565b6000819050919050565b61299461298f82611a19565b612979565b82525050565b60006129a68285612962565b6014820191506129b68284612983565b6020820191508190509392505050565b60006060820190506129db600083018661204f565b6129e86020830185612358565b81810360408301526129fa8184611ff4565b9050949350505050565b7f756e61626c6520746f207472616e73666572416e6443616c6c20746f206f726160008201527f636c650000000000000000000000000000000000000000000000000000000000602082015250565b6000612a606023836123f5565b9150612a6b82612a04565b604082019050919050565b60006020820190508181036000830152612a8f81612a53565b9050919050565b6000612aa182611a19565b9150612aac83611a19565b9250817fffffffffffffffffffffffffffffffffffffffffffffffffffffffffffffffff0483118215151615612ae557612ae4612692565b5b828202905092915050565b60008160011c9050919050565b6000808291508390505b6001851115612b4757808604811115612b2357612b22612692565b5b6001851615612b325780820291505b8081029050612b4085612af0565b9450612b07565b94509492505050565b600082612b605760019050612c1c565b81612b6e5760009050612c1c565b8160018114612b845760028114612b8e57612bbd565b6001915050612c1c565b60ff841115612ba057612b9f612692565b5b8360020a915084821115612bb757612bb6612692565b5b50612c1c565b5060208310610133831016604e8410600b8410161715612bf25782820a905083811115612bed57612bec612692565b5b612c1c565b612bff8484846001612afd565b92509050818404811115612c1657612c15612692565b5b81810290505b9392505050565b6000612c2e82611a19565b9150612c3983611a19565b9250612c667fffffffffffffffffffffffffffffffffffffffffffffffffffffffffffffffff8484612b50565b90509291505056fea2646970667358221220ebffabee76d50c718815489db63a1178ba2d944636985d7c88e675f4e79ed62864736f6c63430008090033",
			"opcodes": "PUSH1 0x80 PUSH1 0x40 MSTORE PUSH1 0x1 PUSH1 0x4 SSTORE PUSH20 0xA36085F69E2889C224210F603D836748E7DC0088 PUSH1 0x6 PUSH1 0x0 PUSH2 0x100 EXP DUP2 SLOAD DUP2 PUSH20 0xFFFFFFFFFFFFFFFFFFFFFFFFFFFFFFFFFFFFFFFF MUL NOT AND SWAP1 DUP4 PUSH20 0xFFFFFFFFFFFFFFFFFFFFFFFFFFFFFFFFFFFFFFFF AND MUL OR SWAP1 SSTORE POP PUSH20 0xFB0951BA1929336D2F621CC0F0928D89A91D508F PUSH1 0x7 PUSH1 0x0 PUSH2 0x100 EXP DUP2 SLOAD DUP2 PUSH20 0xFFFFFFFFFFFFFFFFFFFFFFFFFFFFFFFFFFFFFFFF MUL NOT AND SWAP1 DUP4 PUSH20 0xFFFFFFFFFFFFFFFFFFFFFFFFFFFFFFFFFFFFFFFF AND MUL OR SWAP1 SSTORE POP CALLVALUE DUP1 ISZERO PUSH3 0xC0 JUMPI PUSH1 0x0 DUP1 REVERT JUMPDEST POP PUSH3 0xF4 PUSH1 0x6 PUSH1 0x0 SWAP1 SLOAD SWAP1 PUSH2 0x100 EXP SWAP1 DIV PUSH20 0xFFFFFFFFFFFFFFFFFFFFFFFFFFFFFFFFFFFFFFFF AND PUSH3 0x12D PUSH1 0x20 SHL PUSH1 0x20 SHR JUMP JUMPDEST PUSH3 0x127 PUSH1 0x7 PUSH1 0x0 SWAP1 SLOAD SWAP1 PUSH2 0x100 EXP SWAP1 DIV PUSH20 0xFFFFFFFFFFFFFFFFFFFFFFFFFFFFFFFFFFFFFFFF AND PUSH3 0x171 PUSH1 0x20 SHL PUSH1 0x20 SHR JUMP JUMPDEST PUSH3 0x1B5 JUMP JUMPDEST DUP1 PUSH1 0x2 PUSH1 0x0 PUSH2 0x100 EXP DUP2 SLOAD DUP2 PUSH20 0xFFFFFFFFFFFFFFFFFFFFFFFFFFFFFFFFFFFFFFFF MUL NOT AND SWAP1 DUP4 PUSH20 0xFFFFFFFFFFFFFFFFFFFFFFFFFFFFFFFFFFFFFFFF AND MUL OR SWAP1 SSTORE POP POP JUMP JUMPDEST DUP1 PUSH1 0x3 PUSH1 0x0 PUSH2 0x100 EXP DUP2 SLOAD DUP2 PUSH20 0xFFFFFFFFFFFFFFFFFFFFFFFFFFFFFFFFFFFFFFFF MUL NOT AND SWAP1 DUP4 PUSH20 0xFFFFFFFFFFFFFFFFFFFFFFFFFFFFFFFFFFFFFFFF AND MUL OR SWAP1 SSTORE POP POP JUMP JUMPDEST PUSH2 0x2CA4 DUP1 PUSH3 0x1C5 PUSH1 0x0 CODECOPY PUSH1 0x0 RETURN INVALID PUSH1 0x80 PUSH1 0x40 MSTORE CALLVALUE DUP1 ISZERO PUSH2 0x10 JUMPI PUSH1 0x0 DUP1 REVERT JUMPDEST POP PUSH1 0x4 CALLDATASIZE LT PUSH2 0xA8 JUMPI PUSH1 0x0 CALLDATALOAD PUSH1 0xE0 SHR DUP1 PUSH4 0x93D07072 GT PUSH2 0x71 JUMPI DUP1 PUSH4 0x93D07072 EQ PUSH2 0x139 JUMPI DUP1 PUSH4 0xA2943608 EQ PUSH2 0x155 JUMPI DUP1 PUSH4 0xB075F532 EQ PUSH2 0x185 JUMPI DUP1 PUSH4 0xDE00D107 EQ PUSH2 0x1A3 JUMPI DUP1 PUSH4 0xE3C046A7 EQ PUSH2 0x1D3 JUMPI DUP1 PUSH4 0xEC65D0F8 EQ PUSH2 0x203 JUMPI PUSH2 0xA8 JUMP JUMPDEST DUP1 PUSH3 0xAA2967 EQ PUSH2 0xAD JUMPI DUP1 PUSH4 0x303A712F EQ PUSH2 0xC9 JUMPI DUP1 PUSH4 0x41EA27CA EQ PUSH2 0xE5 JUMPI DUP1 PUSH4 0x49687CCA EQ PUSH2 0x101 JUMPI DUP1 PUSH4 0x7ADBF973 EQ PUSH2 0x11D JUMPI JUMPDEST PUSH1 0x0 DUP1 REVERT JUMPDEST PUSH2 0xC7 PUSH1 0x4 DUP1 CALLDATASIZE SUB DUP2 ADD SWAP1 PUSH2 0xC2 SWAP2 SWAP1 PUSH2 0x1A4F JUMP JUMPDEST PUSH2 0x21F JUMP JUMPDEST STOP JUMPDEST PUSH2 0xE3 PUSH1 0x4 DUP1 CALLDATASIZE SUB DUP2 ADD SWAP1 PUSH2 0xDE SWAP2 SWAP1 PUSH2 0x1CF6 JUMP JUMPDEST PUSH2 0x325 JUMP JUMPDEST STOP JUMPDEST PUSH2 0xFF PUSH1 0x4 DUP1 CALLDATASIZE SUB DUP2 ADD SWAP1 PUSH2 0xFA SWAP2 SWAP1 PUSH2 0x1DB0 JUMP JUMPDEST PUSH2 0x351 JUMP JUMPDEST STOP JUMPDEST PUSH2 0x11B PUSH1 0x4 DUP1 CALLDATASIZE SUB DUP2 ADD SWAP1 PUSH2 0x116 SWAP2 SWAP1 PUSH2 0x1E4B JUMP JUMPDEST PUSH2 0x3F9 JUMP JUMPDEST STOP JUMPDEST PUSH2 0x137 PUSH1 0x4 DUP1 CALLDATASIZE SUB DUP2 ADD SWAP1 PUSH2 0x132 SWAP2 SWAP1 PUSH2 0x1F38 JUMP JUMPDEST PUSH2 0x582 JUMP JUMPDEST STOP JUMPDEST PUSH2 0x153 PUSH1 0x4 DUP1 CALLDATASIZE SUB DUP2 ADD SWAP1 PUSH2 0x14E SWAP2 SWAP1 PUSH2 0x1CF6 JUMP JUMPDEST PUSH2 0x58E JUMP JUMPDEST STOP JUMPDEST PUSH2 0x16F PUSH1 0x4 DUP1 CALLDATASIZE SUB DUP2 ADD SWAP1 PUSH2 0x16A SWAP2 SWAP1 PUSH2 0x1F65 JUMP JUMPDEST PUSH2 0x6C0 JUMP JUMPDEST PUSH1 0x40 MLOAD PUSH2 0x17C SWAP2 SWAP1 PUSH2 0x202D JUMP JUMPDEST PUSH1 0x40 MLOAD DUP1 SWAP2 SUB SWAP1 RETURN JUMPDEST PUSH2 0x18D PUSH2 0x779 JUMP JUMPDEST PUSH1 0x40 MLOAD PUSH2 0x19A SWAP2 SWAP1 PUSH2 0x205E JUMP JUMPDEST PUSH1 0x40 MLOAD DUP1 SWAP2 SUB SWAP1 RETURN JUMPDEST PUSH2 0x1BD PUSH1 0x4 DUP1 CALLDATASIZE SUB DUP2 ADD SWAP1 PUSH2 0x1B8 SWAP2 SWAP1 PUSH2 0x1F65 JUMP JUMPDEST PUSH2 0x788 JUMP JUMPDEST PUSH1 0x40 MLOAD PUSH2 0x1CA SWAP2 SWAP1 PUSH2 0x216C JUMP JUMPDEST PUSH1 0x40 MLOAD DUP1 SWAP2 SUB SWAP1 RETURN JUMPDEST PUSH2 0x1ED PUSH1 0x4 DUP1 CALLDATASIZE SUB DUP2 ADD SWAP1 PUSH2 0x1E8 SWAP2 SWAP1 PUSH2 0x1F65 JUMP JUMPDEST PUSH2 0x858 JUMP JUMPDEST PUSH1 0x40 MLOAD PUSH2 0x1FA SWAP2 SWAP1 PUSH2 0x2218 JUMP JUMPDEST PUSH1 0x40 MLOAD DUP1 SWAP2 SUB SWAP1 RETURN JUMPDEST PUSH2 0x21D PUSH1 0x4 DUP1 CALLDATASIZE SUB DUP2 ADD SWAP1 PUSH2 0x218 SWAP2 SWAP1 PUSH2 0x2292 JUMP JUMPDEST PUSH2 0x928 JUMP JUMPDEST STOP JUMPDEST PUSH1 0x0 PUSH2 0x232 DUP7 PUSH4 0x93D07072 PUSH1 0xE0 SHL PUSH2 0x93A JUMP JUMPDEST SWAP1 POP PUSH2 0x27E PUSH1 0x40 MLOAD DUP1 PUSH1 0x40 ADD PUSH1 0x40 MSTORE DUP1 PUSH1 0x6 DUP2 MSTORE PUSH1 0x20 ADD PUSH32 0x6D61726B65740000000000000000000000000000000000000000000000000000 DUP2 MSTORE POP DUP6 DUP4 PUSH2 0x96A SWAP1 SWAP3 SWAP2 SWAP1 PUSH4 0xFFFFFFFF AND JUMP JUMPDEST PUSH2 0x2C8 PUSH1 0x40 MLOAD DUP1 PUSH1 0x40 ADD PUSH1 0x40 MSTORE DUP1 PUSH1 0x8 DUP2 MSTORE PUSH1 0x20 ADD PUSH32 0x6C65616775654964000000000000000000000000000000000000000000000000 DUP2 MSTORE POP DUP5 DUP4 PUSH2 0x96A SWAP1 SWAP3 SWAP2 SWAP1 PUSH4 0xFFFFFFFF AND JUMP JUMPDEST PUSH2 0x312 PUSH1 0x40 MLOAD DUP1 PUSH1 0x40 ADD PUSH1 0x40 MSTORE DUP1 PUSH1 0x4 DUP2 MSTORE PUSH1 0x20 ADD PUSH32 0x6461746500000000000000000000000000000000000000000000000000000000 DUP2 MSTORE POP DUP4 DUP4 PUSH2 0x96A SWAP1 SWAP3 SWAP2 SWAP1 PUSH4 0xFFFFFFFF AND JUMP JUMPDEST PUSH2 0x31C DUP2 DUP7 PUSH2 0x99D JUMP JUMPDEST POP POP POP POP POP POP POP JUMP JUMPDEST DUP1 PUSH1 0x8 PUSH1 0x0 DUP5 DUP2 MSTORE PUSH1 0x20 ADD SWAP1 DUP2 MSTORE PUSH1 0x20 ADD PUSH1 0x0 KECCAK256 SWAP1 DUP1 MLOAD SWAP1 PUSH1 0x20 ADD SWAP1 PUSH2 0x34C SWAP3 SWAP2 SWAP1 PUSH2 0x1778 JUMP JUMPDEST POP POP POP JUMP JUMPDEST PUSH1 0x0 PUSH2 0x35B PUSH2 0x9D4 JUMP JUMPDEST SWAP1 POP PUSH2 0x3F4 DUP2 PUSH20 0xFFFFFFFFFFFFFFFFFFFFFFFFFFFFFFFFFFFFFFFF AND PUSH4 0xA9059CBB DUP5 DUP7 PUSH1 0x40 MLOAD DUP4 PUSH4 0xFFFFFFFF AND PUSH1 0xE0 SHL DUP2 MSTORE PUSH1 0x4 ADD PUSH2 0x39B SWAP3 SWAP2 SWAP1 PUSH2 0x2367 JUMP JUMPDEST PUSH1 0x20 PUSH1 0x40 MLOAD DUP1 DUP4 SUB DUP2 PUSH1 0x0 DUP8 DUP1 EXTCODESIZE ISZERO DUP1 ISZERO PUSH2 0x3B5 JUMPI PUSH1 0x0 DUP1 REVERT JUMPDEST POP GAS CALL ISZERO DUP1 ISZERO PUSH2 0x3C9 JUMPI RETURNDATASIZE PUSH1 0x0 DUP1 RETURNDATACOPY RETURNDATASIZE PUSH1 0x0 REVERT JUMPDEST POP POP POP POP PUSH1 0x40 MLOAD RETURNDATASIZE PUSH1 0x1F NOT PUSH1 0x1F DUP3 ADD AND DUP3 ADD DUP1 PUSH1 0x40 MSTORE POP DUP2 ADD SWAP1 PUSH2 0x3ED SWAP2 SWAP1 PUSH2 0x23C8 JUMP JUMPDEST DUP4 DUP6 PUSH2 0x9FE JUMP JUMPDEST POP POP POP JUMP JUMPDEST PUSH1 0x0 PUSH2 0x40C DUP9 PUSH4 0x93D07072 PUSH1 0xE0 SHL PUSH2 0x93A JUMP JUMPDEST SWAP1 POP PUSH2 0x458 PUSH1 0x40 MLOAD DUP1 PUSH1 0x40 ADD PUSH1 0x40 MSTORE DUP1 PUSH1 0x6 DUP2 MSTORE PUSH1 0x20 ADD PUSH32 0x6D61726B65740000000000000000000000000000000000000000000000000000 DUP2 MSTORE POP DUP8 DUP4 PUSH2 0x96A SWAP1 SWAP3 SWAP2 SWAP1 PUSH4 0xFFFFFFFF AND JUMP JUMPDEST PUSH2 0x4A2 PUSH1 0x40 MLOAD DUP1 PUSH1 0x40 ADD PUSH1 0x40 MSTORE DUP1 PUSH1 0x8 DUP2 MSTORE PUSH1 0x20 ADD PUSH32 0x6C65616775654964000000000000000000000000000000000000000000000000 DUP2 MSTORE POP DUP7 DUP4 PUSH2 0x96A SWAP1 SWAP3 SWAP2 SWAP1 PUSH4 0xFFFFFFFF AND JUMP JUMPDEST PUSH2 0x4EC PUSH1 0x40 MLOAD DUP1 PUSH1 0x40 ADD PUSH1 0x40 MSTORE DUP1 PUSH1 0x4 DUP2 MSTORE PUSH1 0x20 ADD PUSH32 0x6461746500000000000000000000000000000000000000000000000000000000 DUP2 MSTORE POP DUP6 DUP4 PUSH2 0x96A SWAP1 SWAP3 SWAP2 SWAP1 PUSH4 0xFFFFFFFF AND JUMP JUMPDEST PUSH2 0x56D DUP2 PUSH1 0x40 MLOAD DUP1 PUSH1 0x40 ADD PUSH1 0x40 MSTORE DUP1 PUSH1 0x7 DUP2 MSTORE PUSH1 0x20 ADD PUSH32 0x67616D6549647300000000000000000000000000000000000000000000000000 DUP2 MSTORE POP DUP6 DUP6 DUP1 DUP1 PUSH1 0x20 MUL PUSH1 0x20 ADD PUSH1 0x40 MLOAD SWAP1 DUP2 ADD PUSH1 0x40 MSTORE DUP1 SWAP4 SWAP3 SWAP2 SWAP1 DUP2 DUP2 MSTORE PUSH1 0x20 ADD DUP4 DUP4 PUSH1 0x20 MUL DUP1 DUP3 DUP5 CALLDATACOPY PUSH1 0x0 DUP2 DUP5 ADD MSTORE PUSH1 0x1F NOT PUSH1 0x1F DUP3 ADD AND SWAP1 POP DUP1 DUP4 ADD SWAP3 POP POP POP POP POP POP POP PUSH2 0xA47 JUMP JUMPDEST PUSH2 0x577 DUP2 DUP9 PUSH2 0x99D JUMP JUMPDEST POP POP POP POP POP POP POP POP POP JUMP JUMPDEST PUSH2 0x58B DUP2 PUSH2 0xAD5 JUMP JUMPDEST POP JUMP JUMPDEST DUP2 PUSH1 0x5 PUSH1 0x0 DUP3 DUP2 MSTORE PUSH1 0x20 ADD SWAP1 DUP2 MSTORE PUSH1 0x20 ADD PUSH1 0x0 KECCAK256 PUSH1 0x0 SWAP1 SLOAD SWAP1 PUSH2 0x100 EXP SWAP1 DIV PUSH20 0xFFFFFFFFFFFFFFFFFFFFFFFFFFFFFFFFFFFFFFFF AND PUSH20 0xFFFFFFFFFFFFFFFFFFFFFFFFFFFFFFFFFFFFFFFF AND CALLER PUSH20 0xFFFFFFFFFFFFFFFFFFFFFFFFFFFFFFFFFFFFFFFF AND EQ PUSH2 0x630 JUMPI PUSH1 0x40 MLOAD PUSH32 0x8C379A000000000000000000000000000000000000000000000000000000000 DUP2 MSTORE PUSH1 0x4 ADD PUSH2 0x627 SWAP1 PUSH2 0x2478 JUMP JUMPDEST PUSH1 0x40 MLOAD DUP1 SWAP2 SUB SWAP1 REVERT JUMPDEST PUSH1 0x5 PUSH1 0x0 DUP3 DUP2 MSTORE PUSH1 0x20 ADD SWAP1 DUP2 MSTORE PUSH1 0x20 ADD PUSH1 0x0 KECCAK256 PUSH1 0x0 PUSH2 0x100 EXP DUP2 SLOAD SWAP1 PUSH20 0xFFFFFFFFFFFFFFFFFFFFFFFFFFFFFFFFFFFFFFFF MUL NOT AND SWAP1 SSTORE DUP1 PUSH32 0x7CC135E0CEBB02C3480AE5D74D377283180A2601F8F644EDF7987B009316C63A PUSH1 0x40 MLOAD PUSH1 0x40 MLOAD DUP1 SWAP2 SUB SWAP1 LOG2 DUP2 PUSH1 0x8 PUSH1 0x0 DUP6 DUP2 MSTORE PUSH1 0x20 ADD SWAP1 DUP2 MSTORE PUSH1 0x20 ADD PUSH1 0x0 KECCAK256 SWAP1 DUP1 MLOAD SWAP1 PUSH1 0x20 ADD SWAP1 PUSH2 0x6BA SWAP3 SWAP2 SWAP1 PUSH2 0x1778 JUMP JUMPDEST POP POP POP POP JUMP JUMPDEST PUSH1 0x8 PUSH1 0x20 MSTORE DUP2 PUSH1 0x0 MSTORE PUSH1 0x40 PUSH1 0x0 KECCAK256 DUP2 DUP2 SLOAD DUP2 LT PUSH2 0x6DC JUMPI PUSH1 0x0 DUP1 REVERT JUMPDEST SWAP1 PUSH1 0x0 MSTORE PUSH1 0x20 PUSH1 0x0 KECCAK256 ADD PUSH1 0x0 SWAP2 POP SWAP2 POP POP DUP1 SLOAD PUSH2 0x6F8 SWAP1 PUSH2 0x24C7 JUMP JUMPDEST DUP1 PUSH1 0x1F ADD PUSH1 0x20 DUP1 SWAP2 DIV MUL PUSH1 0x20 ADD PUSH1 0x40 MLOAD SWAP1 DUP2 ADD PUSH1 0x40 MSTORE DUP1 SWAP3 SWAP2 SWAP1 DUP2 DUP2 MSTORE PUSH1 0x20 ADD DUP3 DUP1 SLOAD PUSH2 0x724 SWAP1 PUSH2 0x24C7 JUMP JUMPDEST DUP1 ISZERO PUSH2 0x771 JUMPI DUP1 PUSH1 0x1F LT PUSH2 0x746 JUMPI PUSH2 0x100 DUP1 DUP4 SLOAD DIV MUL DUP4 MSTORE SWAP2 PUSH1 0x20 ADD SWAP2 PUSH2 0x771 JUMP JUMPDEST DUP3 ADD SWAP2 SWAP1 PUSH1 0x0 MSTORE PUSH1 0x20 PUSH1 0x0 KECCAK256 SWAP1 JUMPDEST DUP2 SLOAD DUP2 MSTORE SWAP1 PUSH1 0x1 ADD SWAP1 PUSH1 0x20 ADD DUP1 DUP4 GT PUSH2 0x754 JUMPI DUP3 SWAP1 SUB PUSH1 0x1F AND DUP3 ADD SWAP2 JUMPDEST POP POP POP POP POP DUP2 JUMP JUMPDEST PUSH1 0x0 PUSH2 0x783 PUSH2 0xB19 JUMP JUMPDEST SWAP1 POP SWAP1 JUMP JUMPDEST PUSH2 0x790 PUSH2 0x17D8 JUMP JUMPDEST PUSH2 0x850 PUSH1 0x8 PUSH1 0x0 DUP6 DUP2 MSTORE PUSH1 0x20 ADD SWAP1 DUP2 MSTORE PUSH1 0x20 ADD PUSH1 0x0 KECCAK256 DUP4 DUP2 SLOAD DUP2 LT PUSH2 0x7B8 JUMPI PUSH2 0x7B7 PUSH2 0x24F9 JUMP JUMPDEST JUMPDEST SWAP1 PUSH1 0x0 MSTORE PUSH1 0x20 PUSH1 0x0 KECCAK256 ADD DUP1 SLOAD PUSH2 0x7CD SWAP1 PUSH2 0x24C7 JUMP JUMPDEST DUP1 PUSH1 0x1F ADD PUSH1 0x20 DUP1 SWAP2 DIV MUL PUSH1 0x20 ADD PUSH1 0x40 MLOAD SWAP1 DUP2 ADD PUSH1 0x40 MSTORE DUP1 SWAP3 SWAP2 SWAP1 DUP2 DUP2 MSTORE PUSH1 0x20 ADD DUP3 DUP1 SLOAD PUSH2 0x7F9 SWAP1 PUSH2 0x24C7 JUMP JUMPDEST DUP1 ISZERO PUSH2 0x846 JUMPI DUP1 PUSH1 0x1F LT PUSH2 0x81B JUMPI PUSH2 0x100 DUP1 DUP4 SLOAD DIV MUL DUP4 MSTORE SWAP2 PUSH1 0x20 ADD SWAP2 PUSH2 0x846 JUMP JUMPDEST DUP3 ADD SWAP2 SWAP1 PUSH1 0x0 MSTORE PUSH1 0x20 PUSH1 0x0 KECCAK256 SWAP1 JUMPDEST DUP2 SLOAD DUP2 MSTORE SWAP1 PUSH1 0x1 ADD SWAP1 PUSH1 0x20 ADD DUP1 DUP4 GT PUSH2 0x829 JUMPI DUP3 SWAP1 SUB PUSH1 0x1F AND DUP3 ADD SWAP2 JUMPDEST POP POP POP POP POP PUSH2 0xB43 JUMP JUMPDEST SWAP1 POP SWAP3 SWAP2 POP POP JUMP JUMPDEST PUSH2 0x860 PUSH2 0x180C JUMP JUMPDEST PUSH2 0x920 PUSH1 0x8 PUSH1 0x0 DUP6 DUP2 MSTORE PUSH1 0x20 ADD SWAP1 DUP2 MSTORE PUSH1 0x20 ADD PUSH1 0x0 KECCAK256 DUP4 DUP2 SLOAD DUP2 LT PUSH2 0x888 JUMPI PUSH2 0x887 PUSH2 0x24F9 JUMP JUMPDEST JUMPDEST SWAP1 PUSH1 0x0 MSTORE PUSH1 0x20 PUSH1 0x0 KECCAK256 ADD DUP1 SLOAD PUSH2 0x89D SWAP1 PUSH2 0x24C7 JUMP JUMPDEST DUP1 PUSH1 0x1F ADD PUSH1 0x20 DUP1 SWAP2 DIV MUL PUSH1 0x20 ADD PUSH1 0x40 MLOAD SWAP1 DUP2 ADD PUSH1 0x40 MSTORE DUP1 SWAP3 SWAP2 SWAP1 DUP2 DUP2 MSTORE PUSH1 0x20 ADD DUP3 DUP1 SLOAD PUSH2 0x8C9 SWAP1 PUSH2 0x24C7 JUMP JUMPDEST DUP1 ISZERO PUSH2 0x916 JUMPI DUP1 PUSH1 0x1F LT PUSH2 0x8EB JUMPI PUSH2 0x100 DUP1 DUP4 SLOAD DIV MUL DUP4 MSTORE SWAP2 PUSH1 0x20 ADD SWAP2 PUSH2 0x916 JUMP JUMPDEST DUP3 ADD SWAP2 SWAP1 PUSH1 0x0 MSTORE PUSH1 0x20 PUSH1 0x0 KECCAK256 SWAP1 JUMPDEST DUP2 SLOAD DUP2 MSTORE SWAP1 PUSH1 0x1 ADD SWAP1 PUSH1 0x20 ADD DUP1 DUP4 GT PUSH2 0x8F9 JUMPI DUP3 SWAP1 SUB PUSH1 0x1F AND DUP3 ADD SWAP2 JUMPDEST POP POP POP POP POP PUSH2 0xC03 JUMP JUMPDEST SWAP1 POP SWAP3 SWAP2 POP POP JUMP JUMPDEST PUSH2 0x934 DUP5 DUP5 DUP5 DUP5 PUSH2 0xCE0 JUMP JUMPDEST POP POP POP POP JUMP JUMPDEST PUSH2 0x942 PUSH2 0x1841 JUMP JUMPDEST PUSH2 0x94A PUSH2 0x1841 JUMP JUMPDEST PUSH2 0x961 DUP5 ADDRESS DUP6 DUP5 PUSH2 0xDF3 SWAP1 SWAP4 SWAP3 SWAP2 SWAP1 PUSH4 0xFFFFFFFF AND JUMP JUMPDEST SWAP2 POP POP SWAP3 SWAP2 POP POP JUMP JUMPDEST PUSH2 0x981 DUP3 DUP5 PUSH1 0x80 ADD MLOAD PUSH2 0xEA3 SWAP1 SWAP2 SWAP1 PUSH4 0xFFFFFFFF AND JUMP JUMPDEST PUSH2 0x998 DUP2 DUP5 PUSH1 0x80 ADD MLOAD PUSH2 0xEC8 SWAP1 SWAP2 SWAP1 PUSH4 0xFFFFFFFF AND JUMP JUMPDEST POP POP POP JUMP JUMPDEST PUSH1 0x0 PUSH2 0x9CC PUSH1 0x3 PUSH1 0x0 SWAP1 SLOAD SWAP1 PUSH2 0x100 EXP SWAP1 DIV PUSH20 0xFFFFFFFFFFFFFFFFFFFFFFFFFFFFFFFFFFFFFFFF AND DUP5 DUP5 PUSH2 0xEF8 JUMP JUMPDEST SWAP1 POP SWAP3 SWAP2 POP POP JUMP JUMPDEST PUSH1 0x0 PUSH1 0x2 PUSH1 0x0 SWAP1 SLOAD SWAP1 PUSH2 0x100 EXP SWAP1 DIV PUSH20 0xFFFFFFFFFFFFFFFFFFFFFFFFFFFFFFFFFFFFFFFF AND SWAP1 POP SWAP1 JUMP JUMPDEST DUP3 PUSH2 0xA42 JUMPI DUP2 DUP2 PUSH1 0x40 MLOAD PUSH32 0x7AB2F97700000000000000000000000000000000000000000000000000000000 DUP2 MSTORE PUSH1 0x4 ADD PUSH2 0xA39 SWAP3 SWAP2 SWAP1 PUSH2 0x2528 JUMP JUMPDEST PUSH1 0x40 MLOAD DUP1 SWAP2 SUB SWAP1 REVERT JUMPDEST POP POP POP JUMP JUMPDEST PUSH1 0x0 DUP4 SWAP1 POP PUSH2 0xA63 DUP4 DUP3 PUSH1 0x80 ADD MLOAD PUSH2 0xEA3 SWAP1 SWAP2 SWAP1 PUSH4 0xFFFFFFFF AND JUMP JUMPDEST PUSH2 0xA70 DUP2 PUSH1 0x80 ADD MLOAD PUSH2 0xFC2 JUMP JUMPDEST PUSH1 0x0 DUP3 MLOAD SWAP1 POP PUSH1 0x0 JUMPDEST DUP2 DUP2 LT ISZERO PUSH2 0xABD JUMPI PUSH2 0xAB2 DUP5 DUP3 DUP2 MLOAD DUP2 LT PUSH2 0xA97 JUMPI PUSH2 0xA96 PUSH2 0x24F9 JUMP JUMPDEST JUMPDEST PUSH1 0x20 MUL PUSH1 0x20 ADD ADD MLOAD DUP5 PUSH1 0x80 ADD MLOAD PUSH2 0xEC8 SWAP1 SWAP2 SWAP1 PUSH4 0xFFFFFFFF AND JUMP JUMPDEST DUP1 PUSH1 0x1 ADD SWAP1 POP PUSH2 0xA79 JUMP JUMPDEST POP PUSH2 0xACB DUP3 PUSH1 0x80 ADD MLOAD PUSH2 0xFD0 JUMP JUMPDEST DUP2 SWAP5 POP POP POP POP POP POP JUMP JUMPDEST DUP1 PUSH1 0x3 PUSH1 0x0 PUSH2 0x100 EXP DUP2 SLOAD DUP2 PUSH20 0xFFFFFFFFFFFFFFFFFFFFFFFFFFFFFFFFFFFFFFFF MUL NOT AND SWAP1 DUP4 PUSH20 0xFFFFFFFFFFFFFFFFFFFFFFFFFFFFFFFFFFFFFFFF AND MUL OR SWAP1 SSTORE POP POP JUMP JUMPDEST PUSH1 0x0 PUSH1 0x3 PUSH1 0x0 SWAP1 SLOAD SWAP1 PUSH2 0x100 EXP SWAP1 DIV PUSH20 0xFFFFFFFFFFFFFFFFFFFFFFFFFFFFFFFFFFFFFFFF AND SWAP1 POP SWAP1 JUMP JUMPDEST PUSH2 0xB4B PUSH2 0x17D8 JUMP JUMPDEST PUSH1 0x0 PUSH2 0xB5A PUSH1 0x0 PUSH1 0x4 DUP6 PUSH2 0xFDE JUMP JUMPDEST PUSH2 0xB63 SWAP1 PUSH2 0x2583 JUMP JUMPDEST PUSH1 0xE0 SHR SWAP1 POP PUSH1 0x0 DUP4 PUSH1 0x4 DUP2 MLOAD DUP2 LT PUSH2 0xB7E JUMPI PUSH2 0xB7D PUSH2 0x24F9 JUMP JUMPDEST JUMPDEST PUSH1 0x20 ADD ADD MLOAD PUSH1 0xF8 SHR PUSH1 0xF8 SHL PUSH1 0xF8 SHR SWAP1 POP PUSH1 0x0 DUP5 PUSH1 0x5 DUP2 MLOAD DUP2 LT PUSH2 0xBA4 JUMPI PUSH2 0xBA3 PUSH2 0x24F9 JUMP JUMPDEST JUMPDEST PUSH1 0x20 ADD ADD MLOAD PUSH1 0xF8 SHR PUSH1 0xF8 SHL PUSH1 0xF8 SHR SWAP1 POP PUSH1 0x0 PUSH2 0xBC3 PUSH1 0x6 DUP8 MLOAD DUP9 PUSH2 0xFDE JUMP JUMPDEST SWAP1 POP PUSH1 0x0 PUSH1 0x40 MLOAD DUP1 PUSH1 0x80 ADD PUSH1 0x40 MSTORE DUP1 DUP7 PUSH4 0xFFFFFFFF AND DUP2 MSTORE PUSH1 0x20 ADD DUP6 PUSH1 0xFF AND DUP2 MSTORE PUSH1 0x20 ADD DUP5 PUSH1 0xFF AND DUP2 MSTORE PUSH1 0x20 ADD DUP4 DUP2 MSTORE POP SWAP1 POP DUP1 SWAP6 POP POP POP POP POP POP SWAP2 SWAP1 POP JUMP JUMPDEST PUSH2 0xC0B PUSH2 0x180C JUMP JUMPDEST PUSH1 0x0 PUSH2 0xC1A PUSH1 0x0 PUSH1 0x4 DUP6 PUSH2 0xFDE JUMP JUMPDEST PUSH2 0xC23 SWAP1 PUSH2 0x2583 JUMP JUMPDEST PUSH1 0xE0 SHR SWAP1 POP PUSH1 0x0 PUSH2 0xC37 PUSH1 0x4 PUSH1 0x9 DUP7 PUSH2 0xFDE JUMP JUMPDEST PUSH2 0xC40 SWAP1 PUSH2 0x262B JUMP JUMPDEST PUSH1 0xD8 SHR SWAP1 POP PUSH1 0x0 DUP5 PUSH1 0x9 DUP2 MLOAD DUP2 LT PUSH2 0xC5B JUMPI PUSH2 0xC5A PUSH2 0x24F9 JUMP JUMPDEST JUMPDEST PUSH1 0x20 ADD ADD MLOAD PUSH1 0xF8 SHR PUSH1 0xF8 SHL PUSH1 0xF8 SHR SWAP1 POP PUSH1 0x0 DUP2 PUSH1 0xA PUSH2 0xC7A SWAP2 SWAP1 PUSH2 0x26C1 JUMP JUMPDEST PUSH1 0xFF AND SWAP1 POP PUSH1 0x0 PUSH2 0xC8D PUSH1 0xA DUP4 DUP10 PUSH2 0xFDE JUMP JUMPDEST SWAP1 POP PUSH1 0x0 PUSH2 0xC9D DUP4 DUP10 MLOAD DUP11 PUSH2 0xFDE JUMP JUMPDEST SWAP1 POP PUSH1 0x0 PUSH1 0x40 MLOAD DUP1 PUSH1 0x80 ADD PUSH1 0x40 MSTORE DUP1 DUP9 PUSH4 0xFFFFFFFF AND DUP2 MSTORE PUSH1 0x20 ADD DUP8 PUSH5 0xFFFFFFFFFF AND DUP2 MSTORE PUSH1 0x20 ADD DUP5 DUP2 MSTORE PUSH1 0x20 ADD DUP4 DUP2 MSTORE POP SWAP1 POP DUP1 SWAP8 POP POP POP POP POP POP POP POP SWAP2 SWAP1 POP JUMP JUMPDEST PUSH1 0x0 PUSH1 0x5 PUSH1 0x0 DUP7 DUP2 MSTORE PUSH1 0x20 ADD SWAP1 DUP2 MSTORE PUSH1 0x20 ADD PUSH1 0x0 KECCAK256 PUSH1 0x0 SWAP1 SLOAD SWAP1 PUSH2 0x100 EXP SWAP1 DIV PUSH20 0xFFFFFFFFFFFFFFFFFFFFFFFFFFFFFFFFFFFFFFFF AND SWAP1 POP PUSH1 0x5 PUSH1 0x0 DUP7 DUP2 MSTORE PUSH1 0x20 ADD SWAP1 DUP2 MSTORE PUSH1 0x20 ADD PUSH1 0x0 KECCAK256 PUSH1 0x0 PUSH2 0x100 EXP DUP2 SLOAD SWAP1 PUSH20 0xFFFFFFFFFFFFFFFFFFFFFFFFFFFFFFFFFFFFFFFF MUL NOT AND SWAP1 SSTORE DUP5 PUSH32 0xE1FE3AFA0F7F761FF0A8B89086790EFD5140D2907EBD5B7FF6BFCB5E075FD4C5 PUSH1 0x40 MLOAD PUSH1 0x40 MLOAD DUP1 SWAP2 SUB SWAP1 LOG2 DUP1 PUSH20 0xFFFFFFFFFFFFFFFFFFFFFFFFFFFFFFFFFFFFFFFF AND PUSH4 0x6EE4D553 DUP7 DUP7 DUP7 DUP7 PUSH1 0x40 MLOAD DUP6 PUSH4 0xFFFFFFFF AND PUSH1 0xE0 SHL DUP2 MSTORE PUSH1 0x4 ADD PUSH2 0xDBA SWAP5 SWAP4 SWAP3 SWAP2 SWAP1 PUSH2 0x2716 JUMP JUMPDEST PUSH1 0x0 PUSH1 0x40 MLOAD DUP1 DUP4 SUB DUP2 PUSH1 0x0 DUP8 DUP1 EXTCODESIZE ISZERO DUP1 ISZERO PUSH2 0xDD4 JUMPI PUSH1 0x0 DUP1 REVERT JUMPDEST POP GAS CALL ISZERO DUP1 ISZERO PUSH2 0xDE8 JUMPI RETURNDATASIZE PUSH1 0x0 DUP1 RETURNDATACOPY RETURNDATASIZE PUSH1 0x0 REVERT JUMPDEST POP POP POP POP POP POP POP POP POP JUMP JUMPDEST PUSH2 0xDFB PUSH2 0x1841 JUMP JUMPDEST PUSH2 0xE0B DUP6 PUSH1 0x80 ADD MLOAD PUSH2 0x100 PUSH2 0x10DA JUMP JUMPDEST POP DUP4 DUP6 PUSH1 0x0 ADD DUP2 DUP2 MSTORE POP POP DUP3 DUP6 PUSH1 0x20 ADD SWAP1 PUSH20 0xFFFFFFFFFFFFFFFFFFFFFFFFFFFFFFFFFFFFFFFF AND SWAP1 DUP2 PUSH20 0xFFFFFFFFFFFFFFFFFFFFFFFFFFFFFFFFFFFFFFFF AND DUP2 MSTORE POP POP DUP2 DUP6 PUSH1 0x40 ADD SWAP1 PUSH28 0xFFFFFFFFFFFFFFFFFFFFFFFFFFFFFFFFFFFFFFFFFFFFFFFFFFFFFFFF NOT AND SWAP1 DUP2 PUSH28 0xFFFFFFFFFFFFFFFFFFFFFFFFFFFFFFFFFFFFFFFFFFFFFFFFFFFFFFFF NOT AND DUP2 MSTORE POP POP DUP5 SWAP1 POP SWAP5 SWAP4 POP POP POP POP JUMP JUMPDEST PUSH2 0xEB0 DUP3 PUSH1 0x3 DUP4 MLOAD PUSH2 0x1144 JUMP JUMPDEST PUSH2 0xEC3 DUP2 DUP4 PUSH2 0x12C9 SWAP1 SWAP2 SWAP1 PUSH4 0xFFFFFFFF AND JUMP JUMPDEST POP POP POP JUMP JUMPDEST PUSH8 0xFFFFFFFFFFFFFFFF DUP2 GT ISZERO PUSH2 0xEE7 JUMPI PUSH2 0xEE2 DUP3 DUP3 PUSH2 0x12EB JUMP JUMPDEST PUSH2 0xEF4 JUMP JUMPDEST PUSH2 0xEF3 DUP3 PUSH1 0x0 DUP4 PUSH2 0x1144 JUMP JUMPDEST JUMPDEST POP POP JUMP JUMPDEST PUSH1 0x0 DUP1 PUSH1 0x4 SLOAD SWAP1 POP PUSH1 0x1 DUP2 PUSH2 0xF0D SWAP2 SWAP1 PUSH2 0x275B JUMP JUMPDEST PUSH1 0x4 DUP2 SWAP1 SSTORE POP PUSH1 0x0 PUSH4 0x3C6D41B9 PUSH1 0xE0 SHL PUSH1 0x0 DUP1 DUP8 PUSH1 0x0 ADD MLOAD DUP9 PUSH1 0x40 ADD MLOAD DUP7 PUSH1 0x2 DUP12 PUSH1 0x80 ADD MLOAD PUSH1 0x0 ADD MLOAD PUSH1 0x40 MLOAD PUSH1 0x24 ADD PUSH2 0xF4C SWAP8 SWAP7 SWAP6 SWAP5 SWAP4 SWAP3 SWAP2 SWAP1 PUSH2 0x27B1 JUMP JUMPDEST PUSH1 0x40 MLOAD PUSH1 0x20 DUP2 DUP4 SUB SUB DUP2 MSTORE SWAP1 PUSH1 0x40 MSTORE SWAP1 PUSH28 0xFFFFFFFFFFFFFFFFFFFFFFFFFFFFFFFFFFFFFFFFFFFFFFFFFFFFFFFF NOT AND PUSH1 0x20 DUP3 ADD DUP1 MLOAD PUSH28 0xFFFFFFFFFFFFFFFFFFFFFFFFFFFFFFFFFFFFFFFFFFFFFFFFFFFFFFFF DUP4 DUP2 DUP4 AND OR DUP4 MSTORE POP POP POP POP SWAP1 POP PUSH2 0xFB7 DUP7 DUP4 DUP7 DUP5 PUSH2 0x1337 JUMP JUMPDEST SWAP3 POP POP POP SWAP4 SWAP3 POP POP POP JUMP JUMPDEST PUSH2 0xFCD DUP2 PUSH1 0x4 PUSH2 0x14DB JUMP JUMPDEST POP JUMP JUMPDEST PUSH2 0xFDB DUP2 PUSH1 0x7 PUSH2 0x14DB JUMP JUMPDEST POP JUMP JUMPDEST PUSH1 0x60 PUSH1 0x0 DUP5 DUP5 PUSH2 0xFEE SWAP2 SWAP1 PUSH2 0x2827 JUMP JUMPDEST PUSH8 0xFFFFFFFFFFFFFFFF DUP2 GT ISZERO PUSH2 0x1007 JUMPI PUSH2 0x1006 PUSH2 0x1AE0 JUMP JUMPDEST JUMPDEST PUSH1 0x40 MLOAD SWAP1 DUP1 DUP3 MSTORE DUP1 PUSH1 0x1F ADD PUSH1 0x1F NOT AND PUSH1 0x20 ADD DUP3 ADD PUSH1 0x40 MSTORE DUP1 ISZERO PUSH2 0x1039 JUMPI DUP2 PUSH1 0x20 ADD PUSH1 0x1 DUP3 MUL DUP1 CALLDATASIZE DUP4 CALLDATACOPY DUP1 DUP3 ADD SWAP2 POP POP SWAP1 POP JUMPDEST POP SWAP1 POP PUSH1 0x0 JUMPDEST DUP6 DUP6 PUSH2 0x104B SWAP2 SWAP1 PUSH2 0x2827 JUMP JUMPDEST DUP2 LT ISZERO PUSH2 0x10CE JUMPI DUP4 DUP2 DUP8 PUSH2 0x105F SWAP2 SWAP1 PUSH2 0x275B JUMP JUMPDEST DUP2 MLOAD DUP2 LT PUSH2 0x1070 JUMPI PUSH2 0x106F PUSH2 0x24F9 JUMP JUMPDEST JUMPDEST PUSH1 0x20 ADD ADD MLOAD PUSH1 0xF8 SHR PUSH1 0xF8 SHL DUP3 DUP3 DUP2 MLOAD DUP2 LT PUSH2 0x108E JUMPI PUSH2 0x108D PUSH2 0x24F9 JUMP JUMPDEST JUMPDEST PUSH1 0x20 ADD ADD SWAP1 PUSH31 0xFFFFFFFFFFFFFFFFFFFFFFFFFFFFFFFFFFFFFFFFFFFFFFFFFFFFFFFFFFFFFF NOT AND SWAP1 DUP2 PUSH1 0x0 BYTE SWAP1 MSTORE8 POP DUP1 PUSH2 0x10C7 SWAP1 PUSH2 0x285B JUMP JUMPDEST SWAP1 POP PUSH2 0x103F JUMP JUMPDEST POP DUP1 SWAP2 POP POP SWAP4 SWAP3 POP POP POP JUMP JUMPDEST PUSH2 0x10E2 PUSH2 0x18AE JUMP JUMPDEST PUSH1 0x0 PUSH1 0x20 DUP4 PUSH2 0x10F1 SWAP2 SWAP1 PUSH2 0x28D3 JUMP JUMPDEST EQ PUSH2 0x111D JUMPI PUSH1 0x20 DUP3 PUSH2 0x1103 SWAP2 SWAP1 PUSH2 0x28D3 JUMP JUMPDEST PUSH1 0x20 PUSH2 0x110F SWAP2 SWAP1 PUSH2 0x2827 JUMP JUMPDEST DUP3 PUSH2 0x111A SWAP2 SWAP1 PUSH2 0x275B JUMP JUMPDEST SWAP2 POP JUMPDEST DUP2 DUP4 PUSH1 0x20 ADD DUP2 DUP2 MSTORE POP POP PUSH1 0x40 MLOAD DUP1 DUP5 MSTORE PUSH1 0x0 DUP2 MSTORE DUP3 DUP2 ADD PUSH1 0x20 ADD PUSH1 0x40 MSTORE POP DUP3 SWAP1 POP SWAP3 SWAP2 POP POP JUMP JUMPDEST PUSH1 0x17 DUP2 PUSH8 0xFFFFFFFFFFFFFFFF AND GT PUSH2 0x117B JUMPI PUSH2 0x1175 DUP2 PUSH1 0x5 DUP5 PUSH1 0xFF AND SWAP1 SHL PUSH1 0xFF AND OR DUP5 PUSH2 0x14FD SWAP1 SWAP2 SWAP1 PUSH4 0xFFFFFFFF AND JUMP JUMPDEST POP PUSH2 0x12C4 JUMP JUMPDEST PUSH1 0xFF DUP2 PUSH8 0xFFFFFFFFFFFFFFFF AND GT PUSH2 0x11D1 JUMPI PUSH2 0x11AA PUSH1 0x18 PUSH1 0x5 DUP5 PUSH1 0xFF AND SWAP1 SHL OR DUP5 PUSH2 0x14FD SWAP1 SWAP2 SWAP1 PUSH4 0xFFFFFFFF AND JUMP JUMPDEST POP PUSH2 0x11CB DUP2 PUSH8 0xFFFFFFFFFFFFFFFF AND PUSH1 0x1 DUP6 PUSH2 0x151D SWAP1 SWAP3 SWAP2 SWAP1 PUSH4 0xFFFFFFFF AND JUMP JUMPDEST POP PUSH2 0x12C3 JUMP JUMPDEST PUSH2 0xFFFF DUP2 PUSH8 0xFFFFFFFFFFFFFFFF AND GT PUSH2 0x1228 JUMPI PUSH2 0x1201 PUSH1 0x19 PUSH1 0x5 DUP5 PUSH1 0xFF AND SWAP1 SHL OR DUP5 PUSH2 0x14FD SWAP1 SWAP2 SWAP1 PUSH4 0xFFFFFFFF AND JUMP JUMPDEST POP PUSH2 0x1222 DUP2 PUSH8 0xFFFFFFFFFFFFFFFF AND PUSH1 0x2 DUP6 PUSH2 0x151D SWAP1 SWAP3 SWAP2 SWAP1 PUSH4 0xFFFFFFFF AND JUMP JUMPDEST POP PUSH2 0x12C2 JUMP JUMPDEST PUSH4 0xFFFFFFFF DUP2 PUSH8 0xFFFFFFFFFFFFFFFF AND GT PUSH2 0x1281 JUMPI PUSH2 0x125A PUSH1 0x1A PUSH1 0x5 DUP5 PUSH1 0xFF AND SWAP1 SHL OR DUP5 PUSH2 0x14FD SWAP1 SWAP2 SWAP1 PUSH4 0xFFFFFFFF AND JUMP JUMPDEST POP PUSH2 0x127B DUP2 PUSH8 0xFFFFFFFFFFFFFFFF AND PUSH1 0x4 DUP6 PUSH2 0x151D SWAP1 SWAP3 SWAP2 SWAP1 PUSH4 0xFFFFFFFF AND JUMP JUMPDEST POP PUSH2 0x12C1 JUMP JUMPDEST PUSH2 0x129E PUSH1 0x1B PUSH1 0x5 DUP5 PUSH1 0xFF AND SWAP1 SHL OR DUP5 PUSH2 0x14FD SWAP1 SWAP2 SWAP1 PUSH4 0xFFFFFFFF AND JUMP JUMPDEST POP PUSH2 0x12BF DUP2 PUSH8 0xFFFFFFFFFFFFFFFF AND PUSH1 0x8 DUP6 PUSH2 0x151D SWAP1 SWAP3 SWAP2 SWAP1 PUSH4 0xFFFFFFFF AND JUMP JUMPDEST POP JUMPDEST JUMPDEST JUMPDEST JUMPDEST POP POP POP JUMP JUMPDEST PUSH2 0x12D1 PUSH2 0x18AE JUMP JUMPDEST PUSH2 0x12E3 DUP4 DUP5 PUSH1 0x0 ADD MLOAD MLOAD DUP5 DUP6 MLOAD PUSH2 0x153F JUMP JUMPDEST SWAP1 POP SWAP3 SWAP2 POP POP JUMP JUMPDEST PUSH2 0x1309 PUSH1 0x2 PUSH1 0x5 PUSH1 0x6 PUSH1 0xFF AND SWAP1 SHL OR DUP4 PUSH2 0x14FD SWAP1 SWAP2 SWAP1 PUSH4 0xFFFFFFFF AND JUMP JUMPDEST POP PUSH2 0x1333 DUP3 DUP3 PUSH1 0x40 MLOAD PUSH1 0x20 ADD PUSH2 0x131F SWAP2 SWAP1 PUSH2 0x2904 JUMP JUMPDEST PUSH1 0x40 MLOAD PUSH1 0x20 DUP2 DUP4 SUB SUB DUP2 MSTORE SWAP1 PUSH1 0x40 MSTORE PUSH2 0x162E JUMP JUMPDEST POP POP JUMP JUMPDEST PUSH1 0x0 ADDRESS DUP5 PUSH1 0x40 MLOAD PUSH1 0x20 ADD PUSH2 0x134C SWAP3 SWAP2 SWAP1 PUSH2 0x299A JUMP JUMPDEST PUSH1 0x40 MLOAD PUSH1 0x20 DUP2 DUP4 SUB SUB DUP2 MSTORE SWAP1 PUSH1 0x40 MSTORE DUP1 MLOAD SWAP1 PUSH1 0x20 ADD KECCAK256 SWAP1 POP DUP5 PUSH1 0x5 PUSH1 0x0 DUP4 DUP2 MSTORE PUSH1 0x20 ADD SWAP1 DUP2 MSTORE PUSH1 0x20 ADD PUSH1 0x0 KECCAK256 PUSH1 0x0 PUSH2 0x100 EXP DUP2 SLOAD DUP2 PUSH20 0xFFFFFFFFFFFFFFFFFFFFFFFFFFFFFFFFFFFFFFFF MUL NOT AND SWAP1 DUP4 PUSH20 0xFFFFFFFFFFFFFFFFFFFFFFFFFFFFFFFFFFFFFFFF AND MUL OR SWAP1 SSTORE POP DUP1 PUSH32 0xB5E6E01E79F91267DC17B4E6314D5D4D03593D2CEEE0FBB452B750BD70EA5AF9 PUSH1 0x40 MLOAD PUSH1 0x40 MLOAD DUP1 SWAP2 SUB SWAP1 LOG2 PUSH1 0x2 PUSH1 0x0 SWAP1 SLOAD SWAP1 PUSH2 0x100 EXP SWAP1 DIV PUSH20 0xFFFFFFFFFFFFFFFFFFFFFFFFFFFFFFFFFFFFFFFF AND PUSH20 0xFFFFFFFFFFFFFFFFFFFFFFFFFFFFFFFFFFFFFFFF AND PUSH4 0x4000AEA0 DUP7 DUP6 DUP6 PUSH1 0x40 MLOAD DUP5 PUSH4 0xFFFFFFFF AND PUSH1 0xE0 SHL DUP2 MSTORE PUSH1 0x4 ADD PUSH2 0x1442 SWAP4 SWAP3 SWAP2 SWAP1 PUSH2 0x29C6 JUMP JUMPDEST PUSH1 0x20 PUSH1 0x40 MLOAD DUP1 DUP4 SUB DUP2 PUSH1 0x0 DUP8 DUP1 EXTCODESIZE ISZERO DUP1 ISZERO PUSH2 0x145C JUMPI PUSH1 0x0 DUP1 REVERT JUMPDEST POP GAS CALL ISZERO DUP1 ISZERO PUSH2 0x1470 JUMPI RETURNDATASIZE PUSH1 0x0 DUP1 RETURNDATACOPY RETURNDATASIZE PUSH1 0x0 REVERT JUMPDEST POP POP POP POP PUSH1 0x40 MLOAD RETURNDATASIZE PUSH1 0x1F NOT PUSH1 0x1F DUP3 ADD AND DUP3 ADD DUP1 PUSH1 0x40 MSTORE POP DUP2 ADD SWAP1 PUSH2 0x1494 SWAP2 SWAP1 PUSH2 0x23C8 JUMP JUMPDEST PUSH2 0x14D3 JUMPI PUSH1 0x40 MLOAD PUSH32 0x8C379A000000000000000000000000000000000000000000000000000000000 DUP2 MSTORE PUSH1 0x4 ADD PUSH2 0x14CA SWAP1 PUSH2 0x2A76 JUMP JUMPDEST PUSH1 0x40 MLOAD DUP1 SWAP2 SUB SWAP1 REVERT JUMPDEST SWAP5 SWAP4 POP POP POP POP JUMP JUMPDEST PUSH2 0x14F8 PUSH1 0x1F PUSH1 0x5 DUP4 PUSH1 0xFF AND SWAP1 SHL OR DUP4 PUSH2 0x14FD SWAP1 SWAP2 SWAP1 PUSH4 0xFFFFFFFF AND JUMP JUMPDEST POP POP POP JUMP JUMPDEST PUSH2 0x1505 PUSH2 0x18AE JUMP JUMPDEST PUSH2 0x1515 DUP4 DUP5 PUSH1 0x0 ADD MLOAD MLOAD DUP5 PUSH2 0x1653 JUMP JUMPDEST SWAP1 POP SWAP3 SWAP2 POP POP JUMP JUMPDEST PUSH2 0x1525 PUSH2 0x18AE JUMP JUMPDEST PUSH2 0x1536 DUP5 DUP6 PUSH1 0x0 ADD MLOAD MLOAD DUP6 DUP6 PUSH2 0x16AA JUMP JUMPDEST SWAP1 POP SWAP4 SWAP3 POP POP POP JUMP JUMPDEST PUSH2 0x1547 PUSH2 0x18AE JUMP JUMPDEST DUP3 MLOAD DUP3 GT ISZERO PUSH2 0x1555 JUMPI PUSH1 0x0 DUP1 REVERT JUMPDEST DUP5 PUSH1 0x20 ADD MLOAD DUP3 DUP6 PUSH2 0x1566 SWAP2 SWAP1 PUSH2 0x275B JUMP JUMPDEST GT ISZERO PUSH2 0x159B JUMPI PUSH2 0x159A DUP6 PUSH1 0x2 PUSH2 0x158B DUP9 PUSH1 0x20 ADD MLOAD DUP9 DUP8 PUSH2 0x1586 SWAP2 SWAP1 PUSH2 0x275B JUMP JUMPDEST PUSH2 0x1738 JUMP JUMPDEST PUSH2 0x1595 SWAP2 SWAP1 PUSH2 0x2A96 JUMP JUMPDEST PUSH2 0x1754 JUMP JUMPDEST JUMPDEST PUSH1 0x0 DUP1 DUP7 MLOAD DUP1 MLOAD DUP8 PUSH1 0x20 DUP4 ADD ADD SWAP4 POP DUP1 DUP9 DUP8 ADD GT ISZERO PUSH2 0x15BA JUMPI DUP8 DUP7 ADD DUP3 MSTORE JUMPDEST PUSH1 0x20 DUP8 ADD SWAP3 POP POP POP JUMPDEST PUSH1 0x20 DUP5 LT PUSH2 0x1601 JUMPI DUP1 MLOAD DUP3 MSTORE PUSH1 0x20 DUP3 PUSH2 0x15DC SWAP2 SWAP1 PUSH2 0x275B JUMP JUMPDEST SWAP2 POP PUSH1 0x20 DUP2 PUSH2 0x15EB SWAP2 SWAP1 PUSH2 0x275B JUMP JUMPDEST SWAP1 POP PUSH1 0x20 DUP5 PUSH2 0x15FA SWAP2 SWAP1 PUSH2 0x2827 JUMP JUMPDEST SWAP4 POP PUSH2 0x15C3 JUMP JUMPDEST PUSH1 0x0 PUSH1 0x1 DUP6 PUSH1 0x20 SUB PUSH2 0x100 EXP SUB SWAP1 POP DUP1 NOT DUP3 MLOAD AND DUP2 DUP5 MLOAD AND DUP2 DUP2 OR DUP6 MSTORE POP POP POP DUP7 SWAP3 POP POP POP SWAP5 SWAP4 POP POP POP POP JUMP JUMPDEST PUSH2 0x163B DUP3 PUSH1 0x2 DUP4 MLOAD PUSH2 0x1144 JUMP JUMPDEST PUSH2 0x164E DUP2 DUP4 PUSH2 0x12C9 SWAP1 SWAP2 SWAP1 PUSH4 0xFFFFFFFF AND JUMP JUMPDEST POP POP POP JUMP JUMPDEST PUSH2 0x165B PUSH2 0x18AE JUMP JUMPDEST DUP4 PUSH1 0x20 ADD MLOAD DUP4 LT PUSH2 0x1681 JUMPI PUSH2 0x1680 DUP5 PUSH1 0x2 DUP7 PUSH1 0x20 ADD MLOAD PUSH2 0x167B SWAP2 SWAP1 PUSH2 0x2A96 JUMP JUMPDEST PUSH2 0x1754 JUMP JUMPDEST JUMPDEST DUP4 MLOAD DUP1 MLOAD PUSH1 0x20 DUP6 DUP4 ADD ADD DUP5 DUP2 MSTORE8 DUP2 DUP7 EQ ISZERO PUSH2 0x169D JUMPI PUSH1 0x1 DUP3 ADD DUP4 MSTORE JUMPDEST POP POP POP DUP4 SWAP1 POP SWAP4 SWAP3 POP POP POP JUMP JUMPDEST PUSH2 0x16B2 PUSH2 0x18AE JUMP JUMPDEST DUP5 PUSH1 0x20 ADD MLOAD DUP5 DUP4 PUSH2 0x16C3 SWAP2 SWAP1 PUSH2 0x275B JUMP JUMPDEST GT ISZERO PUSH2 0x16EB JUMPI PUSH2 0x16EA DUP6 PUSH1 0x2 DUP7 DUP6 PUSH2 0x16DB SWAP2 SWAP1 PUSH2 0x275B JUMP JUMPDEST PUSH2 0x16E5 SWAP2 SWAP1 PUSH2 0x2A96 JUMP JUMPDEST PUSH2 0x1754 JUMP JUMPDEST JUMPDEST PUSH1 0x0 PUSH1 0x1 DUP4 PUSH2 0x100 PUSH2 0x16FD SWAP2 SWAP1 PUSH2 0x2C23 JUMP JUMPDEST PUSH2 0x1707 SWAP2 SWAP1 PUSH2 0x2827 JUMP JUMPDEST SWAP1 POP DUP6 MLOAD DUP4 DUP7 DUP3 ADD ADD DUP6 DUP4 NOT DUP3 MLOAD AND OR DUP2 MSTORE DUP2 MLOAD DUP6 DUP9 ADD GT ISZERO PUSH2 0x172A JUMPI DUP5 DUP8 ADD DUP3 MSTORE JUMPDEST POP POP DUP6 SWAP2 POP POP SWAP5 SWAP4 POP POP POP POP JUMP JUMPDEST PUSH1 0x0 DUP2 DUP4 GT ISZERO PUSH2 0x174A JUMPI DUP3 SWAP1 POP PUSH2 0x174E JUMP JUMPDEST DUP2 SWAP1 POP JUMPDEST SWAP3 SWAP2 POP POP JUMP JUMPDEST PUSH1 0x0 DUP3 PUSH1 0x0 ADD MLOAD SWAP1 POP PUSH2 0x1767 DUP4 DUP4 PUSH2 0x10DA JUMP JUMPDEST POP PUSH2 0x1772 DUP4 DUP3 PUSH2 0x12C9 JUMP JUMPDEST POP POP POP POP JUMP JUMPDEST DUP3 DUP1 SLOAD DUP3 DUP3 SSTORE SWAP1 PUSH1 0x0 MSTORE PUSH1 0x20 PUSH1 0x0 KECCAK256 SWAP1 DUP2 ADD SWAP3 DUP3 ISZERO PUSH2 0x17C7 JUMPI SWAP2 PUSH1 0x20 MUL DUP3 ADD JUMPDEST DUP3 DUP2 GT ISZERO PUSH2 0x17C6 JUMPI DUP3 MLOAD DUP3 SWAP1 DUP1 MLOAD SWAP1 PUSH1 0x20 ADD SWAP1 PUSH2 0x17B6 SWAP3 SWAP2 SWAP1 PUSH2 0x18C8 JUMP JUMPDEST POP SWAP2 PUSH1 0x20 ADD SWAP2 SWAP1 PUSH1 0x1 ADD SWAP1 PUSH2 0x1798 JUMP JUMPDEST JUMPDEST POP SWAP1 POP PUSH2 0x17D4 SWAP2 SWAP1 PUSH2 0x194E JUMP JUMPDEST POP SWAP1 JUMP JUMPDEST PUSH1 0x40 MLOAD DUP1 PUSH1 0x80 ADD PUSH1 0x40 MSTORE DUP1 PUSH1 0x0 PUSH4 0xFFFFFFFF AND DUP2 MSTORE PUSH1 0x20 ADD PUSH1 0x0 PUSH1 0xFF AND DUP2 MSTORE PUSH1 0x20 ADD PUSH1 0x0 PUSH1 0xFF AND DUP2 MSTORE PUSH1 0x20 ADD PUSH1 0x60 DUP2 MSTORE POP SWAP1 JUMP JUMPDEST PUSH1 0x40 MLOAD DUP1 PUSH1 0x80 ADD PUSH1 0x40 MSTORE DUP1 PUSH1 0x0 PUSH4 0xFFFFFFFF AND DUP2 MSTORE PUSH1 0x20 ADD PUSH1 0x0 PUSH5 0xFFFFFFFFFF AND DUP2 MSTORE PUSH1 0x20 ADD PUSH1 0x60 DUP2 MSTORE PUSH1 0x20 ADD PUSH1 0x60 DUP2 MSTORE POP SWAP1 JUMP JUMPDEST PUSH1 0x40 MLOAD DUP1 PUSH1 0xA0 ADD PUSH1 0x40 MSTORE DUP1 PUSH1 0x0 DUP1 NOT AND DUP2 MSTORE PUSH1 0x20 ADD PUSH1 0x0 PUSH20 0xFFFFFFFFFFFFFFFFFFFFFFFFFFFFFFFFFFFFFFFF AND DUP2 MSTORE PUSH1 0x20 ADD PUSH1 0x0 PUSH28 0xFFFFFFFFFFFFFFFFFFFFFFFFFFFFFFFFFFFFFFFFFFFFFFFFFFFFFFFF NOT AND DUP2 MSTORE PUSH1 0x20 ADD PUSH1 0x0 DUP2 MSTORE PUSH1 0x20 ADD PUSH2 0x18A8 PUSH2 0x18AE JUMP JUMPDEST DUP2 MSTORE POP SWAP1 JUMP JUMPDEST PUSH1 0x40 MLOAD DUP1 PUSH1 0x40 ADD PUSH1 0x40 MSTORE DUP1 PUSH1 0x60 DUP2 MSTORE PUSH1 0x20 ADD PUSH1 0x0 DUP2 MSTORE POP SWAP1 JUMP JUMPDEST DUP3 DUP1 SLOAD PUSH2 0x18D4 SWAP1 PUSH2 0x24C7 JUMP JUMPDEST SWAP1 PUSH1 0x0 MSTORE PUSH1 0x20 PUSH1 0x0 KECCAK256 SWAP1 PUSH1 0x1F ADD PUSH1 0x20 SWAP1 DIV DUP2 ADD SWAP3 DUP3 PUSH2 0x18F6 JUMPI PUSH1 0x0 DUP6 SSTORE PUSH2 0x193D JUMP JUMPDEST DUP3 PUSH1 0x1F LT PUSH2 0x190F JUMPI DUP1 MLOAD PUSH1 0xFF NOT AND DUP4 DUP1 ADD OR DUP6 SSTORE PUSH2 0x193D JUMP JUMPDEST DUP3 DUP1 ADD PUSH1 0x1 ADD DUP6 SSTORE DUP3 ISZERO PUSH2 0x193D JUMPI SWAP2 DUP3 ADD JUMPDEST DUP3 DUP2 GT ISZERO PUSH2 0x193C JUMPI DUP3 MLOAD DUP3 SSTORE SWAP2 PUSH1 0x20 ADD SWAP2 SWAP1 PUSH1 0x1 ADD SWAP1 PUSH2 0x1921 JUMP JUMPDEST JUMPDEST POP SWAP1 POP PUSH2 0x194A SWAP2 SWAP1 PUSH2 0x1972 JUMP JUMPDEST POP SWAP1 JUMP JUMPDEST JUMPDEST DUP1 DUP3 GT ISZERO PUSH2 0x196E JUMPI PUSH1 0x0 DUP2 DUP2 PUSH2 0x1965 SWAP2 SWAP1 PUSH2 0x198F JUMP JUMPDEST POP PUSH1 0x1 ADD PUSH2 0x194F JUMP JUMPDEST POP SWAP1 JUMP JUMPDEST JUMPDEST DUP1 DUP3 GT ISZERO PUSH2 0x198B JUMPI PUSH1 0x0 DUP2 PUSH1 0x0 SWAP1 SSTORE POP PUSH1 0x1 ADD PUSH2 0x1973 JUMP JUMPDEST POP SWAP1 JUMP JUMPDEST POP DUP1 SLOAD PUSH2 0x199B SWAP1 PUSH2 0x24C7 JUMP JUMPDEST PUSH1 0x0 DUP3 SSTORE DUP1 PUSH1 0x1F LT PUSH2 0x19AD JUMPI POP PUSH2 0x19CC JUMP JUMPDEST PUSH1 0x1F ADD PUSH1 0x20 SWAP1 DIV SWAP1 PUSH1 0x0 MSTORE PUSH1 0x20 PUSH1 0x0 KECCAK256 SWAP1 DUP2 ADD SWAP1 PUSH2 0x19CB SWAP2 SWAP1 PUSH2 0x1972 JUMP JUMPDEST JUMPDEST POP JUMP JUMPDEST PUSH1 0x0 PUSH1 0x40 MLOAD SWAP1 POP SWAP1 JUMP JUMPDEST PUSH1 0x0 DUP1 REVERT JUMPDEST PUSH1 0x0 DUP1 REVERT JUMPDEST PUSH1 0x0 DUP2 SWAP1 POP SWAP2 SWAP1 POP JUMP JUMPDEST PUSH2 0x19F6 DUP2 PUSH2 0x19E3 JUMP JUMPDEST DUP2 EQ PUSH2 0x1A01 JUMPI PUSH1 0x0 DUP1 REVERT JUMPDEST POP JUMP JUMPDEST PUSH1 0x0 DUP2 CALLDATALOAD SWAP1 POP PUSH2 0x1A13 DUP2 PUSH2 0x19ED JUMP JUMPDEST SWAP3 SWAP2 POP POP JUMP JUMPDEST PUSH1 0x0 DUP2 SWAP1 POP SWAP2 SWAP1 POP JUMP JUMPDEST PUSH2 0x1A2C DUP2 PUSH2 0x1A19 JUMP JUMPDEST DUP2 EQ PUSH2 0x1A37 JUMPI PUSH1 0x0 DUP1 REVERT JUMPDEST POP JUMP JUMPDEST PUSH1 0x0 DUP2 CALLDATALOAD SWAP1 POP PUSH2 0x1A49 DUP2 PUSH2 0x1A23 JUMP JUMPDEST SWAP3 SWAP2 POP POP JUMP JUMPDEST PUSH1 0x0 DUP1 PUSH1 0x0 DUP1 PUSH1 0x0 PUSH1 0xA0 DUP7 DUP9 SUB SLT ISZERO PUSH2 0x1A6B JUMPI PUSH2 0x1A6A PUSH2 0x19D9 JUMP JUMPDEST JUMPDEST PUSH1 0x0 PUSH2 0x1A79 DUP9 DUP3 DUP10 ADD PUSH2 0x1A04 JUMP JUMPDEST SWAP6 POP POP PUSH1 0x20 PUSH2 0x1A8A DUP9 DUP3 DUP10 ADD PUSH2 0x1A3A JUMP JUMPDEST SWAP5 POP POP PUSH1 0x40 PUSH2 0x1A9B DUP9 DUP3 DUP10 ADD PUSH2 0x1A3A JUMP JUMPDEST SWAP4 POP POP PUSH1 0x60 PUSH2 0x1AAC DUP9 DUP3 DUP10 ADD PUSH2 0x1A3A JUMP JUMPDEST SWAP3 POP POP PUSH1 0x80 PUSH2 0x1ABD DUP9 DUP3 DUP10 ADD PUSH2 0x1A3A JUMP JUMPDEST SWAP2 POP POP SWAP3 SWAP6 POP SWAP3 SWAP6 SWAP1 SWAP4 POP JUMP JUMPDEST PUSH1 0x0 DUP1 REVERT JUMPDEST PUSH1 0x0 PUSH1 0x1F NOT PUSH1 0x1F DUP4 ADD AND SWAP1 POP SWAP2 SWAP1 POP JUMP JUMPDEST PUSH32 0x4E487B7100000000000000000000000000000000000000000000000000000000 PUSH1 0x0 MSTORE PUSH1 0x41 PUSH1 0x4 MSTORE PUSH1 0x24 PUSH1 0x0 REVERT JUMPDEST PUSH2 0x1B18 DUP3 PUSH2 0x1ACF JUMP JUMPDEST DUP2 ADD DUP2 DUP2 LT PUSH8 0xFFFFFFFFFFFFFFFF DUP3 GT OR ISZERO PUSH2 0x1B37 JUMPI PUSH2 0x1B36 PUSH2 0x1AE0 JUMP JUMPDEST JUMPDEST DUP1 PUSH1 0x40 MSTORE POP POP POP JUMP JUMPDEST PUSH1 0x0 PUSH2 0x1B4A PUSH2 0x19CF JUMP JUMPDEST SWAP1 POP PUSH2 0x1B56 DUP3 DUP3 PUSH2 0x1B0F JUMP JUMPDEST SWAP2 SWAP1 POP JUMP JUMPDEST PUSH1 0x0 PUSH8 0xFFFFFFFFFFFFFFFF DUP3 GT ISZERO PUSH2 0x1B76 JUMPI PUSH2 0x1B75 PUSH2 0x1AE0 JUMP JUMPDEST JUMPDEST PUSH1 0x20 DUP3 MUL SWAP1 POP PUSH1 0x20 DUP2 ADD SWAP1 POP SWAP2 SWAP1 POP JUMP JUMPDEST PUSH1 0x0 DUP1 REVERT JUMPDEST PUSH1 0x0 DUP1 REVERT JUMPDEST PUSH1 0x0 PUSH8 0xFFFFFFFFFFFFFFFF DUP3 GT ISZERO PUSH2 0x1BAC JUMPI PUSH2 0x1BAB PUSH2 0x1AE0 JUMP JUMPDEST JUMPDEST PUSH2 0x1BB5 DUP3 PUSH2 0x1ACF JUMP JUMPDEST SWAP1 POP PUSH1 0x20 DUP2 ADD SWAP1 POP SWAP2 SWAP1 POP JUMP JUMPDEST DUP3 DUP2 DUP4 CALLDATACOPY PUSH1 0x0 DUP4 DUP4 ADD MSTORE POP POP POP JUMP JUMPDEST PUSH1 0x0 PUSH2 0x1BE4 PUSH2 0x1BDF DUP5 PUSH2 0x1B91 JUMP JUMPDEST PUSH2 0x1B40 JUMP JUMPDEST SWAP1 POP DUP3 DUP2 MSTORE PUSH1 0x20 DUP2 ADD DUP5 DUP5 DUP5 ADD GT ISZERO PUSH2 0x1C00 JUMPI PUSH2 0x1BFF PUSH2 0x1B8C JUMP JUMPDEST JUMPDEST PUSH2 0x1C0B DUP5 DUP3 DUP6 PUSH2 0x1BC2 JUMP JUMPDEST POP SWAP4 SWAP3 POP POP POP JUMP JUMPDEST PUSH1 0x0 DUP3 PUSH1 0x1F DUP4 ADD SLT PUSH2 0x1C28 JUMPI PUSH2 0x1C27 PUSH2 0x1ACA JUMP JUMPDEST JUMPDEST DUP2 CALLDATALOAD PUSH2 0x1C38 DUP5 DUP3 PUSH1 0x20 DUP7 ADD PUSH2 0x1BD1 JUMP JUMPDEST SWAP2 POP POP SWAP3 SWAP2 POP POP JUMP JUMPDEST PUSH1 0x0 PUSH2 0x1C54 PUSH2 0x1C4F DUP5 PUSH2 0x1B5B JUMP JUMPDEST PUSH2 0x1B40 JUMP JUMPDEST SWAP1 POP DUP1 DUP4 DUP3 MSTORE PUSH1 0x20 DUP3 ADD SWAP1 POP PUSH1 0x20 DUP5 MUL DUP4 ADD DUP6 DUP2 GT ISZERO PUSH2 0x1C77 JUMPI PUSH2 0x1C76 PUSH2 0x1B87 JUMP JUMPDEST JUMPDEST DUP4 JUMPDEST DUP2 DUP2 LT ISZERO PUSH2 0x1CBE JUMPI DUP1 CALLDATALOAD PUSH8 0xFFFFFFFFFFFFFFFF DUP2 GT ISZERO PUSH2 0x1C9C JUMPI PUSH2 0x1C9B PUSH2 0x1ACA JUMP JUMPDEST JUMPDEST DUP1 DUP7 ADD PUSH2 0x1CA9 DUP10 DUP3 PUSH2 0x1C13 JUMP JUMPDEST DUP6 MSTORE PUSH1 0x20 DUP6 ADD SWAP5 POP POP POP PUSH1 0x20 DUP2 ADD SWAP1 POP PUSH2 0x1C79 JUMP JUMPDEST POP POP POP SWAP4 SWAP3 POP POP POP JUMP JUMPDEST PUSH1 0x0 DUP3 PUSH1 0x1F DUP4 ADD SLT PUSH2 0x1CDD JUMPI PUSH2 0x1CDC PUSH2 0x1ACA JUMP JUMPDEST JUMPDEST DUP2 CALLDATALOAD PUSH2 0x1CED DUP5 DUP3 PUSH1 0x20 DUP7 ADD PUSH2 0x1C41 JUMP JUMPDEST SWAP2 POP POP SWAP3 SWAP2 POP POP JUMP JUMPDEST PUSH1 0x0 DUP1 PUSH1 0x40 DUP4 DUP6 SUB SLT ISZERO PUSH2 0x1D0D JUMPI PUSH2 0x1D0C PUSH2 0x19D9 JUMP JUMPDEST JUMPDEST PUSH1 0x0 PUSH2 0x1D1B DUP6 DUP3 DUP7 ADD PUSH2 0x1A04 JUMP JUMPDEST SWAP3 POP POP PUSH1 0x20 DUP4 ADD CALLDATALOAD PUSH8 0xFFFFFFFFFFFFFFFF DUP2 GT ISZERO PUSH2 0x1D3C JUMPI PUSH2 0x1D3B PUSH2 0x19DE JUMP JUMPDEST JUMPDEST PUSH2 0x1D48 DUP6 DUP3 DUP7 ADD PUSH2 0x1CC8 JUMP JUMPDEST SWAP2 POP POP SWAP3 POP SWAP3 SWAP1 POP JUMP JUMPDEST PUSH1 0x0 PUSH20 0xFFFFFFFFFFFFFFFFFFFFFFFFFFFFFFFFFFFFFFFF DUP3 AND SWAP1 POP SWAP2 SWAP1 POP JUMP JUMPDEST PUSH1 0x0 PUSH2 0x1D7D DUP3 PUSH2 0x1D52 JUMP JUMPDEST SWAP1 POP SWAP2 SWAP1 POP JUMP JUMPDEST PUSH2 0x1D8D DUP2 PUSH2 0x1D72 JUMP JUMPDEST DUP2 EQ PUSH2 0x1D98 JUMPI PUSH1 0x0 DUP1 REVERT JUMPDEST POP JUMP JUMPDEST PUSH1 0x0 DUP2 CALLDATALOAD SWAP1 POP PUSH2 0x1DAA DUP2 PUSH2 0x1D84 JUMP JUMPDEST SWAP3 SWAP2 POP POP JUMP JUMPDEST PUSH1 0x0 DUP1 PUSH1 0x40 DUP4 DUP6 SUB SLT ISZERO PUSH2 0x1DC7 JUMPI PUSH2 0x1DC6 PUSH2 0x19D9 JUMP JUMPDEST JUMPDEST PUSH1 0x0 PUSH2 0x1DD5 DUP6 DUP3 DUP7 ADD PUSH2 0x1A3A JUMP JUMPDEST SWAP3 POP POP PUSH1 0x20 PUSH2 0x1DE6 DUP6 DUP3 DUP7 ADD PUSH2 0x1D9B JUMP JUMPDEST SWAP2 POP POP SWAP3 POP SWAP3 SWAP1 POP JUMP JUMPDEST PUSH1 0x0 DUP1 REVERT JUMPDEST PUSH1 0x0 DUP1 DUP4 PUSH1 0x1F DUP5 ADD SLT PUSH2 0x1E0B JUMPI PUSH2 0x1E0A PUSH2 0x1ACA JUMP JUMPDEST JUMPDEST DUP3 CALLDATALOAD SWAP1 POP PUSH8 0xFFFFFFFFFFFFFFFF DUP2 GT ISZERO PUSH2 0x1E28 JUMPI PUSH2 0x1E27 PUSH2 0x1DF0 JUMP JUMPDEST JUMPDEST PUSH1 0x20 DUP4 ADD SWAP2 POP DUP4 PUSH1 0x20 DUP3 MUL DUP4 ADD GT ISZERO PUSH2 0x1E44 JUMPI PUSH2 0x1E43 PUSH2 0x1B87 JUMP JUMPDEST JUMPDEST SWAP3 POP SWAP3 SWAP1 POP JUMP JUMPDEST PUSH1 0x0 DUP1 PUSH1 0x0 DUP1 PUSH1 0x0 DUP1 PUSH1 0x0 PUSH1 0xC0 DUP9 DUP11 SUB SLT ISZERO PUSH2 0x1E6A JUMPI PUSH2 0x1E69 PUSH2 0x19D9 JUMP JUMPDEST JUMPDEST PUSH1 0x0 PUSH2 0x1E78 DUP11 DUP3 DUP12 ADD PUSH2 0x1A04 JUMP JUMPDEST SWAP8 POP POP PUSH1 0x20 PUSH2 0x1E89 DUP11 DUP3 DUP12 ADD PUSH2 0x1A3A JUMP JUMPDEST SWAP7 POP POP PUSH1 0x40 PUSH2 0x1E9A DUP11 DUP3 DUP12 ADD PUSH2 0x1A3A JUMP JUMPDEST SWAP6 POP POP PUSH1 0x60 PUSH2 0x1EAB DUP11 DUP3 DUP12 ADD PUSH2 0x1A3A JUMP JUMPDEST SWAP5 POP POP PUSH1 0x80 PUSH2 0x1EBC DUP11 DUP3 DUP12 ADD PUSH2 0x1A3A JUMP JUMPDEST SWAP4 POP POP PUSH1 0xA0 DUP9 ADD CALLDATALOAD PUSH8 0xFFFFFFFFFFFFFFFF DUP2 GT ISZERO PUSH2 0x1EDD JUMPI PUSH2 0x1EDC PUSH2 0x19DE JUMP JUMPDEST JUMPDEST PUSH2 0x1EE9 DUP11 DUP3 DUP12 ADD PUSH2 0x1DF5 JUMP JUMPDEST SWAP3 POP SWAP3 POP POP SWAP3 SWAP6 SWAP9 SWAP2 SWAP5 SWAP8 POP SWAP3 SWAP6 POP JUMP JUMPDEST PUSH1 0x0 PUSH2 0x1F05 DUP3 PUSH2 0x1D52 JUMP JUMPDEST SWAP1 POP SWAP2 SWAP1 POP JUMP JUMPDEST PUSH2 0x1F15 DUP2 PUSH2 0x1EFA JUMP JUMPDEST DUP2 EQ PUSH2 0x1F20 JUMPI PUSH1 0x0 DUP1 REVERT JUMPDEST POP JUMP JUMPDEST PUSH1 0x0 DUP2 CALLDATALOAD SWAP1 POP PUSH2 0x1F32 DUP2 PUSH2 0x1F0C JUMP JUMPDEST SWAP3 SWAP2 POP POP JUMP JUMPDEST PUSH1 0x0 PUSH1 0x20 DUP3 DUP5 SUB SLT ISZERO PUSH2 0x1F4E JUMPI PUSH2 0x1F4D PUSH2 0x19D9 JUMP JUMPDEST JUMPDEST PUSH1 0x0 PUSH2 0x1F5C DUP5 DUP3 DUP6 ADD PUSH2 0x1F23 JUMP JUMPDEST SWAP2 POP POP SWAP3 SWAP2 POP POP JUMP JUMPDEST PUSH1 0x0 DUP1 PUSH1 0x40 DUP4 DUP6 SUB SLT ISZERO PUSH2 0x1F7C JUMPI PUSH2 0x1F7B PUSH2 0x19D9 JUMP JUMPDEST JUMPDEST PUSH1 0x0 PUSH2 0x1F8A DUP6 DUP3 DUP7 ADD PUSH2 0x1A04 JUMP JUMPDEST SWAP3 POP POP PUSH1 0x20 PUSH2 0x1F9B DUP6 DUP3 DUP7 ADD PUSH2 0x1A3A JUMP JUMPDEST SWAP2 POP POP SWAP3 POP SWAP3 SWAP1 POP JUMP JUMPDEST PUSH1 0x0 DUP2 MLOAD SWAP1 POP SWAP2 SWAP1 POP JUMP JUMPDEST PUSH1 0x0 DUP3 DUP3 MSTORE PUSH1 0x20 DUP3 ADD SWAP1 POP SWAP3 SWAP2 POP POP JUMP JUMPDEST PUSH1 0x0 JUMPDEST DUP4 DUP2 LT ISZERO PUSH2 0x1FDF JUMPI DUP1 DUP3 ADD MLOAD DUP2 DUP5 ADD MSTORE PUSH1 0x20 DUP2 ADD SWAP1 POP PUSH2 0x1FC4 JUMP JUMPDEST DUP4 DUP2 GT ISZERO PUSH2 0x1FEE JUMPI PUSH1 0x0 DUP5 DUP5 ADD MSTORE JUMPDEST POP POP POP POP JUMP JUMPDEST PUSH1 0x0 PUSH2 0x1FFF DUP3 PUSH2 0x1FA5 JUMP JUMPDEST PUSH2 0x2009 DUP2 DUP6 PUSH2 0x1FB0 JUMP JUMPDEST SWAP4 POP PUSH2 0x2019 DUP2 DUP6 PUSH1 0x20 DUP7 ADD PUSH2 0x1FC1 JUMP JUMPDEST PUSH2 0x2022 DUP2 PUSH2 0x1ACF JUMP JUMPDEST DUP5 ADD SWAP2 POP POP SWAP3 SWAP2 POP POP JUMP JUMPDEST PUSH1 0x0 PUSH1 0x20 DUP3 ADD SWAP1 POP DUP2 DUP2 SUB PUSH1 0x0 DUP4 ADD MSTORE PUSH2 0x2047 DUP2 DUP5 PUSH2 0x1FF4 JUMP JUMPDEST SWAP1 POP SWAP3 SWAP2 POP POP JUMP JUMPDEST PUSH2 0x2058 DUP2 PUSH2 0x1EFA JUMP JUMPDEST DUP3 MSTORE POP POP JUMP JUMPDEST PUSH1 0x0 PUSH1 0x20 DUP3 ADD SWAP1 POP PUSH2 0x2073 PUSH1 0x0 DUP4 ADD DUP5 PUSH2 0x204F JUMP JUMPDEST SWAP3 SWAP2 POP POP JUMP JUMPDEST PUSH1 0x0 PUSH4 0xFFFFFFFF DUP3 AND SWAP1 POP SWAP2 SWAP1 POP JUMP JUMPDEST PUSH2 0x2092 DUP2 PUSH2 0x2079 JUMP JUMPDEST DUP3 MSTORE POP POP JUMP JUMPDEST PUSH1 0x0 PUSH1 0xFF DUP3 AND SWAP1 POP SWAP2 SWAP1 POP JUMP JUMPDEST PUSH2 0x20AE DUP2 PUSH2 0x2098 JUMP JUMPDEST DUP3 MSTORE POP POP JUMP JUMPDEST PUSH1 0x0 DUP2 MLOAD SWAP1 POP SWAP2 SWAP1 POP JUMP JUMPDEST PUSH1 0x0 DUP3 DUP3 MSTORE PUSH1 0x20 DUP3 ADD SWAP1 POP SWAP3 SWAP2 POP POP JUMP JUMPDEST PUSH1 0x0 PUSH2 0x20DB DUP3 PUSH2 0x20B4 JUMP JUMPDEST PUSH2 0x20E5 DUP2 DUP6 PUSH2 0x20BF JUMP JUMPDEST SWAP4 POP PUSH2 0x20F5 DUP2 DUP6 PUSH1 0x20 DUP7 ADD PUSH2 0x1FC1 JUMP JUMPDEST PUSH2 0x20FE DUP2 PUSH2 0x1ACF JUMP JUMPDEST DUP5 ADD SWAP2 POP POP SWAP3 SWAP2 POP POP JUMP JUMPDEST PUSH1 0x0 PUSH1 0x80 DUP4 ADD PUSH1 0x0 DUP4 ADD MLOAD PUSH2 0x2121 PUSH1 0x0 DUP7 ADD DUP3 PUSH2 0x2089 JUMP JUMPDEST POP PUSH1 0x20 DUP4 ADD MLOAD PUSH2 0x2134 PUSH1 0x20 DUP7 ADD DUP3 PUSH2 0x20A5 JUMP JUMPDEST POP PUSH1 0x40 DUP4 ADD MLOAD PUSH2 0x2147 PUSH1 0x40 DUP7 ADD DUP3 PUSH2 0x20A5 JUMP JUMPDEST POP PUSH1 0x60 DUP4 ADD MLOAD DUP5 DUP3 SUB PUSH1 0x60 DUP7 ADD MSTORE PUSH2 0x215F DUP3 DUP3 PUSH2 0x20D0 JUMP JUMPDEST SWAP2 POP POP DUP1 SWAP2 POP POP SWAP3 SWAP2 POP POP JUMP JUMPDEST PUSH1 0x0 PUSH1 0x20 DUP3 ADD SWAP1 POP DUP2 DUP2 SUB PUSH1 0x0 DUP4 ADD MSTORE PUSH2 0x2186 DUP2 DUP5 PUSH2 0x2109 JUMP JUMPDEST SWAP1 POP SWAP3 SWAP2 POP POP JUMP JUMPDEST PUSH1 0x0 PUSH5 0xFFFFFFFFFF DUP3 AND SWAP1 POP SWAP2 SWAP1 POP JUMP JUMPDEST PUSH2 0x21A8 DUP2 PUSH2 0x218E JUMP JUMPDEST DUP3 MSTORE POP POP JUMP JUMPDEST PUSH1 0x0 PUSH1 0x80 DUP4 ADD PUSH1 0x0 DUP4 ADD MLOAD PUSH2 0x21C6 PUSH1 0x0 DUP7 ADD DUP3 PUSH2 0x2089 JUMP JUMPDEST POP PUSH1 0x20 DUP4 ADD MLOAD PUSH2 0x21D9 PUSH1 0x20 DUP7 ADD DUP3 PUSH2 0x219F JUMP JUMPDEST POP PUSH1 0x40 DUP4 ADD MLOAD DUP5 DUP3 SUB PUSH1 0x40 DUP7 ADD MSTORE PUSH2 0x21F1 DUP3 DUP3 PUSH2 0x20D0 JUMP JUMPDEST SWAP2 POP POP PUSH1 0x60 DUP4 ADD MLOAD DUP5 DUP3 SUB PUSH1 0x60 DUP7 ADD MSTORE PUSH2 0x220B DUP3 DUP3 PUSH2 0x20D0 JUMP JUMPDEST SWAP2 POP POP DUP1 SWAP2 POP POP SWAP3 SWAP2 POP POP JUMP JUMPDEST PUSH1 0x0 PUSH1 0x20 DUP3 ADD SWAP1 POP DUP2 DUP2 SUB PUSH1 0x0 DUP4 ADD MSTORE PUSH2 0x2232 DUP2 DUP5 PUSH2 0x21AE JUMP JUMPDEST SWAP1 POP SWAP3 SWAP2 POP POP JUMP JUMPDEST PUSH1 0x0 PUSH32 0xFFFFFFFF00000000000000000000000000000000000000000000000000000000 DUP3 AND SWAP1 POP SWAP2 SWAP1 POP JUMP JUMPDEST PUSH2 0x226F DUP2 PUSH2 0x223A JUMP JUMPDEST DUP2 EQ PUSH2 0x227A JUMPI PUSH1 0x0 DUP1 REVERT JUMPDEST POP JUMP JUMPDEST PUSH1 0x0 DUP2 CALLDATALOAD SWAP1 POP PUSH2 0x228C DUP2 PUSH2 0x2266 JUMP JUMPDEST SWAP3 SWAP2 POP POP JUMP JUMPDEST PUSH1 0x0 DUP1 PUSH1 0x0 DUP1 PUSH1 0x80 DUP6 DUP8 SUB SLT ISZERO PUSH2 0x22AC JUMPI PUSH2 0x22AB PUSH2 0x19D9 JUMP JUMPDEST JUMPDEST PUSH1 0x0 PUSH2 0x22BA DUP8 DUP3 DUP9 ADD PUSH2 0x1A04 JUMP JUMPDEST SWAP5 POP POP PUSH1 0x20 PUSH2 0x22CB DUP8 DUP3 DUP9 ADD PUSH2 0x1A3A JUMP JUMPDEST SWAP4 POP POP PUSH1 0x40 PUSH2 0x22DC DUP8 DUP3 DUP9 ADD PUSH2 0x227D JUMP JUMPDEST SWAP3 POP POP PUSH1 0x60 PUSH2 0x22ED DUP8 DUP3 DUP9 ADD PUSH2 0x1A3A JUMP JUMPDEST SWAP2 POP POP SWAP3 SWAP6 SWAP2 SWAP5 POP SWAP3 POP JUMP JUMPDEST PUSH1 0x0 DUP2 SWAP1 POP SWAP2 SWAP1 POP JUMP JUMPDEST PUSH1 0x0 PUSH2 0x231E PUSH2 0x2319 PUSH2 0x2314 DUP5 PUSH2 0x1D52 JUMP JUMPDEST PUSH2 0x22F9 JUMP JUMPDEST PUSH2 0x1D52 JUMP JUMPDEST SWAP1 POP SWAP2 SWAP1 POP JUMP JUMPDEST PUSH1 0x0 PUSH2 0x2330 DUP3 PUSH2 0x2303 JUMP JUMPDEST SWAP1 POP SWAP2 SWAP1 POP JUMP JUMPDEST PUSH1 0x0 PUSH2 0x2342 DUP3 PUSH2 0x2325 JUMP JUMPDEST SWAP1 POP SWAP2 SWAP1 POP JUMP JUMPDEST PUSH2 0x2352 DUP2 PUSH2 0x2337 JUMP JUMPDEST DUP3 MSTORE POP POP JUMP JUMPDEST PUSH2 0x2361 DUP2 PUSH2 0x1A19 JUMP JUMPDEST DUP3 MSTORE POP POP JUMP JUMPDEST PUSH1 0x0 PUSH1 0x40 DUP3 ADD SWAP1 POP PUSH2 0x237C PUSH1 0x0 DUP4 ADD DUP6 PUSH2 0x2349 JUMP JUMPDEST PUSH2 0x2389 PUSH1 0x20 DUP4 ADD DUP5 PUSH2 0x2358 JUMP JUMPDEST SWAP4 SWAP3 POP POP POP JUMP JUMPDEST PUSH1 0x0 DUP2 ISZERO ISZERO SWAP1 POP SWAP2 SWAP1 POP JUMP JUMPDEST PUSH2 0x23A5 DUP2 PUSH2 0x2390 JUMP JUMPDEST DUP2 EQ PUSH2 0x23B0 JUMPI PUSH1 0x0 DUP1 REVERT JUMPDEST POP JUMP JUMPDEST PUSH1 0x0 DUP2 MLOAD SWAP1 POP PUSH2 0x23C2 DUP2 PUSH2 0x239C JUMP JUMPDEST SWAP3 SWAP2 POP POP JUMP JUMPDEST PUSH1 0x0 PUSH1 0x20 DUP3 DUP5 SUB SLT ISZERO PUSH2 0x23DE JUMPI PUSH2 0x23DD PUSH2 0x19D9 JUMP JUMPDEST JUMPDEST PUSH1 0x0 PUSH2 0x23EC DUP5 DUP3 DUP6 ADD PUSH2 0x23B3 JUMP JUMPDEST SWAP2 POP POP SWAP3 SWAP2 POP POP JUMP JUMPDEST PUSH1 0x0 DUP3 DUP3 MSTORE PUSH1 0x20 DUP3 ADD SWAP1 POP SWAP3 SWAP2 POP POP JUMP JUMPDEST PUSH32 0x536F75726365206D75737420626520746865206F7261636C65206F6620746865 PUSH1 0x0 DUP3 ADD MSTORE PUSH32 0x2072657175657374000000000000000000000000000000000000000000000000 PUSH1 0x20 DUP3 ADD MSTORE POP JUMP JUMPDEST PUSH1 0x0 PUSH2 0x2462 PUSH1 0x28 DUP4 PUSH2 0x23F5 JUMP JUMPDEST SWAP2 POP PUSH2 0x246D DUP3 PUSH2 0x2406 JUMP JUMPDEST PUSH1 0x40 DUP3 ADD SWAP1 POP SWAP2 SWAP1 POP JUMP JUMPDEST PUSH1 0x0 PUSH1 0x20 DUP3 ADD SWAP1 POP DUP2 DUP2 SUB PUSH1 0x0 DUP4 ADD MSTORE PUSH2 0x2491 DUP2 PUSH2 0x2455 JUMP JUMPDEST SWAP1 POP SWAP2 SWAP1 POP JUMP JUMPDEST PUSH32 0x4E487B7100000000000000000000000000000000000000000000000000000000 PUSH1 0x0 MSTORE PUSH1 0x22 PUSH1 0x4 MSTORE PUSH1 0x24 PUSH1 0x0 REVERT JUMPDEST PUSH1 0x0 PUSH1 0x2 DUP3 DIV SWAP1 POP PUSH1 0x1 DUP3 AND DUP1 PUSH2 0x24DF JUMPI PUSH1 0x7F DUP3 AND SWAP2 POP JUMPDEST PUSH1 0x20 DUP3 LT DUP2 EQ ISZERO PUSH2 0x24F3 JUMPI PUSH2 0x24F2 PUSH2 0x2498 JUMP JUMPDEST JUMPDEST POP SWAP2 SWAP1 POP JUMP JUMPDEST PUSH32 0x4E487B7100000000000000000000000000000000000000000000000000000000 PUSH1 0x0 MSTORE PUSH1 0x32 PUSH1 0x4 MSTORE PUSH1 0x24 PUSH1 0x0 REVERT JUMPDEST PUSH1 0x0 PUSH1 0x40 DUP3 ADD SWAP1 POP PUSH2 0x253D PUSH1 0x0 DUP4 ADD DUP6 PUSH2 0x204F JUMP JUMPDEST PUSH2 0x254A PUSH1 0x20 DUP4 ADD DUP5 PUSH2 0x2358 JUMP JUMPDEST SWAP4 SWAP3 POP POP POP JUMP JUMPDEST PUSH1 0x0 DUP2 SWAP1 POP PUSH1 0x20 DUP3 ADD SWAP1 POP SWAP2 SWAP1 POP JUMP JUMPDEST PUSH1 0x0 PUSH2 0x256D DUP3 MLOAD PUSH2 0x223A JUMP JUMPDEST DUP1 SWAP2 POP POP SWAP2 SWAP1 POP JUMP JUMPDEST PUSH1 0x0 DUP3 DUP3 SHL SWAP1 POP SWAP3 SWAP2 POP POP JUMP JUMPDEST PUSH1 0x0 PUSH2 0x258E DUP3 PUSH2 0x1FA5 JUMP JUMPDEST DUP3 PUSH2 0x2598 DUP5 PUSH2 0x2551 JUMP JUMPDEST SWAP1 POP PUSH2 0x25A3 DUP2 PUSH2 0x2561 JUMP JUMPDEST SWAP3 POP PUSH1 0x4 DUP3 LT ISZERO PUSH2 0x25E3 JUMPI PUSH2 0x25DE PUSH32 0xFFFFFFFF00000000000000000000000000000000000000000000000000000000 DUP4 PUSH1 0x4 SUB PUSH1 0x8 MUL PUSH2 0x2576 JUMP JUMPDEST DUP4 AND SWAP3 POP JUMPDEST POP POP SWAP2 SWAP1 POP JUMP JUMPDEST PUSH1 0x0 PUSH32 0xFFFFFFFFFF000000000000000000000000000000000000000000000000000000 DUP3 AND SWAP1 POP SWAP2 SWAP1 POP JUMP JUMPDEST PUSH1 0x0 PUSH2 0x2622 DUP3 MLOAD PUSH2 0x25EA JUMP JUMPDEST DUP1 SWAP2 POP POP SWAP2 SWAP1 POP JUMP JUMPDEST PUSH1 0x0 PUSH2 0x2636 DUP3 PUSH2 0x1FA5 JUMP JUMPDEST DUP3 PUSH2 0x2640 DUP5 PUSH2 0x2551 JUMP JUMPDEST SWAP1 POP PUSH2 0x264B DUP2 PUSH2 0x2616 JUMP JUMPDEST SWAP3 POP PUSH1 0x5 DUP3 LT ISZERO PUSH2 0x268B JUMPI PUSH2 0x2686 PUSH32 0xFFFFFFFFFF000000000000000000000000000000000000000000000000000000 DUP4 PUSH1 0x5 SUB PUSH1 0x8 MUL PUSH2 0x2576 JUMP JUMPDEST DUP4 AND SWAP3 POP JUMPDEST POP POP SWAP2 SWAP1 POP JUMP JUMPDEST PUSH32 0x4E487B7100000000000000000000000000000000000000000000000000000000 PUSH1 0x0 MSTORE PUSH1 0x11 PUSH1 0x4 MSTORE PUSH1 0x24 PUSH1 0x0 REVERT JUMPDEST PUSH1 0x0 PUSH2 0x26CC DUP3 PUSH2 0x2098 JUMP JUMPDEST SWAP2 POP PUSH2 0x26D7 DUP4 PUSH2 0x2098 JUMP JUMPDEST SWAP3 POP DUP3 PUSH1 0xFF SUB DUP3 GT ISZERO PUSH2 0x26ED JUMPI PUSH2 0x26EC PUSH2 0x2692 JUMP JUMPDEST JUMPDEST DUP3 DUP3 ADD SWAP1 POP SWAP3 SWAP2 POP POP JUMP JUMPDEST PUSH2 0x2701 DUP2 PUSH2 0x19E3 JUMP JUMPDEST DUP3 MSTORE POP POP JUMP JUMPDEST PUSH2 0x2710 DUP2 PUSH2 0x223A JUMP JUMPDEST DUP3 MSTORE POP POP JUMP JUMPDEST PUSH1 0x0 PUSH1 0x80 DUP3 ADD SWAP1 POP PUSH2 0x272B PUSH1 0x0 DUP4 ADD DUP8 PUSH2 0x26F8 JUMP JUMPDEST PUSH2 0x2738 PUSH1 0x20 DUP4 ADD DUP7 PUSH2 0x2358 JUMP JUMPDEST PUSH2 0x2745 PUSH1 0x40 DUP4 ADD DUP6 PUSH2 0x2707 JUMP JUMPDEST PUSH2 0x2752 PUSH1 0x60 DUP4 ADD DUP5 PUSH2 0x2358 JUMP JUMPDEST SWAP6 SWAP5 POP POP POP POP POP JUMP JUMPDEST PUSH1 0x0 PUSH2 0x2766 DUP3 PUSH2 0x1A19 JUMP JUMPDEST SWAP2 POP PUSH2 0x2771 DUP4 PUSH2 0x1A19 JUMP JUMPDEST SWAP3 POP DUP3 PUSH32 0xFFFFFFFFFFFFFFFFFFFFFFFFFFFFFFFFFFFFFFFFFFFFFFFFFFFFFFFFFFFFFFFF SUB DUP3 GT ISZERO PUSH2 0x27A6 JUMPI PUSH2 0x27A5 PUSH2 0x2692 JUMP JUMPDEST JUMPDEST DUP3 DUP3 ADD SWAP1 POP SWAP3 SWAP2 POP POP JUMP JUMPDEST PUSH1 0x0 PUSH1 0xE0 DUP3 ADD SWAP1 POP PUSH2 0x27C6 PUSH1 0x0 DUP4 ADD DUP11 PUSH2 0x204F JUMP JUMPDEST PUSH2 0x27D3 PUSH1 0x20 DUP4 ADD DUP10 PUSH2 0x2358 JUMP JUMPDEST PUSH2 0x27E0 PUSH1 0x40 DUP4 ADD DUP9 PUSH2 0x26F8 JUMP JUMPDEST PUSH2 0x27ED PUSH1 0x60 DUP4 ADD DUP8 PUSH2 0x2707 JUMP JUMPDEST PUSH2 0x27FA PUSH1 0x80 DUP4 ADD DUP7 PUSH2 0x2358 JUMP JUMPDEST PUSH2 0x2807 PUSH1 0xA0 DUP4 ADD DUP6 PUSH2 0x2358 JUMP JUMPDEST DUP2 DUP2 SUB PUSH1 0xC0 DUP4 ADD MSTORE PUSH2 0x2819 DUP2 DUP5 PUSH2 0x1FF4 JUMP JUMPDEST SWAP1 POP SWAP9 SWAP8 POP POP POP POP POP POP POP POP JUMP JUMPDEST PUSH1 0x0 PUSH2 0x2832 DUP3 PUSH2 0x1A19 JUMP JUMPDEST SWAP2 POP PUSH2 0x283D DUP4 PUSH2 0x1A19 JUMP JUMPDEST SWAP3 POP DUP3 DUP3 LT ISZERO PUSH2 0x2850 JUMPI PUSH2 0x284F PUSH2 0x2692 JUMP JUMPDEST JUMPDEST DUP3 DUP3 SUB SWAP1 POP SWAP3 SWAP2 POP POP JUMP JUMPDEST PUSH1 0x0 PUSH2 0x2866 DUP3 PUSH2 0x1A19 JUMP JUMPDEST SWAP2 POP PUSH32 0xFFFFFFFFFFFFFFFFFFFFFFFFFFFFFFFFFFFFFFFFFFFFFFFFFFFFFFFFFFFFFFFF DUP3 EQ ISZERO PUSH2 0x2899 JUMPI PUSH2 0x2898 PUSH2 0x2692 JUMP JUMPDEST JUMPDEST PUSH1 0x1 DUP3 ADD SWAP1 POP SWAP2 SWAP1 POP JUMP JUMPDEST PUSH32 0x4E487B7100000000000000000000000000000000000000000000000000000000 PUSH1 0x0 MSTORE PUSH1 0x12 PUSH1 0x4 MSTORE PUSH1 0x24 PUSH1 0x0 REVERT JUMPDEST PUSH1 0x0 PUSH2 0x28DE DUP3 PUSH2 0x1A19 JUMP JUMPDEST SWAP2 POP PUSH2 0x28E9 DUP4 PUSH2 0x1A19 JUMP JUMPDEST SWAP3 POP DUP3 PUSH2 0x28F9 JUMPI PUSH2 0x28F8 PUSH2 0x28A4 JUMP JUMPDEST JUMPDEST DUP3 DUP3 MOD SWAP1 POP SWAP3 SWAP2 POP POP JUMP JUMPDEST PUSH1 0x0 PUSH1 0x20 DUP3 ADD SWAP1 POP PUSH2 0x2919 PUSH1 0x0 DUP4 ADD DUP5 PUSH2 0x2358 JUMP JUMPDEST SWAP3 SWAP2 POP POP JUMP JUMPDEST PUSH1 0x0 PUSH2 0x292A DUP3 PUSH2 0x2325 JUMP JUMPDEST SWAP1 POP SWAP2 SWAP1 POP JUMP JUMPDEST PUSH1 0x0 DUP2 PUSH1 0x60 SHL SWAP1 POP SWAP2 SWAP1 POP JUMP JUMPDEST PUSH1 0x0 PUSH2 0x2949 DUP3 PUSH2 0x2931 JUMP JUMPDEST SWAP1 POP SWAP2 SWAP1 POP JUMP JUMPDEST PUSH1 0x0 PUSH2 0x295B DUP3 PUSH2 0x293E JUMP JUMPDEST SWAP1 POP SWAP2 SWAP1 POP JUMP JUMPDEST PUSH2 0x2973 PUSH2 0x296E DUP3 PUSH2 0x291F JUMP JUMPDEST PUSH2 0x2950 JUMP JUMPDEST DUP3 MSTORE POP POP JUMP JUMPDEST PUSH1 0x0 DUP2 SWAP1 POP SWAP2 SWAP1 POP JUMP JUMPDEST PUSH2 0x2994 PUSH2 0x298F DUP3 PUSH2 0x1A19 JUMP JUMPDEST PUSH2 0x2979 JUMP JUMPDEST DUP3 MSTORE POP POP JUMP JUMPDEST PUSH1 0x0 PUSH2 0x29A6 DUP3 DUP6 PUSH2 0x2962 JUMP JUMPDEST PUSH1 0x14 DUP3 ADD SWAP2 POP PUSH2 0x29B6 DUP3 DUP5 PUSH2 0x2983 JUMP JUMPDEST PUSH1 0x20 DUP3 ADD SWAP2 POP DUP2 SWAP1 POP SWAP4 SWAP3 POP POP POP JUMP JUMPDEST PUSH1 0x0 PUSH1 0x60 DUP3 ADD SWAP1 POP PUSH2 0x29DB PUSH1 0x0 DUP4 ADD DUP7 PUSH2 0x204F JUMP JUMPDEST PUSH2 0x29E8 PUSH1 0x20 DUP4 ADD DUP6 PUSH2 0x2358 JUMP JUMPDEST DUP2 DUP2 SUB PUSH1 0x40 DUP4 ADD MSTORE PUSH2 0x29FA DUP2 DUP5 PUSH2 0x1FF4 JUMP JUMPDEST SWAP1 POP SWAP5 SWAP4 POP POP POP POP JUMP JUMPDEST PUSH32 0x756E61626C6520746F207472616E73666572416E6443616C6C20746F206F7261 PUSH1 0x0 DUP3 ADD MSTORE PUSH32 0x636C650000000000000000000000000000000000000000000000000000000000 PUSH1 0x20 DUP3 ADD MSTORE POP JUMP JUMPDEST PUSH1 0x0 PUSH2 0x2A60 PUSH1 0x23 DUP4 PUSH2 0x23F5 JUMP JUMPDEST SWAP2 POP PUSH2 0x2A6B DUP3 PUSH2 0x2A04 JUMP JUMPDEST PUSH1 0x40 DUP3 ADD SWAP1 POP SWAP2 SWAP1 POP JUMP JUMPDEST PUSH1 0x0 PUSH1 0x20 DUP3 ADD SWAP1 POP DUP2 DUP2 SUB PUSH1 0x0 DUP4 ADD MSTORE PUSH2 0x2A8F DUP2 PUSH2 0x2A53 JUMP JUMPDEST SWAP1 POP SWAP2 SWAP1 POP JUMP JUMPDEST PUSH1 0x0 PUSH2 0x2AA1 DUP3 PUSH2 0x1A19 JUMP JUMPDEST SWAP2 POP PUSH2 0x2AAC DUP4 PUSH2 0x1A19 JUMP JUMPDEST SWAP3 POP DUP2 PUSH32 0xFFFFFFFFFFFFFFFFFFFFFFFFFFFFFFFFFFFFFFFFFFFFFFFFFFFFFFFFFFFFFFFF DIV DUP4 GT DUP3 ISZERO ISZERO AND ISZERO PUSH2 0x2AE5 JUMPI PUSH2 0x2AE4 PUSH2 0x2692 JUMP JUMPDEST JUMPDEST DUP3 DUP3 MUL SWAP1 POP SWAP3 SWAP2 POP POP JUMP JUMPDEST PUSH1 0x0 DUP2 PUSH1 0x1 SHR SWAP1 POP SWAP2 SWAP1 POP JUMP JUMPDEST PUSH1 0x0 DUP1 DUP3 SWAP2 POP DUP4 SWAP1 POP JUMPDEST PUSH1 0x1 DUP6 GT ISZERO PUSH2 0x2B47 JUMPI DUP1 DUP7 DIV DUP2 GT ISZERO PUSH2 0x2B23 JUMPI PUSH2 0x2B22 PUSH2 0x2692 JUMP JUMPDEST JUMPDEST PUSH1 0x1 DUP6 AND ISZERO PUSH2 0x2B32 JUMPI DUP1 DUP3 MUL SWAP2 POP JUMPDEST DUP1 DUP2 MUL SWAP1 POP PUSH2 0x2B40 DUP6 PUSH2 0x2AF0 JUMP JUMPDEST SWAP5 POP PUSH2 0x2B07 JUMP JUMPDEST SWAP5 POP SWAP5 SWAP3 POP POP POP JUMP JUMPDEST PUSH1 0x0 DUP3 PUSH2 0x2B60 JUMPI PUSH1 0x1 SWAP1 POP PUSH2 0x2C1C JUMP JUMPDEST DUP2 PUSH2 0x2B6E JUMPI PUSH1 0x0 SWAP1 POP PUSH2 0x2C1C JUMP JUMPDEST DUP2 PUSH1 0x1 DUP2 EQ PUSH2 0x2B84 JUMPI PUSH1 0x2 DUP2 EQ PUSH2 0x2B8E JUMPI PUSH2 0x2BBD JUMP JUMPDEST PUSH1 0x1 SWAP2 POP POP PUSH2 0x2C1C JUMP JUMPDEST PUSH1 0xFF DUP5 GT ISZERO PUSH2 0x2BA0 JUMPI PUSH2 0x2B9F PUSH2 0x2692 JUMP JUMPDEST JUMPDEST DUP4 PUSH1 0x2 EXP SWAP2 POP DUP5 DUP3 GT ISZERO PUSH2 0x2BB7 JUMPI PUSH2 0x2BB6 PUSH2 0x2692 JUMP JUMPDEST JUMPDEST POP PUSH2 0x2C1C JUMP JUMPDEST POP PUSH1 0x20 DUP4 LT PUSH2 0x133 DUP4 LT AND PUSH1 0x4E DUP5 LT PUSH1 0xB DUP5 LT AND OR ISZERO PUSH2 0x2BF2 JUMPI DUP3 DUP3 EXP SWAP1 POP DUP4 DUP2 GT ISZERO PUSH2 0x2BED JUMPI PUSH2 0x2BEC PUSH2 0x2692 JUMP JUMPDEST JUMPDEST PUSH2 0x2C1C JUMP JUMPDEST PUSH2 0x2BFF DUP5 DUP5 DUP5 PUSH1 0x1 PUSH2 0x2AFD JUMP JUMPDEST SWAP3 POP SWAP1 POP DUP2 DUP5 DIV DUP2 GT ISZERO PUSH2 0x2C16 JUMPI PUSH2 0x2C15 PUSH2 0x2692 JUMP JUMPDEST JUMPDEST DUP2 DUP2 MUL SWAP1 POP JUMPDEST SWAP4 SWAP3 POP POP POP JUMP JUMPDEST PUSH1 0x0 PUSH2 0x2C2E DUP3 PUSH2 0x1A19 JUMP JUMPDEST SWAP2 POP PUSH2 0x2C39 DUP4 PUSH2 0x1A19 JUMP JUMPDEST SWAP3 POP PUSH2 0x2C66 PUSH32 0xFFFFFFFFFFFFFFFFFFFFFFFFFFFFFFFFFFFFFFFFFFFFFFFFFFFFFFFFFFFFFFFF DUP5 DUP5 PUSH2 0x2B50 JUMP JUMPDEST SWAP1 POP SWAP3 SWAP2 POP POP JUMP INVALID LOG2 PUSH5 0x6970667358 0x22 SLT KECCAK256 0xEB SELFDESTRUCT 0xAB 0xEE PUSH23 0xD50C718815489DB63A1178BA2D944636985D7C88E675F4 0xE7 SWAP15 0xD6 0x28 PUSH5 0x736F6C6343 STOP ADDMOD MULMOD STOP CALLER "
		},
		"gasEstimates": {
			"creation": {
				"codeDepositCost": "2285600",
				"executionCost": "infinite",
				"totalCost": "infinite"
			},
			"external": {
				"_getOracleAddress()": "2601",
				"cancelRequest(bytes32,uint256,bytes4,uint256)": "infinite",
				"fulfillSchedule(bytes32,bytes[])": "infinite",
				"getGameCreate(bytes32,uint256)": "infinite",
				"getGameResolve(bytes32,uint256)": "infinite",
				"requestIdGames(bytes32,uint256)": "infinite",
				"requestSchedule(bytes32,uint256,uint256,uint256,uint256)": "infinite",
				"requestSchedule(bytes32,uint256,uint256,uint256,uint256,uint256[])": "infinite",
				"setOracle(address)": "24840",
				"setRequestIdGames(bytes32,bytes[])": "infinite",
				"withdrawLink(uint256,address)": "infinite"
			},
			"internal": {
				"_addUintArray(struct Chainlink.Request memory,string memory,uint256[] memory)": "infinite",
				"_getGameCreateStruct(bytes memory)": "infinite",
				"_getGameResolveStruct(bytes memory)": "infinite",
				"_requireTransferLINK(bool,address,uint256)": "infinite",
				"_sliceDynamicArray(uint256,uint256,bytes memory)": "infinite"
			}
		},
		"methodIdentifiers": {
			"_getOracleAddress()": "b075f532",
			"cancelRequest(bytes32,uint256,bytes4,uint256)": "ec65d0f8",
			"fulfillSchedule(bytes32,bytes[])": "93d07072",
			"getGameCreate(bytes32,uint256)": "e3c046a7",
			"getGameResolve(bytes32,uint256)": "de00d107",
			"requestIdGames(bytes32,uint256)": "a2943608",
			"requestSchedule(bytes32,uint256,uint256,uint256,uint256)": "00aa2967",
			"requestSchedule(bytes32,uint256,uint256,uint256,uint256,uint256[])": "49687cca",
			"setOracle(address)": "7adbf973",
			"setRequestIdGames(bytes32,bytes[])": "303a712f",
			"withdrawLink(uint256,address)": "41ea27ca"
		}
	},
	"abi": [
		{
			"inputs": [],
			"stateMutability": "nonpayable",
			"type": "constructor"
		},
		{
			"inputs": [
				{
					"internalType": "address",
					"name": "to",
					"type": "address"
				},
				{
					"internalType": "uint256",
					"name": "amount",
					"type": "uint256"
				}
			],
			"name": "FailedTransferLINK",
			"type": "error"
		},
		{
			"anonymous": false,
			"inputs": [
				{
					"indexed": true,
					"internalType": "bytes32",
					"name": "id",
					"type": "bytes32"
				}
			],
			"name": "ChainlinkCancelled",
			"type": "event"
		},
		{
			"anonymous": false,
			"inputs": [
				{
					"indexed": true,
					"internalType": "bytes32",
					"name": "id",
					"type": "bytes32"
				}
			],
			"name": "ChainlinkFulfilled",
			"type": "event"
		},
		{
			"anonymous": false,
			"inputs": [
				{
					"indexed": true,
					"internalType": "bytes32",
					"name": "id",
					"type": "bytes32"
				}
			],
			"name": "ChainlinkRequested",
			"type": "event"
		},
		{
			"inputs": [],
			"name": "_getOracleAddress",
			"outputs": [
				{
					"internalType": "address",
					"name": "",
					"type": "address"
				}
			],
			"stateMutability": "view",
			"type": "function"
		},
		{
			"inputs": [
				{
					"internalType": "bytes32",
					"name": "_requestId",
					"type": "bytes32"
				},
				{
					"internalType": "uint256",
					"name": "_payment",
					"type": "uint256"
				},
				{
					"internalType": "bytes4",
					"name": "_callbackFunctionId",
					"type": "bytes4"
				},
				{
					"internalType": "uint256",
					"name": "_expiration",
					"type": "uint256"
				}
			],
			"name": "cancelRequest",
			"outputs": [],
			"stateMutability": "nonpayable",
			"type": "function"
		},
		{
			"inputs": [
				{
					"internalType": "bytes32",
					"name": "_requestId",
					"type": "bytes32"
				},
				{
					"internalType": "bytes[]",
					"name": "_result",
					"type": "bytes[]"
				}
			],
			"name": "fulfillSchedule",
			"outputs": [],
			"stateMutability": "nonpayable",
			"type": "function"
		},
		{
			"inputs": [
				{
					"internalType": "bytes32",
					"name": "_requestId",
					"type": "bytes32"
				},
				{
					"internalType": "uint256",
					"name": "_idx",
					"type": "uint256"
				}
			],
			"name": "getGameCreate",
			"outputs": [
				{
					"components": [
						{
							"internalType": "uint32",
							"name": "gameId",
							"type": "uint32"
						},
						{
							"internalType": "uint40",
							"name": "startTime",
							"type": "uint40"
						},
						{
							"internalType": "string",
							"name": "homeTeam",
							"type": "string"
						},
						{
							"internalType": "string",
							"name": "awayTeam",
							"type": "string"
						}
					],
					"internalType": "struct EnetscoresConsumer.GameCreate",
					"name": "",
					"type": "tuple"
				}
			],
			"stateMutability": "view",
			"type": "function"
		},
		{
			"inputs": [
				{
					"internalType": "bytes32",
					"name": "_requestId",
					"type": "bytes32"
				},
				{
					"internalType": "uint256",
					"name": "_idx",
					"type": "uint256"
				}
			],
			"name": "getGameResolve",
			"outputs": [
				{
					"components": [
						{
							"internalType": "uint32",
							"name": "gameId",
							"type": "uint32"
						},
						{
							"internalType": "uint8",
							"name": "homeScore",
							"type": "uint8"
						},
						{
							"internalType": "uint8",
							"name": "awayScore",
							"type": "uint8"
						},
						{
							"internalType": "string",
							"name": "status",
							"type": "string"
						}
					],
					"internalType": "struct EnetscoresConsumer.GameResolve",
					"name": "",
					"type": "tuple"
				}
			],
			"stateMutability": "nonpayable",
			"type": "function"
		},
		{
			"inputs": [
				{
					"internalType": "bytes32",
					"name": "",
					"type": "bytes32"
				},
				{
					"internalType": "uint256",
					"name": "",
					"type": "uint256"
				}
			],
			"name": "requestIdGames",
			"outputs": [
				{
					"internalType": "bytes",
					"name": "",
					"type": "bytes"
				}
			],
			"stateMutability": "view",
			"type": "function"
		},
		{
			"inputs": [
				{
					"internalType": "bytes32",
					"name": "_specId",
					"type": "bytes32"
				},
				{
					"internalType": "uint256",
					"name": "_payment",
					"type": "uint256"
				},
				{
					"internalType": "uint256",
					"name": "_market",
					"type": "uint256"
				},
				{
					"internalType": "uint256",
					"name": "_leagueId",
					"type": "uint256"
				},
				{
					"internalType": "uint256",
					"name": "_date",
					"type": "uint256"
				}
			],
			"name": "requestSchedule",
			"outputs": [],
			"stateMutability": "nonpayable",
			"type": "function"
		},
		{
			"inputs": [
				{
					"internalType": "bytes32",
					"name": "_specId",
					"type": "bytes32"
				},
				{
					"internalType": "uint256",
					"name": "_payment",
					"type": "uint256"
				},
				{
					"internalType": "uint256",
					"name": "_market",
					"type": "uint256"
				},
				{
					"internalType": "uint256",
					"name": "_leagueId",
					"type": "uint256"
				},
				{
					"internalType": "uint256",
					"name": "_date",
					"type": "uint256"
				},
				{
					"internalType": "uint256[]",
					"name": "_gameIds",
					"type": "uint256[]"
				}
			],
			"name": "requestSchedule",
			"outputs": [],
			"stateMutability": "nonpayable",
			"type": "function"
		},
		{
			"inputs": [
				{
					"internalType": "address",
					"name": "_oracle",
					"type": "address"
				}
			],
			"name": "setOracle",
			"outputs": [],
			"stateMutability": "nonpayable",
			"type": "function"
		},
		{
			"inputs": [
				{
					"internalType": "bytes32",
					"name": "_requestId",
					"type": "bytes32"
				},
				{
					"internalType": "bytes[]",
					"name": "_games",
					"type": "bytes[]"
				}
			],
			"name": "setRequestIdGames",
			"outputs": [],
			"stateMutability": "nonpayable",
			"type": "function"
		},
		{
			"inputs": [
				{
					"internalType": "uint256",
					"name": "_amount",
					"type": "uint256"
				},
				{
					"internalType": "address payable",
					"name": "_payee",
					"type": "address"
				}
			],
			"name": "withdrawLink",
			"outputs": [],
			"stateMutability": "nonpayable",
			"type": "function"
		}
	]
}