{
	".git/contracts/enetscoreConsumer.sol": {
		"EnetscoresConsumer": {
			"abi": [
				{
					"inputs": [],
					"stateMutability": "nonpayable",
					"type": "constructor"
				},
				{
					"inputs": [
						{
							"internalType": "address",
							"name": "to",
							"type": "address"
						},
						{
							"internalType": "uint256",
							"name": "amount",
							"type": "uint256"
						}
					],
					"name": "FailedTransferLINK",
					"type": "error"
				},
				{
					"anonymous": false,
					"inputs": [
						{
							"indexed": true,
							"internalType": "bytes32",
							"name": "id",
							"type": "bytes32"
						}
					],
					"name": "ChainlinkCancelled",
					"type": "event"
				},
				{
					"anonymous": false,
					"inputs": [
						{
							"indexed": true,
							"internalType": "bytes32",
							"name": "id",
							"type": "bytes32"
						}
					],
					"name": "ChainlinkFulfilled",
					"type": "event"
				},
				{
					"anonymous": false,
					"inputs": [
						{
							"indexed": true,
							"internalType": "bytes32",
							"name": "id",
							"type": "bytes32"
						}
					],
					"name": "ChainlinkRequested",
					"type": "event"
				},
				{
					"inputs": [],
					"name": "_getOracleAddress",
					"outputs": [
						{
							"internalType": "address",
							"name": "",
							"type": "address"
						}
					],
					"stateMutability": "view",
					"type": "function"
				},
				{
					"inputs": [
						{
							"internalType": "bytes32",
							"name": "_requestId",
							"type": "bytes32"
						},
						{
							"internalType": "uint256",
							"name": "_payment",
							"type": "uint256"
						},
						{
							"internalType": "bytes4",
							"name": "_callbackFunctionId",
							"type": "bytes4"
						},
						{
							"internalType": "uint256",
							"name": "_expiration",
							"type": "uint256"
						}
					],
					"name": "cancelRequest",
					"outputs": [],
					"stateMutability": "nonpayable",
					"type": "function"
				},
				{
					"inputs": [
						{
							"internalType": "bytes32",
							"name": "_requestId",
							"type": "bytes32"
						},
						{
							"internalType": "bytes[]",
							"name": "_result",
							"type": "bytes[]"
						}
					],
					"name": "fulfillSchedule",
					"outputs": [],
					"stateMutability": "nonpayable",
					"type": "function"
				},
				{
					"inputs": [
						{
							"internalType": "bytes32",
							"name": "_requestId",
							"type": "bytes32"
						},
						{
							"internalType": "uint256",
							"name": "_idx",
							"type": "uint256"
						}
					],
					"name": "getGameCreate",
					"outputs": [
						{
							"components": [
								{
									"internalType": "uint32",
									"name": "gameId",
									"type": "uint32"
								},
								{
									"internalType": "uint40",
									"name": "startTime",
									"type": "uint40"
								},
								{
									"internalType": "string",
									"name": "homeTeam",
									"type": "string"
								},
								{
									"internalType": "string",
									"name": "awayTeam",
									"type": "string"
								}
							],
							"internalType": "struct EnetscoresConsumer.GameCreate",
							"name": "",
							"type": "tuple"
						}
					],
					"stateMutability": "view",
					"type": "function"
				},
				{
					"inputs": [
						{
							"internalType": "bytes32",
							"name": "_requestId",
							"type": "bytes32"
						},
						{
							"internalType": "uint256",
							"name": "_idx",
							"type": "uint256"
						}
					],
					"name": "getGameResolve",
					"outputs": [
						{
							"components": [
								{
									"internalType": "uint32",
									"name": "gameId",
									"type": "uint32"
								},
								{
									"internalType": "uint8",
									"name": "homeScore",
									"type": "uint8"
								},
								{
									"internalType": "uint8",
									"name": "awayScore",
									"type": "uint8"
								},
								{
									"internalType": "string",
									"name": "status",
									"type": "string"
								}
							],
							"internalType": "struct EnetscoresConsumer.GameResolve",
							"name": "",
							"type": "tuple"
						}
					],
					"stateMutability": "nonpayable",
					"type": "function"
				},
				{
					"inputs": [
						{
							"internalType": "bytes32",
							"name": "",
							"type": "bytes32"
						},
						{
							"internalType": "uint256",
							"name": "",
							"type": "uint256"
						}
					],
					"name": "requestIdGames",
					"outputs": [
						{
							"internalType": "bytes",
							"name": "",
							"type": "bytes"
						}
					],
					"stateMutability": "view",
					"type": "function"
				},
				{
					"inputs": [
						{
							"internalType": "bytes32",
							"name": "_specId",
							"type": "bytes32"
						},
						{
							"internalType": "uint256",
							"name": "_payment",
							"type": "uint256"
						},
						{
							"internalType": "uint256",
							"name": "_market",
							"type": "uint256"
						},
						{
							"internalType": "uint256",
							"name": "_leagueId",
							"type": "uint256"
						},
						{
							"internalType": "uint256",
							"name": "_date",
							"type": "uint256"
						}
					],
					"name": "requestSchedule",
					"outputs": [],
					"stateMutability": "nonpayable",
					"type": "function"
				},
				{
					"inputs": [
						{
							"internalType": "bytes32",
							"name": "_specId",
							"type": "bytes32"
						},
						{
							"internalType": "uint256",
							"name": "_payment",
							"type": "uint256"
						},
						{
							"internalType": "uint256",
							"name": "_market",
							"type": "uint256"
						},
						{
							"internalType": "uint256",
							"name": "_leagueId",
							"type": "uint256"
						},
						{
							"internalType": "uint256",
							"name": "_date",
							"type": "uint256"
						},
						{
							"internalType": "uint256[]",
							"name": "_gameIds",
							"type": "uint256[]"
						}
					],
					"name": "requestSchedule",
					"outputs": [],
					"stateMutability": "nonpayable",
					"type": "function"
				},
				{
					"inputs": [
						{
							"internalType": "address",
							"name": "_oracle",
							"type": "address"
						}
					],
					"name": "setOracle",
					"outputs": [],
					"stateMutability": "nonpayable",
					"type": "function"
				},
				{
					"inputs": [
						{
							"internalType": "bytes32",
							"name": "_requestId",
							"type": "bytes32"
						},
						{
							"internalType": "bytes[]",
							"name": "_games",
							"type": "bytes[]"
						}
					],
					"name": "setRequestIdGames",
					"outputs": [],
					"stateMutability": "nonpayable",
					"type": "function"
				},
				{
					"inputs": [
						{
							"internalType": "uint256",
							"name": "_amount",
							"type": "uint256"
						},
						{
							"internalType": "address payable",
							"name": "_payee",
							"type": "address"
						}
					],
					"name": "withdrawLink",
					"outputs": [],
					"stateMutability": "nonpayable",
					"type": "function"
				}
			],
			"devdoc": {
				"author": "LinkPool.",
				"details": "Uses @chainlink/contracts 0.4.0.",
				"kind": "dev",
				"methods": {
					"fulfillSchedule(bytes32,bytes[])": {
						"params": {
							"_requestId": "the request ID for fulfillment.",
							"_result": "the games either to be created or resolved."
						}
					},
					"requestSchedule(bytes32,uint256,uint256,uint256,uint256)": {
						"details": "Requests the 'schedule' endpoint. Result is an array of GameCreate or GameResolve encoded (see structs).",
						"params": {
							"_date": "the starting time of the event as a UNIX timestamp in seconds.",
							"_leagueId": "the tournament ID.",
							"_market": "the number associated with the type of market (see Data Conversions).",
							"_payment": "the LINK amount in Juels (i.e. 10^18 aka 1 LINK).",
							"_specId": "the jobID."
						}
					},
					"requestSchedule(bytes32,uint256,uint256,uint256,uint256,uint256[])": {
						"details": "Requests the 'schedule' endpoint. Result is an array of GameCreate or GameResolve encoded (see structs).",
						"params": {
							"_date": "the date to request events by, as a UNIX timestamp in seconds.",
							"_gameIds": "the list of game IDs to filter by for market `1`, otherwise the value is ignored.",
							"_leagueId": "the tournament ID.",
							"_market": "the context of the games data to be requested: `0` (markets to be created), `1` (markets to be resolved).",
							"_payment": "the LINK amount in Juels (i.e. 10^18 aka 1 LINK).",
							"_specId": "the jobID."
						}
					}
				},
				"title": "A consumer contract for Enetscores.",
				"version": 1
			},
			"evm": {
				"assembly": "    /* \".git/contracts/enetscoreConsumer.sol\":482:7726  contract EnetscoresConsumer is ChainlinkClient {... */\n  mstore(0x40, 0x80)\n    /* \"@chainlink/contracts/src/v0.8/ChainlinkClient.sol\":1291:1292  1 */\n  0x01\n    /* \"@chainlink/contracts/src/v0.8/ChainlinkClient.sol\":1258:1292  uint256 private s_requestCount = 1 */\n  0x04\n  sstore\n    /* \".git/contracts/enetscoreConsumer.sol\":648:690  0xa36085F69e2889c224210F603D836748e7dC0088 */\n  0xa36085f69e2889c224210f603d836748e7dc0088\n    /* \".git/contracts/enetscoreConsumer.sol\":633:690  address link = 0xa36085F69e2889c224210F603D836748e7dC0088 */\n  0x06\n  exp(0x0100, 0x00)\n  dup2\n  sload\n  dup2\n  0xffffffffffffffffffffffffffffffffffffffff\n  mul\n  not\n  and\n  swap1\n  dup4\n  0xffffffffffffffffffffffffffffffffffffffff\n  and\n  mul\n  or\n  swap1\n  sstore\n  pop\n    /* \".git/contracts/enetscoreConsumer.sol\":714:756  0xFb0951bA1929336D2F621Cc0f0928D89A91D508f */\n  0xfb0951ba1929336d2f621cc0f0928d89a91d508f\n    /* \".git/contracts/enetscoreConsumer.sol\":697:756  address oracle = 0xFb0951bA1929336D2F621Cc0f0928D89A91D508f */\n  0x07\n  exp(0x0100, 0x00)\n  dup2\n  sload\n  dup2\n  0xffffffffffffffffffffffffffffffffffffffff\n  mul\n  not\n  and\n  swap1\n  dup4\n  0xffffffffffffffffffffffffffffffffffffffff\n  and\n  mul\n  or\n  swap1\n  sstore\n  pop\n    /* \".git/contracts/enetscoreConsumer.sol\":1159:1252  constructor() {... */\n  callvalue\n  dup1\n  iszero\n  tag_1\n  jumpi\n  0x00\n  dup1\n  revert\ntag_1:\n  pop\n    /* \".git/contracts/enetscoreConsumer.sol\":1184:1207  setChainlinkToken(link) */\n  tag_4\n    /* \".git/contracts/enetscoreConsumer.sol\":1202:1206  link */\n  0x06\n  0x00\n  swap1\n  sload\n  swap1\n  0x0100\n  exp\n  swap1\n  div\n  0xffffffffffffffffffffffffffffffffffffffff\n  and\n    /* \".git/contracts/enetscoreConsumer.sol\":1184:1201  setChainlinkToken */\n  shl(0x20, tag_5)\n    /* \".git/contracts/enetscoreConsumer.sol\":1184:1207  setChainlinkToken(link) */\n  0x20\n  shr\n  jump\t// in\ntag_4:\n    /* \".git/contracts/enetscoreConsumer.sol\":1218:1244  setChainlinkOracle(oracle) */\n  tag_6\n    /* \".git/contracts/enetscoreConsumer.sol\":1237:1243  oracle */\n  0x07\n  0x00\n  swap1\n  sload\n  swap1\n  0x0100\n  exp\n  swap1\n  div\n  0xffffffffffffffffffffffffffffffffffffffff\n  and\n    /* \".git/contracts/enetscoreConsumer.sol\":1218:1236  setChainlinkOracle */\n  shl(0x20, tag_7)\n    /* \".git/contracts/enetscoreConsumer.sol\":1218:1244  setChainlinkOracle(oracle) */\n  0x20\n  shr\n  jump\t// in\ntag_6:\n    /* \".git/contracts/enetscoreConsumer.sol\":482:7726  contract EnetscoresConsumer is ChainlinkClient {... */\n  jump(tag_8)\n    /* \"@chainlink/contracts/src/v0.8/ChainlinkClient.sol\":8625:8733  function setChainlinkToken(address linkAddress) internal {... */\ntag_5:\n    /* \"@chainlink/contracts/src/v0.8/ChainlinkClient.sol\":8716:8727  linkAddress */\n  dup1\n    /* \"@chainlink/contracts/src/v0.8/ChainlinkClient.sol\":8688:8694  s_link */\n  0x02\n  0x00\n    /* \"@chainlink/contracts/src/v0.8/ChainlinkClient.sol\":8688:8728  s_link = LinkTokenInterface(linkAddress) */\n  0x0100\n  exp\n  dup2\n  sload\n  dup2\n  0xffffffffffffffffffffffffffffffffffffffff\n  mul\n  not\n  and\n  swap1\n  dup4\n  0xffffffffffffffffffffffffffffffffffffffff\n  and\n  mul\n  or\n  swap1\n  sstore\n  pop\n    /* \"@chainlink/contracts/src/v0.8/ChainlinkClient.sol\":8625:8733  function setChainlinkToken(address linkAddress) internal {... */\n  pop\n  jump\t// out\n    /* \"@chainlink/contracts/src/v0.8/ChainlinkClient.sol\":8391:8505  function setChainlinkOracle(address oracleAddress) internal {... */\ntag_7:\n    /* \"@chainlink/contracts/src/v0.8/ChainlinkClient.sol\":8486:8499  oracleAddress */\n  dup1\n    /* \"@chainlink/contracts/src/v0.8/ChainlinkClient.sol\":8457:8465  s_oracle */\n  0x03\n  0x00\n    /* \"@chainlink/contracts/src/v0.8/ChainlinkClient.sol\":8457:8500  s_oracle = OperatorInterface(oracleAddress) */\n  0x0100\n  exp\n  dup2\n  sload\n  dup2\n  0xffffffffffffffffffffffffffffffffffffffff\n  mul\n  not\n  and\n  swap1\n  dup4\n  0xffffffffffffffffffffffffffffffffffffffff\n  and\n  mul\n  or\n  swap1\n  sstore\n  pop\n    /* \"@chainlink/contracts/src/v0.8/ChainlinkClient.sol\":8391:8505  function setChainlinkOracle(address oracleAddress) internal {... */\n  pop\n  jump\t// out\n    /* \".git/contracts/enetscoreConsumer.sol\":482:7726  contract EnetscoresConsumer is ChainlinkClient {... */\ntag_8:\n  dataSize(sub_0)\n  dup1\n  dataOffset(sub_0)\n  0x00\n  codecopy\n  0x00\n  return\nstop\n\nsub_0: assembly {\n        /* \".git/contracts/enetscoreConsumer.sol\":482:7726  contract EnetscoresConsumer is ChainlinkClient {... */\n      mstore(0x40, 0x80)\n      callvalue\n      dup1\n      iszero\n      tag_1\n      jumpi\n      0x00\n      dup1\n      revert\n    tag_1:\n      pop\n      jumpi(tag_2, lt(calldatasize, 0x04))\n      shr(0xe0, calldataload(0x00))\n      dup1\n      0x93d07072\n      gt\n      tag_14\n      jumpi\n      dup1\n      0x93d07072\n      eq\n      tag_8\n      jumpi\n      dup1\n      0xa2943608\n      eq\n      tag_9\n      jumpi\n      dup1\n      0xb075f532\n      eq\n      tag_10\n      jumpi\n      dup1\n      0xde00d107\n      eq\n      tag_11\n      jumpi\n      dup1\n      0xe3c046a7\n      eq\n      tag_12\n      jumpi\n      dup1\n      0xec65d0f8\n      eq\n      tag_13\n      jumpi\n      jump(tag_2)\n    tag_14:\n      dup1\n      0xaa2967\n      eq\n      tag_3\n      jumpi\n      dup1\n      0x303a712f\n      eq\n      tag_4\n      jumpi\n      dup1\n      0x41ea27ca\n      eq\n      tag_5\n      jumpi\n      dup1\n      0x49687cca\n      eq\n      tag_6\n      jumpi\n      dup1\n      0x7adbf973\n      eq\n      tag_7\n      jumpi\n    tag_2:\n      0x00\n      dup1\n      revert\n        /* \".git/contracts/enetscoreConsumer.sol\":2551:3005  function requestSchedule(... */\n    tag_3:\n      tag_15\n      0x04\n      dup1\n      calldatasize\n      sub\n      dup2\n      add\n      swap1\n      tag_16\n      swap2\n      swap1\n      tag_17\n      jump\t// in\n    tag_16:\n      tag_18\n      jump\t// in\n    tag_15:\n      stop\n        /* \".git/contracts/enetscoreConsumer.sol\":4382:4515  function setRequestIdGames(bytes32 _requestId, bytes[] memory _games) external {... */\n    tag_4:\n      tag_19\n      0x04\n      dup1\n      calldatasize\n      sub\n      dup2\n      add\n      swap1\n      tag_20\n      swap2\n      swap1\n      tag_21\n      jump\t// in\n    tag_20:\n      tag_22\n      jump\t// in\n    tag_19:\n      stop\n        /* \".git/contracts/enetscoreConsumer.sol\":4523:4773  function withdrawLink(uint256 _amount, address payable _payee) external {... */\n    tag_5:\n      tag_23\n      0x04\n      dup1\n      calldatasize\n      sub\n      dup2\n      add\n      swap1\n      tag_24\n      swap2\n      swap1\n      tag_25\n      jump\t// in\n    tag_24:\n      tag_26\n      jump\t// in\n    tag_23:\n      stop\n        /* \".git/contracts/enetscoreConsumer.sol\":3733:4275  function requestSchedule(... */\n    tag_6:\n      tag_27\n      0x04\n      dup1\n      calldatasize\n      sub\n      dup2\n      add\n      swap1\n      tag_28\n      swap2\n      swap1\n      tag_29\n      jump\t// in\n    tag_28:\n      tag_30\n      jump\t// in\n    tag_27:\n      stop\n        /* \".git/contracts/enetscoreConsumer.sol\":4283:4374  function setOracle(address _oracle) external {... */\n    tag_7:\n      tag_31\n      0x04\n      dup1\n      calldatasize\n      sub\n      dup2\n      add\n      swap1\n      tag_32\n      swap2\n      swap1\n      tag_33\n      jump\t// in\n    tag_32:\n      tag_34\n      jump\t// in\n    tag_31:\n      stop\n        /* \".git/contracts/enetscoreConsumer.sol\":1768:1973  function fulfillSchedule(bytes32 _requestId, bytes[] memory _result)... */\n    tag_8:\n      tag_35\n      0x04\n      dup1\n      calldatasize\n      sub\n      dup2\n      add\n      swap1\n      tag_36\n      swap2\n      swap1\n      tag_21\n      jump\t// in\n    tag_36:\n      tag_37\n      jump\t// in\n    tag_35:\n      stop\n        /* \".git/contracts/enetscoreConsumer.sol\":1037:1086  mapping(bytes32 => bytes[]) public requestIdGames */\n    tag_9:\n      tag_38\n      0x04\n      dup1\n      calldatasize\n      sub\n      dup2\n      add\n      swap1\n      tag_39\n      swap2\n      swap1\n      tag_40\n      jump\t// in\n    tag_39:\n      tag_41\n      jump\t// in\n    tag_38:\n      mload(0x40)\n      tag_42\n      swap2\n      swap1\n      tag_43\n      jump\t// in\n    tag_42:\n      mload(0x40)\n      dup1\n      swap2\n      sub\n      swap1\n      return\n        /* \".git/contracts/enetscoreConsumer.sol\":5210:5321  function _getOracleAddress() external view returns (address) {... */\n    tag_10:\n      tag_44\n      tag_45\n      jump\t// in\n    tag_44:\n      mload(0x40)\n      tag_46\n      swap2\n      swap1\n      tag_47\n      jump\t// in\n    tag_46:\n      mload(0x40)\n      dup1\n      swap2\n      sub\n      swap1\n      return\n        /* \".git/contracts/enetscoreConsumer.sol\":5027:5202  function getGameResolve(bytes32 _requestId, uint256 _idx) public returns (GameResolve memory) {... */\n    tag_11:\n      tag_48\n      0x04\n      dup1\n      calldatasize\n      sub\n      dup2\n      add\n      swap1\n      tag_49\n      swap2\n      swap1\n      tag_40\n      jump\t// in\n    tag_49:\n      tag_50\n      jump\t// in\n    tag_48:\n      mload(0x40)\n      tag_51\n      swap2\n      swap1\n      tag_52\n      jump\t// in\n    tag_51:\n      mload(0x40)\n      dup1\n      swap2\n      sub\n      swap1\n      return\n        /* \".git/contracts/enetscoreConsumer.sol\":4840:5019  function getGameCreate(bytes32 _requestId, uint256 _idx) external view returns (GameCreate memory) {... */\n    tag_12:\n      tag_53\n      0x04\n      dup1\n      calldatasize\n      sub\n      dup2\n      add\n      swap1\n      tag_54\n      swap2\n      swap1\n      tag_40\n      jump\t// in\n    tag_54:\n      tag_55\n      jump\t// in\n    tag_53:\n      mload(0x40)\n      tag_56\n      swap2\n      swap1\n      tag_57\n      jump\t// in\n    tag_56:\n      mload(0x40)\n      dup1\n      swap2\n      sub\n      swap1\n      return\n        /* \".git/contracts/enetscoreConsumer.sol\":1314:1573  function cancelRequest(... */\n    tag_13:\n      tag_58\n      0x04\n      dup1\n      calldatasize\n      sub\n      dup2\n      add\n      swap1\n      tag_59\n      swap2\n      swap1\n      tag_60\n      jump\t// in\n    tag_59:\n      tag_61\n      jump\t// in\n    tag_58:\n      stop\n        /* \".git/contracts/enetscoreConsumer.sol\":2551:3005  function requestSchedule(... */\n    tag_18:\n        /* \".git/contracts/enetscoreConsumer.sol\":2734:2762  Chainlink.Request memory req */\n      0x00\n        /* \".git/contracts/enetscoreConsumer.sol\":2765:2825  buildOperatorRequest(_specId, this.fulfillSchedule.selector) */\n      tag_63\n        /* \".git/contracts/enetscoreConsumer.sol\":2786:2793  _specId */\n      dup7\n        /* \".git/contracts/enetscoreConsumer.sol\":2795:2824  this.fulfillSchedule.selector */\n      shl(0xe0, 0x93d07072)\n        /* \".git/contracts/enetscoreConsumer.sol\":2765:2785  buildOperatorRequest */\n      tag_64\n        /* \".git/contracts/enetscoreConsumer.sol\":2765:2825  buildOperatorRequest(_specId, this.fulfillSchedule.selector) */\n      jump\t// in\n    tag_63:\n        /* \".git/contracts/enetscoreConsumer.sol\":2734:2825  Chainlink.Request memory req = buildOperatorRequest(_specId, this.fulfillSchedule.selector) */\n      swap1\n      pop\n        /* \".git/contracts/enetscoreConsumer.sol\":2838:2868  req.addUint(\"market\", _market) */\n      tag_65\n      mload(0x40)\n      dup1\n      0x40\n      add\n      0x40\n      mstore\n      dup1\n      0x06\n      dup2\n      mstore\n      0x20\n      add\n      0x6d61726b65740000000000000000000000000000000000000000000000000000\n      dup2\n      mstore\n      pop\n        /* \".git/contracts/enetscoreConsumer.sol\":2860:2867  _market */\n      dup6\n        /* \".git/contracts/enetscoreConsumer.sol\":2838:2841  req */\n      dup4\n        /* \".git/contracts/enetscoreConsumer.sol\":2838:2849  req.addUint */\n      tag_66\n      swap1\n        /* \".git/contracts/enetscoreConsumer.sol\":2838:2868  req.addUint(\"market\", _market) */\n      swap3\n      swap2\n      swap1\n      0xffffffff\n      and\n      jump\t// in\n    tag_65:\n        /* \".git/contracts/enetscoreConsumer.sol\":2879:2913  req.addUint(\"leagueId\", _leagueId) */\n      tag_67\n      mload(0x40)\n      dup1\n      0x40\n      add\n      0x40\n      mstore\n      dup1\n      0x08\n      dup2\n      mstore\n      0x20\n      add\n      0x6c65616775654964000000000000000000000000000000000000000000000000\n      dup2\n      mstore\n      pop\n        /* \".git/contracts/enetscoreConsumer.sol\":2903:2912  _leagueId */\n      dup5\n        /* \".git/contracts/enetscoreConsumer.sol\":2879:2882  req */\n      dup4\n        /* \".git/contracts/enetscoreConsumer.sol\":2879:2890  req.addUint */\n      tag_66\n      swap1\n        /* \".git/contracts/enetscoreConsumer.sol\":2879:2913  req.addUint(\"leagueId\", _leagueId) */\n      swap3\n      swap2\n      swap1\n      0xffffffff\n      and\n      jump\t// in\n    tag_67:\n        /* \".git/contracts/enetscoreConsumer.sol\":2924:2950  req.addUint(\"date\", _date) */\n      tag_68\n      mload(0x40)\n      dup1\n      0x40\n      add\n      0x40\n      mstore\n      dup1\n      0x04\n      dup2\n      mstore\n      0x20\n      add\n      0x6461746500000000000000000000000000000000000000000000000000000000\n      dup2\n      mstore\n      pop\n        /* \".git/contracts/enetscoreConsumer.sol\":2944:2949  _date */\n      dup4\n        /* \".git/contracts/enetscoreConsumer.sol\":2924:2927  req */\n      dup4\n        /* \".git/contracts/enetscoreConsumer.sol\":2924:2935  req.addUint */\n      tag_66\n      swap1\n        /* \".git/contracts/enetscoreConsumer.sol\":2924:2950  req.addUint(\"date\", _date) */\n      swap3\n      swap2\n      swap1\n      0xffffffff\n      and\n      jump\t// in\n    tag_68:\n        /* \".git/contracts/enetscoreConsumer.sol\":2963:2997  sendOperatorRequest(req, _payment) */\n      tag_69\n        /* \".git/contracts/enetscoreConsumer.sol\":2983:2986  req */\n      dup2\n        /* \".git/contracts/enetscoreConsumer.sol\":2988:2996  _payment */\n      dup7\n        /* \".git/contracts/enetscoreConsumer.sol\":2963:2982  sendOperatorRequest */\n      tag_70\n        /* \".git/contracts/enetscoreConsumer.sol\":2963:2997  sendOperatorRequest(req, _payment) */\n      jump\t// in\n    tag_69:\n      pop\n        /* \".git/contracts/enetscoreConsumer.sol\":2723:3005  {... */\n      pop\n        /* \".git/contracts/enetscoreConsumer.sol\":2551:3005  function requestSchedule(... */\n      pop\n      pop\n      pop\n      pop\n      pop\n      jump\t// out\n        /* \".git/contracts/enetscoreConsumer.sol\":4382:4515  function setRequestIdGames(bytes32 _requestId, bytes[] memory _games) external {... */\n    tag_22:\n        /* \".git/contracts/enetscoreConsumer.sol\":4501:4507  _games */\n      dup1\n        /* \".git/contracts/enetscoreConsumer.sol\":4472:4486  requestIdGames */\n      0x08\n        /* \".git/contracts/enetscoreConsumer.sol\":4472:4498  requestIdGames[_requestId] */\n      0x00\n        /* \".git/contracts/enetscoreConsumer.sol\":4487:4497  _requestId */\n      dup5\n        /* \".git/contracts/enetscoreConsumer.sol\":4472:4498  requestIdGames[_requestId] */\n      dup2\n      mstore\n      0x20\n      add\n      swap1\n      dup2\n      mstore\n      0x20\n      add\n      0x00\n      keccak256\n        /* \".git/contracts/enetscoreConsumer.sol\":4472:4507  requestIdGames[_requestId] = _games */\n      swap1\n      dup1\n      mload\n      swap1\n      0x20\n      add\n      swap1\n      tag_72\n      swap3\n      swap2\n      swap1\n      tag_73\n      jump\t// in\n    tag_72:\n      pop\n        /* \".git/contracts/enetscoreConsumer.sol\":4382:4515  function setRequestIdGames(bytes32 _requestId, bytes[] memory _games) external {... */\n      pop\n      pop\n      jump\t// out\n        /* \".git/contracts/enetscoreConsumer.sol\":4523:4773  function withdrawLink(uint256 _amount, address payable _payee) external {... */\n    tag_26:\n        /* \".git/contracts/enetscoreConsumer.sol\":4606:4634  LinkTokenInterface linkToken */\n      0x00\n        /* \".git/contracts/enetscoreConsumer.sol\":4656:4679  chainlinkTokenAddress() */\n      tag_75\n        /* \".git/contracts/enetscoreConsumer.sol\":4656:4677  chainlinkTokenAddress */\n      tag_76\n        /* \".git/contracts/enetscoreConsumer.sol\":4656:4679  chainlinkTokenAddress() */\n      jump\t// in\n    tag_75:\n        /* \".git/contracts/enetscoreConsumer.sol\":4606:4680  LinkTokenInterface linkToken = LinkTokenInterface(chainlinkTokenAddress()) */\n      swap1\n      pop\n        /* \".git/contracts/enetscoreConsumer.sol\":4691:4765  _requireTransferLINK(linkToken.transfer(_payee, _amount), _payee, _amount) */\n      tag_77\n        /* \".git/contracts/enetscoreConsumer.sol\":4712:4721  linkToken */\n      dup2\n        /* \".git/contracts/enetscoreConsumer.sol\":4712:4730  linkToken.transfer */\n      0xffffffffffffffffffffffffffffffffffffffff\n      and\n      0xa9059cbb\n        /* \".git/contracts/enetscoreConsumer.sol\":4731:4737  _payee */\n      dup5\n        /* \".git/contracts/enetscoreConsumer.sol\":4739:4746  _amount */\n      dup7\n        /* \".git/contracts/enetscoreConsumer.sol\":4712:4747  linkToken.transfer(_payee, _amount) */\n      mload(0x40)\n      dup4\n      0xffffffff\n      and\n      0xe0\n      shl\n      dup2\n      mstore\n      0x04\n      add\n      tag_78\n      swap3\n      swap2\n      swap1\n      tag_79\n      jump\t// in\n    tag_78:\n      0x20\n      mload(0x40)\n      dup1\n      dup4\n      sub\n      dup2\n      0x00\n      dup8\n      dup1\n      extcodesize\n      iszero\n      dup1\n      iszero\n      tag_80\n      jumpi\n      0x00\n      dup1\n      revert\n    tag_80:\n      pop\n      gas\n      call\n      iszero\n      dup1\n      iszero\n      tag_82\n      jumpi\n      returndatasize\n      0x00\n      dup1\n      returndatacopy\n      revert(0x00, returndatasize)\n    tag_82:\n      pop\n      pop\n      pop\n      pop\n      mload(0x40)\n      returndatasize\n      not(0x1f)\n      0x1f\n      dup3\n      add\n      and\n      dup3\n      add\n      dup1\n      0x40\n      mstore\n      pop\n      dup2\n      add\n      swap1\n      tag_83\n      swap2\n      swap1\n      tag_84\n      jump\t// in\n    tag_83:\n        /* \".git/contracts/enetscoreConsumer.sol\":4749:4755  _payee */\n      dup4\n        /* \".git/contracts/enetscoreConsumer.sol\":4757:4764  _amount */\n      dup6\n        /* \".git/contracts/enetscoreConsumer.sol\":4691:4711  _requireTransferLINK */\n      tag_85\n        /* \".git/contracts/enetscoreConsumer.sol\":4691:4765  _requireTransferLINK(linkToken.transfer(_payee, _amount), _payee, _amount) */\n      jump\t// in\n    tag_77:\n        /* \".git/contracts/enetscoreConsumer.sol\":4595:4773  {... */\n      pop\n        /* \".git/contracts/enetscoreConsumer.sol\":4523:4773  function withdrawLink(uint256 _amount, address payable _payee) external {... */\n      pop\n      pop\n      jump\t// out\n        /* \".git/contracts/enetscoreConsumer.sol\":3733:4275  function requestSchedule(... */\n    tag_30:\n        /* \".git/contracts/enetscoreConsumer.sol\":3954:3982  Chainlink.Request memory req */\n      0x00\n        /* \".git/contracts/enetscoreConsumer.sol\":3985:4045  buildOperatorRequest(_specId, this.fulfillSchedule.selector) */\n      tag_87\n        /* \".git/contracts/enetscoreConsumer.sol\":4006:4013  _specId */\n      dup9\n        /* \".git/contracts/enetscoreConsumer.sol\":4015:4044  this.fulfillSchedule.selector */\n      shl(0xe0, 0x93d07072)\n        /* \".git/contracts/enetscoreConsumer.sol\":3985:4005  buildOperatorRequest */\n      tag_64\n        /* \".git/contracts/enetscoreConsumer.sol\":3985:4045  buildOperatorRequest(_specId, this.fulfillSchedule.selector) */\n      jump\t// in\n    tag_87:\n        /* \".git/contracts/enetscoreConsumer.sol\":3954:4045  Chainlink.Request memory req = buildOperatorRequest(_specId, this.fulfillSchedule.selector) */\n      swap1\n      pop\n        /* \".git/contracts/enetscoreConsumer.sol\":4058:4088  req.addUint(\"market\", _market) */\n      tag_88\n      mload(0x40)\n      dup1\n      0x40\n      add\n      0x40\n      mstore\n      dup1\n      0x06\n      dup2\n      mstore\n      0x20\n      add\n      0x6d61726b65740000000000000000000000000000000000000000000000000000\n      dup2\n      mstore\n      pop\n        /* \".git/contracts/enetscoreConsumer.sol\":4080:4087  _market */\n      dup8\n        /* \".git/contracts/enetscoreConsumer.sol\":4058:4061  req */\n      dup4\n        /* \".git/contracts/enetscoreConsumer.sol\":4058:4069  req.addUint */\n      tag_66\n      swap1\n        /* \".git/contracts/enetscoreConsumer.sol\":4058:4088  req.addUint(\"market\", _market) */\n      swap3\n      swap2\n      swap1\n      0xffffffff\n      and\n      jump\t// in\n    tag_88:\n        /* \".git/contracts/enetscoreConsumer.sol\":4099:4133  req.addUint(\"leagueId\", _leagueId) */\n      tag_89\n      mload(0x40)\n      dup1\n      0x40\n      add\n      0x40\n      mstore\n      dup1\n      0x08\n      dup2\n      mstore\n      0x20\n      add\n      0x6c65616775654964000000000000000000000000000000000000000000000000\n      dup2\n      mstore\n      pop\n        /* \".git/contracts/enetscoreConsumer.sol\":4123:4132  _leagueId */\n      dup7\n        /* \".git/contracts/enetscoreConsumer.sol\":4099:4102  req */\n      dup4\n        /* \".git/contracts/enetscoreConsumer.sol\":4099:4110  req.addUint */\n      tag_66\n      swap1\n        /* \".git/contracts/enetscoreConsumer.sol\":4099:4133  req.addUint(\"leagueId\", _leagueId) */\n      swap3\n      swap2\n      swap1\n      0xffffffff\n      and\n      jump\t// in\n    tag_89:\n        /* \".git/contracts/enetscoreConsumer.sol\":4144:4170  req.addUint(\"date\", _date) */\n      tag_90\n      mload(0x40)\n      dup1\n      0x40\n      add\n      0x40\n      mstore\n      dup1\n      0x04\n      dup2\n      mstore\n      0x20\n      add\n      0x6461746500000000000000000000000000000000000000000000000000000000\n      dup2\n      mstore\n      pop\n        /* \".git/contracts/enetscoreConsumer.sol\":4164:4169  _date */\n      dup6\n        /* \".git/contracts/enetscoreConsumer.sol\":4144:4147  req */\n      dup4\n        /* \".git/contracts/enetscoreConsumer.sol\":4144:4155  req.addUint */\n      tag_66\n      swap1\n        /* \".git/contracts/enetscoreConsumer.sol\":4144:4170  req.addUint(\"date\", _date) */\n      swap3\n      swap2\n      swap1\n      0xffffffff\n      and\n      jump\t// in\n    tag_90:\n        /* \".git/contracts/enetscoreConsumer.sol\":4181:4220  _addUintArray(req, \"gameIds\", _gameIds) */\n      tag_91\n        /* \".git/contracts/enetscoreConsumer.sol\":4195:4198  req */\n      dup2\n        /* \".git/contracts/enetscoreConsumer.sol\":4181:4220  _addUintArray(req, \"gameIds\", _gameIds) */\n      mload(0x40)\n      dup1\n      0x40\n      add\n      0x40\n      mstore\n      dup1\n      0x07\n      dup2\n      mstore\n      0x20\n      add\n      0x67616d6549647300000000000000000000000000000000000000000000000000\n      dup2\n      mstore\n      pop\n        /* \".git/contracts/enetscoreConsumer.sol\":4211:4219  _gameIds */\n      dup6\n      dup6\n        /* \".git/contracts/enetscoreConsumer.sol\":4181:4220  _addUintArray(req, \"gameIds\", _gameIds) */\n      dup1\n      dup1\n      0x20\n      mul\n      0x20\n      add\n      mload(0x40)\n      swap1\n      dup2\n      add\n      0x40\n      mstore\n      dup1\n      swap4\n      swap3\n      swap2\n      swap1\n      dup2\n      dup2\n      mstore\n      0x20\n      add\n      dup4\n      dup4\n      0x20\n      mul\n      dup1\n      dup3\n      dup5\n      calldatacopy\n      0x00\n      dup2\n      dup5\n      add\n      mstore\n      not(0x1f)\n      0x1f\n      dup3\n      add\n      and\n      swap1\n      pop\n      dup1\n      dup4\n      add\n      swap3\n      pop\n      pop\n      pop\n      pop\n      pop\n      pop\n      pop\n        /* \".git/contracts/enetscoreConsumer.sol\":4181:4194  _addUintArray */\n      tag_92\n        /* \".git/contracts/enetscoreConsumer.sol\":4181:4220  _addUintArray(req, \"gameIds\", _gameIds) */\n      jump\t// in\n    tag_91:\n        /* \".git/contracts/enetscoreConsumer.sol\":4233:4267  sendOperatorRequest(req, _payment) */\n      tag_93\n        /* \".git/contracts/enetscoreConsumer.sol\":4253:4256  req */\n      dup2\n        /* \".git/contracts/enetscoreConsumer.sol\":4258:4266  _payment */\n      dup9\n        /* \".git/contracts/enetscoreConsumer.sol\":4233:4252  sendOperatorRequest */\n      tag_70\n        /* \".git/contracts/enetscoreConsumer.sol\":4233:4267  sendOperatorRequest(req, _payment) */\n      jump\t// in\n    tag_93:\n      pop\n        /* \".git/contracts/enetscoreConsumer.sol\":3943:4275  {... */\n      pop\n        /* \".git/contracts/enetscoreConsumer.sol\":3733:4275  function requestSchedule(... */\n      pop\n      pop\n      pop\n      pop\n      pop\n      pop\n      pop\n      jump\t// out\n        /* \".git/contracts/enetscoreConsumer.sol\":4283:4374  function setOracle(address _oracle) external {... */\n    tag_34:\n        /* \".git/contracts/enetscoreConsumer.sol\":4339:4366  setChainlinkOracle(_oracle) */\n      tag_95\n        /* \".git/contracts/enetscoreConsumer.sol\":4358:4365  _oracle */\n      dup2\n        /* \".git/contracts/enetscoreConsumer.sol\":4339:4357  setChainlinkOracle */\n      tag_96\n        /* \".git/contracts/enetscoreConsumer.sol\":4339:4366  setChainlinkOracle(_oracle) */\n      jump\t// in\n    tag_95:\n        /* \".git/contracts/enetscoreConsumer.sol\":4283:4374  function setOracle(address _oracle) external {... */\n      pop\n      jump\t// out\n        /* \".git/contracts/enetscoreConsumer.sol\":1768:1973  function fulfillSchedule(bytes32 _requestId, bytes[] memory _result)... */\n    tag_37:\n        /* \".git/contracts/enetscoreConsumer.sol\":1891:1901  _requestId */\n      dup2\n        /* \"@chainlink/contracts/src/v0.8/ChainlinkClient.sol\":11663:11680  s_pendingRequests */\n      0x05\n        /* \"@chainlink/contracts/src/v0.8/ChainlinkClient.sol\":11663:11691  s_pendingRequests[requestId] */\n      0x00\n        /* \"@chainlink/contracts/src/v0.8/ChainlinkClient.sol\":11681:11690  requestId */\n      dup3\n        /* \"@chainlink/contracts/src/v0.8/ChainlinkClient.sol\":11663:11691  s_pendingRequests[requestId] */\n      dup2\n      mstore\n      0x20\n      add\n      swap1\n      dup2\n      mstore\n      0x20\n      add\n      0x00\n      keccak256\n      0x00\n      swap1\n      sload\n      swap1\n      0x0100\n      exp\n      swap1\n      div\n      0xffffffffffffffffffffffffffffffffffffffff\n      and\n        /* \"@chainlink/contracts/src/v0.8/ChainlinkClient.sol\":11649:11691  msg.sender == s_pendingRequests[requestId] */\n      0xffffffffffffffffffffffffffffffffffffffff\n      and\n        /* \"@chainlink/contracts/src/v0.8/ChainlinkClient.sol\":11649:11659  msg.sender */\n      caller\n        /* \"@chainlink/contracts/src/v0.8/ChainlinkClient.sol\":11649:11691  msg.sender == s_pendingRequests[requestId] */\n      0xffffffffffffffffffffffffffffffffffffffff\n      and\n      eq\n        /* \"@chainlink/contracts/src/v0.8/ChainlinkClient.sol\":11641:11736  require(msg.sender == s_pendingRequests[requestId], \"Source must be the oracle of the request\") */\n      tag_98\n      jumpi\n      mload(0x40)\n      0x08c379a000000000000000000000000000000000000000000000000000000000\n      dup2\n      mstore\n      0x04\n      add\n      tag_99\n      swap1\n      tag_100\n      jump\t// in\n    tag_99:\n      mload(0x40)\n      dup1\n      swap2\n      sub\n      swap1\n      revert\n    tag_98:\n        /* \"@chainlink/contracts/src/v0.8/ChainlinkClient.sol\":11749:11766  s_pendingRequests */\n      0x05\n        /* \"@chainlink/contracts/src/v0.8/ChainlinkClient.sol\":11749:11777  s_pendingRequests[requestId] */\n      0x00\n        /* \"@chainlink/contracts/src/v0.8/ChainlinkClient.sol\":11767:11776  requestId */\n      dup3\n        /* \"@chainlink/contracts/src/v0.8/ChainlinkClient.sol\":11749:11777  s_pendingRequests[requestId] */\n      dup2\n      mstore\n      0x20\n      add\n      swap1\n      dup2\n      mstore\n      0x20\n      add\n      0x00\n      keccak256\n      0x00\n        /* \"@chainlink/contracts/src/v0.8/ChainlinkClient.sol\":11742:11777  delete s_pendingRequests[requestId] */\n      0x0100\n      exp\n      dup2\n      sload\n      swap1\n      0xffffffffffffffffffffffffffffffffffffffff\n      mul\n      not\n      and\n      swap1\n      sstore\n        /* \"@chainlink/contracts/src/v0.8/ChainlinkClient.sol\":11807:11816  requestId */\n      dup1\n        /* \"@chainlink/contracts/src/v0.8/ChainlinkClient.sol\":11788:11817  ChainlinkFulfilled(requestId) */\n      0x7cc135e0cebb02c3480ae5d74d377283180a2601f8f644edf7987b009316c63a\n      mload(0x40)\n      mload(0x40)\n      dup1\n      swap2\n      sub\n      swap1\n      log2\n        /* \".git/contracts/enetscoreConsumer.sol\":1948:1955  _result */\n      dup2\n        /* \".git/contracts/enetscoreConsumer.sol\":1919:1933  requestIdGames */\n      0x08\n        /* \".git/contracts/enetscoreConsumer.sol\":1919:1945  requestIdGames[_requestId] */\n      0x00\n        /* \".git/contracts/enetscoreConsumer.sol\":1934:1944  _requestId */\n      dup6\n        /* \".git/contracts/enetscoreConsumer.sol\":1919:1945  requestIdGames[_requestId] */\n      dup2\n      mstore\n      0x20\n      add\n      swap1\n      dup2\n      mstore\n      0x20\n      add\n      0x00\n      keccak256\n        /* \".git/contracts/enetscoreConsumer.sol\":1919:1955  requestIdGames[_requestId] = _result */\n      swap1\n      dup1\n      mload\n      swap1\n      0x20\n      add\n      swap1\n      tag_102\n      swap3\n      swap2\n      swap1\n      tag_73\n      jump\t// in\n    tag_102:\n      pop\n        /* \".git/contracts/enetscoreConsumer.sol\":1768:1973  function fulfillSchedule(bytes32 _requestId, bytes[] memory _result)... */\n      pop\n      pop\n      pop\n      jump\t// out\n        /* \".git/contracts/enetscoreConsumer.sol\":1037:1086  mapping(bytes32 => bytes[]) public requestIdGames */\n    tag_41:\n      mstore(0x20, 0x08)\n      dup2\n      0x00\n      mstore\n      keccak256(0x00, 0x40)\n      dup2\n      dup2\n      sload\n      dup2\n      lt\n      tag_103\n      jumpi\n      0x00\n      dup1\n      revert\n    tag_103:\n      swap1\n      0x00\n      mstore\n      keccak256(0x00, 0x20)\n      add\n      0x00\n      swap2\n      pop\n      swap2\n      pop\n      pop\n      dup1\n      sload\n      tag_105\n      swap1\n      tag_106\n      jump\t// in\n    tag_105:\n      dup1\n      0x1f\n      add\n      0x20\n      dup1\n      swap2\n      div\n      mul\n      0x20\n      add\n      mload(0x40)\n      swap1\n      dup2\n      add\n      0x40\n      mstore\n      dup1\n      swap3\n      swap2\n      swap1\n      dup2\n      dup2\n      mstore\n      0x20\n      add\n      dup3\n      dup1\n      sload\n      tag_107\n      swap1\n      tag_106\n      jump\t// in\n    tag_107:\n      dup1\n      iszero\n      tag_108\n      jumpi\n      dup1\n      0x1f\n      lt\n      tag_109\n      jumpi\n      0x0100\n      dup1\n      dup4\n      sload\n      div\n      mul\n      dup4\n      mstore\n      swap2\n      0x20\n      add\n      swap2\n      jump(tag_108)\n    tag_109:\n      dup3\n      add\n      swap2\n      swap1\n      0x00\n      mstore\n      keccak256(0x00, 0x20)\n      swap1\n    tag_110:\n      dup2\n      sload\n      dup2\n      mstore\n      swap1\n      0x01\n      add\n      swap1\n      0x20\n      add\n      dup1\n      dup4\n      gt\n      tag_110\n      jumpi\n      dup3\n      swap1\n      sub\n      0x1f\n      and\n      dup3\n      add\n      swap2\n    tag_108:\n      pop\n      pop\n      pop\n      pop\n      pop\n      dup2\n      jump\t// out\n        /* \".git/contracts/enetscoreConsumer.sol\":5210:5321  function _getOracleAddress() external view returns (address) {... */\n    tag_45:\n        /* \".git/contracts/enetscoreConsumer.sol\":5262:5269  address */\n      0x00\n        /* \".git/contracts/enetscoreConsumer.sol\":5289:5313  chainlinkOracleAddress() */\n      tag_112\n        /* \".git/contracts/enetscoreConsumer.sol\":5289:5311  chainlinkOracleAddress */\n      tag_113\n        /* \".git/contracts/enetscoreConsumer.sol\":5289:5313  chainlinkOracleAddress() */\n      jump\t// in\n    tag_112:\n        /* \".git/contracts/enetscoreConsumer.sol\":5282:5313  return chainlinkOracleAddress() */\n      swap1\n      pop\n        /* \".git/contracts/enetscoreConsumer.sol\":5210:5321  function _getOracleAddress() external view returns (address) {... */\n      swap1\n      jump\t// out\n        /* \".git/contracts/enetscoreConsumer.sol\":5027:5202  function getGameResolve(bytes32 _requestId, uint256 _idx) public returns (GameResolve memory) {... */\n    tag_50:\n        /* \".git/contracts/enetscoreConsumer.sol\":5101:5119  GameResolve memory */\n      tag_114\n      tag_115\n      jump\t// in\n    tag_114:\n        /* \".git/contracts/enetscoreConsumer.sol\":5139:5194  _getGameResolveStruct(requestIdGames[_requestId][_idx]) */\n      tag_117\n        /* \".git/contracts/enetscoreConsumer.sol\":5161:5175  requestIdGames */\n      0x08\n        /* \".git/contracts/enetscoreConsumer.sol\":5161:5187  requestIdGames[_requestId] */\n      0x00\n        /* \".git/contracts/enetscoreConsumer.sol\":5176:5186  _requestId */\n      dup6\n        /* \".git/contracts/enetscoreConsumer.sol\":5161:5187  requestIdGames[_requestId] */\n      dup2\n      mstore\n      0x20\n      add\n      swap1\n      dup2\n      mstore\n      0x20\n      add\n      0x00\n      keccak256\n        /* \".git/contracts/enetscoreConsumer.sol\":5188:5192  _idx */\n      dup4\n        /* \".git/contracts/enetscoreConsumer.sol\":5161:5193  requestIdGames[_requestId][_idx] */\n      dup2\n      sload\n      dup2\n      lt\n      tag_118\n      jumpi\n      tag_119\n      tag_120\n      jump\t// in\n    tag_119:\n    tag_118:\n      swap1\n      0x00\n      mstore\n      keccak256(0x00, 0x20)\n      add\n        /* \".git/contracts/enetscoreConsumer.sol\":5139:5194  _getGameResolveStruct(requestIdGames[_requestId][_idx]) */\n      dup1\n      sload\n      tag_122\n      swap1\n      tag_106\n      jump\t// in\n    tag_122:\n      dup1\n      0x1f\n      add\n      0x20\n      dup1\n      swap2\n      div\n      mul\n      0x20\n      add\n      mload(0x40)\n      swap1\n      dup2\n      add\n      0x40\n      mstore\n      dup1\n      swap3\n      swap2\n      swap1\n      dup2\n      dup2\n      mstore\n      0x20\n      add\n      dup3\n      dup1\n      sload\n      tag_123\n      swap1\n      tag_106\n      jump\t// in\n    tag_123:\n      dup1\n      iszero\n      tag_124\n      jumpi\n      dup1\n      0x1f\n      lt\n      tag_125\n      jumpi\n      0x0100\n      dup1\n      dup4\n      sload\n      div\n      mul\n      dup4\n      mstore\n      swap2\n      0x20\n      add\n      swap2\n      jump(tag_124)\n    tag_125:\n      dup3\n      add\n      swap2\n      swap1\n      0x00\n      mstore\n      keccak256(0x00, 0x20)\n      swap1\n    tag_126:\n      dup2\n      sload\n      dup2\n      mstore\n      swap1\n      0x01\n      add\n      swap1\n      0x20\n      add\n      dup1\n      dup4\n      gt\n      tag_126\n      jumpi\n      dup3\n      swap1\n      sub\n      0x1f\n      and\n      dup3\n      add\n      swap2\n    tag_124:\n      pop\n      pop\n      pop\n      pop\n      pop\n        /* \".git/contracts/enetscoreConsumer.sol\":5139:5160  _getGameResolveStruct */\n      tag_127\n        /* \".git/contracts/enetscoreConsumer.sol\":5139:5194  _getGameResolveStruct(requestIdGames[_requestId][_idx]) */\n      jump\t// in\n    tag_117:\n        /* \".git/contracts/enetscoreConsumer.sol\":5132:5194  return _getGameResolveStruct(requestIdGames[_requestId][_idx]) */\n      swap1\n      pop\n        /* \".git/contracts/enetscoreConsumer.sol\":5027:5202  function getGameResolve(bytes32 _requestId, uint256 _idx) public returns (GameResolve memory) {... */\n      swap3\n      swap2\n      pop\n      pop\n      jump\t// out\n        /* \".git/contracts/enetscoreConsumer.sol\":4840:5019  function getGameCreate(bytes32 _requestId, uint256 _idx) external view returns (GameCreate memory) {... */\n    tag_55:\n        /* \".git/contracts/enetscoreConsumer.sol\":4920:4937  GameCreate memory */\n      tag_128\n      tag_129\n      jump\t// in\n    tag_128:\n        /* \".git/contracts/enetscoreConsumer.sol\":4957:5011  _getGameCreateStruct(requestIdGames[_requestId][_idx]) */\n      tag_131\n        /* \".git/contracts/enetscoreConsumer.sol\":4978:4992  requestIdGames */\n      0x08\n        /* \".git/contracts/enetscoreConsumer.sol\":4978:5004  requestIdGames[_requestId] */\n      0x00\n        /* \".git/contracts/enetscoreConsumer.sol\":4993:5003  _requestId */\n      dup6\n        /* \".git/contracts/enetscoreConsumer.sol\":4978:5004  requestIdGames[_requestId] */\n      dup2\n      mstore\n      0x20\n      add\n      swap1\n      dup2\n      mstore\n      0x20\n      add\n      0x00\n      keccak256\n        /* \".git/contracts/enetscoreConsumer.sol\":5005:5009  _idx */\n      dup4\n        /* \".git/contracts/enetscoreConsumer.sol\":4978:5010  requestIdGames[_requestId][_idx] */\n      dup2\n      sload\n      dup2\n      lt\n      tag_132\n      jumpi\n      tag_133\n      tag_120\n      jump\t// in\n    tag_133:\n    tag_132:\n      swap1\n      0x00\n      mstore\n      keccak256(0x00, 0x20)\n      add\n        /* \".git/contracts/enetscoreConsumer.sol\":4957:5011  _getGameCreateStruct(requestIdGames[_requestId][_idx]) */\n      dup1\n      sload\n      tag_135\n      swap1\n      tag_106\n      jump\t// in\n    tag_135:\n      dup1\n      0x1f\n      add\n      0x20\n      dup1\n      swap2\n      div\n      mul\n      0x20\n      add\n      mload(0x40)\n      swap1\n      dup2\n      add\n      0x40\n      mstore\n      dup1\n      swap3\n      swap2\n      swap1\n      dup2\n      dup2\n      mstore\n      0x20\n      add\n      dup3\n      dup1\n      sload\n      tag_136\n      swap1\n      tag_106\n      jump\t// in\n    tag_136:\n      dup1\n      iszero\n      tag_137\n      jumpi\n      dup1\n      0x1f\n      lt\n      tag_138\n      jumpi\n      0x0100\n      dup1\n      dup4\n      sload\n      div\n      mul\n      dup4\n      mstore\n      swap2\n      0x20\n      add\n      swap2\n      jump(tag_137)\n    tag_138:\n      dup3\n      add\n      swap2\n      swap1\n      0x00\n      mstore\n      keccak256(0x00, 0x20)\n      swap1\n    tag_139:\n      dup2\n      sload\n      dup2\n      mstore\n      swap1\n      0x01\n      add\n      swap1\n      0x20\n      add\n      dup1\n      dup4\n      gt\n      tag_139\n      jumpi\n      dup3\n      swap1\n      sub\n      0x1f\n      and\n      dup3\n      add\n      swap2\n    tag_137:\n      pop\n      pop\n      pop\n      pop\n      pop\n        /* \".git/contracts/enetscoreConsumer.sol\":4957:4977  _getGameCreateStruct */\n      tag_140\n        /* \".git/contracts/enetscoreConsumer.sol\":4957:5011  _getGameCreateStruct(requestIdGames[_requestId][_idx]) */\n      jump\t// in\n    tag_131:\n        /* \".git/contracts/enetscoreConsumer.sol\":4950:5011  return _getGameCreateStruct(requestIdGames[_requestId][_idx]) */\n      swap1\n      pop\n        /* \".git/contracts/enetscoreConsumer.sol\":4840:5019  function getGameCreate(bytes32 _requestId, uint256 _idx) external view returns (GameCreate memory) {... */\n      swap3\n      swap2\n      pop\n      pop\n      jump\t// out\n        /* \".git/contracts/enetscoreConsumer.sol\":1314:1573  function cancelRequest(... */\n    tag_61:\n        /* \".git/contracts/enetscoreConsumer.sol\":1487:1565  cancelChainlinkRequest(_requestId, _payment, _callbackFunctionId, _expiration) */\n      tag_142\n        /* \".git/contracts/enetscoreConsumer.sol\":1510:1520  _requestId */\n      dup5\n        /* \".git/contracts/enetscoreConsumer.sol\":1522:1530  _payment */\n      dup5\n        /* \".git/contracts/enetscoreConsumer.sol\":1532:1551  _callbackFunctionId */\n      dup5\n        /* \".git/contracts/enetscoreConsumer.sol\":1553:1564  _expiration */\n      dup5\n        /* \".git/contracts/enetscoreConsumer.sol\":1487:1509  cancelChainlinkRequest */\n      tag_143\n        /* \".git/contracts/enetscoreConsumer.sol\":1487:1565  cancelChainlinkRequest(_requestId, _payment, _callbackFunctionId, _expiration) */\n      jump\t// in\n    tag_142:\n        /* \".git/contracts/enetscoreConsumer.sol\":1314:1573  function cancelRequest(... */\n      pop\n      pop\n      pop\n      pop\n      jump\t// out\n        /* \"@chainlink/contracts/src/v0.8/ChainlinkClient.sol\":2428:2687  function buildOperatorRequest(bytes32 specId, bytes4 callbackFunctionSignature)... */\n    tag_64:\n        /* \"@chainlink/contracts/src/v0.8/ChainlinkClient.sol\":2543:2567  Chainlink.Request memory */\n      tag_144\n      tag_145\n      jump\t// in\n    tag_144:\n        /* \"@chainlink/contracts/src/v0.8/ChainlinkClient.sol\":2577:2605  Chainlink.Request memory req */\n      tag_147\n      tag_145\n      jump\t// in\n    tag_147:\n        /* \"@chainlink/contracts/src/v0.8/ChainlinkClient.sol\":2618:2682  req.initialize(specId, address(this), callbackFunctionSignature) */\n      tag_148\n        /* \"@chainlink/contracts/src/v0.8/ChainlinkClient.sol\":2633:2639  specId */\n      dup5\n        /* \"@chainlink/contracts/src/v0.8/ChainlinkClient.sol\":2649:2653  this */\n      address\n        /* \"@chainlink/contracts/src/v0.8/ChainlinkClient.sol\":2656:2681  callbackFunctionSignature */\n      dup6\n        /* \"@chainlink/contracts/src/v0.8/ChainlinkClient.sol\":2618:2621  req */\n      dup5\n        /* \"@chainlink/contracts/src/v0.8/ChainlinkClient.sol\":2618:2632  req.initialize */\n      tag_149\n      swap1\n        /* \"@chainlink/contracts/src/v0.8/ChainlinkClient.sol\":2618:2682  req.initialize(specId, address(this), callbackFunctionSignature) */\n      swap4\n      swap3\n      swap2\n      swap1\n      0xffffffff\n      and\n      jump\t// in\n    tag_148:\n        /* \"@chainlink/contracts/src/v0.8/ChainlinkClient.sol\":2611:2682  return req.initialize(specId, address(this), callbackFunctionSignature) */\n      swap2\n      pop\n      pop\n        /* \"@chainlink/contracts/src/v0.8/ChainlinkClient.sol\":2428:2687  function buildOperatorRequest(bytes32 specId, bytes4 callbackFunctionSignature)... */\n      swap3\n      swap2\n      pop\n      pop\n      jump\t// out\n        /* \"@chainlink/contracts/src/v0.8/Chainlink.sol\":3087:3258  function addUint(... */\n    tag_66:\n        /* \"@chainlink/contracts/src/v0.8/Chainlink.sol\":3195:3221  self.buf.encodeString(key) */\n      tag_151\n        /* \"@chainlink/contracts/src/v0.8/Chainlink.sol\":3217:3220  key */\n      dup3\n        /* \"@chainlink/contracts/src/v0.8/Chainlink.sol\":3195:3199  self */\n      dup5\n        /* \"@chainlink/contracts/src/v0.8/Chainlink.sol\":3195:3203  self.buf */\n      0x80\n      add\n      mload\n        /* \"@chainlink/contracts/src/v0.8/Chainlink.sol\":3195:3216  self.buf.encodeString */\n      tag_152\n      swap1\n        /* \"@chainlink/contracts/src/v0.8/Chainlink.sol\":3195:3221  self.buf.encodeString(key) */\n      swap2\n      swap1\n      0xffffffff\n      and\n      jump\t// in\n    tag_151:\n        /* \"@chainlink/contracts/src/v0.8/Chainlink.sol\":3227:3253  self.buf.encodeUInt(value) */\n      tag_153\n        /* \"@chainlink/contracts/src/v0.8/Chainlink.sol\":3247:3252  value */\n      dup2\n        /* \"@chainlink/contracts/src/v0.8/Chainlink.sol\":3227:3231  self */\n      dup5\n        /* \"@chainlink/contracts/src/v0.8/Chainlink.sol\":3227:3235  self.buf */\n      0x80\n      add\n      mload\n        /* \"@chainlink/contracts/src/v0.8/Chainlink.sol\":3227:3246  self.buf.encodeUInt */\n      tag_154\n      swap1\n        /* \"@chainlink/contracts/src/v0.8/Chainlink.sol\":3227:3253  self.buf.encodeUInt(value) */\n      swap2\n      swap1\n      0xffffffff\n      and\n      jump\t// in\n    tag_153:\n        /* \"@chainlink/contracts/src/v0.8/Chainlink.sol\":3087:3258  function addUint(... */\n      pop\n      pop\n      pop\n      jump\t// out\n        /* \"@chainlink/contracts/src/v0.8/ChainlinkClient.sol\":4804:4979  function sendOperatorRequest(Chainlink.Request memory req, uint256 payment) internal returns (bytes32) {... */\n    tag_70:\n        /* \"@chainlink/contracts/src/v0.8/ChainlinkClient.sol\":4898:4905  bytes32 */\n      0x00\n        /* \"@chainlink/contracts/src/v0.8/ChainlinkClient.sol\":4920:4974  sendOperatorRequestTo(address(s_oracle), req, payment) */\n      tag_156\n        /* \"@chainlink/contracts/src/v0.8/ChainlinkClient.sol\":4950:4958  s_oracle */\n      0x03\n      0x00\n      swap1\n      sload\n      swap1\n      0x0100\n      exp\n      swap1\n      div\n      0xffffffffffffffffffffffffffffffffffffffff\n      and\n        /* \"@chainlink/contracts/src/v0.8/ChainlinkClient.sol\":4961:4964  req */\n      dup5\n        /* \"@chainlink/contracts/src/v0.8/ChainlinkClient.sol\":4966:4973  payment */\n      dup5\n        /* \"@chainlink/contracts/src/v0.8/ChainlinkClient.sol\":4920:4941  sendOperatorRequestTo */\n      tag_157\n        /* \"@chainlink/contracts/src/v0.8/ChainlinkClient.sol\":4920:4974  sendOperatorRequestTo(address(s_oracle), req, payment) */\n      jump\t// in\n    tag_156:\n        /* \"@chainlink/contracts/src/v0.8/ChainlinkClient.sol\":4913:4974  return sendOperatorRequestTo(address(s_oracle), req, payment) */\n      swap1\n      pop\n        /* \"@chainlink/contracts/src/v0.8/ChainlinkClient.sol\":4804:4979  function sendOperatorRequest(Chainlink.Request memory req, uint256 payment) internal returns (bytes32) {... */\n      swap3\n      swap2\n      pop\n      pop\n      jump\t// out\n        /* \"@chainlink/contracts/src/v0.8/ChainlinkClient.sol\":9098:9196  function chainlinkTokenAddress() internal view returns (address) {... */\n    tag_76:\n        /* \"@chainlink/contracts/src/v0.8/ChainlinkClient.sol\":9154:9161  address */\n      0x00\n        /* \"@chainlink/contracts/src/v0.8/ChainlinkClient.sol\":9184:9190  s_link */\n      0x02\n      0x00\n      swap1\n      sload\n      swap1\n      0x0100\n      exp\n      swap1\n      div\n      0xffffffffffffffffffffffffffffffffffffffff\n      and\n        /* \"@chainlink/contracts/src/v0.8/ChainlinkClient.sol\":9169:9191  return address(s_link) */\n      swap1\n      pop\n        /* \"@chainlink/contracts/src/v0.8/ChainlinkClient.sol\":9098:9196  function chainlinkTokenAddress() internal view returns (address) {... */\n      swap1\n      jump\t// out\n        /* \".git/contracts/enetscoreConsumer.sol\":7502:7723  function _requireTransferLINK(... */\n    tag_85:\n        /* \".git/contracts/enetscoreConsumer.sol\":7640:7648  _success */\n      dup3\n        /* \".git/contracts/enetscoreConsumer.sol\":7635:7716  if (!_success) {... */\n      tag_160\n      jumpi\n        /* \".git/contracts/enetscoreConsumer.sol\":7691:7694  _to */\n      dup2\n        /* \".git/contracts/enetscoreConsumer.sol\":7696:7703  _amount */\n      dup2\n        /* \".git/contracts/enetscoreConsumer.sol\":7672:7704  FailedTransferLINK(_to, _amount) */\n      mload(0x40)\n      0x7ab2f97700000000000000000000000000000000000000000000000000000000\n      dup2\n      mstore\n      0x04\n      add\n      tag_161\n      swap3\n      swap2\n      swap1\n      tag_162\n      jump\t// in\n    tag_161:\n      mload(0x40)\n      dup1\n      swap2\n      sub\n      swap1\n      revert\n        /* \".git/contracts/enetscoreConsumer.sol\":7635:7716  if (!_success) {... */\n    tag_160:\n        /* \".git/contracts/enetscoreConsumer.sol\":7502:7723  function _requireTransferLINK(... */\n      pop\n      pop\n      pop\n      jump\t// out\n        /* \".git/contracts/enetscoreConsumer.sol\":6961:7494  function _addUintArray(... */\n    tag_92:\n        /* \".git/contracts/enetscoreConsumer.sol\":7119:7146  Chainlink.Request memory r2 */\n      0x00\n        /* \".git/contracts/enetscoreConsumer.sol\":7149:7153  _req */\n      dup4\n        /* \".git/contracts/enetscoreConsumer.sol\":7119:7153  Chainlink.Request memory r2 = _req */\n      swap1\n      pop\n        /* \".git/contracts/enetscoreConsumer.sol\":7164:7189  r2.buf.encodeString(_key) */\n      tag_164\n        /* \".git/contracts/enetscoreConsumer.sol\":7184:7188  _key */\n      dup4\n        /* \".git/contracts/enetscoreConsumer.sol\":7164:7166  r2 */\n      dup3\n        /* \".git/contracts/enetscoreConsumer.sol\":7164:7170  r2.buf */\n      0x80\n      add\n      mload\n        /* \".git/contracts/enetscoreConsumer.sol\":7164:7183  r2.buf.encodeString */\n      tag_152\n      swap1\n        /* \".git/contracts/enetscoreConsumer.sol\":7164:7189  r2.buf.encodeString(_key) */\n      swap2\n      swap1\n      0xffffffff\n      and\n      jump\t// in\n    tag_164:\n        /* \".git/contracts/enetscoreConsumer.sol\":7200:7219  r2.buf.startArray() */\n      tag_165\n        /* \".git/contracts/enetscoreConsumer.sol\":7200:7202  r2 */\n      dup2\n        /* \".git/contracts/enetscoreConsumer.sol\":7200:7206  r2.buf */\n      0x80\n      add\n      mload\n        /* \".git/contracts/enetscoreConsumer.sol\":7200:7217  r2.buf.startArray */\n      tag_166\n        /* \".git/contracts/enetscoreConsumer.sol\":7200:7219  r2.buf.startArray() */\n      jump\t// in\n    tag_165:\n        /* \".git/contracts/enetscoreConsumer.sol\":7230:7250  uint256 valuesLength */\n      0x00\n        /* \".git/contracts/enetscoreConsumer.sol\":7253:7260  _values */\n      dup3\n        /* \".git/contracts/enetscoreConsumer.sol\":7253:7267  _values.length */\n      mload\n        /* \".git/contracts/enetscoreConsumer.sol\":7230:7267  uint256 valuesLength = _values.length */\n      swap1\n      pop\n        /* \".git/contracts/enetscoreConsumer.sol\":7283:7292  uint256 i */\n      0x00\n        /* \".git/contracts/enetscoreConsumer.sol\":7278:7436  for (uint256 i = 0; i < valuesLength; ) {... */\n    tag_167:\n        /* \".git/contracts/enetscoreConsumer.sol\":7302:7314  valuesLength */\n      dup2\n        /* \".git/contracts/enetscoreConsumer.sol\":7298:7299  i */\n      dup2\n        /* \".git/contracts/enetscoreConsumer.sol\":7298:7314  i < valuesLength */\n      lt\n        /* \".git/contracts/enetscoreConsumer.sol\":7278:7436  for (uint256 i = 0; i < valuesLength; ) {... */\n      iszero\n      tag_168\n      jumpi\n        /* \".git/contracts/enetscoreConsumer.sol\":7333:7362  r2.buf.encodeUInt(_values[i]) */\n      tag_170\n        /* \".git/contracts/enetscoreConsumer.sol\":7351:7358  _values */\n      dup5\n        /* \".git/contracts/enetscoreConsumer.sol\":7359:7360  i */\n      dup3\n        /* \".git/contracts/enetscoreConsumer.sol\":7351:7361  _values[i] */\n      dup2\n      mload\n      dup2\n      lt\n      tag_171\n      jumpi\n      tag_172\n      tag_120\n      jump\t// in\n    tag_172:\n    tag_171:\n      0x20\n      mul\n      0x20\n      add\n      add\n      mload\n        /* \".git/contracts/enetscoreConsumer.sol\":7333:7335  r2 */\n      dup5\n        /* \".git/contracts/enetscoreConsumer.sol\":7333:7339  r2.buf */\n      0x80\n      add\n      mload\n        /* \".git/contracts/enetscoreConsumer.sol\":7333:7350  r2.buf.encodeUInt */\n      tag_154\n      swap1\n        /* \".git/contracts/enetscoreConsumer.sol\":7333:7362  r2.buf.encodeUInt(_values[i]) */\n      swap2\n      swap1\n      0xffffffff\n      and\n      jump\t// in\n    tag_170:\n        /* \".git/contracts/enetscoreConsumer.sol\":7406:7409  ++i */\n      dup1\n      0x01\n      add\n      swap1\n      pop\n        /* \".git/contracts/enetscoreConsumer.sol\":7278:7436  for (uint256 i = 0; i < valuesLength; ) {... */\n      jump(tag_167)\n    tag_168:\n      pop\n        /* \".git/contracts/enetscoreConsumer.sol\":7446:7466  r2.buf.endSequence() */\n      tag_173\n        /* \".git/contracts/enetscoreConsumer.sol\":7446:7448  r2 */\n      dup3\n        /* \".git/contracts/enetscoreConsumer.sol\":7446:7452  r2.buf */\n      0x80\n      add\n      mload\n        /* \".git/contracts/enetscoreConsumer.sol\":7446:7464  r2.buf.endSequence */\n      tag_174\n        /* \".git/contracts/enetscoreConsumer.sol\":7446:7466  r2.buf.endSequence() */\n      jump\t// in\n    tag_173:\n        /* \".git/contracts/enetscoreConsumer.sol\":7484:7486  r2 */\n      dup2\n        /* \".git/contracts/enetscoreConsumer.sol\":7477:7486  _req = r2 */\n      swap5\n      pop\n        /* \".git/contracts/enetscoreConsumer.sol\":7108:7494  {... */\n      pop\n      pop\n        /* \".git/contracts/enetscoreConsumer.sol\":6961:7494  function _addUintArray(... */\n      pop\n      pop\n      pop\n      jump\t// out\n        /* \"@chainlink/contracts/src/v0.8/ChainlinkClient.sol\":8391:8505  function setChainlinkOracle(address oracleAddress) internal {... */\n    tag_96:\n        /* \"@chainlink/contracts/src/v0.8/ChainlinkClient.sol\":8486:8499  oracleAddress */\n      dup1\n        /* \"@chainlink/contracts/src/v0.8/ChainlinkClient.sol\":8457:8465  s_oracle */\n      0x03\n      0x00\n        /* \"@chainlink/contracts/src/v0.8/ChainlinkClient.sol\":8457:8500  s_oracle = OperatorInterface(oracleAddress) */\n      0x0100\n      exp\n      dup2\n      sload\n      dup2\n      0xffffffffffffffffffffffffffffffffffffffff\n      mul\n      not\n      and\n      swap1\n      dup4\n      0xffffffffffffffffffffffffffffffffffffffff\n      and\n      mul\n      or\n      swap1\n      sstore\n      pop\n        /* \"@chainlink/contracts/src/v0.8/ChainlinkClient.sol\":8391:8505  function setChainlinkOracle(address oracleAddress) internal {... */\n      pop\n      jump\t// out\n        /* \"@chainlink/contracts/src/v0.8/ChainlinkClient.sol\":9325:9426  function chainlinkOracleAddress() internal view returns (address) {... */\n    tag_113:\n        /* \"@chainlink/contracts/src/v0.8/ChainlinkClient.sol\":9382:9389  address */\n      0x00\n        /* \"@chainlink/contracts/src/v0.8/ChainlinkClient.sol\":9412:9420  s_oracle */\n      0x03\n      0x00\n      swap1\n      sload\n      swap1\n      0x0100\n      exp\n      swap1\n      div\n      0xffffffffffffffffffffffffffffffffffffffff\n      and\n        /* \"@chainlink/contracts/src/v0.8/ChainlinkClient.sol\":9397:9421  return address(s_oracle) */\n      swap1\n      pop\n        /* \"@chainlink/contracts/src/v0.8/ChainlinkClient.sol\":9325:9426  function chainlinkOracleAddress() internal view returns (address) {... */\n      swap1\n      jump\t// out\n        /* \".git/contracts/enetscoreConsumer.sol\":6055:6540  function _getGameResolveStruct(bytes memory _data) private view returns (GameResolve memory) {... */\n    tag_127:\n        /* \".git/contracts/enetscoreConsumer.sol\":6128:6146  GameResolve memory */\n      tag_177\n      tag_115\n      jump\t// in\n    tag_177:\n        /* \".git/contracts/enetscoreConsumer.sol\":6159:6172  uint32 gameId */\n      0x00\n        /* \".git/contracts/enetscoreConsumer.sol\":6189:6220  _sliceDynamicArray(0, 4, _data) */\n      tag_179\n        /* \".git/contracts/enetscoreConsumer.sol\":6208:6209  0 */\n      0x00\n        /* \".git/contracts/enetscoreConsumer.sol\":6211:6212  4 */\n      0x04\n        /* \".git/contracts/enetscoreConsumer.sol\":6214:6219  _data */\n      dup6\n        /* \".git/contracts/enetscoreConsumer.sol\":6189:6207  _sliceDynamicArray */\n      tag_180\n        /* \".git/contracts/enetscoreConsumer.sol\":6189:6220  _sliceDynamicArray(0, 4, _data) */\n      jump\t// in\n    tag_179:\n        /* \".git/contracts/enetscoreConsumer.sol\":6182:6221  bytes4(_sliceDynamicArray(0, 4, _data)) */\n      tag_181\n      swap1\n      tag_182\n      jump\t// in\n    tag_181:\n        /* \".git/contracts/enetscoreConsumer.sol\":6175:6222  uint32(bytes4(_sliceDynamicArray(0, 4, _data))) */\n      0xe0\n      shr\n        /* \".git/contracts/enetscoreConsumer.sol\":6159:6222  uint32 gameId = uint32(bytes4(_sliceDynamicArray(0, 4, _data))) */\n      swap1\n      pop\n        /* \".git/contracts/enetscoreConsumer.sol\":6233:6248  uint8 homeScore */\n      0x00\n        /* \".git/contracts/enetscoreConsumer.sol\":6264:6269  _data */\n      dup4\n        /* \".git/contracts/enetscoreConsumer.sol\":6270:6271  4 */\n      0x04\n        /* \".git/contracts/enetscoreConsumer.sol\":6264:6272  _data[4] */\n      dup2\n      mload\n      dup2\n      lt\n      tag_183\n      jumpi\n      tag_184\n      tag_120\n      jump\t// in\n    tag_184:\n    tag_183:\n      0x20\n      add\n      add\n      mload\n      0xf8\n      shr\n      0xf8\n      shl\n        /* \".git/contracts/enetscoreConsumer.sol\":6251:6274  uint8(bytes1(_data[4])) */\n      0xf8\n      shr\n        /* \".git/contracts/enetscoreConsumer.sol\":6233:6274  uint8 homeScore = uint8(bytes1(_data[4])) */\n      swap1\n      pop\n        /* \".git/contracts/enetscoreConsumer.sol\":6285:6300  uint8 awayScore */\n      0x00\n        /* \".git/contracts/enetscoreConsumer.sol\":6316:6321  _data */\n      dup5\n        /* \".git/contracts/enetscoreConsumer.sol\":6322:6323  5 */\n      0x05\n        /* \".git/contracts/enetscoreConsumer.sol\":6316:6324  _data[5] */\n      dup2\n      mload\n      dup2\n      lt\n      tag_185\n      jumpi\n      tag_186\n      tag_120\n      jump\t// in\n    tag_186:\n    tag_185:\n      0x20\n      add\n      add\n      mload\n      0xf8\n      shr\n      0xf8\n      shl\n        /* \".git/contracts/enetscoreConsumer.sol\":6303:6326  uint8(bytes1(_data[5])) */\n      0xf8\n      shr\n        /* \".git/contracts/enetscoreConsumer.sol\":6285:6326  uint8 awayScore = uint8(bytes1(_data[5])) */\n      swap1\n      pop\n        /* \".git/contracts/enetscoreConsumer.sol\":6337:6357  string memory status */\n      0x00\n        /* \".git/contracts/enetscoreConsumer.sol\":6367:6409  _sliceDynamicArray(6, _data.length, _data) */\n      tag_187\n        /* \".git/contracts/enetscoreConsumer.sol\":6386:6387  6 */\n      0x06\n        /* \".git/contracts/enetscoreConsumer.sol\":6389:6394  _data */\n      dup8\n        /* \".git/contracts/enetscoreConsumer.sol\":6389:6401  _data.length */\n      mload\n        /* \".git/contracts/enetscoreConsumer.sol\":6403:6408  _data */\n      dup9\n        /* \".git/contracts/enetscoreConsumer.sol\":6367:6385  _sliceDynamicArray */\n      tag_180\n        /* \".git/contracts/enetscoreConsumer.sol\":6367:6409  _sliceDynamicArray(6, _data.length, _data) */\n      jump\t// in\n    tag_187:\n        /* \".git/contracts/enetscoreConsumer.sol\":6337:6410  string memory status = string(_sliceDynamicArray(6, _data.length, _data)) */\n      swap1\n      pop\n        /* \".git/contracts/enetscoreConsumer.sol\":6421:6451  GameResolve memory gameResolve */\n      0x00\n        /* \".git/contracts/enetscoreConsumer.sol\":6454:6503  GameResolve(gameId, homeScore, awayScore, status) */\n      mload(0x40)\n      dup1\n      0x80\n      add\n      0x40\n      mstore\n      dup1\n        /* \".git/contracts/enetscoreConsumer.sol\":6466:6472  gameId */\n      dup7\n        /* \".git/contracts/enetscoreConsumer.sol\":6454:6503  GameResolve(gameId, homeScore, awayScore, status) */\n      0xffffffff\n      and\n      dup2\n      mstore\n      0x20\n      add\n        /* \".git/contracts/enetscoreConsumer.sol\":6474:6483  homeScore */\n      dup6\n        /* \".git/contracts/enetscoreConsumer.sol\":6454:6503  GameResolve(gameId, homeScore, awayScore, status) */\n      0xff\n      and\n      dup2\n      mstore\n      0x20\n      add\n        /* \".git/contracts/enetscoreConsumer.sol\":6485:6494  awayScore */\n      dup5\n        /* \".git/contracts/enetscoreConsumer.sol\":6454:6503  GameResolve(gameId, homeScore, awayScore, status) */\n      0xff\n      and\n      dup2\n      mstore\n      0x20\n      add\n        /* \".git/contracts/enetscoreConsumer.sol\":6496:6502  status */\n      dup4\n        /* \".git/contracts/enetscoreConsumer.sol\":6454:6503  GameResolve(gameId, homeScore, awayScore, status) */\n      dup2\n      mstore\n      pop\n        /* \".git/contracts/enetscoreConsumer.sol\":6421:6503  GameResolve memory gameResolve = GameResolve(gameId, homeScore, awayScore, status) */\n      swap1\n      pop\n        /* \".git/contracts/enetscoreConsumer.sol\":6521:6532  gameResolve */\n      dup1\n        /* \".git/contracts/enetscoreConsumer.sol\":6514:6532  return gameResolve */\n      swap6\n      pop\n      pop\n      pop\n      pop\n      pop\n      pop\n        /* \".git/contracts/enetscoreConsumer.sol\":6055:6540  function _getGameResolveStruct(bytes memory _data) private view returns (GameResolve memory) {... */\n      swap2\n      swap1\n      pop\n      jump\t// out\n        /* \".git/contracts/enetscoreConsumer.sol\":5387:6047  function _getGameCreateStruct(bytes memory _data) private view returns (GameCreate memory) {... */\n    tag_140:\n        /* \".git/contracts/enetscoreConsumer.sol\":5459:5476  GameCreate memory */\n      tag_188\n      tag_129\n      jump\t// in\n    tag_188:\n        /* \".git/contracts/enetscoreConsumer.sol\":5489:5502  uint32 gameId */\n      0x00\n        /* \".git/contracts/enetscoreConsumer.sol\":5519:5550  _sliceDynamicArray(0, 4, _data) */\n      tag_190\n        /* \".git/contracts/enetscoreConsumer.sol\":5538:5539  0 */\n      0x00\n        /* \".git/contracts/enetscoreConsumer.sol\":5541:5542  4 */\n      0x04\n        /* \".git/contracts/enetscoreConsumer.sol\":5544:5549  _data */\n      dup6\n        /* \".git/contracts/enetscoreConsumer.sol\":5519:5537  _sliceDynamicArray */\n      tag_180\n        /* \".git/contracts/enetscoreConsumer.sol\":5519:5550  _sliceDynamicArray(0, 4, _data) */\n      jump\t// in\n    tag_190:\n        /* \".git/contracts/enetscoreConsumer.sol\":5512:5551  bytes4(_sliceDynamicArray(0, 4, _data)) */\n      tag_191\n      swap1\n      tag_182\n      jump\t// in\n    tag_191:\n        /* \".git/contracts/enetscoreConsumer.sol\":5505:5552  uint32(bytes4(_sliceDynamicArray(0, 4, _data))) */\n      0xe0\n      shr\n        /* \".git/contracts/enetscoreConsumer.sol\":5489:5552  uint32 gameId = uint32(bytes4(_sliceDynamicArray(0, 4, _data))) */\n      swap1\n      pop\n        /* \".git/contracts/enetscoreConsumer.sol\":5563:5579  uint40 startTime */\n      0x00\n        /* \".git/contracts/enetscoreConsumer.sol\":5596:5627  _sliceDynamicArray(4, 9, _data) */\n      tag_192\n        /* \".git/contracts/enetscoreConsumer.sol\":5615:5616  4 */\n      0x04\n        /* \".git/contracts/enetscoreConsumer.sol\":5618:5619  9 */\n      0x09\n        /* \".git/contracts/enetscoreConsumer.sol\":5621:5626  _data */\n      dup7\n        /* \".git/contracts/enetscoreConsumer.sol\":5596:5614  _sliceDynamicArray */\n      tag_180\n        /* \".git/contracts/enetscoreConsumer.sol\":5596:5627  _sliceDynamicArray(4, 9, _data) */\n      jump\t// in\n    tag_192:\n        /* \".git/contracts/enetscoreConsumer.sol\":5589:5628  bytes5(_sliceDynamicArray(4, 9, _data)) */\n      tag_193\n      swap1\n      tag_194\n      jump\t// in\n    tag_193:\n        /* \".git/contracts/enetscoreConsumer.sol\":5582:5629  uint40(bytes5(_sliceDynamicArray(4, 9, _data))) */\n      0xd8\n      shr\n        /* \".git/contracts/enetscoreConsumer.sol\":5563:5629  uint40 startTime = uint40(bytes5(_sliceDynamicArray(4, 9, _data))) */\n      swap1\n      pop\n        /* \".git/contracts/enetscoreConsumer.sol\":5640:5660  uint8 homeTeamLength */\n      0x00\n        /* \".git/contracts/enetscoreConsumer.sol\":5676:5681  _data */\n      dup5\n        /* \".git/contracts/enetscoreConsumer.sol\":5682:5683  9 */\n      0x09\n        /* \".git/contracts/enetscoreConsumer.sol\":5676:5684  _data[9] */\n      dup2\n      mload\n      dup2\n      lt\n      tag_195\n      jumpi\n      tag_196\n      tag_120\n      jump\t// in\n    tag_196:\n    tag_195:\n      0x20\n      add\n      add\n      mload\n      0xf8\n      shr\n      0xf8\n      shl\n        /* \".git/contracts/enetscoreConsumer.sol\":5663:5686  uint8(bytes1(_data[9])) */\n      0xf8\n      shr\n        /* \".git/contracts/enetscoreConsumer.sol\":5640:5686  uint8 homeTeamLength = uint8(bytes1(_data[9])) */\n      swap1\n      pop\n        /* \".git/contracts/enetscoreConsumer.sol\":5697:5716  uint256 endHomeTeam */\n      0x00\n        /* \".git/contracts/enetscoreConsumer.sol\":5724:5738  homeTeamLength */\n      dup2\n        /* \".git/contracts/enetscoreConsumer.sol\":5719:5721  10 */\n      0x0a\n        /* \".git/contracts/enetscoreConsumer.sol\":5719:5738  10 + homeTeamLength */\n      tag_197\n      swap2\n      swap1\n      tag_198\n      jump\t// in\n    tag_197:\n        /* \".git/contracts/enetscoreConsumer.sol\":5697:5738  uint256 endHomeTeam = 10 + homeTeamLength */\n      0xff\n      and\n      swap1\n      pop\n        /* \".git/contracts/enetscoreConsumer.sol\":5749:5771  string memory homeTeam */\n      0x00\n        /* \".git/contracts/enetscoreConsumer.sol\":5781:5823  _sliceDynamicArray(10, endHomeTeam, _data) */\n      tag_199\n        /* \".git/contracts/enetscoreConsumer.sol\":5800:5802  10 */\n      0x0a\n        /* \".git/contracts/enetscoreConsumer.sol\":5804:5815  endHomeTeam */\n      dup4\n        /* \".git/contracts/enetscoreConsumer.sol\":5817:5822  _data */\n      dup10\n        /* \".git/contracts/enetscoreConsumer.sol\":5781:5799  _sliceDynamicArray */\n      tag_180\n        /* \".git/contracts/enetscoreConsumer.sol\":5781:5823  _sliceDynamicArray(10, endHomeTeam, _data) */\n      jump\t// in\n    tag_199:\n        /* \".git/contracts/enetscoreConsumer.sol\":5749:5824  string memory homeTeam = string(_sliceDynamicArray(10, endHomeTeam, _data)) */\n      swap1\n      pop\n        /* \".git/contracts/enetscoreConsumer.sol\":5835:5857  string memory awayTeam */\n      0x00\n        /* \".git/contracts/enetscoreConsumer.sol\":5867:5919  _sliceDynamicArray(endHomeTeam, _data.length, _data) */\n      tag_200\n        /* \".git/contracts/enetscoreConsumer.sol\":5886:5897  endHomeTeam */\n      dup4\n        /* \".git/contracts/enetscoreConsumer.sol\":5899:5904  _data */\n      dup10\n        /* \".git/contracts/enetscoreConsumer.sol\":5899:5911  _data.length */\n      mload\n        /* \".git/contracts/enetscoreConsumer.sol\":5913:5918  _data */\n      dup11\n        /* \".git/contracts/enetscoreConsumer.sol\":5867:5885  _sliceDynamicArray */\n      tag_180\n        /* \".git/contracts/enetscoreConsumer.sol\":5867:5919  _sliceDynamicArray(endHomeTeam, _data.length, _data) */\n      jump\t// in\n    tag_200:\n        /* \".git/contracts/enetscoreConsumer.sol\":5835:5920  string memory awayTeam = string(_sliceDynamicArray(endHomeTeam, _data.length, _data)) */\n      swap1\n      pop\n        /* \".git/contracts/enetscoreConsumer.sol\":5931:5959  GameCreate memory gameCreate */\n      0x00\n        /* \".git/contracts/enetscoreConsumer.sol\":5962:6011  GameCreate(gameId, startTime, homeTeam, awayTeam) */\n      mload(0x40)\n      dup1\n      0x80\n      add\n      0x40\n      mstore\n      dup1\n        /* \".git/contracts/enetscoreConsumer.sol\":5973:5979  gameId */\n      dup9\n        /* \".git/contracts/enetscoreConsumer.sol\":5962:6011  GameCreate(gameId, startTime, homeTeam, awayTeam) */\n      0xffffffff\n      and\n      dup2\n      mstore\n      0x20\n      add\n        /* \".git/contracts/enetscoreConsumer.sol\":5981:5990  startTime */\n      dup8\n        /* \".git/contracts/enetscoreConsumer.sol\":5962:6011  GameCreate(gameId, startTime, homeTeam, awayTeam) */\n      0xffffffffff\n      and\n      dup2\n      mstore\n      0x20\n      add\n        /* \".git/contracts/enetscoreConsumer.sol\":5992:6000  homeTeam */\n      dup5\n        /* \".git/contracts/enetscoreConsumer.sol\":5962:6011  GameCreate(gameId, startTime, homeTeam, awayTeam) */\n      dup2\n      mstore\n      0x20\n      add\n        /* \".git/contracts/enetscoreConsumer.sol\":6002:6010  awayTeam */\n      dup4\n        /* \".git/contracts/enetscoreConsumer.sol\":5962:6011  GameCreate(gameId, startTime, homeTeam, awayTeam) */\n      dup2\n      mstore\n      pop\n        /* \".git/contracts/enetscoreConsumer.sol\":5931:6011  GameCreate memory gameCreate = GameCreate(gameId, startTime, homeTeam, awayTeam) */\n      swap1\n      pop\n        /* \".git/contracts/enetscoreConsumer.sol\":6029:6039  gameCreate */\n      dup1\n        /* \".git/contracts/enetscoreConsumer.sol\":6022:6039  return gameCreate */\n      swap8\n      pop\n      pop\n      pop\n      pop\n      pop\n      pop\n      pop\n      pop\n        /* \".git/contracts/enetscoreConsumer.sol\":5387:6047  function _getGameCreateStruct(bytes memory _data) private view returns (GameCreate memory) {... */\n      swap2\n      swap1\n      pop\n      jump\t// out\n        /* \"@chainlink/contracts/src/v0.8/ChainlinkClient.sol\":7575:7963  function cancelChainlinkRequest(... */\n    tag_143:\n        /* \"@chainlink/contracts/src/v0.8/ChainlinkClient.sol\":7719:7746  OperatorInterface requested */\n      0x00\n        /* \"@chainlink/contracts/src/v0.8/ChainlinkClient.sol\":7767:7784  s_pendingRequests */\n      0x05\n        /* \"@chainlink/contracts/src/v0.8/ChainlinkClient.sol\":7767:7795  s_pendingRequests[requestId] */\n      0x00\n        /* \"@chainlink/contracts/src/v0.8/ChainlinkClient.sol\":7785:7794  requestId */\n      dup7\n        /* \"@chainlink/contracts/src/v0.8/ChainlinkClient.sol\":7767:7795  s_pendingRequests[requestId] */\n      dup2\n      mstore\n      0x20\n      add\n      swap1\n      dup2\n      mstore\n      0x20\n      add\n      0x00\n      keccak256\n      0x00\n      swap1\n      sload\n      swap1\n      0x0100\n      exp\n      swap1\n      div\n      0xffffffffffffffffffffffffffffffffffffffff\n      and\n        /* \"@chainlink/contracts/src/v0.8/ChainlinkClient.sol\":7719:7796  OperatorInterface requested = OperatorInterface(s_pendingRequests[requestId]) */\n      swap1\n      pop\n        /* \"@chainlink/contracts/src/v0.8/ChainlinkClient.sol\":7809:7826  s_pendingRequests */\n      0x05\n        /* \"@chainlink/contracts/src/v0.8/ChainlinkClient.sol\":7809:7837  s_pendingRequests[requestId] */\n      0x00\n        /* \"@chainlink/contracts/src/v0.8/ChainlinkClient.sol\":7827:7836  requestId */\n      dup7\n        /* \"@chainlink/contracts/src/v0.8/ChainlinkClient.sol\":7809:7837  s_pendingRequests[requestId] */\n      dup2\n      mstore\n      0x20\n      add\n      swap1\n      dup2\n      mstore\n      0x20\n      add\n      0x00\n      keccak256\n      0x00\n        /* \"@chainlink/contracts/src/v0.8/ChainlinkClient.sol\":7802:7837  delete s_pendingRequests[requestId] */\n      0x0100\n      exp\n      dup2\n      sload\n      swap1\n      0xffffffffffffffffffffffffffffffffffffffff\n      mul\n      not\n      and\n      swap1\n      sstore\n        /* \"@chainlink/contracts/src/v0.8/ChainlinkClient.sol\":7867:7876  requestId */\n      dup5\n        /* \"@chainlink/contracts/src/v0.8/ChainlinkClient.sol\":7848:7877  ChainlinkCancelled(requestId) */\n      0xe1fe3afa0f7f761ff0a8b89086790efd5140d2907ebd5b7ff6bfcb5e075fd4c5\n      mload(0x40)\n      mload(0x40)\n      dup1\n      swap2\n      sub\n      swap1\n      log2\n        /* \"@chainlink/contracts/src/v0.8/ChainlinkClient.sol\":7883:7892  requested */\n      dup1\n        /* \"@chainlink/contracts/src/v0.8/ChainlinkClient.sol\":7883:7912  requested.cancelOracleRequest */\n      0xffffffffffffffffffffffffffffffffffffffff\n      and\n      0x6ee4d553\n        /* \"@chainlink/contracts/src/v0.8/ChainlinkClient.sol\":7913:7922  requestId */\n      dup7\n        /* \"@chainlink/contracts/src/v0.8/ChainlinkClient.sol\":7924:7931  payment */\n      dup7\n        /* \"@chainlink/contracts/src/v0.8/ChainlinkClient.sol\":7933:7945  callbackFunc */\n      dup7\n        /* \"@chainlink/contracts/src/v0.8/ChainlinkClient.sol\":7947:7957  expiration */\n      dup7\n        /* \"@chainlink/contracts/src/v0.8/ChainlinkClient.sol\":7883:7958  requested.cancelOracleRequest(requestId, payment, callbackFunc, expiration) */\n      mload(0x40)\n      dup6\n      0xffffffff\n      and\n      0xe0\n      shl\n      dup2\n      mstore\n      0x04\n      add\n      tag_202\n      swap5\n      swap4\n      swap3\n      swap2\n      swap1\n      tag_203\n      jump\t// in\n    tag_202:\n      0x00\n      mload(0x40)\n      dup1\n      dup4\n      sub\n      dup2\n      0x00\n      dup8\n      dup1\n      extcodesize\n      iszero\n      dup1\n      iszero\n      tag_204\n      jumpi\n      0x00\n      dup1\n      revert\n    tag_204:\n      pop\n      gas\n      call\n      iszero\n      dup1\n      iszero\n      tag_206\n      jumpi\n      returndatasize\n      0x00\n      dup1\n      returndatacopy\n      revert(0x00, returndatasize)\n    tag_206:\n      pop\n      pop\n      pop\n      pop\n        /* \"@chainlink/contracts/src/v0.8/ChainlinkClient.sol\":7713:7963  {... */\n      pop\n        /* \"@chainlink/contracts/src/v0.8/ChainlinkClient.sol\":7575:7963  function cancelChainlinkRequest(... */\n      pop\n      pop\n      pop\n      pop\n      jump\t// out\n        /* \"@chainlink/contracts/src/v0.8/Chainlink.sol\":987:1338  function initialize(... */\n    tag_149:\n        /* \"@chainlink/contracts/src/v0.8/Chainlink.sol\":1129:1153  Chainlink.Request memory */\n      tag_207\n      tag_145\n      jump\t// in\n    tag_207:\n        /* \"@chainlink/contracts/src/v0.8/Chainlink.sol\":1161:1210  BufferChainlink.init(self.buf, defaultBufferSize) */\n      tag_209\n        /* \"@chainlink/contracts/src/v0.8/Chainlink.sol\":1182:1186  self */\n      dup6\n        /* \"@chainlink/contracts/src/v0.8/Chainlink.sol\":1182:1190  self.buf */\n      0x80\n      add\n      mload\n        /* \"@chainlink/contracts/src/v0.8/Chainlink.sol\":361:364  256 */\n      0x0100\n        /* \"@chainlink/contracts/src/v0.8/Chainlink.sol\":1161:1181  BufferChainlink.init */\n      tag_210\n        /* \"@chainlink/contracts/src/v0.8/Chainlink.sol\":1161:1210  BufferChainlink.init(self.buf, defaultBufferSize) */\n      jump\t// in\n    tag_209:\n      pop\n        /* \"@chainlink/contracts/src/v0.8/Chainlink.sol\":1226:1231  jobId */\n      dup4\n        /* \"@chainlink/contracts/src/v0.8/Chainlink.sol\":1216:1220  self */\n      dup6\n        /* \"@chainlink/contracts/src/v0.8/Chainlink.sol\":1216:1223  self.id */\n      0x00\n      add\n        /* \"@chainlink/contracts/src/v0.8/Chainlink.sol\":1216:1231  self.id = jobId */\n      dup2\n      dup2\n      mstore\n      pop\n      pop\n        /* \"@chainlink/contracts/src/v0.8/Chainlink.sol\":1260:1272  callbackAddr */\n      dup3\n        /* \"@chainlink/contracts/src/v0.8/Chainlink.sol\":1237:1241  self */\n      dup6\n        /* \"@chainlink/contracts/src/v0.8/Chainlink.sol\":1237:1257  self.callbackAddress */\n      0x20\n      add\n        /* \"@chainlink/contracts/src/v0.8/Chainlink.sol\":1237:1272  self.callbackAddress = callbackAddr */\n      swap1\n      0xffffffffffffffffffffffffffffffffffffffff\n      and\n      swap1\n      dup2\n      0xffffffffffffffffffffffffffffffffffffffff\n      and\n      dup2\n      mstore\n      pop\n      pop\n        /* \"@chainlink/contracts/src/v0.8/Chainlink.sol\":1304:1316  callbackFunc */\n      dup2\n        /* \"@chainlink/contracts/src/v0.8/Chainlink.sol\":1278:1282  self */\n      dup6\n        /* \"@chainlink/contracts/src/v0.8/Chainlink.sol\":1278:1301  self.callbackFunctionId */\n      0x40\n      add\n        /* \"@chainlink/contracts/src/v0.8/Chainlink.sol\":1278:1316  self.callbackFunctionId = callbackFunc */\n      swap1\n      not(0xffffffffffffffffffffffffffffffffffffffffffffffffffffffff)\n      and\n      swap1\n      dup2\n      not(0xffffffffffffffffffffffffffffffffffffffffffffffffffffffff)\n      and\n      dup2\n      mstore\n      pop\n      pop\n        /* \"@chainlink/contracts/src/v0.8/Chainlink.sol\":1329:1333  self */\n      dup5\n        /* \"@chainlink/contracts/src/v0.8/Chainlink.sol\":1322:1333  return self */\n      swap1\n      pop\n        /* \"@chainlink/contracts/src/v0.8/Chainlink.sol\":987:1338  function initialize(... */\n      swap5\n      swap4\n      pop\n      pop\n      pop\n      pop\n      jump\t// out\n        /* \"@chainlink/contracts/src/v0.8/vendor/CBORChainlink.sol\":2777:2981  function encodeString(BufferChainlink.buffer memory buf, string memory value) internal pure {... */\n    tag_152:\n        /* \"@chainlink/contracts/src/v0.8/vendor/CBORChainlink.sol\":2875:2946  encodeFixedNumeric(buf, MAJOR_TYPE_STRING, uint64(bytes(value).length)) */\n      tag_212\n        /* \"@chainlink/contracts/src/v0.8/vendor/CBORChainlink.sol\":2894:2897  buf */\n      dup3\n        /* \"@chainlink/contracts/src/v0.8/vendor/CBORChainlink.sol\":383:384  3 */\n      0x03\n        /* \"@chainlink/contracts/src/v0.8/vendor/CBORChainlink.sol\":2931:2936  value */\n      dup4\n        /* \"@chainlink/contracts/src/v0.8/vendor/CBORChainlink.sol\":2925:2944  bytes(value).length */\n      mload\n        /* \"@chainlink/contracts/src/v0.8/vendor/CBORChainlink.sol\":2875:2893  encodeFixedNumeric */\n      tag_213\n        /* \"@chainlink/contracts/src/v0.8/vendor/CBORChainlink.sol\":2875:2946  encodeFixedNumeric(buf, MAJOR_TYPE_STRING, uint64(bytes(value).length)) */\n      jump\t// in\n    tag_212:\n        /* \"@chainlink/contracts/src/v0.8/vendor/CBORChainlink.sol\":2952:2976  buf.append(bytes(value)) */\n      tag_214\n        /* \"@chainlink/contracts/src/v0.8/vendor/CBORChainlink.sol\":2969:2974  value */\n      dup2\n        /* \"@chainlink/contracts/src/v0.8/vendor/CBORChainlink.sol\":2952:2955  buf */\n      dup4\n        /* \"@chainlink/contracts/src/v0.8/vendor/CBORChainlink.sol\":2952:2962  buf.append */\n      tag_215\n      swap1\n        /* \"@chainlink/contracts/src/v0.8/vendor/CBORChainlink.sol\":2952:2976  buf.append(bytes(value)) */\n      swap2\n      swap1\n      0xffffffff\n      and\n      jump\t// in\n    tag_214:\n      pop\n        /* \"@chainlink/contracts/src/v0.8/vendor/CBORChainlink.sol\":2777:2981  function encodeString(BufferChainlink.buffer memory buf, string memory value) internal pure {... */\n      pop\n      pop\n      jump\t// out\n        /* \"@chainlink/contracts/src/v0.8/vendor/CBORChainlink.sol\":1464:1700  function encodeUInt(BufferChainlink.buffer memory buf, uint value) internal pure {... */\n    tag_154:\n        /* \"@chainlink/contracts/src/v0.8/vendor/CBORChainlink.sol\":1562:1580  0xFFFFFFFFFFFFFFFF */\n      0xffffffffffffffff\n        /* \"@chainlink/contracts/src/v0.8/vendor/CBORChainlink.sol\":1554:1559  value */\n      dup2\n        /* \"@chainlink/contracts/src/v0.8/vendor/CBORChainlink.sol\":1554:1580  value > 0xFFFFFFFFFFFFFFFF */\n      gt\n        /* \"@chainlink/contracts/src/v0.8/vendor/CBORChainlink.sol\":1551:1696  if(value > 0xFFFFFFFFFFFFFFFF) {... */\n      iszero\n      tag_217\n      jumpi\n        /* \"@chainlink/contracts/src/v0.8/vendor/CBORChainlink.sol\":1590:1614  encodeBigNum(buf, value) */\n      tag_218\n        /* \"@chainlink/contracts/src/v0.8/vendor/CBORChainlink.sol\":1603:1606  buf */\n      dup3\n        /* \"@chainlink/contracts/src/v0.8/vendor/CBORChainlink.sol\":1608:1613  value */\n      dup3\n        /* \"@chainlink/contracts/src/v0.8/vendor/CBORChainlink.sol\":1590:1602  encodeBigNum */\n      tag_219\n        /* \"@chainlink/contracts/src/v0.8/vendor/CBORChainlink.sol\":1590:1614  encodeBigNum(buf, value) */\n      jump\t// in\n    tag_218:\n        /* \"@chainlink/contracts/src/v0.8/vendor/CBORChainlink.sol\":1551:1696  if(value > 0xFFFFFFFFFFFFFFFF) {... */\n      jump(tag_220)\n    tag_217:\n        /* \"@chainlink/contracts/src/v0.8/vendor/CBORChainlink.sol\":1635:1689  encodeFixedNumeric(buf, MAJOR_TYPE_INT, uint64(value)) */\n      tag_221\n        /* \"@chainlink/contracts/src/v0.8/vendor/CBORChainlink.sol\":1654:1657  buf */\n      dup3\n        /* \"@chainlink/contracts/src/v0.8/vendor/CBORChainlink.sol\":234:235  0 */\n      0x00\n        /* \"@chainlink/contracts/src/v0.8/vendor/CBORChainlink.sol\":1682:1687  value */\n      dup4\n        /* \"@chainlink/contracts/src/v0.8/vendor/CBORChainlink.sol\":1635:1653  encodeFixedNumeric */\n      tag_213\n        /* \"@chainlink/contracts/src/v0.8/vendor/CBORChainlink.sol\":1635:1689  encodeFixedNumeric(buf, MAJOR_TYPE_INT, uint64(value)) */\n      jump\t// in\n    tag_221:\n        /* \"@chainlink/contracts/src/v0.8/vendor/CBORChainlink.sol\":1551:1696  if(value > 0xFFFFFFFFFFFFFFFF) {... */\n    tag_220:\n        /* \"@chainlink/contracts/src/v0.8/vendor/CBORChainlink.sol\":1464:1700  function encodeUInt(BufferChainlink.buffer memory buf, uint value) internal pure {... */\n      pop\n      pop\n      jump\t// out\n        /* \"@chainlink/contracts/src/v0.8/ChainlinkClient.sol\":5550:6280  function sendOperatorRequestTo(... */\n    tag_157:\n        /* \"@chainlink/contracts/src/v0.8/ChainlinkClient.sol\":5685:5702  bytes32 requestId */\n      0x00\n        /* \"@chainlink/contracts/src/v0.8/ChainlinkClient.sol\":5710:5723  uint256 nonce */\n      dup1\n        /* \"@chainlink/contracts/src/v0.8/ChainlinkClient.sol\":5726:5740  s_requestCount */\n      sload(0x04)\n        /* \"@chainlink/contracts/src/v0.8/ChainlinkClient.sol\":5710:5740  uint256 nonce = s_requestCount */\n      swap1\n      pop\n        /* \"@chainlink/contracts/src/v0.8/ChainlinkClient.sol\":5771:5772  1 */\n      0x01\n        /* \"@chainlink/contracts/src/v0.8/ChainlinkClient.sol\":5763:5768  nonce */\n      dup2\n        /* \"@chainlink/contracts/src/v0.8/ChainlinkClient.sol\":5763:5772  nonce + 1 */\n      tag_223\n      swap2\n      swap1\n      tag_224\n      jump\t// in\n    tag_223:\n        /* \"@chainlink/contracts/src/v0.8/ChainlinkClient.sol\":5746:5760  s_requestCount */\n      0x04\n        /* \"@chainlink/contracts/src/v0.8/ChainlinkClient.sol\":5746:5772  s_requestCount = nonce + 1 */\n      dup2\n      swap1\n      sstore\n      pop\n        /* \"@chainlink/contracts/src/v0.8/ChainlinkClient.sol\":5778:5805  bytes memory encodedRequest */\n      0x00\n        /* \"@chainlink/contracts/src/v0.8/ChainlinkClient.sol\":5838:5880  OperatorInterface.operatorRequest.selector */\n      shl(0xe0, 0x3c6d41b9)\n        /* \"@chainlink/contracts/src/v0.8/ChainlinkClient.sol\":784:785  0 */\n      0x00\n        /* \"@chainlink/contracts/src/v0.8/ChainlinkClient.sol\":728:729  0 */\n      dup1\n        /* \"@chainlink/contracts/src/v0.8/ChainlinkClient.sol\":6101:6104  req */\n      dup8\n        /* \"@chainlink/contracts/src/v0.8/ChainlinkClient.sol\":6101:6107  req.id */\n      0x00\n      add\n      mload\n        /* \"@chainlink/contracts/src/v0.8/ChainlinkClient.sol\":6115:6118  req */\n      dup9\n        /* \"@chainlink/contracts/src/v0.8/ChainlinkClient.sol\":6115:6137  req.callbackFunctionId */\n      0x40\n      add\n      mload\n        /* \"@chainlink/contracts/src/v0.8/ChainlinkClient.sol\":6145:6150  nonce */\n      dup7\n        /* \"@chainlink/contracts/src/v0.8/ChainlinkClient.sol\":891:892  2 */\n      0x02\n        /* \"@chainlink/contracts/src/v0.8/ChainlinkClient.sol\":6187:6190  req */\n      dup12\n        /* \"@chainlink/contracts/src/v0.8/ChainlinkClient.sol\":6187:6194  req.buf */\n      0x80\n      add\n      mload\n        /* \"@chainlink/contracts/src/v0.8/ChainlinkClient.sol\":6187:6198  req.buf.buf */\n      0x00\n      add\n      mload\n        /* \"@chainlink/contracts/src/v0.8/ChainlinkClient.sol\":5808:6204  abi.encodeWithSelector(... */\n      add(0x24, mload(0x40))\n      tag_225\n      swap8\n      swap7\n      swap6\n      swap5\n      swap4\n      swap3\n      swap2\n      swap1\n      tag_226\n      jump\t// in\n    tag_225:\n      mload(0x40)\n      0x20\n      dup2\n      dup4\n      sub\n      sub\n      dup2\n      mstore\n      swap1\n      0x40\n      mstore\n      swap1\n      not(0xffffffffffffffffffffffffffffffffffffffffffffffffffffffff)\n      and\n      0x20\n      dup3\n      add\n      dup1\n      mload\n      0xffffffffffffffffffffffffffffffffffffffffffffffffffffffff\n      dup4\n      dup2\n      dup4\n      and\n      or\n      dup4\n      mstore\n      pop\n      pop\n      pop\n      pop\n        /* \"@chainlink/contracts/src/v0.8/ChainlinkClient.sol\":5778:6204  bytes memory encodedRequest = abi.encodeWithSelector(... */\n      swap1\n      pop\n        /* \"@chainlink/contracts/src/v0.8/ChainlinkClient.sol\":6217:6275  _rawRequest(oracleAddress, nonce, payment, encodedRequest) */\n      tag_227\n        /* \"@chainlink/contracts/src/v0.8/ChainlinkClient.sol\":6229:6242  oracleAddress */\n      dup7\n        /* \"@chainlink/contracts/src/v0.8/ChainlinkClient.sol\":6244:6249  nonce */\n      dup4\n        /* \"@chainlink/contracts/src/v0.8/ChainlinkClient.sol\":6251:6258  payment */\n      dup7\n        /* \"@chainlink/contracts/src/v0.8/ChainlinkClient.sol\":6260:6274  encodedRequest */\n      dup5\n        /* \"@chainlink/contracts/src/v0.8/ChainlinkClient.sol\":6217:6228  _rawRequest */\n      tag_228\n        /* \"@chainlink/contracts/src/v0.8/ChainlinkClient.sol\":6217:6275  _rawRequest(oracleAddress, nonce, payment, encodedRequest) */\n      jump\t// in\n    tag_227:\n        /* \"@chainlink/contracts/src/v0.8/ChainlinkClient.sol\":6210:6275  return _rawRequest(oracleAddress, nonce, payment, encodedRequest) */\n      swap3\n      pop\n      pop\n      pop\n        /* \"@chainlink/contracts/src/v0.8/ChainlinkClient.sol\":5550:6280  function sendOperatorRequestTo(... */\n      swap4\n      swap3\n      pop\n      pop\n      pop\n      jump\t// out\n        /* \"@chainlink/contracts/src/v0.8/vendor/CBORChainlink.sol\":2985:3114  function startArray(BufferChainlink.buffer memory buf) internal pure {... */\n    tag_166:\n        /* \"@chainlink/contracts/src/v0.8/vendor/CBORChainlink.sol\":3060:3109  encodeIndefiniteLengthType(buf, MAJOR_TYPE_ARRAY) */\n      tag_230\n        /* \"@chainlink/contracts/src/v0.8/vendor/CBORChainlink.sol\":3087:3090  buf */\n      dup2\n        /* \"@chainlink/contracts/src/v0.8/vendor/CBORChainlink.sol\":430:431  4 */\n      0x04\n        /* \"@chainlink/contracts/src/v0.8/vendor/CBORChainlink.sol\":3060:3086  encodeIndefiniteLengthType */\n      tag_231\n        /* \"@chainlink/contracts/src/v0.8/vendor/CBORChainlink.sol\":3060:3109  encodeIndefiniteLengthType(buf, MAJOR_TYPE_ARRAY) */\n      jump\t// in\n    tag_230:\n        /* \"@chainlink/contracts/src/v0.8/vendor/CBORChainlink.sol\":2985:3114  function startArray(BufferChainlink.buffer memory buf) internal pure {... */\n      pop\n      jump\t// out\n        /* \"@chainlink/contracts/src/v0.8/vendor/CBORChainlink.sol\":3247:3384  function endSequence(BufferChainlink.buffer memory buf) internal pure {... */\n    tag_174:\n        /* \"@chainlink/contracts/src/v0.8/vendor/CBORChainlink.sol\":3323:3379  encodeIndefiniteLengthType(buf, MAJOR_TYPE_CONTENT_FREE) */\n      tag_233\n        /* \"@chainlink/contracts/src/v0.8/vendor/CBORChainlink.sol\":3350:3353  buf */\n      dup2\n        /* \"@chainlink/contracts/src/v0.8/vendor/CBORChainlink.sol\":574:575  7 */\n      0x07\n        /* \"@chainlink/contracts/src/v0.8/vendor/CBORChainlink.sol\":3323:3349  encodeIndefiniteLengthType */\n      tag_231\n        /* \"@chainlink/contracts/src/v0.8/vendor/CBORChainlink.sol\":3323:3379  encodeIndefiniteLengthType(buf, MAJOR_TYPE_CONTENT_FREE) */\n      jump\t// in\n    tag_233:\n        /* \"@chainlink/contracts/src/v0.8/vendor/CBORChainlink.sol\":3247:3384  function endSequence(BufferChainlink.buffer memory buf) internal pure {... */\n      pop\n      jump\t// out\n        /* \".git/contracts/enetscoreConsumer.sol\":6548:6895  function _sliceDynamicArray(... */\n    tag_180:\n        /* \".git/contracts/enetscoreConsumer.sol\":6682:6694  bytes memory */\n      0x60\n        /* \".git/contracts/enetscoreConsumer.sol\":6707:6726  bytes memory result */\n      0x00\n        /* \".git/contracts/enetscoreConsumer.sol\":6746:6752  _start */\n      dup5\n        /* \".git/contracts/enetscoreConsumer.sol\":6739:6743  _end */\n      dup5\n        /* \".git/contracts/enetscoreConsumer.sol\":6739:6752  _end - _start */\n      tag_235\n      swap2\n      swap1\n      tag_236\n      jump\t// in\n    tag_235:\n        /* \".git/contracts/enetscoreConsumer.sol\":6729:6753  new bytes(_end - _start) */\n      0xffffffffffffffff\n      dup2\n      gt\n      iszero\n      tag_237\n      jumpi\n      tag_238\n      tag_239\n      jump\t// in\n    tag_238:\n    tag_237:\n      mload(0x40)\n      swap1\n      dup1\n      dup3\n      mstore\n      dup1\n      0x1f\n      add\n      not(0x1f)\n      and\n      0x20\n      add\n      dup3\n      add\n      0x40\n      mstore\n      dup1\n      iszero\n      tag_240\n      jumpi\n      dup2\n      0x20\n      add\n      0x01\n      dup3\n      mul\n      dup1\n      calldatasize\n      dup4\n      calldatacopy\n      dup1\n      dup3\n      add\n      swap2\n      pop\n      pop\n      swap1\n      pop\n    tag_240:\n      pop\n        /* \".git/contracts/enetscoreConsumer.sol\":6707:6753  bytes memory result = new bytes(_end - _start) */\n      swap1\n      pop\n        /* \".git/contracts/enetscoreConsumer.sol\":6769:6778  uint256 i */\n      0x00\n        /* \".git/contracts/enetscoreConsumer.sol\":6764:6864  for (uint256 i = 0; i < _end - _start; ++i) {... */\n    tag_241:\n        /* \".git/contracts/enetscoreConsumer.sol\":6795:6801  _start */\n      dup6\n        /* \".git/contracts/enetscoreConsumer.sol\":6788:6792  _end */\n      dup6\n        /* \".git/contracts/enetscoreConsumer.sol\":6788:6801  _end - _start */\n      tag_244\n      swap2\n      swap1\n      tag_236\n      jump\t// in\n    tag_244:\n        /* \".git/contracts/enetscoreConsumer.sol\":6784:6785  i */\n      dup2\n        /* \".git/contracts/enetscoreConsumer.sol\":6784:6801  i < _end - _start */\n      lt\n        /* \".git/contracts/enetscoreConsumer.sol\":6764:6864  for (uint256 i = 0; i < _end - _start; ++i) {... */\n      iszero\n      tag_242\n      jumpi\n        /* \".git/contracts/enetscoreConsumer.sol\":6835:6840  _data */\n      dup4\n        /* \".git/contracts/enetscoreConsumer.sol\":6850:6851  i */\n      dup2\n        /* \".git/contracts/enetscoreConsumer.sol\":6841:6847  _start */\n      dup8\n        /* \".git/contracts/enetscoreConsumer.sol\":6841:6851  _start + i */\n      tag_245\n      swap2\n      swap1\n      tag_224\n      jump\t// in\n    tag_245:\n        /* \".git/contracts/enetscoreConsumer.sol\":6835:6852  _data[_start + i] */\n      dup2\n      mload\n      dup2\n      lt\n      tag_246\n      jumpi\n      tag_247\n      tag_120\n      jump\t// in\n    tag_247:\n    tag_246:\n      0x20\n      add\n      add\n      mload\n      0xf8\n      shr\n      0xf8\n      shl\n        /* \".git/contracts/enetscoreConsumer.sol\":6823:6829  result */\n      dup3\n        /* \".git/contracts/enetscoreConsumer.sol\":6830:6831  i */\n      dup3\n        /* \".git/contracts/enetscoreConsumer.sol\":6823:6832  result[i] */\n      dup2\n      mload\n      dup2\n      lt\n      tag_248\n      jumpi\n      tag_249\n      tag_120\n      jump\t// in\n    tag_249:\n    tag_248:\n      0x20\n      add\n      add\n        /* \".git/contracts/enetscoreConsumer.sol\":6823:6852  result[i] = _data[_start + i] */\n      swap1\n      not(0xffffffffffffffffffffffffffffffffffffffffffffffffffffffffffffff)\n      and\n      swap1\n      dup2\n      0x00\n      byte\n      swap1\n      mstore8\n      pop\n        /* \".git/contracts/enetscoreConsumer.sol\":6803:6806  ++i */\n      dup1\n      tag_250\n      swap1\n      tag_251\n      jump\t// in\n    tag_250:\n      swap1\n      pop\n        /* \".git/contracts/enetscoreConsumer.sol\":6764:6864  for (uint256 i = 0; i < _end - _start; ++i) {... */\n      jump(tag_241)\n    tag_242:\n      pop\n        /* \".git/contracts/enetscoreConsumer.sol\":6881:6887  result */\n      dup1\n        /* \".git/contracts/enetscoreConsumer.sol\":6874:6887  return result */\n      swap2\n      pop\n      pop\n        /* \".git/contracts/enetscoreConsumer.sol\":6548:6895  function _sliceDynamicArray(... */\n      swap4\n      swap3\n      pop\n      pop\n      pop\n      jump\t// out\n        /* \"@chainlink/contracts/src/v0.8/vendor/BufferChainlink.sol\":1001:1400  function init(buffer memory buf, uint256 capacity) internal pure returns (buffer memory) {... */\n    tag_210:\n        /* \"@chainlink/contracts/src/v0.8/vendor/BufferChainlink.sol\":1075:1088  buffer memory */\n      tag_252\n      tag_253\n      jump\t// in\n    tag_252:\n        /* \"@chainlink/contracts/src/v0.8/vendor/BufferChainlink.sol\":1117:1118  0 */\n      0x00\n        /* \"@chainlink/contracts/src/v0.8/vendor/BufferChainlink.sol\":1111:1113  32 */\n      0x20\n        /* \"@chainlink/contracts/src/v0.8/vendor/BufferChainlink.sol\":1100:1108  capacity */\n      dup4\n        /* \"@chainlink/contracts/src/v0.8/vendor/BufferChainlink.sol\":1100:1113  capacity % 32 */\n      tag_255\n      swap2\n      swap1\n      tag_256\n      jump\t// in\n    tag_255:\n        /* \"@chainlink/contracts/src/v0.8/vendor/BufferChainlink.sol\":1100:1118  capacity % 32 != 0 */\n      eq\n        /* \"@chainlink/contracts/src/v0.8/vendor/BufferChainlink.sol\":1096:1167  if (capacity % 32 != 0) {... */\n      tag_257\n      jumpi\n        /* \"@chainlink/contracts/src/v0.8/vendor/BufferChainlink.sol\":1157:1159  32 */\n      0x20\n        /* \"@chainlink/contracts/src/v0.8/vendor/BufferChainlink.sol\":1146:1154  capacity */\n      dup3\n        /* \"@chainlink/contracts/src/v0.8/vendor/BufferChainlink.sol\":1146:1159  capacity % 32 */\n      tag_258\n      swap2\n      swap1\n      tag_256\n      jump\t// in\n    tag_258:\n        /* \"@chainlink/contracts/src/v0.8/vendor/BufferChainlink.sol\":1140:1142  32 */\n      0x20\n        /* \"@chainlink/contracts/src/v0.8/vendor/BufferChainlink.sol\":1140:1160  32 - (capacity % 32) */\n      tag_259\n      swap2\n      swap1\n      tag_236\n      jump\t// in\n    tag_259:\n        /* \"@chainlink/contracts/src/v0.8/vendor/BufferChainlink.sol\":1128:1160  capacity += 32 - (capacity % 32) */\n      dup3\n      tag_260\n      swap2\n      swap1\n      tag_224\n      jump\t// in\n    tag_260:\n      swap2\n      pop\n        /* \"@chainlink/contracts/src/v0.8/vendor/BufferChainlink.sol\":1096:1167  if (capacity % 32 != 0) {... */\n    tag_257:\n        /* \"@chainlink/contracts/src/v0.8/vendor/BufferChainlink.sol\":1229:1237  capacity */\n      dup2\n        /* \"@chainlink/contracts/src/v0.8/vendor/BufferChainlink.sol\":1214:1217  buf */\n      dup4\n        /* \"@chainlink/contracts/src/v0.8/vendor/BufferChainlink.sol\":1214:1226  buf.capacity */\n      0x20\n      add\n        /* \"@chainlink/contracts/src/v0.8/vendor/BufferChainlink.sol\":1214:1237  buf.capacity = capacity */\n      dup2\n      dup2\n      mstore\n      pop\n      pop\n        /* \"@chainlink/contracts/src/v0.8/vendor/BufferChainlink.sol\":1277:1281  0x40 */\n      0x40\n        /* \"@chainlink/contracts/src/v0.8/vendor/BufferChainlink.sol\":1271:1282  mload(0x40) */\n      mload\n        /* \"@chainlink/contracts/src/v0.8/vendor/BufferChainlink.sol\":1301:1304  ptr */\n      dup1\n        /* \"@chainlink/contracts/src/v0.8/vendor/BufferChainlink.sol\":1296:1299  buf */\n      dup5\n        /* \"@chainlink/contracts/src/v0.8/vendor/BufferChainlink.sol\":1289:1305  mstore(buf, ptr) */\n      mstore\n        /* \"@chainlink/contracts/src/v0.8/vendor/BufferChainlink.sol\":1324:1325  0 */\n      0x00\n        /* \"@chainlink/contracts/src/v0.8/vendor/BufferChainlink.sol\":1319:1322  ptr */\n      dup2\n        /* \"@chainlink/contracts/src/v0.8/vendor/BufferChainlink.sol\":1312:1326  mstore(ptr, 0) */\n      mstore\n        /* \"@chainlink/contracts/src/v0.8/vendor/BufferChainlink.sol\":1363:1371  capacity */\n      dup3\n        /* \"@chainlink/contracts/src/v0.8/vendor/BufferChainlink.sol\":1358:1361  ptr */\n      dup2\n        /* \"@chainlink/contracts/src/v0.8/vendor/BufferChainlink.sol\":1354:1372  add(ptr, capacity) */\n      add\n        /* \"@chainlink/contracts/src/v0.8/vendor/BufferChainlink.sol\":1350:1352  32 */\n      0x20\n        /* \"@chainlink/contracts/src/v0.8/vendor/BufferChainlink.sol\":1346:1373  add(32, add(ptr, capacity)) */\n      add\n        /* \"@chainlink/contracts/src/v0.8/vendor/BufferChainlink.sol\":1340:1344  0x40 */\n      0x40\n        /* \"@chainlink/contracts/src/v0.8/vendor/BufferChainlink.sol\":1333:1374  mstore(0x40, add(32, add(ptr, capacity))) */\n      mstore\n        /* \"@chainlink/contracts/src/v0.8/vendor/BufferChainlink.sol\":1252:1380  {... */\n      pop\n        /* \"@chainlink/contracts/src/v0.8/vendor/BufferChainlink.sol\":1392:1395  buf */\n      dup3\n        /* \"@chainlink/contracts/src/v0.8/vendor/BufferChainlink.sol\":1385:1395  return buf */\n      swap1\n      pop\n        /* \"@chainlink/contracts/src/v0.8/vendor/BufferChainlink.sol\":1001:1400  function init(buffer memory buf, uint256 capacity) internal pure returns (buffer memory) {... */\n      swap3\n      swap2\n      pop\n      pop\n      jump\t// out\n        /* \"@chainlink/contracts/src/v0.8/vendor/CBORChainlink.sol\":682:1307  function encodeFixedNumeric(BufferChainlink.buffer memory buf, uint8 major, uint64 value) private pure {... */\n    tag_213:\n        /* \"@chainlink/contracts/src/v0.8/vendor/CBORChainlink.sol\":803:805  23 */\n      0x17\n        /* \"@chainlink/contracts/src/v0.8/vendor/CBORChainlink.sol\":794:799  value */\n      dup2\n        /* \"@chainlink/contracts/src/v0.8/vendor/CBORChainlink.sol\":794:805  value <= 23 */\n      0xffffffffffffffff\n      and\n      gt\n        /* \"@chainlink/contracts/src/v0.8/vendor/CBORChainlink.sol\":791:1303  if(value <= 23) {... */\n      tag_262\n      jumpi\n        /* \"@chainlink/contracts/src/v0.8/vendor/CBORChainlink.sol\":815:859  buf.appendUint8(uint8((major << 5) | value)) */\n      tag_263\n        /* \"@chainlink/contracts/src/v0.8/vendor/CBORChainlink.sol\":852:857  value */\n      dup2\n        /* \"@chainlink/contracts/src/v0.8/vendor/CBORChainlink.sol\":847:848  5 */\n      0x05\n        /* \"@chainlink/contracts/src/v0.8/vendor/CBORChainlink.sol\":838:843  major */\n      dup5\n        /* \"@chainlink/contracts/src/v0.8/vendor/CBORChainlink.sol\":838:848  major << 5 */\n      0xff\n      and\n      swap1\n      shl\n        /* \"@chainlink/contracts/src/v0.8/vendor/CBORChainlink.sol\":837:857  (major << 5) | value */\n      0xff\n      and\n      or\n        /* \"@chainlink/contracts/src/v0.8/vendor/CBORChainlink.sol\":815:818  buf */\n      dup5\n        /* \"@chainlink/contracts/src/v0.8/vendor/CBORChainlink.sol\":815:830  buf.appendUint8 */\n      tag_264\n      swap1\n        /* \"@chainlink/contracts/src/v0.8/vendor/CBORChainlink.sol\":815:859  buf.appendUint8(uint8((major << 5) | value)) */\n      swap2\n      swap1\n      0xffffffff\n      and\n      jump\t// in\n    tag_263:\n      pop\n        /* \"@chainlink/contracts/src/v0.8/vendor/CBORChainlink.sol\":791:1303  if(value <= 23) {... */\n      jump(tag_265)\n    tag_262:\n        /* \"@chainlink/contracts/src/v0.8/vendor/CBORChainlink.sol\":885:889  0xFF */\n      0xff\n        /* \"@chainlink/contracts/src/v0.8/vendor/CBORChainlink.sol\":876:881  value */\n      dup2\n        /* \"@chainlink/contracts/src/v0.8/vendor/CBORChainlink.sol\":876:889  value <= 0xFF */\n      0xffffffffffffffff\n      and\n      gt\n        /* \"@chainlink/contracts/src/v0.8/vendor/CBORChainlink.sol\":872:1303  if (value <= 0xFF) {... */\n      tag_266\n      jumpi\n        /* \"@chainlink/contracts/src/v0.8/vendor/CBORChainlink.sol\":899:940  buf.appendUint8(uint8((major << 5) | 24)) */\n      tag_267\n        /* \"@chainlink/contracts/src/v0.8/vendor/CBORChainlink.sol\":936:938  24 */\n      0x18\n        /* \"@chainlink/contracts/src/v0.8/vendor/CBORChainlink.sol\":931:932  5 */\n      0x05\n        /* \"@chainlink/contracts/src/v0.8/vendor/CBORChainlink.sol\":922:927  major */\n      dup5\n        /* \"@chainlink/contracts/src/v0.8/vendor/CBORChainlink.sol\":922:932  major << 5 */\n      0xff\n      and\n      swap1\n      shl\n        /* \"@chainlink/contracts/src/v0.8/vendor/CBORChainlink.sol\":921:938  (major << 5) | 24 */\n      or\n        /* \"@chainlink/contracts/src/v0.8/vendor/CBORChainlink.sol\":899:902  buf */\n      dup5\n        /* \"@chainlink/contracts/src/v0.8/vendor/CBORChainlink.sol\":899:914  buf.appendUint8 */\n      tag_264\n      swap1\n        /* \"@chainlink/contracts/src/v0.8/vendor/CBORChainlink.sol\":899:940  buf.appendUint8(uint8((major << 5) | 24)) */\n      swap2\n      swap1\n      0xffffffff\n      and\n      jump\t// in\n    tag_267:\n      pop\n        /* \"@chainlink/contracts/src/v0.8/vendor/CBORChainlink.sol\":948:971  buf.appendInt(value, 1) */\n      tag_268\n        /* \"@chainlink/contracts/src/v0.8/vendor/CBORChainlink.sol\":962:967  value */\n      dup2\n        /* \"@chainlink/contracts/src/v0.8/vendor/CBORChainlink.sol\":948:971  buf.appendInt(value, 1) */\n      0xffffffffffffffff\n      and\n        /* \"@chainlink/contracts/src/v0.8/vendor/CBORChainlink.sol\":969:970  1 */\n      0x01\n        /* \"@chainlink/contracts/src/v0.8/vendor/CBORChainlink.sol\":948:951  buf */\n      dup6\n        /* \"@chainlink/contracts/src/v0.8/vendor/CBORChainlink.sol\":948:961  buf.appendInt */\n      tag_269\n      swap1\n        /* \"@chainlink/contracts/src/v0.8/vendor/CBORChainlink.sol\":948:971  buf.appendInt(value, 1) */\n      swap3\n      swap2\n      swap1\n      0xffffffff\n      and\n      jump\t// in\n    tag_268:\n      pop\n        /* \"@chainlink/contracts/src/v0.8/vendor/CBORChainlink.sol\":872:1303  if (value <= 0xFF) {... */\n      jump(tag_270)\n    tag_266:\n        /* \"@chainlink/contracts/src/v0.8/vendor/CBORChainlink.sol\":997:1003  0xFFFF */\n      0xffff\n        /* \"@chainlink/contracts/src/v0.8/vendor/CBORChainlink.sol\":988:993  value */\n      dup2\n        /* \"@chainlink/contracts/src/v0.8/vendor/CBORChainlink.sol\":988:1003  value <= 0xFFFF */\n      0xffffffffffffffff\n      and\n      gt\n        /* \"@chainlink/contracts/src/v0.8/vendor/CBORChainlink.sol\":984:1303  if (value <= 0xFFFF) {... */\n      tag_271\n      jumpi\n        /* \"@chainlink/contracts/src/v0.8/vendor/CBORChainlink.sol\":1013:1054  buf.appendUint8(uint8((major << 5) | 25)) */\n      tag_272\n        /* \"@chainlink/contracts/src/v0.8/vendor/CBORChainlink.sol\":1050:1052  25 */\n      0x19\n        /* \"@chainlink/contracts/src/v0.8/vendor/CBORChainlink.sol\":1045:1046  5 */\n      0x05\n        /* \"@chainlink/contracts/src/v0.8/vendor/CBORChainlink.sol\":1036:1041  major */\n      dup5\n        /* \"@chainlink/contracts/src/v0.8/vendor/CBORChainlink.sol\":1036:1046  major << 5 */\n      0xff\n      and\n      swap1\n      shl\n        /* \"@chainlink/contracts/src/v0.8/vendor/CBORChainlink.sol\":1035:1052  (major << 5) | 25 */\n      or\n        /* \"@chainlink/contracts/src/v0.8/vendor/CBORChainlink.sol\":1013:1016  buf */\n      dup5\n        /* \"@chainlink/contracts/src/v0.8/vendor/CBORChainlink.sol\":1013:1028  buf.appendUint8 */\n      tag_264\n      swap1\n        /* \"@chainlink/contracts/src/v0.8/vendor/CBORChainlink.sol\":1013:1054  buf.appendUint8(uint8((major << 5) | 25)) */\n      swap2\n      swap1\n      0xffffffff\n      and\n      jump\t// in\n    tag_272:\n      pop\n        /* \"@chainlink/contracts/src/v0.8/vendor/CBORChainlink.sol\":1062:1085  buf.appendInt(value, 2) */\n      tag_273\n        /* \"@chainlink/contracts/src/v0.8/vendor/CBORChainlink.sol\":1076:1081  value */\n      dup2\n        /* \"@chainlink/contracts/src/v0.8/vendor/CBORChainlink.sol\":1062:1085  buf.appendInt(value, 2) */\n      0xffffffffffffffff\n      and\n        /* \"@chainlink/contracts/src/v0.8/vendor/CBORChainlink.sol\":1083:1084  2 */\n      0x02\n        /* \"@chainlink/contracts/src/v0.8/vendor/CBORChainlink.sol\":1062:1065  buf */\n      dup6\n        /* \"@chainlink/contracts/src/v0.8/vendor/CBORChainlink.sol\":1062:1075  buf.appendInt */\n      tag_269\n      swap1\n        /* \"@chainlink/contracts/src/v0.8/vendor/CBORChainlink.sol\":1062:1085  buf.appendInt(value, 2) */\n      swap3\n      swap2\n      swap1\n      0xffffffff\n      and\n      jump\t// in\n    tag_273:\n      pop\n        /* \"@chainlink/contracts/src/v0.8/vendor/CBORChainlink.sol\":984:1303  if (value <= 0xFFFF) {... */\n      jump(tag_274)\n    tag_271:\n        /* \"@chainlink/contracts/src/v0.8/vendor/CBORChainlink.sol\":1111:1121  0xFFFFFFFF */\n      0xffffffff\n        /* \"@chainlink/contracts/src/v0.8/vendor/CBORChainlink.sol\":1102:1107  value */\n      dup2\n        /* \"@chainlink/contracts/src/v0.8/vendor/CBORChainlink.sol\":1102:1121  value <= 0xFFFFFFFF */\n      0xffffffffffffffff\n      and\n      gt\n        /* \"@chainlink/contracts/src/v0.8/vendor/CBORChainlink.sol\":1098:1303  if (value <= 0xFFFFFFFF) {... */\n      tag_275\n      jumpi\n        /* \"@chainlink/contracts/src/v0.8/vendor/CBORChainlink.sol\":1131:1172  buf.appendUint8(uint8((major << 5) | 26)) */\n      tag_276\n        /* \"@chainlink/contracts/src/v0.8/vendor/CBORChainlink.sol\":1168:1170  26 */\n      0x1a\n        /* \"@chainlink/contracts/src/v0.8/vendor/CBORChainlink.sol\":1163:1164  5 */\n      0x05\n        /* \"@chainlink/contracts/src/v0.8/vendor/CBORChainlink.sol\":1154:1159  major */\n      dup5\n        /* \"@chainlink/contracts/src/v0.8/vendor/CBORChainlink.sol\":1154:1164  major << 5 */\n      0xff\n      and\n      swap1\n      shl\n        /* \"@chainlink/contracts/src/v0.8/vendor/CBORChainlink.sol\":1153:1170  (major << 5) | 26 */\n      or\n        /* \"@chainlink/contracts/src/v0.8/vendor/CBORChainlink.sol\":1131:1134  buf */\n      dup5\n        /* \"@chainlink/contracts/src/v0.8/vendor/CBORChainlink.sol\":1131:1146  buf.appendUint8 */\n      tag_264\n      swap1\n        /* \"@chainlink/contracts/src/v0.8/vendor/CBORChainlink.sol\":1131:1172  buf.appendUint8(uint8((major << 5) | 26)) */\n      swap2\n      swap1\n      0xffffffff\n      and\n      jump\t// in\n    tag_276:\n      pop\n        /* \"@chainlink/contracts/src/v0.8/vendor/CBORChainlink.sol\":1180:1203  buf.appendInt(value, 4) */\n      tag_277\n        /* \"@chainlink/contracts/src/v0.8/vendor/CBORChainlink.sol\":1194:1199  value */\n      dup2\n        /* \"@chainlink/contracts/src/v0.8/vendor/CBORChainlink.sol\":1180:1203  buf.appendInt(value, 4) */\n      0xffffffffffffffff\n      and\n        /* \"@chainlink/contracts/src/v0.8/vendor/CBORChainlink.sol\":1201:1202  4 */\n      0x04\n        /* \"@chainlink/contracts/src/v0.8/vendor/CBORChainlink.sol\":1180:1183  buf */\n      dup6\n        /* \"@chainlink/contracts/src/v0.8/vendor/CBORChainlink.sol\":1180:1193  buf.appendInt */\n      tag_269\n      swap1\n        /* \"@chainlink/contracts/src/v0.8/vendor/CBORChainlink.sol\":1180:1203  buf.appendInt(value, 4) */\n      swap3\n      swap2\n      swap1\n      0xffffffff\n      and\n      jump\t// in\n    tag_277:\n      pop\n        /* \"@chainlink/contracts/src/v0.8/vendor/CBORChainlink.sol\":1098:1303  if (value <= 0xFFFFFFFF) {... */\n      jump(tag_278)\n    tag_275:\n        /* \"@chainlink/contracts/src/v0.8/vendor/CBORChainlink.sol\":1224:1265  buf.appendUint8(uint8((major << 5) | 27)) */\n      tag_279\n        /* \"@chainlink/contracts/src/v0.8/vendor/CBORChainlink.sol\":1261:1263  27 */\n      0x1b\n        /* \"@chainlink/contracts/src/v0.8/vendor/CBORChainlink.sol\":1256:1257  5 */\n      0x05\n        /* \"@chainlink/contracts/src/v0.8/vendor/CBORChainlink.sol\":1247:1252  major */\n      dup5\n        /* \"@chainlink/contracts/src/v0.8/vendor/CBORChainlink.sol\":1247:1257  major << 5 */\n      0xff\n      and\n      swap1\n      shl\n        /* \"@chainlink/contracts/src/v0.8/vendor/CBORChainlink.sol\":1246:1263  (major << 5) | 27 */\n      or\n        /* \"@chainlink/contracts/src/v0.8/vendor/CBORChainlink.sol\":1224:1227  buf */\n      dup5\n        /* \"@chainlink/contracts/src/v0.8/vendor/CBORChainlink.sol\":1224:1239  buf.appendUint8 */\n      tag_264\n      swap1\n        /* \"@chainlink/contracts/src/v0.8/vendor/CBORChainlink.sol\":1224:1265  buf.appendUint8(uint8((major << 5) | 27)) */\n      swap2\n      swap1\n      0xffffffff\n      and\n      jump\t// in\n    tag_279:\n      pop\n        /* \"@chainlink/contracts/src/v0.8/vendor/CBORChainlink.sol\":1273:1296  buf.appendInt(value, 8) */\n      tag_280\n        /* \"@chainlink/contracts/src/v0.8/vendor/CBORChainlink.sol\":1287:1292  value */\n      dup2\n        /* \"@chainlink/contracts/src/v0.8/vendor/CBORChainlink.sol\":1273:1296  buf.appendInt(value, 8) */\n      0xffffffffffffffff\n      and\n        /* \"@chainlink/contracts/src/v0.8/vendor/CBORChainlink.sol\":1294:1295  8 */\n      0x08\n        /* \"@chainlink/contracts/src/v0.8/vendor/CBORChainlink.sol\":1273:1276  buf */\n      dup6\n        /* \"@chainlink/contracts/src/v0.8/vendor/CBORChainlink.sol\":1273:1286  buf.appendInt */\n      tag_269\n      swap1\n        /* \"@chainlink/contracts/src/v0.8/vendor/CBORChainlink.sol\":1273:1296  buf.appendInt(value, 8) */\n      swap3\n      swap2\n      swap1\n      0xffffffff\n      and\n      jump\t// in\n    tag_280:\n      pop\n        /* \"@chainlink/contracts/src/v0.8/vendor/CBORChainlink.sol\":1098:1303  if (value <= 0xFFFFFFFF) {... */\n    tag_278:\n        /* \"@chainlink/contracts/src/v0.8/vendor/CBORChainlink.sol\":984:1303  if (value <= 0xFFFF) {... */\n    tag_274:\n        /* \"@chainlink/contracts/src/v0.8/vendor/CBORChainlink.sol\":872:1303  if (value <= 0xFF) {... */\n    tag_270:\n        /* \"@chainlink/contracts/src/v0.8/vendor/CBORChainlink.sol\":791:1303  if(value <= 23) {... */\n    tag_265:\n        /* \"@chainlink/contracts/src/v0.8/vendor/CBORChainlink.sol\":682:1307  function encodeFixedNumeric(BufferChainlink.buffer memory buf, uint8 major, uint64 value) private pure {... */\n      pop\n      pop\n      pop\n      jump\t// out\n        /* \"@chainlink/contracts/src/v0.8/vendor/BufferChainlink.sol\":4692:4847  function append(buffer memory buf, bytes memory data) internal pure returns (buffer memory) {... */\n    tag_215:\n        /* \"@chainlink/contracts/src/v0.8/vendor/BufferChainlink.sol\":4769:4782  buffer memory */\n      tag_281\n      tag_253\n      jump\t// in\n    tag_281:\n        /* \"@chainlink/contracts/src/v0.8/vendor/BufferChainlink.sol\":4797:4842  write(buf, buf.buf.length, data, data.length) */\n      tag_283\n        /* \"@chainlink/contracts/src/v0.8/vendor/BufferChainlink.sol\":4803:4806  buf */\n      dup4\n        /* \"@chainlink/contracts/src/v0.8/vendor/BufferChainlink.sol\":4808:4811  buf */\n      dup5\n        /* \"@chainlink/contracts/src/v0.8/vendor/BufferChainlink.sol\":4808:4815  buf.buf */\n      0x00\n      add\n      mload\n        /* \"@chainlink/contracts/src/v0.8/vendor/BufferChainlink.sol\":4808:4822  buf.buf.length */\n      mload\n        /* \"@chainlink/contracts/src/v0.8/vendor/BufferChainlink.sol\":4824:4828  data */\n      dup5\n        /* \"@chainlink/contracts/src/v0.8/vendor/BufferChainlink.sol\":4830:4834  data */\n      dup6\n        /* \"@chainlink/contracts/src/v0.8/vendor/BufferChainlink.sol\":4830:4841  data.length */\n      mload\n        /* \"@chainlink/contracts/src/v0.8/vendor/BufferChainlink.sol\":4797:4802  write */\n      tag_284\n        /* \"@chainlink/contracts/src/v0.8/vendor/BufferChainlink.sol\":4797:4842  write(buf, buf.buf.length, data, data.length) */\n      jump\t// in\n    tag_283:\n        /* \"@chainlink/contracts/src/v0.8/vendor/BufferChainlink.sol\":4790:4842  return write(buf, buf.buf.length, data, data.length) */\n      swap1\n      pop\n        /* \"@chainlink/contracts/src/v0.8/vendor/BufferChainlink.sol\":4692:4847  function append(buffer memory buf, bytes memory data) internal pure returns (buffer memory) {... */\n      swap3\n      swap2\n      pop\n      pop\n      jump\t// out\n        /* \"@chainlink/contracts/src/v0.8/vendor/CBORChainlink.sol\":2345:2543  function encodeBigNum(BufferChainlink.buffer memory buf, uint value) internal pure {... */\n    tag_219:\n        /* \"@chainlink/contracts/src/v0.8/vendor/CBORChainlink.sol\":2434:2497  buf.appendUint8(uint8((MAJOR_TYPE_TAG << 5) | TAG_TYPE_BIGNUM)) */\n      tag_286\n        /* \"@chainlink/contracts/src/v0.8/vendor/CBORChainlink.sol\":621:622  2 */\n      0x02\n        /* \"@chainlink/contracts/src/v0.8/vendor/CBORChainlink.sol\":2475:2476  5 */\n      0x05\n        /* \"@chainlink/contracts/src/v0.8/vendor/CBORChainlink.sol\":520:521  6 */\n      0x06\n        /* \"@chainlink/contracts/src/v0.8/vendor/CBORChainlink.sol\":2457:2476  MAJOR_TYPE_TAG << 5 */\n      0xff\n      and\n      swap1\n      shl\n        /* \"@chainlink/contracts/src/v0.8/vendor/CBORChainlink.sol\":2456:2495  (MAJOR_TYPE_TAG << 5) | TAG_TYPE_BIGNUM */\n      or\n        /* \"@chainlink/contracts/src/v0.8/vendor/CBORChainlink.sol\":2434:2437  buf */\n      dup4\n        /* \"@chainlink/contracts/src/v0.8/vendor/CBORChainlink.sol\":2434:2449  buf.appendUint8 */\n      tag_264\n      swap1\n        /* \"@chainlink/contracts/src/v0.8/vendor/CBORChainlink.sol\":2434:2497  buf.appendUint8(uint8((MAJOR_TYPE_TAG << 5) | TAG_TYPE_BIGNUM)) */\n      swap2\n      swap1\n      0xffffffff\n      and\n      jump\t// in\n    tag_286:\n      pop\n        /* \"@chainlink/contracts/src/v0.8/vendor/CBORChainlink.sol\":2503:2538  encodeBytes(buf, abi.encode(value)) */\n      tag_287\n        /* \"@chainlink/contracts/src/v0.8/vendor/CBORChainlink.sol\":2515:2518  buf */\n      dup3\n        /* \"@chainlink/contracts/src/v0.8/vendor/CBORChainlink.sol\":2531:2536  value */\n      dup3\n        /* \"@chainlink/contracts/src/v0.8/vendor/CBORChainlink.sol\":2520:2537  abi.encode(value) */\n      add(0x20, mload(0x40))\n      tag_288\n      swap2\n      swap1\n      tag_289\n      jump\t// in\n    tag_288:\n      mload(0x40)\n      0x20\n      dup2\n      dup4\n      sub\n      sub\n      dup2\n      mstore\n      swap1\n      0x40\n      mstore\n        /* \"@chainlink/contracts/src/v0.8/vendor/CBORChainlink.sol\":2503:2514  encodeBytes */\n      tag_290\n        /* \"@chainlink/contracts/src/v0.8/vendor/CBORChainlink.sol\":2503:2538  encodeBytes(buf, abi.encode(value)) */\n      jump\t// in\n    tag_287:\n        /* \"@chainlink/contracts/src/v0.8/vendor/CBORChainlink.sol\":2345:2543  function encodeBigNum(BufferChainlink.buffer memory buf, uint value) internal pure {... */\n      pop\n      pop\n      jump\t// out\n        /* \"@chainlink/contracts/src/v0.8/ChainlinkClient.sol\":6629:7059  function _rawRequest(... */\n    tag_228:\n        /* \"@chainlink/contracts/src/v0.8/ChainlinkClient.sol\":6771:6788  bytes32 requestId */\n      0x00\n        /* \"@chainlink/contracts/src/v0.8/ChainlinkClient.sol\":6835:6839  this */\n      address\n        /* \"@chainlink/contracts/src/v0.8/ChainlinkClient.sol\":6841:6846  nonce */\n      dup5\n        /* \"@chainlink/contracts/src/v0.8/ChainlinkClient.sol\":6818:6847  abi.encodePacked(this, nonce) */\n      add(0x20, mload(0x40))\n      tag_292\n      swap3\n      swap2\n      swap1\n      tag_293\n      jump\t// in\n    tag_292:\n      mload(0x40)\n      0x20\n      dup2\n      dup4\n      sub\n      sub\n      dup2\n      mstore\n      swap1\n      0x40\n      mstore\n        /* \"@chainlink/contracts/src/v0.8/ChainlinkClient.sol\":6808:6848  keccak256(abi.encodePacked(this, nonce)) */\n      dup1\n      mload\n      swap1\n      0x20\n      add\n      keccak256\n        /* \"@chainlink/contracts/src/v0.8/ChainlinkClient.sol\":6796:6848  requestId = keccak256(abi.encodePacked(this, nonce)) */\n      swap1\n      pop\n        /* \"@chainlink/contracts/src/v0.8/ChainlinkClient.sol\":6885:6898  oracleAddress */\n      dup5\n        /* \"@chainlink/contracts/src/v0.8/ChainlinkClient.sol\":6854:6871  s_pendingRequests */\n      0x05\n        /* \"@chainlink/contracts/src/v0.8/ChainlinkClient.sol\":6854:6882  s_pendingRequests[requestId] */\n      0x00\n        /* \"@chainlink/contracts/src/v0.8/ChainlinkClient.sol\":6872:6881  requestId */\n      dup4\n        /* \"@chainlink/contracts/src/v0.8/ChainlinkClient.sol\":6854:6882  s_pendingRequests[requestId] */\n      dup2\n      mstore\n      0x20\n      add\n      swap1\n      dup2\n      mstore\n      0x20\n      add\n      0x00\n      keccak256\n      0x00\n        /* \"@chainlink/contracts/src/v0.8/ChainlinkClient.sol\":6854:6898  s_pendingRequests[requestId] = oracleAddress */\n      0x0100\n      exp\n      dup2\n      sload\n      dup2\n      0xffffffffffffffffffffffffffffffffffffffff\n      mul\n      not\n      and\n      swap1\n      dup4\n      0xffffffffffffffffffffffffffffffffffffffff\n      and\n      mul\n      or\n      swap1\n      sstore\n      pop\n        /* \"@chainlink/contracts/src/v0.8/ChainlinkClient.sol\":6928:6937  requestId */\n      dup1\n        /* \"@chainlink/contracts/src/v0.8/ChainlinkClient.sol\":6909:6938  ChainlinkRequested(requestId) */\n      0xb5e6e01e79f91267dc17b4e6314d5d4d03593d2ceee0fbb452b750bd70ea5af9\n      mload(0x40)\n      mload(0x40)\n      dup1\n      swap2\n      sub\n      swap1\n      log2\n        /* \"@chainlink/contracts/src/v0.8/ChainlinkClient.sol\":6952:6958  s_link */\n      0x02\n      0x00\n      swap1\n      sload\n      swap1\n      0x0100\n      exp\n      swap1\n      div\n      0xffffffffffffffffffffffffffffffffffffffff\n      and\n        /* \"@chainlink/contracts/src/v0.8/ChainlinkClient.sol\":6952:6974  s_link.transferAndCall */\n      0xffffffffffffffffffffffffffffffffffffffff\n      and\n      0x4000aea0\n        /* \"@chainlink/contracts/src/v0.8/ChainlinkClient.sol\":6975:6988  oracleAddress */\n      dup7\n        /* \"@chainlink/contracts/src/v0.8/ChainlinkClient.sol\":6990:6997  payment */\n      dup6\n        /* \"@chainlink/contracts/src/v0.8/ChainlinkClient.sol\":6999:7013  encodedRequest */\n      dup6\n        /* \"@chainlink/contracts/src/v0.8/ChainlinkClient.sol\":6952:7014  s_link.transferAndCall(oracleAddress, payment, encodedRequest) */\n      mload(0x40)\n      dup5\n      0xffffffff\n      and\n      0xe0\n      shl\n      dup2\n      mstore\n      0x04\n      add\n      tag_294\n      swap4\n      swap3\n      swap2\n      swap1\n      tag_295\n      jump\t// in\n    tag_294:\n      0x20\n      mload(0x40)\n      dup1\n      dup4\n      sub\n      dup2\n      0x00\n      dup8\n      dup1\n      extcodesize\n      iszero\n      dup1\n      iszero\n      tag_296\n      jumpi\n      0x00\n      dup1\n      revert\n    tag_296:\n      pop\n      gas\n      call\n      iszero\n      dup1\n      iszero\n      tag_298\n      jumpi\n      returndatasize\n      0x00\n      dup1\n      returndatacopy\n      revert(0x00, returndatasize)\n    tag_298:\n      pop\n      pop\n      pop\n      pop\n      mload(0x40)\n      returndatasize\n      not(0x1f)\n      0x1f\n      dup3\n      add\n      and\n      dup3\n      add\n      dup1\n      0x40\n      mstore\n      pop\n      dup2\n      add\n      swap1\n      tag_299\n      swap2\n      swap1\n      tag_84\n      jump\t// in\n    tag_299:\n        /* \"@chainlink/contracts/src/v0.8/ChainlinkClient.sol\":6944:7054  require(s_link.transferAndCall(oracleAddress, payment, encodedRequest), \"unable to transferAndCall to oracle\") */\n      tag_300\n      jumpi\n      mload(0x40)\n      0x08c379a000000000000000000000000000000000000000000000000000000000\n      dup2\n      mstore\n      0x04\n      add\n      tag_301\n      swap1\n      tag_302\n      jump\t// in\n    tag_301:\n      mload(0x40)\n      dup1\n      swap2\n      sub\n      swap1\n      revert\n    tag_300:\n        /* \"@chainlink/contracts/src/v0.8/ChainlinkClient.sol\":6629:7059  function _rawRequest(... */\n      swap5\n      swap4\n      pop\n      pop\n      pop\n      pop\n      jump\t// out\n        /* \"@chainlink/contracts/src/v0.8/vendor/CBORChainlink.sol\":1311:1460  function encodeIndefiniteLengthType(BufferChainlink.buffer memory buf, uint8 major) private pure {... */\n    tag_231:\n        /* \"@chainlink/contracts/src/v0.8/vendor/CBORChainlink.sol\":1414:1455  buf.appendUint8(uint8((major << 5) | 31)) */\n      tag_304\n        /* \"@chainlink/contracts/src/v0.8/vendor/CBORChainlink.sol\":1451:1453  31 */\n      0x1f\n        /* \"@chainlink/contracts/src/v0.8/vendor/CBORChainlink.sol\":1446:1447  5 */\n      0x05\n        /* \"@chainlink/contracts/src/v0.8/vendor/CBORChainlink.sol\":1437:1442  major */\n      dup4\n        /* \"@chainlink/contracts/src/v0.8/vendor/CBORChainlink.sol\":1437:1447  major << 5 */\n      0xff\n      and\n      swap1\n      shl\n        /* \"@chainlink/contracts/src/v0.8/vendor/CBORChainlink.sol\":1436:1453  (major << 5) | 31 */\n      or\n        /* \"@chainlink/contracts/src/v0.8/vendor/CBORChainlink.sol\":1414:1417  buf */\n      dup4\n        /* \"@chainlink/contracts/src/v0.8/vendor/CBORChainlink.sol\":1414:1429  buf.appendUint8 */\n      tag_264\n      swap1\n        /* \"@chainlink/contracts/src/v0.8/vendor/CBORChainlink.sol\":1414:1455  buf.appendUint8(uint8((major << 5) | 31)) */\n      swap2\n      swap1\n      0xffffffff\n      and\n      jump\t// in\n    tag_304:\n      pop\n        /* \"@chainlink/contracts/src/v0.8/vendor/CBORChainlink.sol\":1311:1460  function encodeIndefiniteLengthType(BufferChainlink.buffer memory buf, uint8 major) private pure {... */\n      pop\n      pop\n      jump\t// out\n        /* \"@chainlink/contracts/src/v0.8/vendor/BufferChainlink.sol\":6040:6185  function appendUint8(buffer memory buf, uint8 data) internal pure returns (buffer memory) {... */\n    tag_264:\n        /* \"@chainlink/contracts/src/v0.8/vendor/BufferChainlink.sol\":6115:6128  buffer memory */\n      tag_305\n      tag_253\n      jump\t// in\n    tag_305:\n        /* \"@chainlink/contracts/src/v0.8/vendor/BufferChainlink.sol\":6143:6180  writeUint8(buf, buf.buf.length, data) */\n      tag_307\n        /* \"@chainlink/contracts/src/v0.8/vendor/BufferChainlink.sol\":6154:6157  buf */\n      dup4\n        /* \"@chainlink/contracts/src/v0.8/vendor/BufferChainlink.sol\":6159:6162  buf */\n      dup5\n        /* \"@chainlink/contracts/src/v0.8/vendor/BufferChainlink.sol\":6159:6166  buf.buf */\n      0x00\n      add\n      mload\n        /* \"@chainlink/contracts/src/v0.8/vendor/BufferChainlink.sol\":6159:6173  buf.buf.length */\n      mload\n        /* \"@chainlink/contracts/src/v0.8/vendor/BufferChainlink.sol\":6175:6179  data */\n      dup5\n        /* \"@chainlink/contracts/src/v0.8/vendor/BufferChainlink.sol\":6143:6153  writeUint8 */\n      tag_308\n        /* \"@chainlink/contracts/src/v0.8/vendor/BufferChainlink.sol\":6143:6180  writeUint8(buf, buf.buf.length, data) */\n      jump\t// in\n    tag_307:\n        /* \"@chainlink/contracts/src/v0.8/vendor/BufferChainlink.sol\":6136:6180  return writeUint8(buf, buf.buf.length, data) */\n      swap1\n      pop\n        /* \"@chainlink/contracts/src/v0.8/vendor/BufferChainlink.sol\":6040:6185  function appendUint8(buffer memory buf, uint8 data) internal pure returns (buffer memory) {... */\n      swap3\n      swap2\n      pop\n      pop\n      jump\t// out\n        /* \"@chainlink/contracts/src/v0.8/vendor/BufferChainlink.sol\":9894:10071  function appendInt(... */\n    tag_269:\n        /* \"@chainlink/contracts/src/v0.8/vendor/BufferChainlink.sol\":9998:10011  buffer memory */\n      tag_309\n      tag_253\n      jump\t// in\n    tag_309:\n        /* \"@chainlink/contracts/src/v0.8/vendor/BufferChainlink.sol\":10026:10066  writeInt(buf, buf.buf.length, data, len) */\n      tag_311\n        /* \"@chainlink/contracts/src/v0.8/vendor/BufferChainlink.sol\":10035:10038  buf */\n      dup5\n        /* \"@chainlink/contracts/src/v0.8/vendor/BufferChainlink.sol\":10040:10043  buf */\n      dup6\n        /* \"@chainlink/contracts/src/v0.8/vendor/BufferChainlink.sol\":10040:10047  buf.buf */\n      0x00\n      add\n      mload\n        /* \"@chainlink/contracts/src/v0.8/vendor/BufferChainlink.sol\":10040:10054  buf.buf.length */\n      mload\n        /* \"@chainlink/contracts/src/v0.8/vendor/BufferChainlink.sol\":10056:10060  data */\n      dup6\n        /* \"@chainlink/contracts/src/v0.8/vendor/BufferChainlink.sol\":10062:10065  len */\n      dup6\n        /* \"@chainlink/contracts/src/v0.8/vendor/BufferChainlink.sol\":10026:10034  writeInt */\n      tag_312\n        /* \"@chainlink/contracts/src/v0.8/vendor/BufferChainlink.sol\":10026:10066  writeInt(buf, buf.buf.length, data, len) */\n      jump\t// in\n    tag_311:\n        /* \"@chainlink/contracts/src/v0.8/vendor/BufferChainlink.sol\":10019:10066  return writeInt(buf, buf.buf.length, data, len) */\n      swap1\n      pop\n        /* \"@chainlink/contracts/src/v0.8/vendor/BufferChainlink.sol\":9894:10071  function appendInt(... */\n      swap4\n      swap3\n      pop\n      pop\n      pop\n      jump\t// out\n        /* \"@chainlink/contracts/src/v0.8/vendor/BufferChainlink.sol\":2745:3955  function write(... */\n    tag_284:\n        /* \"@chainlink/contracts/src/v0.8/vendor/BufferChainlink.sol\":2867:2880  buffer memory */\n      tag_313\n      tag_253\n      jump\t// in\n    tag_313:\n        /* \"@chainlink/contracts/src/v0.8/vendor/BufferChainlink.sol\":2903:2907  data */\n      dup3\n        /* \"@chainlink/contracts/src/v0.8/vendor/BufferChainlink.sol\":2903:2914  data.length */\n      mload\n        /* \"@chainlink/contracts/src/v0.8/vendor/BufferChainlink.sol\":2896:2899  len */\n      dup3\n        /* \"@chainlink/contracts/src/v0.8/vendor/BufferChainlink.sol\":2896:2914  len <= data.length */\n      gt\n      iszero\n        /* \"@chainlink/contracts/src/v0.8/vendor/BufferChainlink.sol\":2888:2915  require(len <= data.length) */\n      tag_315\n      jumpi\n      0x00\n      dup1\n      revert\n    tag_315:\n        /* \"@chainlink/contracts/src/v0.8/vendor/BufferChainlink.sol\":2938:2941  buf */\n      dup5\n        /* \"@chainlink/contracts/src/v0.8/vendor/BufferChainlink.sol\":2938:2950  buf.capacity */\n      0x20\n      add\n      mload\n        /* \"@chainlink/contracts/src/v0.8/vendor/BufferChainlink.sol\":2932:2935  len */\n      dup3\n        /* \"@chainlink/contracts/src/v0.8/vendor/BufferChainlink.sol\":2926:2929  off */\n      dup6\n        /* \"@chainlink/contracts/src/v0.8/vendor/BufferChainlink.sol\":2926:2935  off + len */\n      tag_316\n      swap2\n      swap1\n      tag_224\n      jump\t// in\n    tag_316:\n        /* \"@chainlink/contracts/src/v0.8/vendor/BufferChainlink.sol\":2926:2950  off + len > buf.capacity */\n      gt\n        /* \"@chainlink/contracts/src/v0.8/vendor/BufferChainlink.sol\":2922:3012  if (off + len > buf.capacity) {... */\n      iszero\n      tag_317\n      jumpi\n        /* \"@chainlink/contracts/src/v0.8/vendor/BufferChainlink.sol\":2960:3005  resize(buf, max(buf.capacity, len + off) * 2) */\n      tag_318\n        /* \"@chainlink/contracts/src/v0.8/vendor/BufferChainlink.sol\":2967:2970  buf */\n      dup6\n        /* \"@chainlink/contracts/src/v0.8/vendor/BufferChainlink.sol\":3003:3004  2 */\n      0x02\n        /* \"@chainlink/contracts/src/v0.8/vendor/BufferChainlink.sol\":2972:3000  max(buf.capacity, len + off) */\n      tag_319\n        /* \"@chainlink/contracts/src/v0.8/vendor/BufferChainlink.sol\":2976:2979  buf */\n      dup9\n        /* \"@chainlink/contracts/src/v0.8/vendor/BufferChainlink.sol\":2976:2988  buf.capacity */\n      0x20\n      add\n      mload\n        /* \"@chainlink/contracts/src/v0.8/vendor/BufferChainlink.sol\":2996:2999  off */\n      dup9\n        /* \"@chainlink/contracts/src/v0.8/vendor/BufferChainlink.sol\":2990:2993  len */\n      dup8\n        /* \"@chainlink/contracts/src/v0.8/vendor/BufferChainlink.sol\":2990:2999  len + off */\n      tag_320\n      swap2\n      swap1\n      tag_224\n      jump\t// in\n    tag_320:\n        /* \"@chainlink/contracts/src/v0.8/vendor/BufferChainlink.sol\":2972:2975  max */\n      tag_321\n        /* \"@chainlink/contracts/src/v0.8/vendor/BufferChainlink.sol\":2972:3000  max(buf.capacity, len + off) */\n      jump\t// in\n    tag_319:\n        /* \"@chainlink/contracts/src/v0.8/vendor/BufferChainlink.sol\":2972:3004  max(buf.capacity, len + off) * 2 */\n      tag_322\n      swap2\n      swap1\n      tag_323\n      jump\t// in\n    tag_322:\n        /* \"@chainlink/contracts/src/v0.8/vendor/BufferChainlink.sol\":2960:2966  resize */\n      tag_324\n        /* \"@chainlink/contracts/src/v0.8/vendor/BufferChainlink.sol\":2960:3005  resize(buf, max(buf.capacity, len + off) * 2) */\n      jump\t// in\n    tag_318:\n        /* \"@chainlink/contracts/src/v0.8/vendor/BufferChainlink.sol\":2922:3012  if (off + len > buf.capacity) {... */\n    tag_317:\n        /* \"@chainlink/contracts/src/v0.8/vendor/BufferChainlink.sol\":3018:3030  uint256 dest */\n      0x00\n        /* \"@chainlink/contracts/src/v0.8/vendor/BufferChainlink.sol\":3036:3047  uint256 src */\n      dup1\n        /* \"@chainlink/contracts/src/v0.8/vendor/BufferChainlink.sol\":3133:3136  buf */\n      dup7\n        /* \"@chainlink/contracts/src/v0.8/vendor/BufferChainlink.sol\":3127:3137  mload(buf) */\n      mload\n        /* \"@chainlink/contracts/src/v0.8/vendor/BufferChainlink.sol\":3204:3210  bufptr */\n      dup1\n        /* \"@chainlink/contracts/src/v0.8/vendor/BufferChainlink.sol\":3198:3211  mload(bufptr) */\n      mload\n        /* \"@chainlink/contracts/src/v0.8/vendor/BufferChainlink.sol\":3320:3323  off */\n      dup8\n        /* \"@chainlink/contracts/src/v0.8/vendor/BufferChainlink.sol\":3315:3317  32 */\n      0x20\n        /* \"@chainlink/contracts/src/v0.8/vendor/BufferChainlink.sol\":3307:3313  bufptr */\n      dup4\n        /* \"@chainlink/contracts/src/v0.8/vendor/BufferChainlink.sol\":3303:3318  add(bufptr, 32) */\n      add\n        /* \"@chainlink/contracts/src/v0.8/vendor/BufferChainlink.sol\":3299:3324  add(add(bufptr, 32), off) */\n      add\n        /* \"@chainlink/contracts/src/v0.8/vendor/BufferChainlink.sol\":3291:3324  dest := add(add(bufptr, 32), off) */\n      swap4\n      pop\n        /* \"@chainlink/contracts/src/v0.8/vendor/BufferChainlink.sol\":3404:3410  buflen */\n      dup1\n        /* \"@chainlink/contracts/src/v0.8/vendor/BufferChainlink.sol\":3398:3401  off */\n      dup9\n        /* \"@chainlink/contracts/src/v0.8/vendor/BufferChainlink.sol\":3393:3396  len */\n      dup8\n        /* \"@chainlink/contracts/src/v0.8/vendor/BufferChainlink.sol\":3389:3402  add(len, off) */\n      add\n        /* \"@chainlink/contracts/src/v0.8/vendor/BufferChainlink.sol\":3386:3411  gt(add(len, off), buflen) */\n      gt\n        /* \"@chainlink/contracts/src/v0.8/vendor/BufferChainlink.sol\":3383:3459  if gt(add(len, off), buflen) {... */\n      iszero\n      tag_325\n      jumpi\n        /* \"@chainlink/contracts/src/v0.8/vendor/BufferChainlink.sol\":3446:3449  off */\n      dup8\n        /* \"@chainlink/contracts/src/v0.8/vendor/BufferChainlink.sol\":3441:3444  len */\n      dup7\n        /* \"@chainlink/contracts/src/v0.8/vendor/BufferChainlink.sol\":3437:3450  add(len, off) */\n      add\n        /* \"@chainlink/contracts/src/v0.8/vendor/BufferChainlink.sol\":3429:3435  bufptr */\n      dup3\n        /* \"@chainlink/contracts/src/v0.8/vendor/BufferChainlink.sol\":3422:3451  mstore(bufptr, add(len, off)) */\n      mstore\n        /* \"@chainlink/contracts/src/v0.8/vendor/BufferChainlink.sol\":3383:3459  if gt(add(len, off), buflen) {... */\n    tag_325:\n        /* \"@chainlink/contracts/src/v0.8/vendor/BufferChainlink.sol\":3483:3485  32 */\n      0x20\n        /* \"@chainlink/contracts/src/v0.8/vendor/BufferChainlink.sol\":3477:3481  data */\n      dup8\n        /* \"@chainlink/contracts/src/v0.8/vendor/BufferChainlink.sol\":3473:3486  add(data, 32) */\n      add\n        /* \"@chainlink/contracts/src/v0.8/vendor/BufferChainlink.sol\":3466:3486  src := add(data, 32) */\n      swap3\n      pop\n        /* \"@chainlink/contracts/src/v0.8/vendor/BufferChainlink.sol\":3062:3492  {... */\n      pop\n      pop\n        /* \"@chainlink/contracts/src/v0.8/vendor/BufferChainlink.sol\":3544:3673  for (; len >= 32; len -= 32) {... */\n    tag_326:\n        /* \"@chainlink/contracts/src/v0.8/vendor/BufferChainlink.sol\":3558:3560  32 */\n      0x20\n        /* \"@chainlink/contracts/src/v0.8/vendor/BufferChainlink.sol\":3551:3554  len */\n      dup5\n        /* \"@chainlink/contracts/src/v0.8/vendor/BufferChainlink.sol\":3551:3560  len >= 32 */\n      lt\n        /* \"@chainlink/contracts/src/v0.8/vendor/BufferChainlink.sol\":3544:3673  for (; len >= 32; len -= 32) {... */\n      tag_327\n      jumpi\n        /* \"@chainlink/contracts/src/v0.8/vendor/BufferChainlink.sol\":3619:3622  src */\n      dup1\n        /* \"@chainlink/contracts/src/v0.8/vendor/BufferChainlink.sol\":3613:3623  mload(src) */\n      mload\n        /* \"@chainlink/contracts/src/v0.8/vendor/BufferChainlink.sol\":3607:3611  dest */\n      dup3\n        /* \"@chainlink/contracts/src/v0.8/vendor/BufferChainlink.sol\":3600:3624  mstore(dest, mload(src)) */\n      mstore\n        /* \"@chainlink/contracts/src/v0.8/vendor/BufferChainlink.sol\":3647:3649  32 */\n      0x20\n        /* \"@chainlink/contracts/src/v0.8/vendor/BufferChainlink.sol\":3639:3649  dest += 32 */\n      dup3\n      tag_329\n      swap2\n      swap1\n      tag_224\n      jump\t// in\n    tag_329:\n      swap2\n      pop\n        /* \"@chainlink/contracts/src/v0.8/vendor/BufferChainlink.sol\":3664:3666  32 */\n      0x20\n        /* \"@chainlink/contracts/src/v0.8/vendor/BufferChainlink.sol\":3657:3666  src += 32 */\n      dup2\n      tag_330\n      swap2\n      swap1\n      tag_224\n      jump\t// in\n    tag_330:\n      swap1\n      pop\n        /* \"@chainlink/contracts/src/v0.8/vendor/BufferChainlink.sol\":3569:3571  32 */\n      0x20\n        /* \"@chainlink/contracts/src/v0.8/vendor/BufferChainlink.sol\":3562:3571  len -= 32 */\n      dup5\n      tag_331\n      swap2\n      swap1\n      tag_236\n      jump\t// in\n    tag_331:\n      swap4\n      pop\n        /* \"@chainlink/contracts/src/v0.8/vendor/BufferChainlink.sol\":3544:3673  for (; len >= 32; len -= 32) {... */\n      jump(tag_326)\n    tag_327:\n        /* \"@chainlink/contracts/src/v0.8/vendor/BufferChainlink.sol\":3725:3737  uint256 mask */\n      0x00\n        /* \"@chainlink/contracts/src/v0.8/vendor/BufferChainlink.sol\":3760:3761  1 */\n      0x01\n        /* \"@chainlink/contracts/src/v0.8/vendor/BufferChainlink.sol\":3752:3755  len */\n      dup6\n        /* \"@chainlink/contracts/src/v0.8/vendor/BufferChainlink.sol\":3747:3749  32 */\n      0x20\n        /* \"@chainlink/contracts/src/v0.8/vendor/BufferChainlink.sol\":3747:3755  32 - len */\n      sub\n        /* \"@chainlink/contracts/src/v0.8/vendor/BufferChainlink.sol\":3741:3744  256 */\n      0x0100\n        /* \"@chainlink/contracts/src/v0.8/vendor/BufferChainlink.sol\":3741:3756  256**(32 - len) */\n      exp\n        /* \"@chainlink/contracts/src/v0.8/vendor/BufferChainlink.sol\":3740:3761  (256**(32 - len)) - 1 */\n      sub\n        /* \"@chainlink/contracts/src/v0.8/vendor/BufferChainlink.sol\":3725:3761  uint256 mask = (256**(32 - len)) - 1 */\n      swap1\n      pop\n        /* \"@chainlink/contracts/src/v0.8/vendor/BufferChainlink.sol\":3823:3827  mask */\n      dup1\n        /* \"@chainlink/contracts/src/v0.8/vendor/BufferChainlink.sol\":3819:3828  not(mask) */\n      not\n        /* \"@chainlink/contracts/src/v0.8/vendor/BufferChainlink.sol\":3813:3816  src */\n      dup3\n        /* \"@chainlink/contracts/src/v0.8/vendor/BufferChainlink.sol\":3807:3817  mload(src) */\n      mload\n        /* \"@chainlink/contracts/src/v0.8/vendor/BufferChainlink.sol\":3803:3829  and(mload(src), not(mask)) */\n      and\n        /* \"@chainlink/contracts/src/v0.8/vendor/BufferChainlink.sol\":3871:3875  mask */\n      dup2\n        /* \"@chainlink/contracts/src/v0.8/vendor/BufferChainlink.sol\":3864:3868  dest */\n      dup5\n        /* \"@chainlink/contracts/src/v0.8/vendor/BufferChainlink.sol\":3858:3869  mload(dest) */\n      mload\n        /* \"@chainlink/contracts/src/v0.8/vendor/BufferChainlink.sol\":3854:3876  and(mload(dest), mask) */\n      and\n        /* \"@chainlink/contracts/src/v0.8/vendor/BufferChainlink.sol\":3911:3918  srcpart */\n      dup2\n        /* \"@chainlink/contracts/src/v0.8/vendor/BufferChainlink.sol\":3901:3909  destpart */\n      dup2\n        /* \"@chainlink/contracts/src/v0.8/vendor/BufferChainlink.sol\":3898:3919  or(destpart, srcpart) */\n      or\n        /* \"@chainlink/contracts/src/v0.8/vendor/BufferChainlink.sol\":3892:3896  dest */\n      dup6\n        /* \"@chainlink/contracts/src/v0.8/vendor/BufferChainlink.sol\":3885:3920  mstore(dest, or(destpart, srcpart)) */\n      mstore\n        /* \"@chainlink/contracts/src/v0.8/vendor/BufferChainlink.sol\":3778:3928  {... */\n      pop\n      pop\n      pop\n        /* \"@chainlink/contracts/src/v0.8/vendor/BufferChainlink.sol\":3947:3950  buf */\n      dup7\n        /* \"@chainlink/contracts/src/v0.8/vendor/BufferChainlink.sol\":3940:3950  return buf */\n      swap3\n      pop\n      pop\n      pop\n        /* \"@chainlink/contracts/src/v0.8/vendor/BufferChainlink.sol\":2745:3955  function write(... */\n      swap5\n      swap4\n      pop\n      pop\n      pop\n      pop\n      jump\t// out\n        /* \"@chainlink/contracts/src/v0.8/vendor/CBORChainlink.sol\":2154:2341  function encodeBytes(BufferChainlink.buffer memory buf, bytes memory value) internal pure {... */\n    tag_290:\n        /* \"@chainlink/contracts/src/v0.8/vendor/CBORChainlink.sol\":2250:2313  encodeFixedNumeric(buf, MAJOR_TYPE_BYTES, uint64(value.length)) */\n      tag_333\n        /* \"@chainlink/contracts/src/v0.8/vendor/CBORChainlink.sol\":2269:2272  buf */\n      dup3\n        /* \"@chainlink/contracts/src/v0.8/vendor/CBORChainlink.sol\":335:336  2 */\n      0x02\n        /* \"@chainlink/contracts/src/v0.8/vendor/CBORChainlink.sol\":2299:2304  value */\n      dup4\n        /* \"@chainlink/contracts/src/v0.8/vendor/CBORChainlink.sol\":2299:2311  value.length */\n      mload\n        /* \"@chainlink/contracts/src/v0.8/vendor/CBORChainlink.sol\":2250:2268  encodeFixedNumeric */\n      tag_213\n        /* \"@chainlink/contracts/src/v0.8/vendor/CBORChainlink.sol\":2250:2313  encodeFixedNumeric(buf, MAJOR_TYPE_BYTES, uint64(value.length)) */\n      jump\t// in\n    tag_333:\n        /* \"@chainlink/contracts/src/v0.8/vendor/CBORChainlink.sol\":2319:2336  buf.append(value) */\n      tag_334\n        /* \"@chainlink/contracts/src/v0.8/vendor/CBORChainlink.sol\":2330:2335  value */\n      dup2\n        /* \"@chainlink/contracts/src/v0.8/vendor/CBORChainlink.sol\":2319:2322  buf */\n      dup4\n        /* \"@chainlink/contracts/src/v0.8/vendor/CBORChainlink.sol\":2319:2329  buf.append */\n      tag_215\n      swap1\n        /* \"@chainlink/contracts/src/v0.8/vendor/CBORChainlink.sol\":2319:2336  buf.append(value) */\n      swap2\n      swap1\n      0xffffffff\n      and\n      jump\t// in\n    tag_334:\n      pop\n        /* \"@chainlink/contracts/src/v0.8/vendor/CBORChainlink.sol\":2154:2341  function encodeBytes(BufferChainlink.buffer memory buf, bytes memory value) internal pure {... */\n      pop\n      pop\n      jump\t// out\n        /* \"@chainlink/contracts/src/v0.8/vendor/BufferChainlink.sol\":5148:5787  function writeUint8(... */\n    tag_308:\n        /* \"@chainlink/contracts/src/v0.8/vendor/BufferChainlink.sol\":5251:5264  buffer memory */\n      tag_335\n      tag_253\n      jump\t// in\n    tag_335:\n        /* \"@chainlink/contracts/src/v0.8/vendor/BufferChainlink.sol\":5283:5286  buf */\n      dup4\n        /* \"@chainlink/contracts/src/v0.8/vendor/BufferChainlink.sol\":5283:5295  buf.capacity */\n      0x20\n      add\n      mload\n        /* \"@chainlink/contracts/src/v0.8/vendor/BufferChainlink.sol\":5276:5279  off */\n      dup4\n        /* \"@chainlink/contracts/src/v0.8/vendor/BufferChainlink.sol\":5276:5295  off >= buf.capacity */\n      lt\n        /* \"@chainlink/contracts/src/v0.8/vendor/BufferChainlink.sol\":5272:5341  if (off >= buf.capacity) {... */\n      tag_337\n      jumpi\n        /* \"@chainlink/contracts/src/v0.8/vendor/BufferChainlink.sol\":5305:5334  resize(buf, buf.capacity * 2) */\n      tag_338\n        /* \"@chainlink/contracts/src/v0.8/vendor/BufferChainlink.sol\":5312:5315  buf */\n      dup5\n        /* \"@chainlink/contracts/src/v0.8/vendor/BufferChainlink.sol\":5332:5333  2 */\n      0x02\n        /* \"@chainlink/contracts/src/v0.8/vendor/BufferChainlink.sol\":5317:5320  buf */\n      dup7\n        /* \"@chainlink/contracts/src/v0.8/vendor/BufferChainlink.sol\":5317:5329  buf.capacity */\n      0x20\n      add\n      mload\n        /* \"@chainlink/contracts/src/v0.8/vendor/BufferChainlink.sol\":5317:5333  buf.capacity * 2 */\n      tag_339\n      swap2\n      swap1\n      tag_323\n      jump\t// in\n    tag_339:\n        /* \"@chainlink/contracts/src/v0.8/vendor/BufferChainlink.sol\":5305:5311  resize */\n      tag_324\n        /* \"@chainlink/contracts/src/v0.8/vendor/BufferChainlink.sol\":5305:5334  resize(buf, buf.capacity * 2) */\n      jump\t// in\n    tag_338:\n        /* \"@chainlink/contracts/src/v0.8/vendor/BufferChainlink.sol\":5272:5341  if (off >= buf.capacity) {... */\n    tag_337:\n        /* \"@chainlink/contracts/src/v0.8/vendor/BufferChainlink.sol\":5427:5430  buf */\n      dup4\n        /* \"@chainlink/contracts/src/v0.8/vendor/BufferChainlink.sol\":5421:5431  mload(buf) */\n      mload\n        /* \"@chainlink/contracts/src/v0.8/vendor/BufferChainlink.sol\":5498:5504  bufptr */\n      dup1\n        /* \"@chainlink/contracts/src/v0.8/vendor/BufferChainlink.sol\":5492:5505  mload(bufptr) */\n      mload\n        /* \"@chainlink/contracts/src/v0.8/vendor/BufferChainlink.sol\":5610:5612  32 */\n      0x20\n        /* \"@chainlink/contracts/src/v0.8/vendor/BufferChainlink.sol\":5604:5607  off */\n      dup6\n        /* \"@chainlink/contracts/src/v0.8/vendor/BufferChainlink.sol\":5596:5602  bufptr */\n      dup4\n        /* \"@chainlink/contracts/src/v0.8/vendor/BufferChainlink.sol\":5592:5608  add(bufptr, off) */\n      add\n        /* \"@chainlink/contracts/src/v0.8/vendor/BufferChainlink.sol\":5588:5613  add(add(bufptr, off), 32) */\n      add\n        /* \"@chainlink/contracts/src/v0.8/vendor/BufferChainlink.sol\":5634:5638  data */\n      dup5\n        /* \"@chainlink/contracts/src/v0.8/vendor/BufferChainlink.sol\":5628:5632  dest */\n      dup2\n        /* \"@chainlink/contracts/src/v0.8/vendor/BufferChainlink.sol\":5620:5639  mstore8(dest, data) */\n      mstore8\n        /* \"@chainlink/contracts/src/v0.8/vendor/BufferChainlink.sol\":5705:5711  buflen */\n      dup2\n        /* \"@chainlink/contracts/src/v0.8/vendor/BufferChainlink.sol\":5700:5703  off */\n      dup7\n        /* \"@chainlink/contracts/src/v0.8/vendor/BufferChainlink.sol\":5697:5712  eq(off, buflen) */\n      eq\n        /* \"@chainlink/contracts/src/v0.8/vendor/BufferChainlink.sol\":5694:5761  if eq(off, buflen) {... */\n      iszero\n      tag_340\n      jumpi\n        /* \"@chainlink/contracts/src/v0.8/vendor/BufferChainlink.sol\":5750:5751  1 */\n      0x01\n        /* \"@chainlink/contracts/src/v0.8/vendor/BufferChainlink.sol\":5742:5748  buflen */\n      dup3\n        /* \"@chainlink/contracts/src/v0.8/vendor/BufferChainlink.sol\":5738:5752  add(buflen, 1) */\n      add\n        /* \"@chainlink/contracts/src/v0.8/vendor/BufferChainlink.sol\":5730:5736  bufptr */\n      dup4\n        /* \"@chainlink/contracts/src/v0.8/vendor/BufferChainlink.sol\":5723:5753  mstore(bufptr, add(buflen, 1)) */\n      mstore\n        /* \"@chainlink/contracts/src/v0.8/vendor/BufferChainlink.sol\":5694:5761  if eq(off, buflen) {... */\n    tag_340:\n        /* \"@chainlink/contracts/src/v0.8/vendor/BufferChainlink.sol\":5356:5767  {... */\n      pop\n      pop\n      pop\n        /* \"@chainlink/contracts/src/v0.8/vendor/BufferChainlink.sol\":5779:5782  buf */\n      dup4\n        /* \"@chainlink/contracts/src/v0.8/vendor/BufferChainlink.sol\":5772:5782  return buf */\n      swap1\n      pop\n        /* \"@chainlink/contracts/src/v0.8/vendor/BufferChainlink.sol\":5148:5787  function writeUint8(... */\n      swap4\n      swap3\n      pop\n      pop\n      pop\n      jump\t// out\n        /* \"@chainlink/contracts/src/v0.8/vendor/BufferChainlink.sol\":8974:9649  function writeInt(... */\n    tag_312:\n        /* \"@chainlink/contracts/src/v0.8/vendor/BufferChainlink.sol\":9093:9106  buffer memory */\n      tag_341\n      tag_253\n      jump\t// in\n    tag_341:\n        /* \"@chainlink/contracts/src/v0.8/vendor/BufferChainlink.sol\":9130:9133  buf */\n      dup5\n        /* \"@chainlink/contracts/src/v0.8/vendor/BufferChainlink.sol\":9130:9142  buf.capacity */\n      0x20\n      add\n      mload\n        /* \"@chainlink/contracts/src/v0.8/vendor/BufferChainlink.sol\":9124:9127  off */\n      dup5\n        /* \"@chainlink/contracts/src/v0.8/vendor/BufferChainlink.sol\":9118:9121  len */\n      dup4\n        /* \"@chainlink/contracts/src/v0.8/vendor/BufferChainlink.sol\":9118:9127  len + off */\n      tag_343\n      swap2\n      swap1\n      tag_224\n      jump\t// in\n    tag_343:\n        /* \"@chainlink/contracts/src/v0.8/vendor/BufferChainlink.sol\":9118:9142  len + off > buf.capacity */\n      gt\n        /* \"@chainlink/contracts/src/v0.8/vendor/BufferChainlink.sol\":9114:9187  if (len + off > buf.capacity) {... */\n      iszero\n      tag_344\n      jumpi\n        /* \"@chainlink/contracts/src/v0.8/vendor/BufferChainlink.sol\":9152:9180  resize(buf, (len + off) * 2) */\n      tag_345\n        /* \"@chainlink/contracts/src/v0.8/vendor/BufferChainlink.sol\":9159:9162  buf */\n      dup6\n        /* \"@chainlink/contracts/src/v0.8/vendor/BufferChainlink.sol\":9178:9179  2 */\n      0x02\n        /* \"@chainlink/contracts/src/v0.8/vendor/BufferChainlink.sol\":9171:9174  off */\n      dup7\n        /* \"@chainlink/contracts/src/v0.8/vendor/BufferChainlink.sol\":9165:9168  len */\n      dup6\n        /* \"@chainlink/contracts/src/v0.8/vendor/BufferChainlink.sol\":9165:9174  len + off */\n      tag_346\n      swap2\n      swap1\n      tag_224\n      jump\t// in\n    tag_346:\n        /* \"@chainlink/contracts/src/v0.8/vendor/BufferChainlink.sol\":9164:9179  (len + off) * 2 */\n      tag_347\n      swap2\n      swap1\n      tag_323\n      jump\t// in\n    tag_347:\n        /* \"@chainlink/contracts/src/v0.8/vendor/BufferChainlink.sol\":9152:9158  resize */\n      tag_324\n        /* \"@chainlink/contracts/src/v0.8/vendor/BufferChainlink.sol\":9152:9180  resize(buf, (len + off) * 2) */\n      jump\t// in\n    tag_345:\n        /* \"@chainlink/contracts/src/v0.8/vendor/BufferChainlink.sol\":9114:9187  if (len + off > buf.capacity) {... */\n    tag_344:\n        /* \"@chainlink/contracts/src/v0.8/vendor/BufferChainlink.sol\":9193:9205  uint256 mask */\n      0x00\n        /* \"@chainlink/contracts/src/v0.8/vendor/BufferChainlink.sol\":9221:9222  1 */\n      0x01\n        /* \"@chainlink/contracts/src/v0.8/vendor/BufferChainlink.sol\":9214:9217  len */\n      dup4\n        /* \"@chainlink/contracts/src/v0.8/vendor/BufferChainlink.sol\":9209:9212  256 */\n      0x0100\n        /* \"@chainlink/contracts/src/v0.8/vendor/BufferChainlink.sol\":9209:9217  256**len */\n      tag_348\n      swap2\n      swap1\n      tag_349\n      jump\t// in\n    tag_348:\n        /* \"@chainlink/contracts/src/v0.8/vendor/BufferChainlink.sol\":9208:9222  (256**len) - 1 */\n      tag_350\n      swap2\n      swap1\n      tag_236\n      jump\t// in\n    tag_350:\n        /* \"@chainlink/contracts/src/v0.8/vendor/BufferChainlink.sol\":9193:9222  uint256 mask = (256**len) - 1 */\n      swap1\n      pop\n        /* \"@chainlink/contracts/src/v0.8/vendor/BufferChainlink.sol\":9308:9311  buf */\n      dup6\n        /* \"@chainlink/contracts/src/v0.8/vendor/BufferChainlink.sol\":9302:9312  mload(buf) */\n      mload\n        /* \"@chainlink/contracts/src/v0.8/vendor/BufferChainlink.sol\":9423:9426  len */\n      dup4\n        /* \"@chainlink/contracts/src/v0.8/vendor/BufferChainlink.sol\":9417:9420  off */\n      dup7\n        /* \"@chainlink/contracts/src/v0.8/vendor/BufferChainlink.sol\":9409:9415  bufptr */\n      dup3\n        /* \"@chainlink/contracts/src/v0.8/vendor/BufferChainlink.sol\":9405:9421  add(bufptr, off) */\n      add\n        /* \"@chainlink/contracts/src/v0.8/vendor/BufferChainlink.sol\":9401:9427  add(add(bufptr, off), len) */\n      add\n        /* \"@chainlink/contracts/src/v0.8/vendor/BufferChainlink.sol\":9479:9483  data */\n      dup6\n        /* \"@chainlink/contracts/src/v0.8/vendor/BufferChainlink.sol\":9471:9475  mask */\n      dup4\n        /* \"@chainlink/contracts/src/v0.8/vendor/BufferChainlink.sol\":9467:9476  not(mask) */\n      not\n        /* \"@chainlink/contracts/src/v0.8/vendor/BufferChainlink.sol\":9460:9464  dest */\n      dup3\n        /* \"@chainlink/contracts/src/v0.8/vendor/BufferChainlink.sol\":9454:9465  mload(dest) */\n      mload\n        /* \"@chainlink/contracts/src/v0.8/vendor/BufferChainlink.sol\":9450:9477  and(mload(dest), not(mask)) */\n      and\n        /* \"@chainlink/contracts/src/v0.8/vendor/BufferChainlink.sol\":9447:9484  or(and(mload(dest), not(mask)), data) */\n      or\n        /* \"@chainlink/contracts/src/v0.8/vendor/BufferChainlink.sol\":9441:9445  dest */\n      dup2\n        /* \"@chainlink/contracts/src/v0.8/vendor/BufferChainlink.sol\":9434:9485  mstore(dest, or(and(mload(dest), not(mask)), data)) */\n      mstore\n        /* \"@chainlink/contracts/src/v0.8/vendor/BufferChainlink.sol\":9567:9573  bufptr */\n      dup2\n        /* \"@chainlink/contracts/src/v0.8/vendor/BufferChainlink.sol\":9561:9574  mload(bufptr) */\n      mload\n        /* \"@chainlink/contracts/src/v0.8/vendor/BufferChainlink.sol\":9555:9558  len */\n      dup6\n        /* \"@chainlink/contracts/src/v0.8/vendor/BufferChainlink.sol\":9550:9553  off */\n      dup9\n        /* \"@chainlink/contracts/src/v0.8/vendor/BufferChainlink.sol\":9546:9559  add(off, len) */\n      add\n        /* \"@chainlink/contracts/src/v0.8/vendor/BufferChainlink.sol\":9543:9575  gt(add(off, len), mload(bufptr)) */\n      gt\n        /* \"@chainlink/contracts/src/v0.8/vendor/BufferChainlink.sol\":9540:9623  if gt(add(off, len), mload(bufptr)) {... */\n      iszero\n      tag_351\n      jumpi\n        /* \"@chainlink/contracts/src/v0.8/vendor/BufferChainlink.sol\":9610:9613  len */\n      dup5\n        /* \"@chainlink/contracts/src/v0.8/vendor/BufferChainlink.sol\":9605:9608  off */\n      dup8\n        /* \"@chainlink/contracts/src/v0.8/vendor/BufferChainlink.sol\":9601:9614  add(off, len) */\n      add\n        /* \"@chainlink/contracts/src/v0.8/vendor/BufferChainlink.sol\":9593:9599  bufptr */\n      dup3\n        /* \"@chainlink/contracts/src/v0.8/vendor/BufferChainlink.sol\":9586:9615  mstore(bufptr, add(off, len)) */\n      mstore\n        /* \"@chainlink/contracts/src/v0.8/vendor/BufferChainlink.sol\":9540:9623  if gt(add(off, len), mload(bufptr)) {... */\n    tag_351:\n        /* \"@chainlink/contracts/src/v0.8/vendor/BufferChainlink.sol\":9237:9629  {... */\n      pop\n      pop\n        /* \"@chainlink/contracts/src/v0.8/vendor/BufferChainlink.sol\":9641:9644  buf */\n      dup6\n        /* \"@chainlink/contracts/src/v0.8/vendor/BufferChainlink.sol\":9634:9644  return buf */\n      swap2\n      pop\n      pop\n        /* \"@chainlink/contracts/src/v0.8/vendor/BufferChainlink.sol\":8974:9649  function writeInt(... */\n      swap5\n      swap4\n      pop\n      pop\n      pop\n      pop\n      jump\t// out\n        /* \"@chainlink/contracts/src/v0.8/vendor/BufferChainlink.sol\":1961:2085  function max(uint256 a, uint256 b) private pure returns (uint256) {... */\n    tag_321:\n        /* \"@chainlink/contracts/src/v0.8/vendor/BufferChainlink.sol\":2018:2025  uint256 */\n      0x00\n        /* \"@chainlink/contracts/src/v0.8/vendor/BufferChainlink.sol\":2041:2042  b */\n      dup2\n        /* \"@chainlink/contracts/src/v0.8/vendor/BufferChainlink.sol\":2037:2038  a */\n      dup4\n        /* \"@chainlink/contracts/src/v0.8/vendor/BufferChainlink.sol\":2037:2042  a > b */\n      gt\n        /* \"@chainlink/contracts/src/v0.8/vendor/BufferChainlink.sol\":2033:2067  if (a > b) {... */\n      iszero\n      tag_353\n      jumpi\n        /* \"@chainlink/contracts/src/v0.8/vendor/BufferChainlink.sol\":2059:2060  a */\n      dup3\n        /* \"@chainlink/contracts/src/v0.8/vendor/BufferChainlink.sol\":2052:2060  return a */\n      swap1\n      pop\n      jump(tag_352)\n        /* \"@chainlink/contracts/src/v0.8/vendor/BufferChainlink.sol\":2033:2067  if (a > b) {... */\n    tag_353:\n        /* \"@chainlink/contracts/src/v0.8/vendor/BufferChainlink.sol\":2079:2080  b */\n      dup2\n        /* \"@chainlink/contracts/src/v0.8/vendor/BufferChainlink.sol\":2072:2080  return b */\n      swap1\n      pop\n        /* \"@chainlink/contracts/src/v0.8/vendor/BufferChainlink.sol\":1961:2085  function max(uint256 a, uint256 b) private pure returns (uint256) {... */\n    tag_352:\n      swap3\n      swap2\n      pop\n      pop\n      jump\t// out\n        /* \"@chainlink/contracts/src/v0.8/vendor/BufferChainlink.sol\":1801:1957  function resize(buffer memory buf, uint256 capacity) private pure {... */\n    tag_324:\n        /* \"@chainlink/contracts/src/v0.8/vendor/BufferChainlink.sol\":1873:1892  bytes memory oldbuf */\n      0x00\n        /* \"@chainlink/contracts/src/v0.8/vendor/BufferChainlink.sol\":1895:1898  buf */\n      dup3\n        /* \"@chainlink/contracts/src/v0.8/vendor/BufferChainlink.sol\":1895:1902  buf.buf */\n      0x00\n      add\n      mload\n        /* \"@chainlink/contracts/src/v0.8/vendor/BufferChainlink.sol\":1873:1902  bytes memory oldbuf = buf.buf */\n      swap1\n      pop\n        /* \"@chainlink/contracts/src/v0.8/vendor/BufferChainlink.sol\":1908:1927  init(buf, capacity) */\n      tag_355\n        /* \"@chainlink/contracts/src/v0.8/vendor/BufferChainlink.sol\":1913:1916  buf */\n      dup4\n        /* \"@chainlink/contracts/src/v0.8/vendor/BufferChainlink.sol\":1918:1926  capacity */\n      dup4\n        /* \"@chainlink/contracts/src/v0.8/vendor/BufferChainlink.sol\":1908:1912  init */\n      tag_210\n        /* \"@chainlink/contracts/src/v0.8/vendor/BufferChainlink.sol\":1908:1927  init(buf, capacity) */\n      jump\t// in\n    tag_355:\n      pop\n        /* \"@chainlink/contracts/src/v0.8/vendor/BufferChainlink.sol\":1933:1952  append(buf, oldbuf) */\n      tag_356\n        /* \"@chainlink/contracts/src/v0.8/vendor/BufferChainlink.sol\":1940:1943  buf */\n      dup4\n        /* \"@chainlink/contracts/src/v0.8/vendor/BufferChainlink.sol\":1945:1951  oldbuf */\n      dup3\n        /* \"@chainlink/contracts/src/v0.8/vendor/BufferChainlink.sol\":1933:1939  append */\n      tag_215\n        /* \"@chainlink/contracts/src/v0.8/vendor/BufferChainlink.sol\":1933:1952  append(buf, oldbuf) */\n      jump\t// in\n    tag_356:\n      pop\n        /* \"@chainlink/contracts/src/v0.8/vendor/BufferChainlink.sol\":1867:1957  {... */\n      pop\n        /* \"@chainlink/contracts/src/v0.8/vendor/BufferChainlink.sol\":1801:1957  function resize(buffer memory buf, uint256 capacity) private pure {... */\n      pop\n      pop\n      jump\t// out\n    tag_73:\n      dup3\n      dup1\n      sload\n      dup3\n      dup3\n      sstore\n      swap1\n      0x00\n      mstore\n      keccak256(0x00, 0x20)\n      swap1\n      dup2\n      add\n      swap3\n      dup3\n      iszero\n      tag_357\n      jumpi\n      swap2\n      0x20\n      mul\n      dup3\n      add\n    tag_358:\n      dup3\n      dup2\n      gt\n      iszero\n      tag_359\n      jumpi\n      dup3\n      mload\n      dup3\n      swap1\n      dup1\n      mload\n      swap1\n      0x20\n      add\n      swap1\n      tag_360\n      swap3\n      swap2\n      swap1\n      tag_361\n      jump\t// in\n    tag_360:\n      pop\n      swap2\n      0x20\n      add\n      swap2\n      swap1\n      0x01\n      add\n      swap1\n      jump(tag_358)\n    tag_359:\n    tag_357:\n      pop\n      swap1\n      pop\n      tag_362\n      swap2\n      swap1\n      tag_363\n      jump\t// in\n    tag_362:\n      pop\n      swap1\n      jump\t// out\n    tag_115:\n      mload(0x40)\n      dup1\n      0x80\n      add\n      0x40\n      mstore\n      dup1\n      and(0xffffffff, 0x00)\n      dup2\n      mstore\n      0x20\n      add\n      and(0xff, 0x00)\n      dup2\n      mstore\n      0x20\n      add\n      and(0xff, 0x00)\n      dup2\n      mstore\n      0x20\n      add\n      0x60\n      dup2\n      mstore\n      pop\n      swap1\n      jump\t// out\n    tag_129:\n      mload(0x40)\n      dup1\n      0x80\n      add\n      0x40\n      mstore\n      dup1\n      and(0xffffffff, 0x00)\n      dup2\n      mstore\n      0x20\n      add\n      and(0xffffffffff, 0x00)\n      dup2\n      mstore\n      0x20\n      add\n      0x60\n      dup2\n      mstore\n      0x20\n      add\n      0x60\n      dup2\n      mstore\n      pop\n      swap1\n      jump\t// out\n    tag_145:\n      mload(0x40)\n      dup1\n      0xa0\n      add\n      0x40\n      mstore\n      dup1\n      0x00\n      dup1\n      not\n      and\n      dup2\n      mstore\n      0x20\n      add\n      and(0xffffffffffffffffffffffffffffffffffffffff, 0x00)\n      dup2\n      mstore\n      0x20\n      add\n      and(not(0xffffffffffffffffffffffffffffffffffffffffffffffffffffffff), 0x00)\n      dup2\n      mstore\n      0x20\n      add\n      0x00\n      dup2\n      mstore\n      0x20\n      add\n      tag_364\n      tag_253\n      jump\t// in\n    tag_364:\n      dup2\n      mstore\n      pop\n      swap1\n      jump\t// out\n    tag_253:\n      mload(0x40)\n      dup1\n      0x40\n      add\n      0x40\n      mstore\n      dup1\n      0x60\n      dup2\n      mstore\n      0x20\n      add\n      0x00\n      dup2\n      mstore\n      pop\n      swap1\n      jump\t// out\n    tag_361:\n      dup3\n      dup1\n      sload\n      tag_365\n      swap1\n      tag_106\n      jump\t// in\n    tag_365:\n      swap1\n      0x00\n      mstore\n      keccak256(0x00, 0x20)\n      swap1\n      0x1f\n      add\n      0x20\n      swap1\n      div\n      dup2\n      add\n      swap3\n      dup3\n      tag_367\n      jumpi\n      0x00\n      dup6\n      sstore\n      jump(tag_366)\n    tag_367:\n      dup3\n      0x1f\n      lt\n      tag_368\n      jumpi\n      dup1\n      mload\n      not(0xff)\n      and\n      dup4\n      dup1\n      add\n      or\n      dup6\n      sstore\n      jump(tag_366)\n    tag_368:\n      dup3\n      dup1\n      add\n      0x01\n      add\n      dup6\n      sstore\n      dup3\n      iszero\n      tag_366\n      jumpi\n      swap2\n      dup3\n      add\n    tag_369:\n      dup3\n      dup2\n      gt\n      iszero\n      tag_370\n      jumpi\n      dup3\n      mload\n      dup3\n      sstore\n      swap2\n      0x20\n      add\n      swap2\n      swap1\n      0x01\n      add\n      swap1\n      jump(tag_369)\n    tag_370:\n    tag_366:\n      pop\n      swap1\n      pop\n      tag_371\n      swap2\n      swap1\n      tag_372\n      jump\t// in\n    tag_371:\n      pop\n      swap1\n      jump\t// out\n    tag_363:\n    tag_373:\n      dup1\n      dup3\n      gt\n      iszero\n      tag_374\n      jumpi\n      0x00\n      dup2\n      dup2\n      tag_375\n      swap2\n      swap1\n      tag_376\n      jump\t// in\n    tag_375:\n      pop\n      0x01\n      add\n      jump(tag_373)\n    tag_374:\n      pop\n      swap1\n      jump\t// out\n    tag_372:\n    tag_377:\n      dup1\n      dup3\n      gt\n      iszero\n      tag_378\n      jumpi\n      0x00\n      dup2\n      0x00\n      swap1\n      sstore\n      pop\n      0x01\n      add\n      jump(tag_377)\n    tag_378:\n      pop\n      swap1\n      jump\t// out\n    tag_376:\n      pop\n      dup1\n      sload\n      tag_379\n      swap1\n      tag_106\n      jump\t// in\n    tag_379:\n      0x00\n      dup3\n      sstore\n      dup1\n      0x1f\n      lt\n      tag_381\n      jumpi\n      pop\n      jump(tag_380)\n    tag_381:\n      0x1f\n      add\n      0x20\n      swap1\n      div\n      swap1\n      0x00\n      mstore\n      keccak256(0x00, 0x20)\n      swap1\n      dup2\n      add\n      swap1\n      tag_382\n      swap2\n      swap1\n      tag_372\n      jump\t// in\n    tag_382:\n    tag_380:\n      pop\n      jump\t// out\n        /* \"#utility.yul\":7:82   */\n    tag_383:\n        /* \"#utility.yul\":40:46   */\n      0x00\n        /* \"#utility.yul\":73:75   */\n      0x40\n        /* \"#utility.yul\":67:76   */\n      mload\n        /* \"#utility.yul\":57:76   */\n      swap1\n      pop\n        /* \"#utility.yul\":7:82   */\n      swap1\n      jump\t// out\n        /* \"#utility.yul\":88:205   */\n    tag_384:\n        /* \"#utility.yul\":197:198   */\n      0x00\n        /* \"#utility.yul\":194:195   */\n      dup1\n        /* \"#utility.yul\":187:199   */\n      revert\n        /* \"#utility.yul\":211:328   */\n    tag_385:\n        /* \"#utility.yul\":320:321   */\n      0x00\n        /* \"#utility.yul\":317:318   */\n      dup1\n        /* \"#utility.yul\":310:322   */\n      revert\n        /* \"#utility.yul\":334:411   */\n    tag_386:\n        /* \"#utility.yul\":371:378   */\n      0x00\n        /* \"#utility.yul\":400:405   */\n      dup2\n        /* \"#utility.yul\":389:405   */\n      swap1\n      pop\n        /* \"#utility.yul\":334:411   */\n      swap2\n      swap1\n      pop\n      jump\t// out\n        /* \"#utility.yul\":417:539   */\n    tag_387:\n        /* \"#utility.yul\":490:514   */\n      tag_473\n        /* \"#utility.yul\":508:513   */\n      dup2\n        /* \"#utility.yul\":490:514   */\n      tag_386\n      jump\t// in\n    tag_473:\n        /* \"#utility.yul\":483:488   */\n      dup2\n        /* \"#utility.yul\":480:515   */\n      eq\n        /* \"#utility.yul\":470:533   */\n      tag_474\n      jumpi\n        /* \"#utility.yul\":529:530   */\n      0x00\n        /* \"#utility.yul\":526:527   */\n      dup1\n        /* \"#utility.yul\":519:531   */\n      revert\n        /* \"#utility.yul\":470:533   */\n    tag_474:\n        /* \"#utility.yul\":417:539   */\n      pop\n      jump\t// out\n        /* \"#utility.yul\":545:684   */\n    tag_388:\n        /* \"#utility.yul\":591:596   */\n      0x00\n        /* \"#utility.yul\":629:635   */\n      dup2\n        /* \"#utility.yul\":616:636   */\n      calldataload\n        /* \"#utility.yul\":607:636   */\n      swap1\n      pop\n        /* \"#utility.yul\":645:678   */\n      tag_476\n        /* \"#utility.yul\":672:677   */\n      dup2\n        /* \"#utility.yul\":645:678   */\n      tag_387\n      jump\t// in\n    tag_476:\n        /* \"#utility.yul\":545:684   */\n      swap3\n      swap2\n      pop\n      pop\n      jump\t// out\n        /* \"#utility.yul\":690:767   */\n    tag_389:\n        /* \"#utility.yul\":727:734   */\n      0x00\n        /* \"#utility.yul\":756:761   */\n      dup2\n        /* \"#utility.yul\":745:761   */\n      swap1\n      pop\n        /* \"#utility.yul\":690:767   */\n      swap2\n      swap1\n      pop\n      jump\t// out\n        /* \"#utility.yul\":773:895   */\n    tag_390:\n        /* \"#utility.yul\":846:870   */\n      tag_479\n        /* \"#utility.yul\":864:869   */\n      dup2\n        /* \"#utility.yul\":846:870   */\n      tag_389\n      jump\t// in\n    tag_479:\n        /* \"#utility.yul\":839:844   */\n      dup2\n        /* \"#utility.yul\":836:871   */\n      eq\n        /* \"#utility.yul\":826:889   */\n      tag_480\n      jumpi\n        /* \"#utility.yul\":885:886   */\n      0x00\n        /* \"#utility.yul\":882:883   */\n      dup1\n        /* \"#utility.yul\":875:887   */\n      revert\n        /* \"#utility.yul\":826:889   */\n    tag_480:\n        /* \"#utility.yul\":773:895   */\n      pop\n      jump\t// out\n        /* \"#utility.yul\":901:1040   */\n    tag_391:\n        /* \"#utility.yul\":947:952   */\n      0x00\n        /* \"#utility.yul\":985:991   */\n      dup2\n        /* \"#utility.yul\":972:992   */\n      calldataload\n        /* \"#utility.yul\":963:992   */\n      swap1\n      pop\n        /* \"#utility.yul\":1001:1034   */\n      tag_482\n        /* \"#utility.yul\":1028:1033   */\n      dup2\n        /* \"#utility.yul\":1001:1034   */\n      tag_390\n      jump\t// in\n    tag_482:\n        /* \"#utility.yul\":901:1040   */\n      swap3\n      swap2\n      pop\n      pop\n      jump\t// out\n        /* \"#utility.yul\":1046:1957   */\n    tag_17:\n        /* \"#utility.yul\":1141:1147   */\n      0x00\n        /* \"#utility.yul\":1149:1155   */\n      dup1\n        /* \"#utility.yul\":1157:1163   */\n      0x00\n        /* \"#utility.yul\":1165:1171   */\n      dup1\n        /* \"#utility.yul\":1173:1179   */\n      0x00\n        /* \"#utility.yul\":1222:1225   */\n      0xa0\n        /* \"#utility.yul\":1210:1219   */\n      dup7\n        /* \"#utility.yul\":1201:1208   */\n      dup9\n        /* \"#utility.yul\":1197:1220   */\n      sub\n        /* \"#utility.yul\":1193:1226   */\n      slt\n        /* \"#utility.yul\":1190:1310   */\n      iszero\n      tag_484\n      jumpi\n        /* \"#utility.yul\":1229:1308   */\n      tag_485\n      tag_384\n      jump\t// in\n    tag_485:\n        /* \"#utility.yul\":1190:1310   */\n    tag_484:\n        /* \"#utility.yul\":1349:1350   */\n      0x00\n        /* \"#utility.yul\":1374:1427   */\n      tag_486\n        /* \"#utility.yul\":1419:1426   */\n      dup9\n        /* \"#utility.yul\":1410:1416   */\n      dup3\n        /* \"#utility.yul\":1399:1408   */\n      dup10\n        /* \"#utility.yul\":1395:1417   */\n      add\n        /* \"#utility.yul\":1374:1427   */\n      tag_388\n      jump\t// in\n    tag_486:\n        /* \"#utility.yul\":1364:1427   */\n      swap6\n      pop\n        /* \"#utility.yul\":1320:1437   */\n      pop\n        /* \"#utility.yul\":1476:1478   */\n      0x20\n        /* \"#utility.yul\":1502:1555   */\n      tag_487\n        /* \"#utility.yul\":1547:1554   */\n      dup9\n        /* \"#utility.yul\":1538:1544   */\n      dup3\n        /* \"#utility.yul\":1527:1536   */\n      dup10\n        /* \"#utility.yul\":1523:1545   */\n      add\n        /* \"#utility.yul\":1502:1555   */\n      tag_391\n      jump\t// in\n    tag_487:\n        /* \"#utility.yul\":1492:1555   */\n      swap5\n      pop\n        /* \"#utility.yul\":1447:1565   */\n      pop\n        /* \"#utility.yul\":1604:1606   */\n      0x40\n        /* \"#utility.yul\":1630:1683   */\n      tag_488\n        /* \"#utility.yul\":1675:1682   */\n      dup9\n        /* \"#utility.yul\":1666:1672   */\n      dup3\n        /* \"#utility.yul\":1655:1664   */\n      dup10\n        /* \"#utility.yul\":1651:1673   */\n      add\n        /* \"#utility.yul\":1630:1683   */\n      tag_391\n      jump\t// in\n    tag_488:\n        /* \"#utility.yul\":1620:1683   */\n      swap4\n      pop\n        /* \"#utility.yul\":1575:1693   */\n      pop\n        /* \"#utility.yul\":1732:1734   */\n      0x60\n        /* \"#utility.yul\":1758:1811   */\n      tag_489\n        /* \"#utility.yul\":1803:1810   */\n      dup9\n        /* \"#utility.yul\":1794:1800   */\n      dup3\n        /* \"#utility.yul\":1783:1792   */\n      dup10\n        /* \"#utility.yul\":1779:1801   */\n      add\n        /* \"#utility.yul\":1758:1811   */\n      tag_391\n      jump\t// in\n    tag_489:\n        /* \"#utility.yul\":1748:1811   */\n      swap3\n      pop\n        /* \"#utility.yul\":1703:1821   */\n      pop\n        /* \"#utility.yul\":1860:1863   */\n      0x80\n        /* \"#utility.yul\":1887:1940   */\n      tag_490\n        /* \"#utility.yul\":1932:1939   */\n      dup9\n        /* \"#utility.yul\":1923:1929   */\n      dup3\n        /* \"#utility.yul\":1912:1921   */\n      dup10\n        /* \"#utility.yul\":1908:1930   */\n      add\n        /* \"#utility.yul\":1887:1940   */\n      tag_391\n      jump\t// in\n    tag_490:\n        /* \"#utility.yul\":1877:1940   */\n      swap2\n      pop\n        /* \"#utility.yul\":1831:1950   */\n      pop\n        /* \"#utility.yul\":1046:1957   */\n      swap3\n      swap6\n      pop\n      swap3\n      swap6\n      swap1\n      swap4\n      pop\n      jump\t// out\n        /* \"#utility.yul\":1963:2080   */\n    tag_392:\n        /* \"#utility.yul\":2072:2073   */\n      0x00\n        /* \"#utility.yul\":2069:2070   */\n      dup1\n        /* \"#utility.yul\":2062:2074   */\n      revert\n        /* \"#utility.yul\":2086:2188   */\n    tag_393:\n        /* \"#utility.yul\":2127:2133   */\n      0x00\n        /* \"#utility.yul\":2178:2180   */\n      0x1f\n        /* \"#utility.yul\":2174:2181   */\n      not\n        /* \"#utility.yul\":2169:2171   */\n      0x1f\n        /* \"#utility.yul\":2162:2167   */\n      dup4\n        /* \"#utility.yul\":2158:2172   */\n      add\n        /* \"#utility.yul\":2154:2182   */\n      and\n        /* \"#utility.yul\":2144:2182   */\n      swap1\n      pop\n        /* \"#utility.yul\":2086:2188   */\n      swap2\n      swap1\n      pop\n      jump\t// out\n        /* \"#utility.yul\":2194:2374   */\n    tag_239:\n        /* \"#utility.yul\":2242:2319   */\n      0x4e487b7100000000000000000000000000000000000000000000000000000000\n        /* \"#utility.yul\":2239:2240   */\n      0x00\n        /* \"#utility.yul\":2232:2320   */\n      mstore\n        /* \"#utility.yul\":2339:2343   */\n      0x41\n        /* \"#utility.yul\":2336:2337   */\n      0x04\n        /* \"#utility.yul\":2329:2344   */\n      mstore\n        /* \"#utility.yul\":2363:2367   */\n      0x24\n        /* \"#utility.yul\":2360:2361   */\n      0x00\n        /* \"#utility.yul\":2353:2368   */\n      revert\n        /* \"#utility.yul\":2380:2661   */\n    tag_394:\n        /* \"#utility.yul\":2463:2490   */\n      tag_495\n        /* \"#utility.yul\":2485:2489   */\n      dup3\n        /* \"#utility.yul\":2463:2490   */\n      tag_393\n      jump\t// in\n    tag_495:\n        /* \"#utility.yul\":2455:2461   */\n      dup2\n        /* \"#utility.yul\":2451:2491   */\n      add\n        /* \"#utility.yul\":2593:2599   */\n      dup2\n        /* \"#utility.yul\":2581:2591   */\n      dup2\n        /* \"#utility.yul\":2578:2600   */\n      lt\n        /* \"#utility.yul\":2557:2575   */\n      0xffffffffffffffff\n        /* \"#utility.yul\":2545:2555   */\n      dup3\n        /* \"#utility.yul\":2542:2576   */\n      gt\n        /* \"#utility.yul\":2539:2601   */\n      or\n        /* \"#utility.yul\":2536:2624   */\n      iszero\n      tag_496\n      jumpi\n        /* \"#utility.yul\":2604:2622   */\n      tag_497\n      tag_239\n      jump\t// in\n    tag_497:\n        /* \"#utility.yul\":2536:2624   */\n    tag_496:\n        /* \"#utility.yul\":2644:2654   */\n      dup1\n        /* \"#utility.yul\":2640:2642   */\n      0x40\n        /* \"#utility.yul\":2633:2655   */\n      mstore\n        /* \"#utility.yul\":2423:2661   */\n      pop\n        /* \"#utility.yul\":2380:2661   */\n      pop\n      pop\n      jump\t// out\n        /* \"#utility.yul\":2667:2796   */\n    tag_395:\n        /* \"#utility.yul\":2701:2707   */\n      0x00\n        /* \"#utility.yul\":2728:2748   */\n      tag_499\n      tag_383\n      jump\t// in\n    tag_499:\n        /* \"#utility.yul\":2718:2748   */\n      swap1\n      pop\n        /* \"#utility.yul\":2757:2790   */\n      tag_500\n        /* \"#utility.yul\":2785:2789   */\n      dup3\n        /* \"#utility.yul\":2777:2783   */\n      dup3\n        /* \"#utility.yul\":2757:2790   */\n      tag_394\n      jump\t// in\n    tag_500:\n        /* \"#utility.yul\":2667:2796   */\n      swap2\n      swap1\n      pop\n      jump\t// out\n        /* \"#utility.yul\":2802:3122   */\n    tag_396:\n        /* \"#utility.yul\":2888:2892   */\n      0x00\n        /* \"#utility.yul\":2978:2996   */\n      0xffffffffffffffff\n        /* \"#utility.yul\":2970:2976   */\n      dup3\n        /* \"#utility.yul\":2967:2997   */\n      gt\n        /* \"#utility.yul\":2964:3020   */\n      iszero\n      tag_502\n      jumpi\n        /* \"#utility.yul\":3000:3018   */\n      tag_503\n      tag_239\n      jump\t// in\n    tag_503:\n        /* \"#utility.yul\":2964:3020   */\n    tag_502:\n        /* \"#utility.yul\":3050:3054   */\n      0x20\n        /* \"#utility.yul\":3042:3048   */\n      dup3\n        /* \"#utility.yul\":3038:3055   */\n      mul\n        /* \"#utility.yul\":3030:3055   */\n      swap1\n      pop\n        /* \"#utility.yul\":3110:3114   */\n      0x20\n        /* \"#utility.yul\":3104:3108   */\n      dup2\n        /* \"#utility.yul\":3100:3115   */\n      add\n        /* \"#utility.yul\":3092:3115   */\n      swap1\n      pop\n        /* \"#utility.yul\":2802:3122   */\n      swap2\n      swap1\n      pop\n      jump\t// out\n        /* \"#utility.yul\":3128:3245   */\n    tag_397:\n        /* \"#utility.yul\":3237:3238   */\n      0x00\n        /* \"#utility.yul\":3234:3235   */\n      dup1\n        /* \"#utility.yul\":3227:3239   */\n      revert\n        /* \"#utility.yul\":3251:3368   */\n    tag_398:\n        /* \"#utility.yul\":3360:3361   */\n      0x00\n        /* \"#utility.yul\":3357:3358   */\n      dup1\n        /* \"#utility.yul\":3350:3362   */\n      revert\n        /* \"#utility.yul\":3374:3681   */\n    tag_399:\n        /* \"#utility.yul\":3435:3439   */\n      0x00\n        /* \"#utility.yul\":3525:3543   */\n      0xffffffffffffffff\n        /* \"#utility.yul\":3517:3523   */\n      dup3\n        /* \"#utility.yul\":3514:3544   */\n      gt\n        /* \"#utility.yul\":3511:3567   */\n      iszero\n      tag_507\n      jumpi\n        /* \"#utility.yul\":3547:3565   */\n      tag_508\n      tag_239\n      jump\t// in\n    tag_508:\n        /* \"#utility.yul\":3511:3567   */\n    tag_507:\n        /* \"#utility.yul\":3585:3614   */\n      tag_509\n        /* \"#utility.yul\":3607:3613   */\n      dup3\n        /* \"#utility.yul\":3585:3614   */\n      tag_393\n      jump\t// in\n    tag_509:\n        /* \"#utility.yul\":3577:3614   */\n      swap1\n      pop\n        /* \"#utility.yul\":3669:3673   */\n      0x20\n        /* \"#utility.yul\":3663:3667   */\n      dup2\n        /* \"#utility.yul\":3659:3674   */\n      add\n        /* \"#utility.yul\":3651:3674   */\n      swap1\n      pop\n        /* \"#utility.yul\":3374:3681   */\n      swap2\n      swap1\n      pop\n      jump\t// out\n        /* \"#utility.yul\":3687:3841   */\n    tag_400:\n        /* \"#utility.yul\":3771:3777   */\n      dup3\n        /* \"#utility.yul\":3766:3769   */\n      dup2\n        /* \"#utility.yul\":3761:3764   */\n      dup4\n        /* \"#utility.yul\":3748:3778   */\n      calldatacopy\n        /* \"#utility.yul\":3833:3834   */\n      0x00\n        /* \"#utility.yul\":3824:3830   */\n      dup4\n        /* \"#utility.yul\":3819:3822   */\n      dup4\n        /* \"#utility.yul\":3815:3831   */\n      add\n        /* \"#utility.yul\":3808:3835   */\n      mstore\n        /* \"#utility.yul\":3687:3841   */\n      pop\n      pop\n      pop\n      jump\t// out\n        /* \"#utility.yul\":3847:4257   */\n    tag_401:\n        /* \"#utility.yul\":3924:3929   */\n      0x00\n        /* \"#utility.yul\":3949:4014   */\n      tag_512\n        /* \"#utility.yul\":3965:4013   */\n      tag_513\n        /* \"#utility.yul\":4006:4012   */\n      dup5\n        /* \"#utility.yul\":3965:4013   */\n      tag_399\n      jump\t// in\n    tag_513:\n        /* \"#utility.yul\":3949:4014   */\n      tag_395\n      jump\t// in\n    tag_512:\n        /* \"#utility.yul\":3940:4014   */\n      swap1\n      pop\n        /* \"#utility.yul\":4037:4043   */\n      dup3\n        /* \"#utility.yul\":4030:4035   */\n      dup2\n        /* \"#utility.yul\":4023:4044   */\n      mstore\n        /* \"#utility.yul\":4075:4079   */\n      0x20\n        /* \"#utility.yul\":4068:4073   */\n      dup2\n        /* \"#utility.yul\":4064:4080   */\n      add\n        /* \"#utility.yul\":4113:4116   */\n      dup5\n        /* \"#utility.yul\":4104:4110   */\n      dup5\n        /* \"#utility.yul\":4099:4102   */\n      dup5\n        /* \"#utility.yul\":4095:4111   */\n      add\n        /* \"#utility.yul\":4092:4117   */\n      gt\n        /* \"#utility.yul\":4089:4201   */\n      iszero\n      tag_514\n      jumpi\n        /* \"#utility.yul\":4120:4199   */\n      tag_515\n      tag_398\n      jump\t// in\n    tag_515:\n        /* \"#utility.yul\":4089:4201   */\n    tag_514:\n        /* \"#utility.yul\":4210:4251   */\n      tag_516\n        /* \"#utility.yul\":4244:4250   */\n      dup5\n        /* \"#utility.yul\":4239:4242   */\n      dup3\n        /* \"#utility.yul\":4234:4237   */\n      dup6\n        /* \"#utility.yul\":4210:4251   */\n      tag_400\n      jump\t// in\n    tag_516:\n        /* \"#utility.yul\":3930:4257   */\n      pop\n        /* \"#utility.yul\":3847:4257   */\n      swap4\n      swap3\n      pop\n      pop\n      pop\n      jump\t// out\n        /* \"#utility.yul\":4276:4614   */\n    tag_402:\n        /* \"#utility.yul\":4331:4336   */\n      0x00\n        /* \"#utility.yul\":4380:4383   */\n      dup3\n        /* \"#utility.yul\":4373:4377   */\n      0x1f\n        /* \"#utility.yul\":4365:4371   */\n      dup4\n        /* \"#utility.yul\":4361:4378   */\n      add\n        /* \"#utility.yul\":4357:4384   */\n      slt\n        /* \"#utility.yul\":4347:4469   */\n      tag_518\n      jumpi\n        /* \"#utility.yul\":4388:4467   */\n      tag_519\n      tag_392\n      jump\t// in\n    tag_519:\n        /* \"#utility.yul\":4347:4469   */\n    tag_518:\n        /* \"#utility.yul\":4505:4511   */\n      dup2\n        /* \"#utility.yul\":4492:4512   */\n      calldataload\n        /* \"#utility.yul\":4530:4608   */\n      tag_520\n        /* \"#utility.yul\":4604:4607   */\n      dup5\n        /* \"#utility.yul\":4596:4602   */\n      dup3\n        /* \"#utility.yul\":4589:4593   */\n      0x20\n        /* \"#utility.yul\":4581:4587   */\n      dup7\n        /* \"#utility.yul\":4577:4594   */\n      add\n        /* \"#utility.yul\":4530:4608   */\n      tag_401\n      jump\t// in\n    tag_520:\n        /* \"#utility.yul\":4521:4608   */\n      swap2\n      pop\n        /* \"#utility.yul\":4337:4614   */\n      pop\n        /* \"#utility.yul\":4276:4614   */\n      swap3\n      swap2\n      pop\n      pop\n      jump\t// out\n        /* \"#utility.yul\":4635:5577   */\n    tag_403:\n        /* \"#utility.yul\":4740:4745   */\n      0x00\n        /* \"#utility.yul\":4765:4855   */\n      tag_522\n        /* \"#utility.yul\":4781:4854   */\n      tag_523\n        /* \"#utility.yul\":4847:4853   */\n      dup5\n        /* \"#utility.yul\":4781:4854   */\n      tag_396\n      jump\t// in\n    tag_523:\n        /* \"#utility.yul\":4765:4855   */\n      tag_395\n      jump\t// in\n    tag_522:\n        /* \"#utility.yul\":4756:4855   */\n      swap1\n      pop\n        /* \"#utility.yul\":4875:4880   */\n      dup1\n        /* \"#utility.yul\":4904:4910   */\n      dup4\n        /* \"#utility.yul\":4897:4902   */\n      dup3\n        /* \"#utility.yul\":4890:4911   */\n      mstore\n        /* \"#utility.yul\":4938:4942   */\n      0x20\n        /* \"#utility.yul\":4931:4936   */\n      dup3\n        /* \"#utility.yul\":4927:4943   */\n      add\n        /* \"#utility.yul\":4920:4943   */\n      swap1\n      pop\n        /* \"#utility.yul\":4991:4995   */\n      0x20\n        /* \"#utility.yul\":4983:4989   */\n      dup5\n        /* \"#utility.yul\":4979:4996   */\n      mul\n        /* \"#utility.yul\":4971:4977   */\n      dup4\n        /* \"#utility.yul\":4967:4997   */\n      add\n        /* \"#utility.yul\":5020:5023   */\n      dup6\n        /* \"#utility.yul\":5012:5018   */\n      dup2\n        /* \"#utility.yul\":5009:5024   */\n      gt\n        /* \"#utility.yul\":5006:5128   */\n      iszero\n      tag_524\n      jumpi\n        /* \"#utility.yul\":5039:5118   */\n      tag_525\n      tag_397\n      jump\t// in\n    tag_525:\n        /* \"#utility.yul\":5006:5128   */\n    tag_524:\n        /* \"#utility.yul\":5154:5160   */\n      dup4\n        /* \"#utility.yul\":5137:5571   */\n    tag_526:\n        /* \"#utility.yul\":5171:5177   */\n      dup2\n        /* \"#utility.yul\":5166:5169   */\n      dup2\n        /* \"#utility.yul\":5163:5178   */\n      lt\n        /* \"#utility.yul\":5137:5571   */\n      iszero\n      tag_528\n      jumpi\n        /* \"#utility.yul\":5260:5263   */\n      dup1\n        /* \"#utility.yul\":5247:5264   */\n      calldataload\n        /* \"#utility.yul\":5296:5314   */\n      0xffffffffffffffff\n        /* \"#utility.yul\":5283:5294   */\n      dup2\n        /* \"#utility.yul\":5280:5315   */\n      gt\n        /* \"#utility.yul\":5277:5399   */\n      iszero\n      tag_529\n      jumpi\n        /* \"#utility.yul\":5318:5397   */\n      tag_530\n      tag_392\n      jump\t// in\n    tag_530:\n        /* \"#utility.yul\":5277:5399   */\n    tag_529:\n        /* \"#utility.yul\":5442:5453   */\n      dup1\n        /* \"#utility.yul\":5434:5440   */\n      dup7\n        /* \"#utility.yul\":5430:5454   */\n      add\n        /* \"#utility.yul\":5480:5526   */\n      tag_531\n        /* \"#utility.yul\":5522:5525   */\n      dup10\n        /* \"#utility.yul\":5510:5520   */\n      dup3\n        /* \"#utility.yul\":5480:5526   */\n      tag_402\n      jump\t// in\n    tag_531:\n        /* \"#utility.yul\":5475:5478   */\n      dup6\n        /* \"#utility.yul\":5468:5527   */\n      mstore\n        /* \"#utility.yul\":5556:5560   */\n      0x20\n        /* \"#utility.yul\":5551:5554   */\n      dup6\n        /* \"#utility.yul\":5547:5561   */\n      add\n        /* \"#utility.yul\":5540:5561   */\n      swap5\n      pop\n        /* \"#utility.yul\":5213:5571   */\n      pop\n      pop\n        /* \"#utility.yul\":5197:5201   */\n      0x20\n        /* \"#utility.yul\":5192:5195   */\n      dup2\n        /* \"#utility.yul\":5188:5202   */\n      add\n        /* \"#utility.yul\":5181:5202   */\n      swap1\n      pop\n        /* \"#utility.yul\":5137:5571   */\n      jump(tag_526)\n    tag_528:\n        /* \"#utility.yul\":5141:5162   */\n      pop\n        /* \"#utility.yul\":4746:5577   */\n      pop\n      pop\n        /* \"#utility.yul\":4635:5577   */\n      swap4\n      swap3\n      pop\n      pop\n      pop\n      jump\t// out\n        /* \"#utility.yul\":5598:5986   */\n    tag_404:\n        /* \"#utility.yul\":5678:5683   */\n      0x00\n        /* \"#utility.yul\":5727:5730   */\n      dup3\n        /* \"#utility.yul\":5720:5724   */\n      0x1f\n        /* \"#utility.yul\":5712:5718   */\n      dup4\n        /* \"#utility.yul\":5708:5725   */\n      add\n        /* \"#utility.yul\":5704:5731   */\n      slt\n        /* \"#utility.yul\":5694:5816   */\n      tag_533\n      jumpi\n        /* \"#utility.yul\":5735:5814   */\n      tag_534\n      tag_392\n      jump\t// in\n    tag_534:\n        /* \"#utility.yul\":5694:5816   */\n    tag_533:\n        /* \"#utility.yul\":5852:5858   */\n      dup2\n        /* \"#utility.yul\":5839:5859   */\n      calldataload\n        /* \"#utility.yul\":5877:5980   */\n      tag_535\n        /* \"#utility.yul\":5976:5979   */\n      dup5\n        /* \"#utility.yul\":5968:5974   */\n      dup3\n        /* \"#utility.yul\":5961:5965   */\n      0x20\n        /* \"#utility.yul\":5953:5959   */\n      dup7\n        /* \"#utility.yul\":5949:5966   */\n      add\n        /* \"#utility.yul\":5877:5980   */\n      tag_403\n      jump\t// in\n    tag_535:\n        /* \"#utility.yul\":5868:5980   */\n      swap2\n      pop\n        /* \"#utility.yul\":5684:5986   */\n      pop\n        /* \"#utility.yul\":5598:5986   */\n      swap3\n      swap2\n      pop\n      pop\n      jump\t// out\n        /* \"#utility.yul\":5992:6694   */\n    tag_21:\n        /* \"#utility.yul\":6094:6100   */\n      0x00\n        /* \"#utility.yul\":6102:6108   */\n      dup1\n        /* \"#utility.yul\":6151:6153   */\n      0x40\n        /* \"#utility.yul\":6139:6148   */\n      dup4\n        /* \"#utility.yul\":6130:6137   */\n      dup6\n        /* \"#utility.yul\":6126:6149   */\n      sub\n        /* \"#utility.yul\":6122:6154   */\n      slt\n        /* \"#utility.yul\":6119:6238   */\n      iszero\n      tag_537\n      jumpi\n        /* \"#utility.yul\":6157:6236   */\n      tag_538\n      tag_384\n      jump\t// in\n    tag_538:\n        /* \"#utility.yul\":6119:6238   */\n    tag_537:\n        /* \"#utility.yul\":6277:6278   */\n      0x00\n        /* \"#utility.yul\":6302:6355   */\n      tag_539\n        /* \"#utility.yul\":6347:6354   */\n      dup6\n        /* \"#utility.yul\":6338:6344   */\n      dup3\n        /* \"#utility.yul\":6327:6336   */\n      dup7\n        /* \"#utility.yul\":6323:6345   */\n      add\n        /* \"#utility.yul\":6302:6355   */\n      tag_388\n      jump\t// in\n    tag_539:\n        /* \"#utility.yul\":6292:6355   */\n      swap3\n      pop\n        /* \"#utility.yul\":6248:6365   */\n      pop\n        /* \"#utility.yul\":6432:6434   */\n      0x20\n        /* \"#utility.yul\":6421:6430   */\n      dup4\n        /* \"#utility.yul\":6417:6435   */\n      add\n        /* \"#utility.yul\":6404:6436   */\n      calldataload\n        /* \"#utility.yul\":6463:6481   */\n      0xffffffffffffffff\n        /* \"#utility.yul\":6455:6461   */\n      dup2\n        /* \"#utility.yul\":6452:6482   */\n      gt\n        /* \"#utility.yul\":6449:6566   */\n      iszero\n      tag_540\n      jumpi\n        /* \"#utility.yul\":6485:6564   */\n      tag_541\n      tag_385\n      jump\t// in\n    tag_541:\n        /* \"#utility.yul\":6449:6566   */\n    tag_540:\n        /* \"#utility.yul\":6590:6677   */\n      tag_542\n        /* \"#utility.yul\":6669:6676   */\n      dup6\n        /* \"#utility.yul\":6660:6666   */\n      dup3\n        /* \"#utility.yul\":6649:6658   */\n      dup7\n        /* \"#utility.yul\":6645:6667   */\n      add\n        /* \"#utility.yul\":6590:6677   */\n      tag_404\n      jump\t// in\n    tag_542:\n        /* \"#utility.yul\":6580:6677   */\n      swap2\n      pop\n        /* \"#utility.yul\":6375:6687   */\n      pop\n        /* \"#utility.yul\":5992:6694   */\n      swap3\n      pop\n      swap3\n      swap1\n      pop\n      jump\t// out\n        /* \"#utility.yul\":6700:6826   */\n    tag_405:\n        /* \"#utility.yul\":6737:6744   */\n      0x00\n        /* \"#utility.yul\":6777:6819   */\n      0xffffffffffffffffffffffffffffffffffffffff\n        /* \"#utility.yul\":6770:6775   */\n      dup3\n        /* \"#utility.yul\":6766:6820   */\n      and\n        /* \"#utility.yul\":6755:6820   */\n      swap1\n      pop\n        /* \"#utility.yul\":6700:6826   */\n      swap2\n      swap1\n      pop\n      jump\t// out\n        /* \"#utility.yul\":6832:6936   */\n    tag_406:\n        /* \"#utility.yul\":6877:6884   */\n      0x00\n        /* \"#utility.yul\":6906:6930   */\n      tag_545\n        /* \"#utility.yul\":6924:6929   */\n      dup3\n        /* \"#utility.yul\":6906:6930   */\n      tag_405\n      jump\t// in\n    tag_545:\n        /* \"#utility.yul\":6895:6930   */\n      swap1\n      pop\n        /* \"#utility.yul\":6832:6936   */\n      swap2\n      swap1\n      pop\n      jump\t// out\n        /* \"#utility.yul\":6942:7080   */\n    tag_407:\n        /* \"#utility.yul\":7023:7055   */\n      tag_547\n        /* \"#utility.yul\":7049:7054   */\n      dup2\n        /* \"#utility.yul\":7023:7055   */\n      tag_406\n      jump\t// in\n    tag_547:\n        /* \"#utility.yul\":7016:7021   */\n      dup2\n        /* \"#utility.yul\":7013:7056   */\n      eq\n        /* \"#utility.yul\":7003:7074   */\n      tag_548\n      jumpi\n        /* \"#utility.yul\":7070:7071   */\n      0x00\n        /* \"#utility.yul\":7067:7068   */\n      dup1\n        /* \"#utility.yul\":7060:7072   */\n      revert\n        /* \"#utility.yul\":7003:7074   */\n    tag_548:\n        /* \"#utility.yul\":6942:7080   */\n      pop\n      jump\t// out\n        /* \"#utility.yul\":7086:7241   */\n    tag_408:\n        /* \"#utility.yul\":7140:7145   */\n      0x00\n        /* \"#utility.yul\":7178:7184   */\n      dup2\n        /* \"#utility.yul\":7165:7185   */\n      calldataload\n        /* \"#utility.yul\":7156:7185   */\n      swap1\n      pop\n        /* \"#utility.yul\":7194:7235   */\n      tag_550\n        /* \"#utility.yul\":7229:7234   */\n      dup2\n        /* \"#utility.yul\":7194:7235   */\n      tag_407\n      jump\t// in\n    tag_550:\n        /* \"#utility.yul\":7086:7241   */\n      swap3\n      swap2\n      pop\n      pop\n      jump\t// out\n        /* \"#utility.yul\":7247:7737   */\n    tag_25:\n        /* \"#utility.yul\":7323:7329   */\n      0x00\n        /* \"#utility.yul\":7331:7337   */\n      dup1\n        /* \"#utility.yul\":7380:7382   */\n      0x40\n        /* \"#utility.yul\":7368:7377   */\n      dup4\n        /* \"#utility.yul\":7359:7366   */\n      dup6\n        /* \"#utility.yul\":7355:7378   */\n      sub\n        /* \"#utility.yul\":7351:7383   */\n      slt\n        /* \"#utility.yul\":7348:7467   */\n      iszero\n      tag_552\n      jumpi\n        /* \"#utility.yul\":7386:7465   */\n      tag_553\n      tag_384\n      jump\t// in\n    tag_553:\n        /* \"#utility.yul\":7348:7467   */\n    tag_552:\n        /* \"#utility.yul\":7506:7507   */\n      0x00\n        /* \"#utility.yul\":7531:7584   */\n      tag_554\n        /* \"#utility.yul\":7576:7583   */\n      dup6\n        /* \"#utility.yul\":7567:7573   */\n      dup3\n        /* \"#utility.yul\":7556:7565   */\n      dup7\n        /* \"#utility.yul\":7552:7574   */\n      add\n        /* \"#utility.yul\":7531:7584   */\n      tag_391\n      jump\t// in\n    tag_554:\n        /* \"#utility.yul\":7521:7584   */\n      swap3\n      pop\n        /* \"#utility.yul\":7477:7594   */\n      pop\n        /* \"#utility.yul\":7633:7635   */\n      0x20\n        /* \"#utility.yul\":7659:7720   */\n      tag_555\n        /* \"#utility.yul\":7712:7719   */\n      dup6\n        /* \"#utility.yul\":7703:7709   */\n      dup3\n        /* \"#utility.yul\":7692:7701   */\n      dup7\n        /* \"#utility.yul\":7688:7710   */\n      add\n        /* \"#utility.yul\":7659:7720   */\n      tag_408\n      jump\t// in\n    tag_555:\n        /* \"#utility.yul\":7649:7720   */\n      swap2\n      pop\n        /* \"#utility.yul\":7604:7730   */\n      pop\n        /* \"#utility.yul\":7247:7737   */\n      swap3\n      pop\n      swap3\n      swap1\n      pop\n      jump\t// out\n        /* \"#utility.yul\":7743:7860   */\n    tag_409:\n        /* \"#utility.yul\":7852:7853   */\n      0x00\n        /* \"#utility.yul\":7849:7850   */\n      dup1\n        /* \"#utility.yul\":7842:7854   */\n      revert\n        /* \"#utility.yul\":7883:8451   */\n    tag_410:\n        /* \"#utility.yul\":7956:7964   */\n      0x00\n        /* \"#utility.yul\":7966:7972   */\n      dup1\n        /* \"#utility.yul\":8016:8019   */\n      dup4\n        /* \"#utility.yul\":8009:8013   */\n      0x1f\n        /* \"#utility.yul\":8001:8007   */\n      dup5\n        /* \"#utility.yul\":7997:8014   */\n      add\n        /* \"#utility.yul\":7993:8020   */\n      slt\n        /* \"#utility.yul\":7983:8105   */\n      tag_558\n      jumpi\n        /* \"#utility.yul\":8024:8103   */\n      tag_559\n      tag_392\n      jump\t// in\n    tag_559:\n        /* \"#utility.yul\":7983:8105   */\n    tag_558:\n        /* \"#utility.yul\":8137:8143   */\n      dup3\n        /* \"#utility.yul\":8124:8144   */\n      calldataload\n        /* \"#utility.yul\":8114:8144   */\n      swap1\n      pop\n        /* \"#utility.yul\":8167:8185   */\n      0xffffffffffffffff\n        /* \"#utility.yul\":8159:8165   */\n      dup2\n        /* \"#utility.yul\":8156:8186   */\n      gt\n        /* \"#utility.yul\":8153:8270   */\n      iszero\n      tag_560\n      jumpi\n        /* \"#utility.yul\":8189:8268   */\n      tag_561\n      tag_409\n      jump\t// in\n    tag_561:\n        /* \"#utility.yul\":8153:8270   */\n    tag_560:\n        /* \"#utility.yul\":8303:8307   */\n      0x20\n        /* \"#utility.yul\":8295:8301   */\n      dup4\n        /* \"#utility.yul\":8291:8308   */\n      add\n        /* \"#utility.yul\":8279:8308   */\n      swap2\n      pop\n        /* \"#utility.yul\":8357:8360   */\n      dup4\n        /* \"#utility.yul\":8349:8353   */\n      0x20\n        /* \"#utility.yul\":8341:8347   */\n      dup3\n        /* \"#utility.yul\":8337:8354   */\n      mul\n        /* \"#utility.yul\":8327:8335   */\n      dup4\n        /* \"#utility.yul\":8323:8355   */\n      add\n        /* \"#utility.yul\":8320:8361   */\n      gt\n        /* \"#utility.yul\":8317:8445   */\n      iszero\n      tag_562\n      jumpi\n        /* \"#utility.yul\":8364:8443   */\n      tag_563\n      tag_397\n      jump\t// in\n    tag_563:\n        /* \"#utility.yul\":8317:8445   */\n    tag_562:\n        /* \"#utility.yul\":7883:8451   */\n      swap3\n      pop\n      swap3\n      swap1\n      pop\n      jump\t// out\n        /* \"#utility.yul\":8457:9744   */\n    tag_29:\n        /* \"#utility.yul\":8588:8594   */\n      0x00\n        /* \"#utility.yul\":8596:8602   */\n      dup1\n        /* \"#utility.yul\":8604:8610   */\n      0x00\n        /* \"#utility.yul\":8612:8618   */\n      dup1\n        /* \"#utility.yul\":8620:8626   */\n      0x00\n        /* \"#utility.yul\":8628:8634   */\n      dup1\n        /* \"#utility.yul\":8636:8642   */\n      0x00\n        /* \"#utility.yul\":8685:8688   */\n      0xc0\n        /* \"#utility.yul\":8673:8682   */\n      dup9\n        /* \"#utility.yul\":8664:8671   */\n      dup11\n        /* \"#utility.yul\":8660:8683   */\n      sub\n        /* \"#utility.yul\":8656:8689   */\n      slt\n        /* \"#utility.yul\":8653:8773   */\n      iszero\n      tag_565\n      jumpi\n        /* \"#utility.yul\":8692:8771   */\n      tag_566\n      tag_384\n      jump\t// in\n    tag_566:\n        /* \"#utility.yul\":8653:8773   */\n    tag_565:\n        /* \"#utility.yul\":8812:8813   */\n      0x00\n        /* \"#utility.yul\":8837:8890   */\n      tag_567\n        /* \"#utility.yul\":8882:8889   */\n      dup11\n        /* \"#utility.yul\":8873:8879   */\n      dup3\n        /* \"#utility.yul\":8862:8871   */\n      dup12\n        /* \"#utility.yul\":8858:8880   */\n      add\n        /* \"#utility.yul\":8837:8890   */\n      tag_388\n      jump\t// in\n    tag_567:\n        /* \"#utility.yul\":8827:8890   */\n      swap8\n      pop\n        /* \"#utility.yul\":8783:8900   */\n      pop\n        /* \"#utility.yul\":8939:8941   */\n      0x20\n        /* \"#utility.yul\":8965:9018   */\n      tag_568\n        /* \"#utility.yul\":9010:9017   */\n      dup11\n        /* \"#utility.yul\":9001:9007   */\n      dup3\n        /* \"#utility.yul\":8990:8999   */\n      dup12\n        /* \"#utility.yul\":8986:9008   */\n      add\n        /* \"#utility.yul\":8965:9018   */\n      tag_391\n      jump\t// in\n    tag_568:\n        /* \"#utility.yul\":8955:9018   */\n      swap7\n      pop\n        /* \"#utility.yul\":8910:9028   */\n      pop\n        /* \"#utility.yul\":9067:9069   */\n      0x40\n        /* \"#utility.yul\":9093:9146   */\n      tag_569\n        /* \"#utility.yul\":9138:9145   */\n      dup11\n        /* \"#utility.yul\":9129:9135   */\n      dup3\n        /* \"#utility.yul\":9118:9127   */\n      dup12\n        /* \"#utility.yul\":9114:9136   */\n      add\n        /* \"#utility.yul\":9093:9146   */\n      tag_391\n      jump\t// in\n    tag_569:\n        /* \"#utility.yul\":9083:9146   */\n      swap6\n      pop\n        /* \"#utility.yul\":9038:9156   */\n      pop\n        /* \"#utility.yul\":9195:9197   */\n      0x60\n        /* \"#utility.yul\":9221:9274   */\n      tag_570\n        /* \"#utility.yul\":9266:9273   */\n      dup11\n        /* \"#utility.yul\":9257:9263   */\n      dup3\n        /* \"#utility.yul\":9246:9255   */\n      dup12\n        /* \"#utility.yul\":9242:9264   */\n      add\n        /* \"#utility.yul\":9221:9274   */\n      tag_391\n      jump\t// in\n    tag_570:\n        /* \"#utility.yul\":9211:9274   */\n      swap5\n      pop\n        /* \"#utility.yul\":9166:9284   */\n      pop\n        /* \"#utility.yul\":9323:9326   */\n      0x80\n        /* \"#utility.yul\":9350:9403   */\n      tag_571\n        /* \"#utility.yul\":9395:9402   */\n      dup11\n        /* \"#utility.yul\":9386:9392   */\n      dup3\n        /* \"#utility.yul\":9375:9384   */\n      dup12\n        /* \"#utility.yul\":9371:9393   */\n      add\n        /* \"#utility.yul\":9350:9403   */\n      tag_391\n      jump\t// in\n    tag_571:\n        /* \"#utility.yul\":9340:9403   */\n      swap4\n      pop\n        /* \"#utility.yul\":9294:9413   */\n      pop\n        /* \"#utility.yul\":9480:9483   */\n      0xa0\n        /* \"#utility.yul\":9469:9478   */\n      dup9\n        /* \"#utility.yul\":9465:9484   */\n      add\n        /* \"#utility.yul\":9452:9485   */\n      calldataload\n        /* \"#utility.yul\":9512:9530   */\n      0xffffffffffffffff\n        /* \"#utility.yul\":9504:9510   */\n      dup2\n        /* \"#utility.yul\":9501:9531   */\n      gt\n        /* \"#utility.yul\":9498:9615   */\n      iszero\n      tag_572\n      jumpi\n        /* \"#utility.yul\":9534:9613   */\n      tag_573\n      tag_385\n      jump\t// in\n    tag_573:\n        /* \"#utility.yul\":9498:9615   */\n    tag_572:\n        /* \"#utility.yul\":9647:9727   */\n      tag_574\n        /* \"#utility.yul\":9719:9726   */\n      dup11\n        /* \"#utility.yul\":9710:9716   */\n      dup3\n        /* \"#utility.yul\":9699:9708   */\n      dup12\n        /* \"#utility.yul\":9695:9717   */\n      add\n        /* \"#utility.yul\":9647:9727   */\n      tag_410\n      jump\t// in\n    tag_574:\n        /* \"#utility.yul\":9629:9727   */\n      swap3\n      pop\n      swap3\n      pop\n        /* \"#utility.yul\":9423:9737   */\n      pop\n        /* \"#utility.yul\":8457:9744   */\n      swap3\n      swap6\n      swap9\n      swap2\n      swap5\n      swap8\n      pop\n      swap3\n      swap6\n      pop\n      jump\t// out\n        /* \"#utility.yul\":9750:9846   */\n    tag_411:\n        /* \"#utility.yul\":9787:9794   */\n      0x00\n        /* \"#utility.yul\":9816:9840   */\n      tag_576\n        /* \"#utility.yul\":9834:9839   */\n      dup3\n        /* \"#utility.yul\":9816:9840   */\n      tag_405\n      jump\t// in\n    tag_576:\n        /* \"#utility.yul\":9805:9840   */\n      swap1\n      pop\n        /* \"#utility.yul\":9750:9846   */\n      swap2\n      swap1\n      pop\n      jump\t// out\n        /* \"#utility.yul\":9852:9974   */\n    tag_412:\n        /* \"#utility.yul\":9925:9949   */\n      tag_578\n        /* \"#utility.yul\":9943:9948   */\n      dup2\n        /* \"#utility.yul\":9925:9949   */\n      tag_411\n      jump\t// in\n    tag_578:\n        /* \"#utility.yul\":9918:9923   */\n      dup2\n        /* \"#utility.yul\":9915:9950   */\n      eq\n        /* \"#utility.yul\":9905:9968   */\n      tag_579\n      jumpi\n        /* \"#utility.yul\":9964:9965   */\n      0x00\n        /* \"#utility.yul\":9961:9962   */\n      dup1\n        /* \"#utility.yul\":9954:9966   */\n      revert\n        /* \"#utility.yul\":9905:9968   */\n    tag_579:\n        /* \"#utility.yul\":9852:9974   */\n      pop\n      jump\t// out\n        /* \"#utility.yul\":9980:10119   */\n    tag_413:\n        /* \"#utility.yul\":10026:10031   */\n      0x00\n        /* \"#utility.yul\":10064:10070   */\n      dup2\n        /* \"#utility.yul\":10051:10071   */\n      calldataload\n        /* \"#utility.yul\":10042:10071   */\n      swap1\n      pop\n        /* \"#utility.yul\":10080:10113   */\n      tag_581\n        /* \"#utility.yul\":10107:10112   */\n      dup2\n        /* \"#utility.yul\":10080:10113   */\n      tag_412\n      jump\t// in\n    tag_581:\n        /* \"#utility.yul\":9980:10119   */\n      swap3\n      swap2\n      pop\n      pop\n      jump\t// out\n        /* \"#utility.yul\":10125:10454   */\n    tag_33:\n        /* \"#utility.yul\":10184:10190   */\n      0x00\n        /* \"#utility.yul\":10233:10235   */\n      0x20\n        /* \"#utility.yul\":10221:10230   */\n      dup3\n        /* \"#utility.yul\":10212:10219   */\n      dup5\n        /* \"#utility.yul\":10208:10231   */\n      sub\n        /* \"#utility.yul\":10204:10236   */\n      slt\n        /* \"#utility.yul\":10201:10320   */\n      iszero\n      tag_583\n      jumpi\n        /* \"#utility.yul\":10239:10318   */\n      tag_584\n      tag_384\n      jump\t// in\n    tag_584:\n        /* \"#utility.yul\":10201:10320   */\n    tag_583:\n        /* \"#utility.yul\":10359:10360   */\n      0x00\n        /* \"#utility.yul\":10384:10437   */\n      tag_585\n        /* \"#utility.yul\":10429:10436   */\n      dup5\n        /* \"#utility.yul\":10420:10426   */\n      dup3\n        /* \"#utility.yul\":10409:10418   */\n      dup6\n        /* \"#utility.yul\":10405:10427   */\n      add\n        /* \"#utility.yul\":10384:10437   */\n      tag_413\n      jump\t// in\n    tag_585:\n        /* \"#utility.yul\":10374:10437   */\n      swap2\n      pop\n        /* \"#utility.yul\":10330:10447   */\n      pop\n        /* \"#utility.yul\":10125:10454   */\n      swap3\n      swap2\n      pop\n      pop\n      jump\t// out\n        /* \"#utility.yul\":10460:10934   */\n    tag_40:\n        /* \"#utility.yul\":10528:10534   */\n      0x00\n        /* \"#utility.yul\":10536:10542   */\n      dup1\n        /* \"#utility.yul\":10585:10587   */\n      0x40\n        /* \"#utility.yul\":10573:10582   */\n      dup4\n        /* \"#utility.yul\":10564:10571   */\n      dup6\n        /* \"#utility.yul\":10560:10583   */\n      sub\n        /* \"#utility.yul\":10556:10588   */\n      slt\n        /* \"#utility.yul\":10553:10672   */\n      iszero\n      tag_587\n      jumpi\n        /* \"#utility.yul\":10591:10670   */\n      tag_588\n      tag_384\n      jump\t// in\n    tag_588:\n        /* \"#utility.yul\":10553:10672   */\n    tag_587:\n        /* \"#utility.yul\":10711:10712   */\n      0x00\n        /* \"#utility.yul\":10736:10789   */\n      tag_589\n        /* \"#utility.yul\":10781:10788   */\n      dup6\n        /* \"#utility.yul\":10772:10778   */\n      dup3\n        /* \"#utility.yul\":10761:10770   */\n      dup7\n        /* \"#utility.yul\":10757:10779   */\n      add\n        /* \"#utility.yul\":10736:10789   */\n      tag_388\n      jump\t// in\n    tag_589:\n        /* \"#utility.yul\":10726:10789   */\n      swap3\n      pop\n        /* \"#utility.yul\":10682:10799   */\n      pop\n        /* \"#utility.yul\":10838:10840   */\n      0x20\n        /* \"#utility.yul\":10864:10917   */\n      tag_590\n        /* \"#utility.yul\":10909:10916   */\n      dup6\n        /* \"#utility.yul\":10900:10906   */\n      dup3\n        /* \"#utility.yul\":10889:10898   */\n      dup7\n        /* \"#utility.yul\":10885:10907   */\n      add\n        /* \"#utility.yul\":10864:10917   */\n      tag_391\n      jump\t// in\n    tag_590:\n        /* \"#utility.yul\":10854:10917   */\n      swap2\n      pop\n        /* \"#utility.yul\":10809:10927   */\n      pop\n        /* \"#utility.yul\":10460:10934   */\n      swap3\n      pop\n      swap3\n      swap1\n      pop\n      jump\t// out\n        /* \"#utility.yul\":10940:11038   */\n    tag_414:\n        /* \"#utility.yul\":10991:10997   */\n      0x00\n        /* \"#utility.yul\":11025:11030   */\n      dup2\n        /* \"#utility.yul\":11019:11031   */\n      mload\n        /* \"#utility.yul\":11009:11031   */\n      swap1\n      pop\n        /* \"#utility.yul\":10940:11038   */\n      swap2\n      swap1\n      pop\n      jump\t// out\n        /* \"#utility.yul\":11044:11212   */\n    tag_415:\n        /* \"#utility.yul\":11127:11138   */\n      0x00\n        /* \"#utility.yul\":11161:11167   */\n      dup3\n        /* \"#utility.yul\":11156:11159   */\n      dup3\n        /* \"#utility.yul\":11149:11168   */\n      mstore\n        /* \"#utility.yul\":11201:11205   */\n      0x20\n        /* \"#utility.yul\":11196:11199   */\n      dup3\n        /* \"#utility.yul\":11192:11206   */\n      add\n        /* \"#utility.yul\":11177:11206   */\n      swap1\n      pop\n        /* \"#utility.yul\":11044:11212   */\n      swap3\n      swap2\n      pop\n      pop\n      jump\t// out\n        /* \"#utility.yul\":11218:11525   */\n    tag_416:\n        /* \"#utility.yul\":11286:11287   */\n      0x00\n        /* \"#utility.yul\":11296:11409   */\n    tag_594:\n        /* \"#utility.yul\":11310:11316   */\n      dup4\n        /* \"#utility.yul\":11307:11308   */\n      dup2\n        /* \"#utility.yul\":11304:11317   */\n      lt\n        /* \"#utility.yul\":11296:11409   */\n      iszero\n      tag_596\n      jumpi\n        /* \"#utility.yul\":11395:11396   */\n      dup1\n        /* \"#utility.yul\":11390:11393   */\n      dup3\n        /* \"#utility.yul\":11386:11397   */\n      add\n        /* \"#utility.yul\":11380:11398   */\n      mload\n        /* \"#utility.yul\":11376:11377   */\n      dup2\n        /* \"#utility.yul\":11371:11374   */\n      dup5\n        /* \"#utility.yul\":11367:11378   */\n      add\n        /* \"#utility.yul\":11360:11399   */\n      mstore\n        /* \"#utility.yul\":11332:11334   */\n      0x20\n        /* \"#utility.yul\":11329:11330   */\n      dup2\n        /* \"#utility.yul\":11325:11335   */\n      add\n        /* \"#utility.yul\":11320:11335   */\n      swap1\n      pop\n        /* \"#utility.yul\":11296:11409   */\n      jump(tag_594)\n    tag_596:\n        /* \"#utility.yul\":11427:11433   */\n      dup4\n        /* \"#utility.yul\":11424:11425   */\n      dup2\n        /* \"#utility.yul\":11421:11434   */\n      gt\n        /* \"#utility.yul\":11418:11519   */\n      iszero\n      tag_597\n      jumpi\n        /* \"#utility.yul\":11507:11508   */\n      0x00\n        /* \"#utility.yul\":11498:11504   */\n      dup5\n        /* \"#utility.yul\":11493:11496   */\n      dup5\n        /* \"#utility.yul\":11489:11505   */\n      add\n        /* \"#utility.yul\":11482:11509   */\n      mstore\n        /* \"#utility.yul\":11418:11519   */\n    tag_597:\n        /* \"#utility.yul\":11267:11525   */\n      pop\n        /* \"#utility.yul\":11218:11525   */\n      pop\n      pop\n      pop\n      jump\t// out\n        /* \"#utility.yul\":11531:11891   */\n    tag_417:\n        /* \"#utility.yul\":11617:11620   */\n      0x00\n        /* \"#utility.yul\":11645:11683   */\n      tag_599\n        /* \"#utility.yul\":11677:11682   */\n      dup3\n        /* \"#utility.yul\":11645:11683   */\n      tag_414\n      jump\t// in\n    tag_599:\n        /* \"#utility.yul\":11699:11769   */\n      tag_600\n        /* \"#utility.yul\":11762:11768   */\n      dup2\n        /* \"#utility.yul\":11757:11760   */\n      dup6\n        /* \"#utility.yul\":11699:11769   */\n      tag_415\n      jump\t// in\n    tag_600:\n        /* \"#utility.yul\":11692:11769   */\n      swap4\n      pop\n        /* \"#utility.yul\":11778:11830   */\n      tag_601\n        /* \"#utility.yul\":11823:11829   */\n      dup2\n        /* \"#utility.yul\":11818:11821   */\n      dup6\n        /* \"#utility.yul\":11811:11815   */\n      0x20\n        /* \"#utility.yul\":11804:11809   */\n      dup7\n        /* \"#utility.yul\":11800:11816   */\n      add\n        /* \"#utility.yul\":11778:11830   */\n      tag_416\n      jump\t// in\n    tag_601:\n        /* \"#utility.yul\":11855:11884   */\n      tag_602\n        /* \"#utility.yul\":11877:11883   */\n      dup2\n        /* \"#utility.yul\":11855:11884   */\n      tag_393\n      jump\t// in\n    tag_602:\n        /* \"#utility.yul\":11850:11853   */\n      dup5\n        /* \"#utility.yul\":11846:11885   */\n      add\n        /* \"#utility.yul\":11839:11885   */\n      swap2\n      pop\n        /* \"#utility.yul\":11621:11891   */\n      pop\n        /* \"#utility.yul\":11531:11891   */\n      swap3\n      swap2\n      pop\n      pop\n      jump\t// out\n        /* \"#utility.yul\":11897:12206   */\n    tag_43:\n        /* \"#utility.yul\":12008:12012   */\n      0x00\n        /* \"#utility.yul\":12046:12048   */\n      0x20\n        /* \"#utility.yul\":12035:12044   */\n      dup3\n        /* \"#utility.yul\":12031:12049   */\n      add\n        /* \"#utility.yul\":12023:12049   */\n      swap1\n      pop\n        /* \"#utility.yul\":12095:12104   */\n      dup2\n        /* \"#utility.yul\":12089:12093   */\n      dup2\n        /* \"#utility.yul\":12085:12105   */\n      sub\n        /* \"#utility.yul\":12081:12082   */\n      0x00\n        /* \"#utility.yul\":12070:12079   */\n      dup4\n        /* \"#utility.yul\":12066:12083   */\n      add\n        /* \"#utility.yul\":12059:12106   */\n      mstore\n        /* \"#utility.yul\":12123:12199   */\n      tag_604\n        /* \"#utility.yul\":12194:12198   */\n      dup2\n        /* \"#utility.yul\":12185:12191   */\n      dup5\n        /* \"#utility.yul\":12123:12199   */\n      tag_417\n      jump\t// in\n    tag_604:\n        /* \"#utility.yul\":12115:12199   */\n      swap1\n      pop\n        /* \"#utility.yul\":11897:12206   */\n      swap3\n      swap2\n      pop\n      pop\n      jump\t// out\n        /* \"#utility.yul\":12212:12330   */\n    tag_418:\n        /* \"#utility.yul\":12299:12323   */\n      tag_606\n        /* \"#utility.yul\":12317:12322   */\n      dup2\n        /* \"#utility.yul\":12299:12323   */\n      tag_411\n      jump\t// in\n    tag_606:\n        /* \"#utility.yul\":12294:12297   */\n      dup3\n        /* \"#utility.yul\":12287:12324   */\n      mstore\n        /* \"#utility.yul\":12212:12330   */\n      pop\n      pop\n      jump\t// out\n        /* \"#utility.yul\":12336:12558   */\n    tag_47:\n        /* \"#utility.yul\":12429:12433   */\n      0x00\n        /* \"#utility.yul\":12467:12469   */\n      0x20\n        /* \"#utility.yul\":12456:12465   */\n      dup3\n        /* \"#utility.yul\":12452:12470   */\n      add\n        /* \"#utility.yul\":12444:12470   */\n      swap1\n      pop\n        /* \"#utility.yul\":12480:12551   */\n      tag_608\n        /* \"#utility.yul\":12548:12549   */\n      0x00\n        /* \"#utility.yul\":12537:12546   */\n      dup4\n        /* \"#utility.yul\":12533:12550   */\n      add\n        /* \"#utility.yul\":12524:12530   */\n      dup5\n        /* \"#utility.yul\":12480:12551   */\n      tag_418\n      jump\t// in\n    tag_608:\n        /* \"#utility.yul\":12336:12558   */\n      swap3\n      swap2\n      pop\n      pop\n      jump\t// out\n        /* \"#utility.yul\":12564:12657   */\n    tag_419:\n        /* \"#utility.yul\":12600:12607   */\n      0x00\n        /* \"#utility.yul\":12640:12650   */\n      0xffffffff\n        /* \"#utility.yul\":12633:12638   */\n      dup3\n        /* \"#utility.yul\":12629:12651   */\n      and\n        /* \"#utility.yul\":12618:12651   */\n      swap1\n      pop\n        /* \"#utility.yul\":12564:12657   */\n      swap2\n      swap1\n      pop\n      jump\t// out\n        /* \"#utility.yul\":12663:12768   */\n    tag_420:\n        /* \"#utility.yul\":12738:12761   */\n      tag_611\n        /* \"#utility.yul\":12755:12760   */\n      dup2\n        /* \"#utility.yul\":12738:12761   */\n      tag_419\n      jump\t// in\n    tag_611:\n        /* \"#utility.yul\":12733:12736   */\n      dup3\n        /* \"#utility.yul\":12726:12762   */\n      mstore\n        /* \"#utility.yul\":12663:12768   */\n      pop\n      pop\n      jump\t// out\n        /* \"#utility.yul\":12774:12860   */\n    tag_421:\n        /* \"#utility.yul\":12809:12816   */\n      0x00\n        /* \"#utility.yul\":12849:12853   */\n      0xff\n        /* \"#utility.yul\":12842:12847   */\n      dup3\n        /* \"#utility.yul\":12838:12854   */\n      and\n        /* \"#utility.yul\":12827:12854   */\n      swap1\n      pop\n        /* \"#utility.yul\":12774:12860   */\n      swap2\n      swap1\n      pop\n      jump\t// out\n        /* \"#utility.yul\":12866:12968   */\n    tag_422:\n        /* \"#utility.yul\":12939:12961   */\n      tag_614\n        /* \"#utility.yul\":12955:12960   */\n      dup2\n        /* \"#utility.yul\":12939:12961   */\n      tag_421\n      jump\t// in\n    tag_614:\n        /* \"#utility.yul\":12934:12937   */\n      dup3\n        /* \"#utility.yul\":12927:12962   */\n      mstore\n        /* \"#utility.yul\":12866:12968   */\n      pop\n      pop\n      jump\t// out\n        /* \"#utility.yul\":12974:13073   */\n    tag_423:\n        /* \"#utility.yul\":13026:13032   */\n      0x00\n        /* \"#utility.yul\":13060:13065   */\n      dup2\n        /* \"#utility.yul\":13054:13066   */\n      mload\n        /* \"#utility.yul\":13044:13066   */\n      swap1\n      pop\n        /* \"#utility.yul\":12974:13073   */\n      swap2\n      swap1\n      pop\n      jump\t// out\n        /* \"#utility.yul\":13079:13238   */\n    tag_424:\n        /* \"#utility.yul\":13153:13164   */\n      0x00\n        /* \"#utility.yul\":13187:13193   */\n      dup3\n        /* \"#utility.yul\":13182:13185   */\n      dup3\n        /* \"#utility.yul\":13175:13194   */\n      mstore\n        /* \"#utility.yul\":13227:13231   */\n      0x20\n        /* \"#utility.yul\":13222:13225   */\n      dup3\n        /* \"#utility.yul\":13218:13232   */\n      add\n        /* \"#utility.yul\":13203:13232   */\n      swap1\n      pop\n        /* \"#utility.yul\":13079:13238   */\n      swap3\n      swap2\n      pop\n      pop\n      jump\t// out\n        /* \"#utility.yul\":13244:13588   */\n    tag_425:\n        /* \"#utility.yul\":13322:13325   */\n      0x00\n        /* \"#utility.yul\":13350:13389   */\n      tag_618\n        /* \"#utility.yul\":13383:13388   */\n      dup3\n        /* \"#utility.yul\":13350:13389   */\n      tag_423\n      jump\t// in\n    tag_618:\n        /* \"#utility.yul\":13405:13466   */\n      tag_619\n        /* \"#utility.yul\":13459:13465   */\n      dup2\n        /* \"#utility.yul\":13454:13457   */\n      dup6\n        /* \"#utility.yul\":13405:13466   */\n      tag_424\n      jump\t// in\n    tag_619:\n        /* \"#utility.yul\":13398:13466   */\n      swap4\n      pop\n        /* \"#utility.yul\":13475:13527   */\n      tag_620\n        /* \"#utility.yul\":13520:13526   */\n      dup2\n        /* \"#utility.yul\":13515:13518   */\n      dup6\n        /* \"#utility.yul\":13508:13512   */\n      0x20\n        /* \"#utility.yul\":13501:13506   */\n      dup7\n        /* \"#utility.yul\":13497:13513   */\n      add\n        /* \"#utility.yul\":13475:13527   */\n      tag_416\n      jump\t// in\n    tag_620:\n        /* \"#utility.yul\":13552:13581   */\n      tag_621\n        /* \"#utility.yul\":13574:13580   */\n      dup2\n        /* \"#utility.yul\":13552:13581   */\n      tag_393\n      jump\t// in\n    tag_621:\n        /* \"#utility.yul\":13547:13550   */\n      dup5\n        /* \"#utility.yul\":13543:13582   */\n      add\n        /* \"#utility.yul\":13536:13582   */\n      swap2\n      pop\n        /* \"#utility.yul\":13326:13588   */\n      pop\n        /* \"#utility.yul\":13244:13588   */\n      swap3\n      swap2\n      pop\n      pop\n      jump\t// out\n        /* \"#utility.yul\":13680:14642   */\n    tag_426:\n        /* \"#utility.yul\":13803:13806   */\n      0x00\n        /* \"#utility.yul\":13839:13843   */\n      0x80\n        /* \"#utility.yul\":13834:13837   */\n      dup4\n        /* \"#utility.yul\":13830:13844   */\n      add\n        /* \"#utility.yul\":13928:13932   */\n      0x00\n        /* \"#utility.yul\":13921:13926   */\n      dup4\n        /* \"#utility.yul\":13917:13933   */\n      add\n        /* \"#utility.yul\":13911:13934   */\n      mload\n        /* \"#utility.yul\":13947:14008   */\n      tag_623\n        /* \"#utility.yul\":14002:14006   */\n      0x00\n        /* \"#utility.yul\":13997:14000   */\n      dup7\n        /* \"#utility.yul\":13993:14007   */\n      add\n        /* \"#utility.yul\":13979:13991   */\n      dup3\n        /* \"#utility.yul\":13947:14008   */\n      tag_420\n      jump\t// in\n    tag_623:\n        /* \"#utility.yul\":13854:14018   */\n      pop\n        /* \"#utility.yul\":14105:14109   */\n      0x20\n        /* \"#utility.yul\":14098:14103   */\n      dup4\n        /* \"#utility.yul\":14094:14110   */\n      add\n        /* \"#utility.yul\":14088:14111   */\n      mload\n        /* \"#utility.yul\":14124:14183   */\n      tag_624\n        /* \"#utility.yul\":14177:14181   */\n      0x20\n        /* \"#utility.yul\":14172:14175   */\n      dup7\n        /* \"#utility.yul\":14168:14182   */\n      add\n        /* \"#utility.yul\":14154:14166   */\n      dup3\n        /* \"#utility.yul\":14124:14183   */\n      tag_422\n      jump\t// in\n    tag_624:\n        /* \"#utility.yul\":14028:14193   */\n      pop\n        /* \"#utility.yul\":14280:14284   */\n      0x40\n        /* \"#utility.yul\":14273:14278   */\n      dup4\n        /* \"#utility.yul\":14269:14285   */\n      add\n        /* \"#utility.yul\":14263:14286   */\n      mload\n        /* \"#utility.yul\":14299:14358   */\n      tag_625\n        /* \"#utility.yul\":14352:14356   */\n      0x40\n        /* \"#utility.yul\":14347:14350   */\n      dup7\n        /* \"#utility.yul\":14343:14357   */\n      add\n        /* \"#utility.yul\":14329:14341   */\n      dup3\n        /* \"#utility.yul\":14299:14358   */\n      tag_422\n      jump\t// in\n    tag_625:\n        /* \"#utility.yul\":14203:14368   */\n      pop\n        /* \"#utility.yul\":14452:14456   */\n      0x60\n        /* \"#utility.yul\":14445:14450   */\n      dup4\n        /* \"#utility.yul\":14441:14457   */\n      add\n        /* \"#utility.yul\":14435:14458   */\n      mload\n        /* \"#utility.yul\":14505:14508   */\n      dup5\n        /* \"#utility.yul\":14499:14503   */\n      dup3\n        /* \"#utility.yul\":14495:14509   */\n      sub\n        /* \"#utility.yul\":14488:14492   */\n      0x60\n        /* \"#utility.yul\":14483:14486   */\n      dup7\n        /* \"#utility.yul\":14479:14493   */\n      add\n        /* \"#utility.yul\":14472:14510   */\n      mstore\n        /* \"#utility.yul\":14531:14604   */\n      tag_626\n        /* \"#utility.yul\":14599:14603   */\n      dup3\n        /* \"#utility.yul\":14585:14597   */\n      dup3\n        /* \"#utility.yul\":14531:14604   */\n      tag_425\n      jump\t// in\n    tag_626:\n        /* \"#utility.yul\":14523:14604   */\n      swap2\n      pop\n        /* \"#utility.yul\":14378:14615   */\n      pop\n        /* \"#utility.yul\":14632:14636   */\n      dup1\n        /* \"#utility.yul\":14625:14636   */\n      swap2\n      pop\n        /* \"#utility.yul\":13808:14642   */\n      pop\n        /* \"#utility.yul\":13680:14642   */\n      swap3\n      swap2\n      pop\n      pop\n      jump\t// out\n        /* \"#utility.yul\":14648:15029   */\n    tag_52:\n        /* \"#utility.yul\":14795:14799   */\n      0x00\n        /* \"#utility.yul\":14833:14835   */\n      0x20\n        /* \"#utility.yul\":14822:14831   */\n      dup3\n        /* \"#utility.yul\":14818:14836   */\n      add\n        /* \"#utility.yul\":14810:14836   */\n      swap1\n      pop\n        /* \"#utility.yul\":14882:14891   */\n      dup2\n        /* \"#utility.yul\":14876:14880   */\n      dup2\n        /* \"#utility.yul\":14872:14892   */\n      sub\n        /* \"#utility.yul\":14868:14869   */\n      0x00\n        /* \"#utility.yul\":14857:14866   */\n      dup4\n        /* \"#utility.yul\":14853:14870   */\n      add\n        /* \"#utility.yul\":14846:14893   */\n      mstore\n        /* \"#utility.yul\":14910:15022   */\n      tag_628\n        /* \"#utility.yul\":15017:15021   */\n      dup2\n        /* \"#utility.yul\":15008:15014   */\n      dup5\n        /* \"#utility.yul\":14910:15022   */\n      tag_426\n      jump\t// in\n    tag_628:\n        /* \"#utility.yul\":14902:15022   */\n      swap1\n      pop\n        /* \"#utility.yul\":14648:15029   */\n      swap3\n      swap2\n      pop\n      pop\n      jump\t// out\n        /* \"#utility.yul\":15035:15130   */\n    tag_427:\n        /* \"#utility.yul\":15071:15078   */\n      0x00\n        /* \"#utility.yul\":15111:15123   */\n      0xffffffffff\n        /* \"#utility.yul\":15104:15109   */\n      dup3\n        /* \"#utility.yul\":15100:15124   */\n      and\n        /* \"#utility.yul\":15089:15124   */\n      swap1\n      pop\n        /* \"#utility.yul\":15035:15130   */\n      swap2\n      swap1\n      pop\n      jump\t// out\n        /* \"#utility.yul\":15136:15241   */\n    tag_428:\n        /* \"#utility.yul\":15211:15234   */\n      tag_631\n        /* \"#utility.yul\":15228:15233   */\n      dup2\n        /* \"#utility.yul\":15211:15234   */\n      tag_427\n      jump\t// in\n    tag_631:\n        /* \"#utility.yul\":15206:15209   */\n      dup3\n        /* \"#utility.yul\":15199:15235   */\n      mstore\n        /* \"#utility.yul\":15136:15241   */\n      pop\n      pop\n      jump\t// out\n        /* \"#utility.yul\":15331:16369   */\n    tag_429:\n        /* \"#utility.yul\":15452:15455   */\n      0x00\n        /* \"#utility.yul\":15488:15492   */\n      0x80\n        /* \"#utility.yul\":15483:15486   */\n      dup4\n        /* \"#utility.yul\":15479:15493   */\n      add\n        /* \"#utility.yul\":15577:15581   */\n      0x00\n        /* \"#utility.yul\":15570:15575   */\n      dup4\n        /* \"#utility.yul\":15566:15582   */\n      add\n        /* \"#utility.yul\":15560:15583   */\n      mload\n        /* \"#utility.yul\":15596:15657   */\n      tag_633\n        /* \"#utility.yul\":15651:15655   */\n      0x00\n        /* \"#utility.yul\":15646:15649   */\n      dup7\n        /* \"#utility.yul\":15642:15656   */\n      add\n        /* \"#utility.yul\":15628:15640   */\n      dup3\n        /* \"#utility.yul\":15596:15657   */\n      tag_420\n      jump\t// in\n    tag_633:\n        /* \"#utility.yul\":15503:15667   */\n      pop\n        /* \"#utility.yul\":15754:15758   */\n      0x20\n        /* \"#utility.yul\":15747:15752   */\n      dup4\n        /* \"#utility.yul\":15743:15759   */\n      add\n        /* \"#utility.yul\":15737:15760   */\n      mload\n        /* \"#utility.yul\":15773:15834   */\n      tag_634\n        /* \"#utility.yul\":15828:15832   */\n      0x20\n        /* \"#utility.yul\":15823:15826   */\n      dup7\n        /* \"#utility.yul\":15819:15833   */\n      add\n        /* \"#utility.yul\":15805:15817   */\n      dup3\n        /* \"#utility.yul\":15773:15834   */\n      tag_428\n      jump\t// in\n    tag_634:\n        /* \"#utility.yul\":15677:15844   */\n      pop\n        /* \"#utility.yul\":15930:15934   */\n      0x40\n        /* \"#utility.yul\":15923:15928   */\n      dup4\n        /* \"#utility.yul\":15919:15935   */\n      add\n        /* \"#utility.yul\":15913:15936   */\n      mload\n        /* \"#utility.yul\":15983:15986   */\n      dup5\n        /* \"#utility.yul\":15977:15981   */\n      dup3\n        /* \"#utility.yul\":15973:15987   */\n      sub\n        /* \"#utility.yul\":15966:15970   */\n      0x40\n        /* \"#utility.yul\":15961:15964   */\n      dup7\n        /* \"#utility.yul\":15957:15971   */\n      add\n        /* \"#utility.yul\":15950:15988   */\n      mstore\n        /* \"#utility.yul\":16009:16082   */\n      tag_635\n        /* \"#utility.yul\":16077:16081   */\n      dup3\n        /* \"#utility.yul\":16063:16075   */\n      dup3\n        /* \"#utility.yul\":16009:16082   */\n      tag_425\n      jump\t// in\n    tag_635:\n        /* \"#utility.yul\":16001:16082   */\n      swap2\n      pop\n        /* \"#utility.yul\":15854:16093   */\n      pop\n        /* \"#utility.yul\":16179:16183   */\n      0x60\n        /* \"#utility.yul\":16172:16177   */\n      dup4\n        /* \"#utility.yul\":16168:16184   */\n      add\n        /* \"#utility.yul\":16162:16185   */\n      mload\n        /* \"#utility.yul\":16232:16235   */\n      dup5\n        /* \"#utility.yul\":16226:16230   */\n      dup3\n        /* \"#utility.yul\":16222:16236   */\n      sub\n        /* \"#utility.yul\":16215:16219   */\n      0x60\n        /* \"#utility.yul\":16210:16213   */\n      dup7\n        /* \"#utility.yul\":16206:16220   */\n      add\n        /* \"#utility.yul\":16199:16237   */\n      mstore\n        /* \"#utility.yul\":16258:16331   */\n      tag_636\n        /* \"#utility.yul\":16326:16330   */\n      dup3\n        /* \"#utility.yul\":16312:16324   */\n      dup3\n        /* \"#utility.yul\":16258:16331   */\n      tag_425\n      jump\t// in\n    tag_636:\n        /* \"#utility.yul\":16250:16331   */\n      swap2\n      pop\n        /* \"#utility.yul\":16103:16342   */\n      pop\n        /* \"#utility.yul\":16359:16363   */\n      dup1\n        /* \"#utility.yul\":16352:16363   */\n      swap2\n      pop\n        /* \"#utility.yul\":15457:16369   */\n      pop\n        /* \"#utility.yul\":15331:16369   */\n      swap3\n      swap2\n      pop\n      pop\n      jump\t// out\n        /* \"#utility.yul\":16375:16752   */\n    tag_57:\n        /* \"#utility.yul\":16520:16524   */\n      0x00\n        /* \"#utility.yul\":16558:16560   */\n      0x20\n        /* \"#utility.yul\":16547:16556   */\n      dup3\n        /* \"#utility.yul\":16543:16561   */\n      add\n        /* \"#utility.yul\":16535:16561   */\n      swap1\n      pop\n        /* \"#utility.yul\":16607:16616   */\n      dup2\n        /* \"#utility.yul\":16601:16605   */\n      dup2\n        /* \"#utility.yul\":16597:16617   */\n      sub\n        /* \"#utility.yul\":16593:16594   */\n      0x00\n        /* \"#utility.yul\":16582:16591   */\n      dup4\n        /* \"#utility.yul\":16578:16595   */\n      add\n        /* \"#utility.yul\":16571:16618   */\n      mstore\n        /* \"#utility.yul\":16635:16745   */\n      tag_638\n        /* \"#utility.yul\":16740:16744   */\n      dup2\n        /* \"#utility.yul\":16731:16737   */\n      dup5\n        /* \"#utility.yul\":16635:16745   */\n      tag_429\n      jump\t// in\n    tag_638:\n        /* \"#utility.yul\":16627:16745   */\n      swap1\n      pop\n        /* \"#utility.yul\":16375:16752   */\n      swap3\n      swap2\n      pop\n      pop\n      jump\t// out\n        /* \"#utility.yul\":16758:16907   */\n    tag_430:\n        /* \"#utility.yul\":16794:16801   */\n      0x00\n        /* \"#utility.yul\":16834:16900   */\n      0xffffffff00000000000000000000000000000000000000000000000000000000\n        /* \"#utility.yul\":16827:16832   */\n      dup3\n        /* \"#utility.yul\":16823:16901   */\n      and\n        /* \"#utility.yul\":16812:16901   */\n      swap1\n      pop\n        /* \"#utility.yul\":16758:16907   */\n      swap2\n      swap1\n      pop\n      jump\t// out\n        /* \"#utility.yul\":16913:17033   */\n    tag_431:\n        /* \"#utility.yul\":16985:17008   */\n      tag_641\n        /* \"#utility.yul\":17002:17007   */\n      dup2\n        /* \"#utility.yul\":16985:17008   */\n      tag_430\n      jump\t// in\n    tag_641:\n        /* \"#utility.yul\":16978:16983   */\n      dup2\n        /* \"#utility.yul\":16975:17009   */\n      eq\n        /* \"#utility.yul\":16965:17027   */\n      tag_642\n      jumpi\n        /* \"#utility.yul\":17023:17024   */\n      0x00\n        /* \"#utility.yul\":17020:17021   */\n      dup1\n        /* \"#utility.yul\":17013:17025   */\n      revert\n        /* \"#utility.yul\":16965:17027   */\n    tag_642:\n        /* \"#utility.yul\":16913:17033   */\n      pop\n      jump\t// out\n        /* \"#utility.yul\":17039:17176   */\n    tag_432:\n        /* \"#utility.yul\":17084:17089   */\n      0x00\n        /* \"#utility.yul\":17122:17128   */\n      dup2\n        /* \"#utility.yul\":17109:17129   */\n      calldataload\n        /* \"#utility.yul\":17100:17129   */\n      swap1\n      pop\n        /* \"#utility.yul\":17138:17170   */\n      tag_644\n        /* \"#utility.yul\":17164:17169   */\n      dup2\n        /* \"#utility.yul\":17138:17170   */\n      tag_431\n      jump\t// in\n    tag_644:\n        /* \"#utility.yul\":17039:17176   */\n      swap3\n      swap2\n      pop\n      pop\n      jump\t// out\n        /* \"#utility.yul\":17182:17945   */\n    tag_60:\n        /* \"#utility.yul\":17267:17273   */\n      0x00\n        /* \"#utility.yul\":17275:17281   */\n      dup1\n        /* \"#utility.yul\":17283:17289   */\n      0x00\n        /* \"#utility.yul\":17291:17297   */\n      dup1\n        /* \"#utility.yul\":17340:17343   */\n      0x80\n        /* \"#utility.yul\":17328:17337   */\n      dup6\n        /* \"#utility.yul\":17319:17326   */\n      dup8\n        /* \"#utility.yul\":17315:17338   */\n      sub\n        /* \"#utility.yul\":17311:17344   */\n      slt\n        /* \"#utility.yul\":17308:17428   */\n      iszero\n      tag_646\n      jumpi\n        /* \"#utility.yul\":17347:17426   */\n      tag_647\n      tag_384\n      jump\t// in\n    tag_647:\n        /* \"#utility.yul\":17308:17428   */\n    tag_646:\n        /* \"#utility.yul\":17467:17468   */\n      0x00\n        /* \"#utility.yul\":17492:17545   */\n      tag_648\n        /* \"#utility.yul\":17537:17544   */\n      dup8\n        /* \"#utility.yul\":17528:17534   */\n      dup3\n        /* \"#utility.yul\":17517:17526   */\n      dup9\n        /* \"#utility.yul\":17513:17535   */\n      add\n        /* \"#utility.yul\":17492:17545   */\n      tag_388\n      jump\t// in\n    tag_648:\n        /* \"#utility.yul\":17482:17545   */\n      swap5\n      pop\n        /* \"#utility.yul\":17438:17555   */\n      pop\n        /* \"#utility.yul\":17594:17596   */\n      0x20\n        /* \"#utility.yul\":17620:17673   */\n      tag_649\n        /* \"#utility.yul\":17665:17672   */\n      dup8\n        /* \"#utility.yul\":17656:17662   */\n      dup3\n        /* \"#utility.yul\":17645:17654   */\n      dup9\n        /* \"#utility.yul\":17641:17663   */\n      add\n        /* \"#utility.yul\":17620:17673   */\n      tag_391\n      jump\t// in\n    tag_649:\n        /* \"#utility.yul\":17610:17673   */\n      swap4\n      pop\n        /* \"#utility.yul\":17565:17683   */\n      pop\n        /* \"#utility.yul\":17722:17724   */\n      0x40\n        /* \"#utility.yul\":17748:17800   */\n      tag_650\n        /* \"#utility.yul\":17792:17799   */\n      dup8\n        /* \"#utility.yul\":17783:17789   */\n      dup3\n        /* \"#utility.yul\":17772:17781   */\n      dup9\n        /* \"#utility.yul\":17768:17790   */\n      add\n        /* \"#utility.yul\":17748:17800   */\n      tag_432\n      jump\t// in\n    tag_650:\n        /* \"#utility.yul\":17738:17800   */\n      swap3\n      pop\n        /* \"#utility.yul\":17693:17810   */\n      pop\n        /* \"#utility.yul\":17849:17851   */\n      0x60\n        /* \"#utility.yul\":17875:17928   */\n      tag_651\n        /* \"#utility.yul\":17920:17927   */\n      dup8\n        /* \"#utility.yul\":17911:17917   */\n      dup3\n        /* \"#utility.yul\":17900:17909   */\n      dup9\n        /* \"#utility.yul\":17896:17918   */\n      add\n        /* \"#utility.yul\":17875:17928   */\n      tag_391\n      jump\t// in\n    tag_651:\n        /* \"#utility.yul\":17865:17928   */\n      swap2\n      pop\n        /* \"#utility.yul\":17820:17938   */\n      pop\n        /* \"#utility.yul\":17182:17945   */\n      swap3\n      swap6\n      swap2\n      swap5\n      pop\n      swap3\n      pop\n      jump\t// out\n        /* \"#utility.yul\":17951:18011   */\n    tag_433:\n        /* \"#utility.yul\":17979:17982   */\n      0x00\n        /* \"#utility.yul\":18000:18005   */\n      dup2\n        /* \"#utility.yul\":17993:18005   */\n      swap1\n      pop\n        /* \"#utility.yul\":17951:18011   */\n      swap2\n      swap1\n      pop\n      jump\t// out\n        /* \"#utility.yul\":18017:18159   */\n    tag_434:\n        /* \"#utility.yul\":18067:18076   */\n      0x00\n        /* \"#utility.yul\":18100:18153   */\n      tag_654\n        /* \"#utility.yul\":18118:18152   */\n      tag_655\n        /* \"#utility.yul\":18127:18151   */\n      tag_656\n        /* \"#utility.yul\":18145:18150   */\n      dup5\n        /* \"#utility.yul\":18127:18151   */\n      tag_405\n      jump\t// in\n    tag_656:\n        /* \"#utility.yul\":18118:18152   */\n      tag_433\n      jump\t// in\n    tag_655:\n        /* \"#utility.yul\":18100:18153   */\n      tag_405\n      jump\t// in\n    tag_654:\n        /* \"#utility.yul\":18087:18153   */\n      swap1\n      pop\n        /* \"#utility.yul\":18017:18159   */\n      swap2\n      swap1\n      pop\n      jump\t// out\n        /* \"#utility.yul\":18165:18291   */\n    tag_435:\n        /* \"#utility.yul\":18215:18224   */\n      0x00\n        /* \"#utility.yul\":18248:18285   */\n      tag_658\n        /* \"#utility.yul\":18279:18284   */\n      dup3\n        /* \"#utility.yul\":18248:18285   */\n      tag_434\n      jump\t// in\n    tag_658:\n        /* \"#utility.yul\":18235:18285   */\n      swap1\n      pop\n        /* \"#utility.yul\":18165:18291   */\n      swap2\n      swap1\n      pop\n      jump\t// out\n        /* \"#utility.yul\":18297:18431   */\n    tag_436:\n        /* \"#utility.yul\":18355:18364   */\n      0x00\n        /* \"#utility.yul\":18388:18425   */\n      tag_660\n        /* \"#utility.yul\":18419:18424   */\n      dup3\n        /* \"#utility.yul\":18388:18425   */\n      tag_435\n      jump\t// in\n    tag_660:\n        /* \"#utility.yul\":18375:18425   */\n      swap1\n      pop\n        /* \"#utility.yul\":18297:18431   */\n      swap2\n      swap1\n      pop\n      jump\t// out\n        /* \"#utility.yul\":18437:18584   */\n    tag_437:\n        /* \"#utility.yul\":18532:18577   */\n      tag_662\n        /* \"#utility.yul\":18571:18576   */\n      dup2\n        /* \"#utility.yul\":18532:18577   */\n      tag_436\n      jump\t// in\n    tag_662:\n        /* \"#utility.yul\":18527:18530   */\n      dup3\n        /* \"#utility.yul\":18520:18578   */\n      mstore\n        /* \"#utility.yul\":18437:18584   */\n      pop\n      pop\n      jump\t// out\n        /* \"#utility.yul\":18590:18708   */\n    tag_438:\n        /* \"#utility.yul\":18677:18701   */\n      tag_664\n        /* \"#utility.yul\":18695:18700   */\n      dup2\n        /* \"#utility.yul\":18677:18701   */\n      tag_389\n      jump\t// in\n    tag_664:\n        /* \"#utility.yul\":18672:18675   */\n      dup3\n        /* \"#utility.yul\":18665:18702   */\n      mstore\n        /* \"#utility.yul\":18590:18708   */\n      pop\n      pop\n      jump\t// out\n        /* \"#utility.yul\":18714:19062   */\n    tag_79:\n        /* \"#utility.yul\":18843:18847   */\n      0x00\n        /* \"#utility.yul\":18881:18883   */\n      0x40\n        /* \"#utility.yul\":18870:18879   */\n      dup3\n        /* \"#utility.yul\":18866:18884   */\n      add\n        /* \"#utility.yul\":18858:18884   */\n      swap1\n      pop\n        /* \"#utility.yul\":18894:18973   */\n      tag_666\n        /* \"#utility.yul\":18970:18971   */\n      0x00\n        /* \"#utility.yul\":18959:18968   */\n      dup4\n        /* \"#utility.yul\":18955:18972   */\n      add\n        /* \"#utility.yul\":18946:18952   */\n      dup6\n        /* \"#utility.yul\":18894:18973   */\n      tag_437\n      jump\t// in\n    tag_666:\n        /* \"#utility.yul\":18983:19055   */\n      tag_667\n        /* \"#utility.yul\":19051:19053   */\n      0x20\n        /* \"#utility.yul\":19040:19049   */\n      dup4\n        /* \"#utility.yul\":19036:19054   */\n      add\n        /* \"#utility.yul\":19027:19033   */\n      dup5\n        /* \"#utility.yul\":18983:19055   */\n      tag_438\n      jump\t// in\n    tag_667:\n        /* \"#utility.yul\":18714:19062   */\n      swap4\n      swap3\n      pop\n      pop\n      pop\n      jump\t// out\n        /* \"#utility.yul\":19068:19158   */\n    tag_439:\n        /* \"#utility.yul\":19102:19109   */\n      0x00\n        /* \"#utility.yul\":19145:19150   */\n      dup2\n        /* \"#utility.yul\":19138:19151   */\n      iszero\n        /* \"#utility.yul\":19131:19152   */\n      iszero\n        /* \"#utility.yul\":19120:19152   */\n      swap1\n      pop\n        /* \"#utility.yul\":19068:19158   */\n      swap2\n      swap1\n      pop\n      jump\t// out\n        /* \"#utility.yul\":19164:19280   */\n    tag_440:\n        /* \"#utility.yul\":19234:19255   */\n      tag_670\n        /* \"#utility.yul\":19249:19254   */\n      dup2\n        /* \"#utility.yul\":19234:19255   */\n      tag_439\n      jump\t// in\n    tag_670:\n        /* \"#utility.yul\":19227:19232   */\n      dup2\n        /* \"#utility.yul\":19224:19256   */\n      eq\n        /* \"#utility.yul\":19214:19274   */\n      tag_671\n      jumpi\n        /* \"#utility.yul\":19270:19271   */\n      0x00\n        /* \"#utility.yul\":19267:19268   */\n      dup1\n        /* \"#utility.yul\":19260:19272   */\n      revert\n        /* \"#utility.yul\":19214:19274   */\n    tag_671:\n        /* \"#utility.yul\":19164:19280   */\n      pop\n      jump\t// out\n        /* \"#utility.yul\":19286:19423   */\n    tag_441:\n        /* \"#utility.yul\":19340:19345   */\n      0x00\n        /* \"#utility.yul\":19371:19377   */\n      dup2\n        /* \"#utility.yul\":19365:19378   */\n      mload\n        /* \"#utility.yul\":19356:19378   */\n      swap1\n      pop\n        /* \"#utility.yul\":19387:19417   */\n      tag_673\n        /* \"#utility.yul\":19411:19416   */\n      dup2\n        /* \"#utility.yul\":19387:19417   */\n      tag_440\n      jump\t// in\n    tag_673:\n        /* \"#utility.yul\":19286:19423   */\n      swap3\n      swap2\n      pop\n      pop\n      jump\t// out\n        /* \"#utility.yul\":19429:19774   */\n    tag_84:\n        /* \"#utility.yul\":19496:19502   */\n      0x00\n        /* \"#utility.yul\":19545:19547   */\n      0x20\n        /* \"#utility.yul\":19533:19542   */\n      dup3\n        /* \"#utility.yul\":19524:19531   */\n      dup5\n        /* \"#utility.yul\":19520:19543   */\n      sub\n        /* \"#utility.yul\":19516:19548   */\n      slt\n        /* \"#utility.yul\":19513:19632   */\n      iszero\n      tag_675\n      jumpi\n        /* \"#utility.yul\":19551:19630   */\n      tag_676\n      tag_384\n      jump\t// in\n    tag_676:\n        /* \"#utility.yul\":19513:19632   */\n    tag_675:\n        /* \"#utility.yul\":19671:19672   */\n      0x00\n        /* \"#utility.yul\":19696:19757   */\n      tag_677\n        /* \"#utility.yul\":19749:19756   */\n      dup5\n        /* \"#utility.yul\":19740:19746   */\n      dup3\n        /* \"#utility.yul\":19729:19738   */\n      dup6\n        /* \"#utility.yul\":19725:19747   */\n      add\n        /* \"#utility.yul\":19696:19757   */\n      tag_441\n      jump\t// in\n    tag_677:\n        /* \"#utility.yul\":19686:19757   */\n      swap2\n      pop\n        /* \"#utility.yul\":19642:19767   */\n      pop\n        /* \"#utility.yul\":19429:19774   */\n      swap3\n      swap2\n      pop\n      pop\n      jump\t// out\n        /* \"#utility.yul\":19780:19949   */\n    tag_442:\n        /* \"#utility.yul\":19864:19875   */\n      0x00\n        /* \"#utility.yul\":19898:19904   */\n      dup3\n        /* \"#utility.yul\":19893:19896   */\n      dup3\n        /* \"#utility.yul\":19886:19905   */\n      mstore\n        /* \"#utility.yul\":19938:19942   */\n      0x20\n        /* \"#utility.yul\":19933:19936   */\n      dup3\n        /* \"#utility.yul\":19929:19943   */\n      add\n        /* \"#utility.yul\":19914:19943   */\n      swap1\n      pop\n        /* \"#utility.yul\":19780:19949   */\n      swap3\n      swap2\n      pop\n      pop\n      jump\t// out\n        /* \"#utility.yul\":19955:20182   */\n    tag_443:\n        /* \"#utility.yul\":20095:20129   */\n      0x536f75726365206d75737420626520746865206f7261636c65206f6620746865\n        /* \"#utility.yul\":20091:20092   */\n      0x00\n        /* \"#utility.yul\":20083:20089   */\n      dup3\n        /* \"#utility.yul\":20079:20093   */\n      add\n        /* \"#utility.yul\":20072:20130   */\n      mstore\n        /* \"#utility.yul\":20164:20174   */\n      0x2072657175657374000000000000000000000000000000000000000000000000\n        /* \"#utility.yul\":20159:20161   */\n      0x20\n        /* \"#utility.yul\":20151:20157   */\n      dup3\n        /* \"#utility.yul\":20147:20162   */\n      add\n        /* \"#utility.yul\":20140:20175   */\n      mstore\n        /* \"#utility.yul\":19955:20182   */\n      pop\n      jump\t// out\n        /* \"#utility.yul\":20188:20554   */\n    tag_444:\n        /* \"#utility.yul\":20330:20333   */\n      0x00\n        /* \"#utility.yul\":20351:20418   */\n      tag_681\n        /* \"#utility.yul\":20415:20417   */\n      0x28\n        /* \"#utility.yul\":20410:20413   */\n      dup4\n        /* \"#utility.yul\":20351:20418   */\n      tag_442\n      jump\t// in\n    tag_681:\n        /* \"#utility.yul\":20344:20418   */\n      swap2\n      pop\n        /* \"#utility.yul\":20427:20520   */\n      tag_682\n        /* \"#utility.yul\":20516:20519   */\n      dup3\n        /* \"#utility.yul\":20427:20520   */\n      tag_443\n      jump\t// in\n    tag_682:\n        /* \"#utility.yul\":20545:20547   */\n      0x40\n        /* \"#utility.yul\":20540:20543   */\n      dup3\n        /* \"#utility.yul\":20536:20548   */\n      add\n        /* \"#utility.yul\":20529:20548   */\n      swap1\n      pop\n        /* \"#utility.yul\":20188:20554   */\n      swap2\n      swap1\n      pop\n      jump\t// out\n        /* \"#utility.yul\":20560:20979   */\n    tag_100:\n        /* \"#utility.yul\":20726:20730   */\n      0x00\n        /* \"#utility.yul\":20764:20766   */\n      0x20\n        /* \"#utility.yul\":20753:20762   */\n      dup3\n        /* \"#utility.yul\":20749:20767   */\n      add\n        /* \"#utility.yul\":20741:20767   */\n      swap1\n      pop\n        /* \"#utility.yul\":20813:20822   */\n      dup2\n        /* \"#utility.yul\":20807:20811   */\n      dup2\n        /* \"#utility.yul\":20803:20823   */\n      sub\n        /* \"#utility.yul\":20799:20800   */\n      0x00\n        /* \"#utility.yul\":20788:20797   */\n      dup4\n        /* \"#utility.yul\":20784:20801   */\n      add\n        /* \"#utility.yul\":20777:20824   */\n      mstore\n        /* \"#utility.yul\":20841:20972   */\n      tag_684\n        /* \"#utility.yul\":20967:20971   */\n      dup2\n        /* \"#utility.yul\":20841:20972   */\n      tag_444\n      jump\t// in\n    tag_684:\n        /* \"#utility.yul\":20833:20972   */\n      swap1\n      pop\n        /* \"#utility.yul\":20560:20979   */\n      swap2\n      swap1\n      pop\n      jump\t// out\n        /* \"#utility.yul\":20985:21165   */\n    tag_445:\n        /* \"#utility.yul\":21033:21110   */\n      0x4e487b7100000000000000000000000000000000000000000000000000000000\n        /* \"#utility.yul\":21030:21031   */\n      0x00\n        /* \"#utility.yul\":21023:21111   */\n      mstore\n        /* \"#utility.yul\":21130:21134   */\n      0x22\n        /* \"#utility.yul\":21127:21128   */\n      0x04\n        /* \"#utility.yul\":21120:21135   */\n      mstore\n        /* \"#utility.yul\":21154:21158   */\n      0x24\n        /* \"#utility.yul\":21151:21152   */\n      0x00\n        /* \"#utility.yul\":21144:21159   */\n      revert\n        /* \"#utility.yul\":21171:21491   */\n    tag_106:\n        /* \"#utility.yul\":21215:21221   */\n      0x00\n        /* \"#utility.yul\":21252:21253   */\n      0x02\n        /* \"#utility.yul\":21246:21250   */\n      dup3\n        /* \"#utility.yul\":21242:21254   */\n      div\n        /* \"#utility.yul\":21232:21254   */\n      swap1\n      pop\n        /* \"#utility.yul\":21299:21300   */\n      0x01\n        /* \"#utility.yul\":21293:21297   */\n      dup3\n        /* \"#utility.yul\":21289:21301   */\n      and\n        /* \"#utility.yul\":21320:21338   */\n      dup1\n        /* \"#utility.yul\":21310:21391   */\n      tag_687\n      jumpi\n        /* \"#utility.yul\":21376:21380   */\n      0x7f\n        /* \"#utility.yul\":21368:21374   */\n      dup3\n        /* \"#utility.yul\":21364:21381   */\n      and\n        /* \"#utility.yul\":21354:21381   */\n      swap2\n      pop\n        /* \"#utility.yul\":21310:21391   */\n    tag_687:\n        /* \"#utility.yul\":21438:21440   */\n      0x20\n        /* \"#utility.yul\":21430:21436   */\n      dup3\n        /* \"#utility.yul\":21427:21441   */\n      lt\n        /* \"#utility.yul\":21407:21425   */\n      dup2\n        /* \"#utility.yul\":21404:21442   */\n      eq\n        /* \"#utility.yul\":21401:21485   */\n      iszero\n      tag_688\n      jumpi\n        /* \"#utility.yul\":21457:21475   */\n      tag_689\n      tag_445\n      jump\t// in\n    tag_689:\n        /* \"#utility.yul\":21401:21485   */\n    tag_688:\n        /* \"#utility.yul\":21222:21491   */\n      pop\n        /* \"#utility.yul\":21171:21491   */\n      swap2\n      swap1\n      pop\n      jump\t// out\n        /* \"#utility.yul\":21497:21677   */\n    tag_120:\n        /* \"#utility.yul\":21545:21622   */\n      0x4e487b7100000000000000000000000000000000000000000000000000000000\n        /* \"#utility.yul\":21542:21543   */\n      0x00\n        /* \"#utility.yul\":21535:21623   */\n      mstore\n        /* \"#utility.yul\":21642:21646   */\n      0x32\n        /* \"#utility.yul\":21639:21640   */\n      0x04\n        /* \"#utility.yul\":21632:21647   */\n      mstore\n        /* \"#utility.yul\":21666:21670   */\n      0x24\n        /* \"#utility.yul\":21663:21664   */\n      0x00\n        /* \"#utility.yul\":21656:21671   */\n      revert\n        /* \"#utility.yul\":21683:22015   */\n    tag_162:\n        /* \"#utility.yul\":21804:21808   */\n      0x00\n        /* \"#utility.yul\":21842:21844   */\n      0x40\n        /* \"#utility.yul\":21831:21840   */\n      dup3\n        /* \"#utility.yul\":21827:21845   */\n      add\n        /* \"#utility.yul\":21819:21845   */\n      swap1\n      pop\n        /* \"#utility.yul\":21855:21926   */\n      tag_692\n        /* \"#utility.yul\":21923:21924   */\n      0x00\n        /* \"#utility.yul\":21912:21921   */\n      dup4\n        /* \"#utility.yul\":21908:21925   */\n      add\n        /* \"#utility.yul\":21899:21905   */\n      dup6\n        /* \"#utility.yul\":21855:21926   */\n      tag_418\n      jump\t// in\n    tag_692:\n        /* \"#utility.yul\":21936:22008   */\n      tag_693\n        /* \"#utility.yul\":22004:22006   */\n      0x20\n        /* \"#utility.yul\":21993:22002   */\n      dup4\n        /* \"#utility.yul\":21989:22007   */\n      add\n        /* \"#utility.yul\":21980:21986   */\n      dup5\n        /* \"#utility.yul\":21936:22008   */\n      tag_438\n      jump\t// in\n    tag_693:\n        /* \"#utility.yul\":21683:22015   */\n      swap4\n      swap3\n      pop\n      pop\n      pop\n      jump\t// out\n        /* \"#utility.yul\":22021:22137   */\n    tag_446:\n        /* \"#utility.yul\":22072:22076   */\n      0x00\n        /* \"#utility.yul\":22095:22098   */\n      dup2\n        /* \"#utility.yul\":22087:22098   */\n      swap1\n      pop\n        /* \"#utility.yul\":22125:22129   */\n      0x20\n        /* \"#utility.yul\":22120:22123   */\n      dup3\n        /* \"#utility.yul\":22116:22130   */\n      add\n        /* \"#utility.yul\":22108:22130   */\n      swap1\n      pop\n        /* \"#utility.yul\":22021:22137   */\n      swap2\n      swap1\n      pop\n      jump\t// out\n        /* \"#utility.yul\":22143:22295   */\n    tag_447:\n        /* \"#utility.yul\":22185:22196   */\n      0x00\n        /* \"#utility.yul\":22221:22249   */\n      tag_696\n        /* \"#utility.yul\":22244:22247   */\n      dup3\n        /* \"#utility.yul\":22238:22248   */\n      mload\n        /* \"#utility.yul\":22221:22249   */\n      tag_430\n      jump\t// in\n    tag_696:\n        /* \"#utility.yul\":22283:22288   */\n      dup1\n        /* \"#utility.yul\":22259:22288   */\n      swap2\n      pop\n        /* \"#utility.yul\":22197:22295   */\n      pop\n        /* \"#utility.yul\":22143:22295   */\n      swap2\n      swap1\n      pop\n      jump\t// out\n        /* \"#utility.yul\":22301:22408   */\n    tag_448:\n        /* \"#utility.yul\":22345:22353   */\n      0x00\n        /* \"#utility.yul\":22395:22400   */\n      dup3\n        /* \"#utility.yul\":22389:22393   */\n      dup3\n        /* \"#utility.yul\":22385:22401   */\n      shl\n        /* \"#utility.yul\":22364:22401   */\n      swap1\n      pop\n        /* \"#utility.yul\":22301:22408   */\n      swap3\n      swap2\n      pop\n      pop\n      jump\t// out\n        /* \"#utility.yul\":22414:23004   */\n    tag_182:\n        /* \"#utility.yul\":22497:22502   */\n      0x00\n        /* \"#utility.yul\":22528:22566   */\n      tag_699\n        /* \"#utility.yul\":22560:22565   */\n      dup3\n        /* \"#utility.yul\":22528:22566   */\n      tag_414\n      jump\t// in\n    tag_699:\n        /* \"#utility.yul\":22591:22596   */\n      dup3\n        /* \"#utility.yul\":22618:22658   */\n      tag_700\n        /* \"#utility.yul\":22652:22657   */\n      dup5\n        /* \"#utility.yul\":22618:22658   */\n      tag_446\n      jump\t// in\n    tag_700:\n        /* \"#utility.yul\":22606:22658   */\n      swap1\n      pop\n        /* \"#utility.yul\":22677:22711   */\n      tag_701\n        /* \"#utility.yul\":22702:22710   */\n      dup2\n        /* \"#utility.yul\":22677:22711   */\n      tag_447\n      jump\t// in\n    tag_701:\n        /* \"#utility.yul\":22668:22711   */\n      swap3\n      pop\n        /* \"#utility.yul\":22735:22736   */\n      0x04\n        /* \"#utility.yul\":22727:22733   */\n      dup3\n        /* \"#utility.yul\":22724:22737   */\n      lt\n        /* \"#utility.yul\":22721:22997   */\n      iszero\n      tag_702\n      jumpi\n        /* \"#utility.yul\":22805:22973   */\n      tag_703\n        /* \"#utility.yul\":22889:22955   */\n      0xffffffff00000000000000000000000000000000000000000000000000000000\n        /* \"#utility.yul\":22859:22865   */\n      dup4\n        /* \"#utility.yul\":22856:22857   */\n      0x04\n        /* \"#utility.yul\":22852:22866   */\n      sub\n        /* \"#utility.yul\":22849:22850   */\n      0x08\n        /* \"#utility.yul\":22845:22867   */\n      mul\n        /* \"#utility.yul\":22805:22973   */\n      tag_448\n      jump\t// in\n    tag_703:\n        /* \"#utility.yul\":22782:22787   */\n      dup4\n        /* \"#utility.yul\":22761:22987   */\n      and\n        /* \"#utility.yul\":22752:22987   */\n      swap3\n      pop\n        /* \"#utility.yul\":22721:22997   */\n    tag_702:\n        /* \"#utility.yul\":22503:23004   */\n      pop\n      pop\n        /* \"#utility.yul\":22414:23004   */\n      swap2\n      swap1\n      pop\n      jump\t// out\n        /* \"#utility.yul\":23010:23159   */\n    tag_449:\n        /* \"#utility.yul\":23046:23053   */\n      0x00\n        /* \"#utility.yul\":23086:23152   */\n      0xffffffffff000000000000000000000000000000000000000000000000000000\n        /* \"#utility.yul\":23079:23084   */\n      dup3\n        /* \"#utility.yul\":23075:23153   */\n      and\n        /* \"#utility.yul\":23064:23153   */\n      swap1\n      pop\n        /* \"#utility.yul\":23010:23159   */\n      swap2\n      swap1\n      pop\n      jump\t// out\n        /* \"#utility.yul\":23165:23317   */\n    tag_450:\n        /* \"#utility.yul\":23207:23218   */\n      0x00\n        /* \"#utility.yul\":23243:23271   */\n      tag_706\n        /* \"#utility.yul\":23266:23269   */\n      dup3\n        /* \"#utility.yul\":23260:23270   */\n      mload\n        /* \"#utility.yul\":23243:23271   */\n      tag_449\n      jump\t// in\n    tag_706:\n        /* \"#utility.yul\":23305:23310   */\n      dup1\n        /* \"#utility.yul\":23281:23310   */\n      swap2\n      pop\n        /* \"#utility.yul\":23219:23317   */\n      pop\n        /* \"#utility.yul\":23165:23317   */\n      swap2\n      swap1\n      pop\n      jump\t// out\n        /* \"#utility.yul\":23323:23913   */\n    tag_194:\n        /* \"#utility.yul\":23406:23411   */\n      0x00\n        /* \"#utility.yul\":23437:23475   */\n      tag_708\n        /* \"#utility.yul\":23469:23474   */\n      dup3\n        /* \"#utility.yul\":23437:23475   */\n      tag_414\n      jump\t// in\n    tag_708:\n        /* \"#utility.yul\":23500:23505   */\n      dup3\n        /* \"#utility.yul\":23527:23567   */\n      tag_709\n        /* \"#utility.yul\":23561:23566   */\n      dup5\n        /* \"#utility.yul\":23527:23567   */\n      tag_446\n      jump\t// in\n    tag_709:\n        /* \"#utility.yul\":23515:23567   */\n      swap1\n      pop\n        /* \"#utility.yul\":23586:23620   */\n      tag_710\n        /* \"#utility.yul\":23611:23619   */\n      dup2\n        /* \"#utility.yul\":23586:23620   */\n      tag_450\n      jump\t// in\n    tag_710:\n        /* \"#utility.yul\":23577:23620   */\n      swap3\n      pop\n        /* \"#utility.yul\":23644:23645   */\n      0x05\n        /* \"#utility.yul\":23636:23642   */\n      dup3\n        /* \"#utility.yul\":23633:23646   */\n      lt\n        /* \"#utility.yul\":23630:23906   */\n      iszero\n      tag_711\n      jumpi\n        /* \"#utility.yul\":23714:23882   */\n      tag_712\n        /* \"#utility.yul\":23798:23864   */\n      0xffffffffff000000000000000000000000000000000000000000000000000000\n        /* \"#utility.yul\":23768:23774   */\n      dup4\n        /* \"#utility.yul\":23765:23766   */\n      0x05\n        /* \"#utility.yul\":23761:23775   */\n      sub\n        /* \"#utility.yul\":23758:23759   */\n      0x08\n        /* \"#utility.yul\":23754:23776   */\n      mul\n        /* \"#utility.yul\":23714:23882   */\n      tag_448\n      jump\t// in\n    tag_712:\n        /* \"#utility.yul\":23691:23696   */\n      dup4\n        /* \"#utility.yul\":23670:23896   */\n      and\n        /* \"#utility.yul\":23661:23896   */\n      swap3\n      pop\n        /* \"#utility.yul\":23630:23906   */\n    tag_711:\n        /* \"#utility.yul\":23412:23913   */\n      pop\n      pop\n        /* \"#utility.yul\":23323:23913   */\n      swap2\n      swap1\n      pop\n      jump\t// out\n        /* \"#utility.yul\":23919:24099   */\n    tag_451:\n        /* \"#utility.yul\":23967:24044   */\n      0x4e487b7100000000000000000000000000000000000000000000000000000000\n        /* \"#utility.yul\":23964:23965   */\n      0x00\n        /* \"#utility.yul\":23957:24045   */\n      mstore\n        /* \"#utility.yul\":24064:24068   */\n      0x11\n        /* \"#utility.yul\":24061:24062   */\n      0x04\n        /* \"#utility.yul\":24054:24069   */\n      mstore\n        /* \"#utility.yul\":24088:24092   */\n      0x24\n        /* \"#utility.yul\":24085:24086   */\n      0x00\n        /* \"#utility.yul\":24078:24093   */\n      revert\n        /* \"#utility.yul\":24105:24342   */\n    tag_198:\n        /* \"#utility.yul\":24143:24146   */\n      0x00\n        /* \"#utility.yul\":24162:24180   */\n      tag_715\n        /* \"#utility.yul\":24178:24179   */\n      dup3\n        /* \"#utility.yul\":24162:24180   */\n      tag_421\n      jump\t// in\n    tag_715:\n        /* \"#utility.yul\":24157:24180   */\n      swap2\n      pop\n        /* \"#utility.yul\":24194:24212   */\n      tag_716\n        /* \"#utility.yul\":24210:24211   */\n      dup4\n        /* \"#utility.yul\":24194:24212   */\n      tag_421\n      jump\t// in\n    tag_716:\n        /* \"#utility.yul\":24189:24212   */\n      swap3\n      pop\n        /* \"#utility.yul\":24284:24285   */\n      dup3\n        /* \"#utility.yul\":24278:24282   */\n      0xff\n        /* \"#utility.yul\":24274:24286   */\n      sub\n        /* \"#utility.yul\":24271:24272   */\n      dup3\n        /* \"#utility.yul\":24268:24287   */\n      gt\n        /* \"#utility.yul\":24265:24310   */\n      iszero\n      tag_717\n      jumpi\n        /* \"#utility.yul\":24290:24308   */\n      tag_718\n      tag_451\n      jump\t// in\n    tag_718:\n        /* \"#utility.yul\":24265:24310   */\n    tag_717:\n        /* \"#utility.yul\":24334:24335   */\n      dup3\n        /* \"#utility.yul\":24331:24332   */\n      dup3\n        /* \"#utility.yul\":24327:24336   */\n      add\n        /* \"#utility.yul\":24320:24336   */\n      swap1\n      pop\n        /* \"#utility.yul\":24105:24342   */\n      swap3\n      swap2\n      pop\n      pop\n      jump\t// out\n        /* \"#utility.yul\":24348:24466   */\n    tag_452:\n        /* \"#utility.yul\":24435:24459   */\n      tag_720\n        /* \"#utility.yul\":24453:24458   */\n      dup2\n        /* \"#utility.yul\":24435:24459   */\n      tag_386\n      jump\t// in\n    tag_720:\n        /* \"#utility.yul\":24430:24433   */\n      dup3\n        /* \"#utility.yul\":24423:24460   */\n      mstore\n        /* \"#utility.yul\":24348:24466   */\n      pop\n      pop\n      jump\t// out\n        /* \"#utility.yul\":24472:24587   */\n    tag_453:\n        /* \"#utility.yul\":24557:24580   */\n      tag_722\n        /* \"#utility.yul\":24574:24579   */\n      dup2\n        /* \"#utility.yul\":24557:24580   */\n      tag_430\n      jump\t// in\n    tag_722:\n        /* \"#utility.yul\":24552:24555   */\n      dup3\n        /* \"#utility.yul\":24545:24581   */\n      mstore\n        /* \"#utility.yul\":24472:24587   */\n      pop\n      pop\n      jump\t// out\n        /* \"#utility.yul\":24593:25142   */\n    tag_203:\n        /* \"#utility.yul\":24768:24772   */\n      0x00\n        /* \"#utility.yul\":24806:24809   */\n      0x80\n        /* \"#utility.yul\":24795:24804   */\n      dup3\n        /* \"#utility.yul\":24791:24810   */\n      add\n        /* \"#utility.yul\":24783:24810   */\n      swap1\n      pop\n        /* \"#utility.yul\":24820:24891   */\n      tag_724\n        /* \"#utility.yul\":24888:24889   */\n      0x00\n        /* \"#utility.yul\":24877:24886   */\n      dup4\n        /* \"#utility.yul\":24873:24890   */\n      add\n        /* \"#utility.yul\":24864:24870   */\n      dup8\n        /* \"#utility.yul\":24820:24891   */\n      tag_452\n      jump\t// in\n    tag_724:\n        /* \"#utility.yul\":24901:24973   */\n      tag_725\n        /* \"#utility.yul\":24969:24971   */\n      0x20\n        /* \"#utility.yul\":24958:24967   */\n      dup4\n        /* \"#utility.yul\":24954:24972   */\n      add\n        /* \"#utility.yul\":24945:24951   */\n      dup7\n        /* \"#utility.yul\":24901:24973   */\n      tag_438\n      jump\t// in\n    tag_725:\n        /* \"#utility.yul\":24983:25053   */\n      tag_726\n        /* \"#utility.yul\":25049:25051   */\n      0x40\n        /* \"#utility.yul\":25038:25047   */\n      dup4\n        /* \"#utility.yul\":25034:25052   */\n      add\n        /* \"#utility.yul\":25025:25031   */\n      dup6\n        /* \"#utility.yul\":24983:25053   */\n      tag_453\n      jump\t// in\n    tag_726:\n        /* \"#utility.yul\":25063:25135   */\n      tag_727\n        /* \"#utility.yul\":25131:25133   */\n      0x60\n        /* \"#utility.yul\":25120:25129   */\n      dup4\n        /* \"#utility.yul\":25116:25134   */\n      add\n        /* \"#utility.yul\":25107:25113   */\n      dup5\n        /* \"#utility.yul\":25063:25135   */\n      tag_438\n      jump\t// in\n    tag_727:\n        /* \"#utility.yul\":24593:25142   */\n      swap6\n      swap5\n      pop\n      pop\n      pop\n      pop\n      pop\n      jump\t// out\n        /* \"#utility.yul\":25148:25453   */\n    tag_224:\n        /* \"#utility.yul\":25188:25191   */\n      0x00\n        /* \"#utility.yul\":25207:25227   */\n      tag_729\n        /* \"#utility.yul\":25225:25226   */\n      dup3\n        /* \"#utility.yul\":25207:25227   */\n      tag_389\n      jump\t// in\n    tag_729:\n        /* \"#utility.yul\":25202:25227   */\n      swap2\n      pop\n        /* \"#utility.yul\":25241:25261   */\n      tag_730\n        /* \"#utility.yul\":25259:25260   */\n      dup4\n        /* \"#utility.yul\":25241:25261   */\n      tag_389\n      jump\t// in\n    tag_730:\n        /* \"#utility.yul\":25236:25261   */\n      swap3\n      pop\n        /* \"#utility.yul\":25395:25396   */\n      dup3\n        /* \"#utility.yul\":25327:25393   */\n      0xffffffffffffffffffffffffffffffffffffffffffffffffffffffffffffffff\n        /* \"#utility.yul\":25323:25397   */\n      sub\n        /* \"#utility.yul\":25320:25321   */\n      dup3\n        /* \"#utility.yul\":25317:25398   */\n      gt\n        /* \"#utility.yul\":25314:25421   */\n      iszero\n      tag_731\n      jumpi\n        /* \"#utility.yul\":25401:25419   */\n      tag_732\n      tag_451\n      jump\t// in\n    tag_732:\n        /* \"#utility.yul\":25314:25421   */\n    tag_731:\n        /* \"#utility.yul\":25445:25446   */\n      dup3\n        /* \"#utility.yul\":25442:25443   */\n      dup3\n        /* \"#utility.yul\":25438:25447   */\n      add\n        /* \"#utility.yul\":25431:25447   */\n      swap1\n      pop\n        /* \"#utility.yul\":25148:25453   */\n      swap3\n      swap2\n      pop\n      pop\n      jump\t// out\n        /* \"#utility.yul\":25459:26428   */\n    tag_226:\n        /* \"#utility.yul\":25736:25740   */\n      0x00\n        /* \"#utility.yul\":25774:25777   */\n      0xe0\n        /* \"#utility.yul\":25763:25772   */\n      dup3\n        /* \"#utility.yul\":25759:25778   */\n      add\n        /* \"#utility.yul\":25751:25778   */\n      swap1\n      pop\n        /* \"#utility.yul\":25788:25859   */\n      tag_734\n        /* \"#utility.yul\":25856:25857   */\n      0x00\n        /* \"#utility.yul\":25845:25854   */\n      dup4\n        /* \"#utility.yul\":25841:25858   */\n      add\n        /* \"#utility.yul\":25832:25838   */\n      dup11\n        /* \"#utility.yul\":25788:25859   */\n      tag_418\n      jump\t// in\n    tag_734:\n        /* \"#utility.yul\":25869:25941   */\n      tag_735\n        /* \"#utility.yul\":25937:25939   */\n      0x20\n        /* \"#utility.yul\":25926:25935   */\n      dup4\n        /* \"#utility.yul\":25922:25940   */\n      add\n        /* \"#utility.yul\":25913:25919   */\n      dup10\n        /* \"#utility.yul\":25869:25941   */\n      tag_438\n      jump\t// in\n    tag_735:\n        /* \"#utility.yul\":25951:26023   */\n      tag_736\n        /* \"#utility.yul\":26019:26021   */\n      0x40\n        /* \"#utility.yul\":26008:26017   */\n      dup4\n        /* \"#utility.yul\":26004:26022   */\n      add\n        /* \"#utility.yul\":25995:26001   */\n      dup9\n        /* \"#utility.yul\":25951:26023   */\n      tag_452\n      jump\t// in\n    tag_736:\n        /* \"#utility.yul\":26033:26103   */\n      tag_737\n        /* \"#utility.yul\":26099:26101   */\n      0x60\n        /* \"#utility.yul\":26088:26097   */\n      dup4\n        /* \"#utility.yul\":26084:26102   */\n      add\n        /* \"#utility.yul\":26075:26081   */\n      dup8\n        /* \"#utility.yul\":26033:26103   */\n      tag_453\n      jump\t// in\n    tag_737:\n        /* \"#utility.yul\":26113:26186   */\n      tag_738\n        /* \"#utility.yul\":26181:26184   */\n      0x80\n        /* \"#utility.yul\":26170:26179   */\n      dup4\n        /* \"#utility.yul\":26166:26185   */\n      add\n        /* \"#utility.yul\":26157:26163   */\n      dup7\n        /* \"#utility.yul\":26113:26186   */\n      tag_438\n      jump\t// in\n    tag_738:\n        /* \"#utility.yul\":26196:26269   */\n      tag_739\n        /* \"#utility.yul\":26264:26267   */\n      0xa0\n        /* \"#utility.yul\":26253:26262   */\n      dup4\n        /* \"#utility.yul\":26249:26268   */\n      add\n        /* \"#utility.yul\":26240:26246   */\n      dup6\n        /* \"#utility.yul\":26196:26269   */\n      tag_438\n      jump\t// in\n    tag_739:\n        /* \"#utility.yul\":26317:26326   */\n      dup2\n        /* \"#utility.yul\":26311:26315   */\n      dup2\n        /* \"#utility.yul\":26307:26327   */\n      sub\n        /* \"#utility.yul\":26301:26304   */\n      0xc0\n        /* \"#utility.yul\":26290:26299   */\n      dup4\n        /* \"#utility.yul\":26286:26305   */\n      add\n        /* \"#utility.yul\":26279:26328   */\n      mstore\n        /* \"#utility.yul\":26345:26421   */\n      tag_740\n        /* \"#utility.yul\":26416:26420   */\n      dup2\n        /* \"#utility.yul\":26407:26413   */\n      dup5\n        /* \"#utility.yul\":26345:26421   */\n      tag_417\n      jump\t// in\n    tag_740:\n        /* \"#utility.yul\":26337:26421   */\n      swap1\n      pop\n        /* \"#utility.yul\":25459:26428   */\n      swap9\n      swap8\n      pop\n      pop\n      pop\n      pop\n      pop\n      pop\n      pop\n      pop\n      jump\t// out\n        /* \"#utility.yul\":26434:26625   */\n    tag_236:\n        /* \"#utility.yul\":26474:26478   */\n      0x00\n        /* \"#utility.yul\":26494:26514   */\n      tag_742\n        /* \"#utility.yul\":26512:26513   */\n      dup3\n        /* \"#utility.yul\":26494:26514   */\n      tag_389\n      jump\t// in\n    tag_742:\n        /* \"#utility.yul\":26489:26514   */\n      swap2\n      pop\n        /* \"#utility.yul\":26528:26548   */\n      tag_743\n        /* \"#utility.yul\":26546:26547   */\n      dup4\n        /* \"#utility.yul\":26528:26548   */\n      tag_389\n      jump\t// in\n    tag_743:\n        /* \"#utility.yul\":26523:26548   */\n      swap3\n      pop\n        /* \"#utility.yul\":26567:26568   */\n      dup3\n        /* \"#utility.yul\":26564:26565   */\n      dup3\n        /* \"#utility.yul\":26561:26569   */\n      lt\n        /* \"#utility.yul\":26558:26592   */\n      iszero\n      tag_744\n      jumpi\n        /* \"#utility.yul\":26572:26590   */\n      tag_745\n      tag_451\n      jump\t// in\n    tag_745:\n        /* \"#utility.yul\":26558:26592   */\n    tag_744:\n        /* \"#utility.yul\":26617:26618   */\n      dup3\n        /* \"#utility.yul\":26614:26615   */\n      dup3\n        /* \"#utility.yul\":26610:26619   */\n      sub\n        /* \"#utility.yul\":26602:26619   */\n      swap1\n      pop\n        /* \"#utility.yul\":26434:26625   */\n      swap3\n      swap2\n      pop\n      pop\n      jump\t// out\n        /* \"#utility.yul\":26631:26864   */\n    tag_251:\n        /* \"#utility.yul\":26670:26673   */\n      0x00\n        /* \"#utility.yul\":26693:26717   */\n      tag_747\n        /* \"#utility.yul\":26711:26716   */\n      dup3\n        /* \"#utility.yul\":26693:26717   */\n      tag_389\n      jump\t// in\n    tag_747:\n        /* \"#utility.yul\":26684:26717   */\n      swap2\n      pop\n        /* \"#utility.yul\":26739:26805   */\n      0xffffffffffffffffffffffffffffffffffffffffffffffffffffffffffffffff\n        /* \"#utility.yul\":26732:26737   */\n      dup3\n        /* \"#utility.yul\":26729:26806   */\n      eq\n        /* \"#utility.yul\":26726:26829   */\n      iszero\n      tag_748\n      jumpi\n        /* \"#utility.yul\":26809:26827   */\n      tag_749\n      tag_451\n      jump\t// in\n    tag_749:\n        /* \"#utility.yul\":26726:26829   */\n    tag_748:\n        /* \"#utility.yul\":26856:26857   */\n      0x01\n        /* \"#utility.yul\":26849:26854   */\n      dup3\n        /* \"#utility.yul\":26845:26858   */\n      add\n        /* \"#utility.yul\":26838:26858   */\n      swap1\n      pop\n        /* \"#utility.yul\":26631:26864   */\n      swap2\n      swap1\n      pop\n      jump\t// out\n        /* \"#utility.yul\":26870:27050   */\n    tag_454:\n        /* \"#utility.yul\":26918:26995   */\n      0x4e487b7100000000000000000000000000000000000000000000000000000000\n        /* \"#utility.yul\":26915:26916   */\n      0x00\n        /* \"#utility.yul\":26908:26996   */\n      mstore\n        /* \"#utility.yul\":27015:27019   */\n      0x12\n        /* \"#utility.yul\":27012:27013   */\n      0x04\n        /* \"#utility.yul\":27005:27020   */\n      mstore\n        /* \"#utility.yul\":27039:27043   */\n      0x24\n        /* \"#utility.yul\":27036:27037   */\n      0x00\n        /* \"#utility.yul\":27029:27044   */\n      revert\n        /* \"#utility.yul\":27056:27232   */\n    tag_256:\n        /* \"#utility.yul\":27088:27089   */\n      0x00\n        /* \"#utility.yul\":27105:27125   */\n      tag_752\n        /* \"#utility.yul\":27123:27124   */\n      dup3\n        /* \"#utility.yul\":27105:27125   */\n      tag_389\n      jump\t// in\n    tag_752:\n        /* \"#utility.yul\":27100:27125   */\n      swap2\n      pop\n        /* \"#utility.yul\":27139:27159   */\n      tag_753\n        /* \"#utility.yul\":27157:27158   */\n      dup4\n        /* \"#utility.yul\":27139:27159   */\n      tag_389\n      jump\t// in\n    tag_753:\n        /* \"#utility.yul\":27134:27159   */\n      swap3\n      pop\n        /* \"#utility.yul\":27178:27179   */\n      dup3\n        /* \"#utility.yul\":27168:27203   */\n      tag_754\n      jumpi\n        /* \"#utility.yul\":27183:27201   */\n      tag_755\n      tag_454\n      jump\t// in\n    tag_755:\n        /* \"#utility.yul\":27168:27203   */\n    tag_754:\n        /* \"#utility.yul\":27224:27225   */\n      dup3\n        /* \"#utility.yul\":27221:27222   */\n      dup3\n        /* \"#utility.yul\":27217:27226   */\n      mod\n        /* \"#utility.yul\":27212:27226   */\n      swap1\n      pop\n        /* \"#utility.yul\":27056:27232   */\n      swap3\n      swap2\n      pop\n      pop\n      jump\t// out\n        /* \"#utility.yul\":27238:27460   */\n    tag_289:\n        /* \"#utility.yul\":27331:27335   */\n      0x00\n        /* \"#utility.yul\":27369:27371   */\n      0x20\n        /* \"#utility.yul\":27358:27367   */\n      dup3\n        /* \"#utility.yul\":27354:27372   */\n      add\n        /* \"#utility.yul\":27346:27372   */\n      swap1\n      pop\n        /* \"#utility.yul\":27382:27453   */\n      tag_757\n        /* \"#utility.yul\":27450:27451   */\n      0x00\n        /* \"#utility.yul\":27439:27448   */\n      dup4\n        /* \"#utility.yul\":27435:27452   */\n      add\n        /* \"#utility.yul\":27426:27432   */\n      dup5\n        /* \"#utility.yul\":27382:27453   */\n      tag_438\n      jump\t// in\n    tag_757:\n        /* \"#utility.yul\":27238:27460   */\n      swap3\n      swap2\n      pop\n      pop\n      jump\t// out\n        /* \"#utility.yul\":27466:27616   */\n    tag_455:\n        /* \"#utility.yul\":27540:27549   */\n      0x00\n        /* \"#utility.yul\":27573:27610   */\n      tag_759\n        /* \"#utility.yul\":27604:27609   */\n      dup3\n        /* \"#utility.yul\":27573:27610   */\n      tag_435\n      jump\t// in\n    tag_759:\n        /* \"#utility.yul\":27560:27610   */\n      swap1\n      pop\n        /* \"#utility.yul\":27466:27616   */\n      swap2\n      swap1\n      pop\n      jump\t// out\n        /* \"#utility.yul\":27622:27716   */\n    tag_456:\n        /* \"#utility.yul\":27655:27663   */\n      0x00\n        /* \"#utility.yul\":27703:27708   */\n      dup2\n        /* \"#utility.yul\":27699:27701   */\n      0x60\n        /* \"#utility.yul\":27695:27709   */\n      shl\n        /* \"#utility.yul\":27674:27709   */\n      swap1\n      pop\n        /* \"#utility.yul\":27622:27716   */\n      swap2\n      swap1\n      pop\n      jump\t// out\n        /* \"#utility.yul\":27722:27816   */\n    tag_457:\n        /* \"#utility.yul\":27761:27768   */\n      0x00\n        /* \"#utility.yul\":27790:27810   */\n      tag_762\n        /* \"#utility.yul\":27804:27809   */\n      dup3\n        /* \"#utility.yul\":27790:27810   */\n      tag_456\n      jump\t// in\n    tag_762:\n        /* \"#utility.yul\":27779:27810   */\n      swap1\n      pop\n        /* \"#utility.yul\":27722:27816   */\n      swap2\n      swap1\n      pop\n      jump\t// out\n        /* \"#utility.yul\":27822:27922   */\n    tag_458:\n        /* \"#utility.yul\":27861:27868   */\n      0x00\n        /* \"#utility.yul\":27890:27916   */\n      tag_764\n        /* \"#utility.yul\":27910:27915   */\n      dup3\n        /* \"#utility.yul\":27890:27916   */\n      tag_457\n      jump\t// in\n    tag_764:\n        /* \"#utility.yul\":27879:27916   */\n      swap1\n      pop\n        /* \"#utility.yul\":27822:27922   */\n      swap2\n      swap1\n      pop\n      jump\t// out\n        /* \"#utility.yul\":27928:28146   */\n    tag_459:\n        /* \"#utility.yul\":28057:28139   */\n      tag_766\n        /* \"#utility.yul\":28077:28138   */\n      tag_767\n        /* \"#utility.yul\":28132:28137   */\n      dup3\n        /* \"#utility.yul\":28077:28138   */\n      tag_455\n      jump\t// in\n    tag_767:\n        /* \"#utility.yul\":28057:28139   */\n      tag_458\n      jump\t// in\n    tag_766:\n        /* \"#utility.yul\":28052:28055   */\n      dup3\n        /* \"#utility.yul\":28045:28140   */\n      mstore\n        /* \"#utility.yul\":27928:28146   */\n      pop\n      pop\n      jump\t// out\n        /* \"#utility.yul\":28152:28231   */\n    tag_460:\n        /* \"#utility.yul\":28191:28198   */\n      0x00\n        /* \"#utility.yul\":28220:28225   */\n      dup2\n        /* \"#utility.yul\":28209:28225   */\n      swap1\n      pop\n        /* \"#utility.yul\":28152:28231   */\n      swap2\n      swap1\n      pop\n      jump\t// out\n        /* \"#utility.yul\":28237:28394   */\n    tag_461:\n        /* \"#utility.yul\":28342:28387   */\n      tag_770\n        /* \"#utility.yul\":28362:28386   */\n      tag_771\n        /* \"#utility.yul\":28380:28385   */\n      dup3\n        /* \"#utility.yul\":28362:28386   */\n      tag_389\n      jump\t// in\n    tag_771:\n        /* \"#utility.yul\":28342:28387   */\n      tag_460\n      jump\t// in\n    tag_770:\n        /* \"#utility.yul\":28337:28340   */\n      dup3\n        /* \"#utility.yul\":28330:28388   */\n      mstore\n        /* \"#utility.yul\":28237:28394   */\n      pop\n      pop\n      jump\t// out\n        /* \"#utility.yul\":28400:28845   */\n    tag_293:\n        /* \"#utility.yul\":28564:28567   */\n      0x00\n        /* \"#utility.yul\":28579:28678   */\n      tag_773\n        /* \"#utility.yul\":28674:28677   */\n      dup3\n        /* \"#utility.yul\":28665:28671   */\n      dup6\n        /* \"#utility.yul\":28579:28678   */\n      tag_459\n      jump\t// in\n    tag_773:\n        /* \"#utility.yul\":28703:28705   */\n      0x14\n        /* \"#utility.yul\":28698:28701   */\n      dup3\n        /* \"#utility.yul\":28694:28706   */\n      add\n        /* \"#utility.yul\":28687:28706   */\n      swap2\n      pop\n        /* \"#utility.yul\":28716:28791   */\n      tag_774\n        /* \"#utility.yul\":28787:28790   */\n      dup3\n        /* \"#utility.yul\":28778:28784   */\n      dup5\n        /* \"#utility.yul\":28716:28791   */\n      tag_461\n      jump\t// in\n    tag_774:\n        /* \"#utility.yul\":28816:28818   */\n      0x20\n        /* \"#utility.yul\":28811:28814   */\n      dup3\n        /* \"#utility.yul\":28807:28819   */\n      add\n        /* \"#utility.yul\":28800:28819   */\n      swap2\n      pop\n        /* \"#utility.yul\":28836:28839   */\n      dup2\n        /* \"#utility.yul\":28829:28839   */\n      swap1\n      pop\n        /* \"#utility.yul\":28400:28845   */\n      swap4\n      swap3\n      pop\n      pop\n      pop\n      jump\t// out\n        /* \"#utility.yul\":28851:29380   */\n    tag_295:\n        /* \"#utility.yul\":29018:29022   */\n      0x00\n        /* \"#utility.yul\":29056:29058   */\n      0x60\n        /* \"#utility.yul\":29045:29054   */\n      dup3\n        /* \"#utility.yul\":29041:29059   */\n      add\n        /* \"#utility.yul\":29033:29059   */\n      swap1\n      pop\n        /* \"#utility.yul\":29069:29140   */\n      tag_776\n        /* \"#utility.yul\":29137:29138   */\n      0x00\n        /* \"#utility.yul\":29126:29135   */\n      dup4\n        /* \"#utility.yul\":29122:29139   */\n      add\n        /* \"#utility.yul\":29113:29119   */\n      dup7\n        /* \"#utility.yul\":29069:29140   */\n      tag_418\n      jump\t// in\n    tag_776:\n        /* \"#utility.yul\":29150:29222   */\n      tag_777\n        /* \"#utility.yul\":29218:29220   */\n      0x20\n        /* \"#utility.yul\":29207:29216   */\n      dup4\n        /* \"#utility.yul\":29203:29221   */\n      add\n        /* \"#utility.yul\":29194:29200   */\n      dup6\n        /* \"#utility.yul\":29150:29222   */\n      tag_438\n      jump\t// in\n    tag_777:\n        /* \"#utility.yul\":29269:29278   */\n      dup2\n        /* \"#utility.yul\":29263:29267   */\n      dup2\n        /* \"#utility.yul\":29259:29279   */\n      sub\n        /* \"#utility.yul\":29254:29256   */\n      0x40\n        /* \"#utility.yul\":29243:29252   */\n      dup4\n        /* \"#utility.yul\":29239:29257   */\n      add\n        /* \"#utility.yul\":29232:29280   */\n      mstore\n        /* \"#utility.yul\":29297:29373   */\n      tag_778\n        /* \"#utility.yul\":29368:29372   */\n      dup2\n        /* \"#utility.yul\":29359:29365   */\n      dup5\n        /* \"#utility.yul\":29297:29373   */\n      tag_417\n      jump\t// in\n    tag_778:\n        /* \"#utility.yul\":29289:29373   */\n      swap1\n      pop\n        /* \"#utility.yul\":28851:29380   */\n      swap5\n      swap4\n      pop\n      pop\n      pop\n      pop\n      jump\t// out\n        /* \"#utility.yul\":29386:29608   */\n    tag_462:\n        /* \"#utility.yul\":29526:29560   */\n      0x756e61626c6520746f207472616e73666572416e6443616c6c20746f206f7261\n        /* \"#utility.yul\":29522:29523   */\n      0x00\n        /* \"#utility.yul\":29514:29520   */\n      dup3\n        /* \"#utility.yul\":29510:29524   */\n      add\n        /* \"#utility.yul\":29503:29561   */\n      mstore\n        /* \"#utility.yul\":29595:29600   */\n      0x636c650000000000000000000000000000000000000000000000000000000000\n        /* \"#utility.yul\":29590:29592   */\n      0x20\n        /* \"#utility.yul\":29582:29588   */\n      dup3\n        /* \"#utility.yul\":29578:29593   */\n      add\n        /* \"#utility.yul\":29571:29601   */\n      mstore\n        /* \"#utility.yul\":29386:29608   */\n      pop\n      jump\t// out\n        /* \"#utility.yul\":29614:29980   */\n    tag_463:\n        /* \"#utility.yul\":29756:29759   */\n      0x00\n        /* \"#utility.yul\":29777:29844   */\n      tag_781\n        /* \"#utility.yul\":29841:29843   */\n      0x23\n        /* \"#utility.yul\":29836:29839   */\n      dup4\n        /* \"#utility.yul\":29777:29844   */\n      tag_442\n      jump\t// in\n    tag_781:\n        /* \"#utility.yul\":29770:29844   */\n      swap2\n      pop\n        /* \"#utility.yul\":29853:29946   */\n      tag_782\n        /* \"#utility.yul\":29942:29945   */\n      dup3\n        /* \"#utility.yul\":29853:29946   */\n      tag_462\n      jump\t// in\n    tag_782:\n        /* \"#utility.yul\":29971:29973   */\n      0x40\n        /* \"#utility.yul\":29966:29969   */\n      dup3\n        /* \"#utility.yul\":29962:29974   */\n      add\n        /* \"#utility.yul\":29955:29974   */\n      swap1\n      pop\n        /* \"#utility.yul\":29614:29980   */\n      swap2\n      swap1\n      pop\n      jump\t// out\n        /* \"#utility.yul\":29986:30405   */\n    tag_302:\n        /* \"#utility.yul\":30152:30156   */\n      0x00\n        /* \"#utility.yul\":30190:30192   */\n      0x20\n        /* \"#utility.yul\":30179:30188   */\n      dup3\n        /* \"#utility.yul\":30175:30193   */\n      add\n        /* \"#utility.yul\":30167:30193   */\n      swap1\n      pop\n        /* \"#utility.yul\":30239:30248   */\n      dup2\n        /* \"#utility.yul\":30233:30237   */\n      dup2\n        /* \"#utility.yul\":30229:30249   */\n      sub\n        /* \"#utility.yul\":30225:30226   */\n      0x00\n        /* \"#utility.yul\":30214:30223   */\n      dup4\n        /* \"#utility.yul\":30210:30227   */\n      add\n        /* \"#utility.yul\":30203:30250   */\n      mstore\n        /* \"#utility.yul\":30267:30398   */\n      tag_784\n        /* \"#utility.yul\":30393:30397   */\n      dup2\n        /* \"#utility.yul\":30267:30398   */\n      tag_463\n      jump\t// in\n    tag_784:\n        /* \"#utility.yul\":30259:30398   */\n      swap1\n      pop\n        /* \"#utility.yul\":29986:30405   */\n      swap2\n      swap1\n      pop\n      jump\t// out\n        /* \"#utility.yul\":30411:30759   */\n    tag_323:\n        /* \"#utility.yul\":30451:30458   */\n      0x00\n        /* \"#utility.yul\":30474:30494   */\n      tag_786\n        /* \"#utility.yul\":30492:30493   */\n      dup3\n        /* \"#utility.yul\":30474:30494   */\n      tag_389\n      jump\t// in\n    tag_786:\n        /* \"#utility.yul\":30469:30494   */\n      swap2\n      pop\n        /* \"#utility.yul\":30508:30528   */\n      tag_787\n        /* \"#utility.yul\":30526:30527   */\n      dup4\n        /* \"#utility.yul\":30508:30528   */\n      tag_389\n      jump\t// in\n    tag_787:\n        /* \"#utility.yul\":30503:30528   */\n      swap3\n      pop\n        /* \"#utility.yul\":30696:30697   */\n      dup2\n        /* \"#utility.yul\":30628:30694   */\n      0xffffffffffffffffffffffffffffffffffffffffffffffffffffffffffffffff\n        /* \"#utility.yul\":30624:30698   */\n      div\n        /* \"#utility.yul\":30621:30622   */\n      dup4\n        /* \"#utility.yul\":30618:30699   */\n      gt\n        /* \"#utility.yul\":30613:30614   */\n      dup3\n        /* \"#utility.yul\":30606:30615   */\n      iszero\n        /* \"#utility.yul\":30599:30616   */\n      iszero\n        /* \"#utility.yul\":30595:30700   */\n      and\n        /* \"#utility.yul\":30592:30723   */\n      iszero\n      tag_788\n      jumpi\n        /* \"#utility.yul\":30703:30721   */\n      tag_789\n      tag_451\n      jump\t// in\n    tag_789:\n        /* \"#utility.yul\":30592:30723   */\n    tag_788:\n        /* \"#utility.yul\":30751:30752   */\n      dup3\n        /* \"#utility.yul\":30748:30749   */\n      dup3\n        /* \"#utility.yul\":30744:30753   */\n      mul\n        /* \"#utility.yul\":30733:30753   */\n      swap1\n      pop\n        /* \"#utility.yul\":30411:30759   */\n      swap3\n      swap2\n      pop\n      pop\n      jump\t// out\n        /* \"#utility.yul\":30765:30867   */\n    tag_464:\n        /* \"#utility.yul\":30807:30815   */\n      0x00\n        /* \"#utility.yul\":30854:30859   */\n      dup2\n        /* \"#utility.yul\":30851:30852   */\n      0x01\n        /* \"#utility.yul\":30847:30860   */\n      shr\n        /* \"#utility.yul\":30826:30860   */\n      swap1\n      pop\n        /* \"#utility.yul\":30765:30867   */\n      swap2\n      swap1\n      pop\n      jump\t// out\n        /* \"#utility.yul\":30873:31721   */\n    tag_465:\n        /* \"#utility.yul\":30934:30939   */\n      0x00\n        /* \"#utility.yul\":30941:30945   */\n      dup1\n        /* \"#utility.yul\":30965:30971   */\n      dup3\n        /* \"#utility.yul\":30956:30971   */\n      swap2\n      pop\n        /* \"#utility.yul\":30989:30994   */\n      dup4\n        /* \"#utility.yul\":30980:30994   */\n      swap1\n      pop\n        /* \"#utility.yul\":31003:31715   */\n    tag_792:\n        /* \"#utility.yul\":31024:31025   */\n      0x01\n        /* \"#utility.yul\":31014:31022   */\n      dup6\n        /* \"#utility.yul\":31011:31026   */\n      gt\n        /* \"#utility.yul\":31003:31715   */\n      iszero\n      tag_794\n      jumpi\n        /* \"#utility.yul\":31119:31123   */\n      dup1\n        /* \"#utility.yul\":31114:31117   */\n      dup7\n        /* \"#utility.yul\":31110:31124   */\n      div\n        /* \"#utility.yul\":31104:31108   */\n      dup2\n        /* \"#utility.yul\":31101:31125   */\n      gt\n        /* \"#utility.yul\":31098:31148   */\n      iszero\n      tag_795\n      jumpi\n        /* \"#utility.yul\":31128:31146   */\n      tag_796\n      tag_451\n      jump\t// in\n    tag_796:\n        /* \"#utility.yul\":31098:31148   */\n    tag_795:\n        /* \"#utility.yul\":31178:31179   */\n      0x01\n        /* \"#utility.yul\":31168:31176   */\n      dup6\n        /* \"#utility.yul\":31164:31180   */\n      and\n        /* \"#utility.yul\":31161:31612   */\n      iszero\n      tag_797\n      jumpi\n        /* \"#utility.yul\":31593:31597   */\n      dup1\n        /* \"#utility.yul\":31586:31591   */\n      dup3\n        /* \"#utility.yul\":31582:31598   */\n      mul\n        /* \"#utility.yul\":31573:31598   */\n      swap2\n      pop\n        /* \"#utility.yul\":31161:31612   */\n    tag_797:\n        /* \"#utility.yul\":31643:31647   */\n      dup1\n        /* \"#utility.yul\":31637:31641   */\n      dup2\n        /* \"#utility.yul\":31633:31648   */\n      mul\n        /* \"#utility.yul\":31625:31648   */\n      swap1\n      pop\n        /* \"#utility.yul\":31673:31705   */\n      tag_798\n        /* \"#utility.yul\":31696:31704   */\n      dup6\n        /* \"#utility.yul\":31673:31705   */\n      tag_464\n      jump\t// in\n    tag_798:\n        /* \"#utility.yul\":31661:31705   */\n      swap5\n      pop\n        /* \"#utility.yul\":31003:31715   */\n      jump(tag_792)\n    tag_794:\n        /* \"#utility.yul\":30873:31721   */\n      swap5\n      pop\n      swap5\n      swap3\n      pop\n      pop\n      pop\n      jump\t// out\n        /* \"#utility.yul\":31727:32800   */\n    tag_466:\n        /* \"#utility.yul\":31781:31786   */\n      0x00\n        /* \"#utility.yul\":31972:31980   */\n      dup3\n        /* \"#utility.yul\":31962:32002   */\n      tag_800\n      jumpi\n        /* \"#utility.yul\":31993:31994   */\n      0x01\n        /* \"#utility.yul\":31984:31994   */\n      swap1\n      pop\n        /* \"#utility.yul\":31995:32000   */\n      jump(tag_799)\n        /* \"#utility.yul\":31962:32002   */\n    tag_800:\n        /* \"#utility.yul\":32021:32025   */\n      dup2\n        /* \"#utility.yul\":32011:32047   */\n      tag_801\n      jumpi\n        /* \"#utility.yul\":32038:32039   */\n      0x00\n        /* \"#utility.yul\":32029:32039   */\n      swap1\n      pop\n        /* \"#utility.yul\":32040:32045   */\n      jump(tag_799)\n        /* \"#utility.yul\":32011:32047   */\n    tag_801:\n        /* \"#utility.yul\":32107:32111   */\n      dup2\n        /* \"#utility.yul\":32155:32156   */\n      0x01\n        /* \"#utility.yul\":32150:32177   */\n      dup2\n      eq\n      tag_803\n      jumpi\n        /* \"#utility.yul\":32191:32192   */\n      0x02\n        /* \"#utility.yul\":32186:32377   */\n      dup2\n      eq\n      tag_804\n      jumpi\n        /* \"#utility.yul\":32100:32377   */\n      jump(tag_802)\n        /* \"#utility.yul\":32150:32177   */\n    tag_803:\n        /* \"#utility.yul\":32168:32169   */\n      0x01\n        /* \"#utility.yul\":32159:32169   */\n      swap2\n      pop\n        /* \"#utility.yul\":32170:32175   */\n      pop\n      jump(tag_799)\n        /* \"#utility.yul\":32186:32377   */\n    tag_804:\n        /* \"#utility.yul\":32231:32234   */\n      0xff\n        /* \"#utility.yul\":32221:32229   */\n      dup5\n        /* \"#utility.yul\":32218:32235   */\n      gt\n        /* \"#utility.yul\":32215:32258   */\n      iszero\n      tag_805\n      jumpi\n        /* \"#utility.yul\":32238:32256   */\n      tag_806\n      tag_451\n      jump\t// in\n    tag_806:\n        /* \"#utility.yul\":32215:32258   */\n    tag_805:\n        /* \"#utility.yul\":32287:32295   */\n      dup4\n        /* \"#utility.yul\":32284:32285   */\n      0x02\n        /* \"#utility.yul\":32280:32296   */\n      exp\n        /* \"#utility.yul\":32271:32296   */\n      swap2\n      pop\n        /* \"#utility.yul\":32322:32325   */\n      dup5\n        /* \"#utility.yul\":32315:32320   */\n      dup3\n        /* \"#utility.yul\":32312:32326   */\n      gt\n        /* \"#utility.yul\":32309:32349   */\n      iszero\n      tag_807\n      jumpi\n        /* \"#utility.yul\":32329:32347   */\n      tag_808\n      tag_451\n      jump\t// in\n    tag_808:\n        /* \"#utility.yul\":32309:32349   */\n    tag_807:\n        /* \"#utility.yul\":32362:32367   */\n      pop\n      jump(tag_799)\n        /* \"#utility.yul\":32100:32377   */\n    tag_802:\n      pop\n        /* \"#utility.yul\":32486:32488   */\n      0x20\n        /* \"#utility.yul\":32476:32484   */\n      dup4\n        /* \"#utility.yul\":32473:32489   */\n      lt\n        /* \"#utility.yul\":32467:32470   */\n      0x0133\n        /* \"#utility.yul\":32461:32465   */\n      dup4\n        /* \"#utility.yul\":32458:32471   */\n      lt\n        /* \"#utility.yul\":32454:32490   */\n      and\n        /* \"#utility.yul\":32436:32438   */\n      0x4e\n        /* \"#utility.yul\":32426:32434   */\n      dup5\n        /* \"#utility.yul\":32423:32439   */\n      lt\n        /* \"#utility.yul\":32418:32420   */\n      0x0b\n        /* \"#utility.yul\":32412:32416   */\n      dup5\n        /* \"#utility.yul\":32409:32421   */\n      lt\n        /* \"#utility.yul\":32405:32440   */\n      and\n        /* \"#utility.yul\":32389:32500   */\n      or\n        /* \"#utility.yul\":32386:32632   */\n      iszero\n      tag_809\n      jumpi\n        /* \"#utility.yul\":32542:32550   */\n      dup3\n        /* \"#utility.yul\":32536:32540   */\n      dup3\n        /* \"#utility.yul\":32532:32551   */\n      exp\n        /* \"#utility.yul\":32523:32551   */\n      swap1\n      pop\n        /* \"#utility.yul\":32577:32580   */\n      dup4\n        /* \"#utility.yul\":32570:32575   */\n      dup2\n        /* \"#utility.yul\":32567:32581   */\n      gt\n        /* \"#utility.yul\":32564:32604   */\n      iszero\n      tag_810\n      jumpi\n        /* \"#utility.yul\":32584:32602   */\n      tag_811\n      tag_451\n      jump\t// in\n    tag_811:\n        /* \"#utility.yul\":32564:32604   */\n    tag_810:\n        /* \"#utility.yul\":32617:32622   */\n      jump(tag_799)\n        /* \"#utility.yul\":32386:32632   */\n    tag_809:\n        /* \"#utility.yul\":32657:32699   */\n      tag_812\n        /* \"#utility.yul\":32695:32698   */\n      dup5\n        /* \"#utility.yul\":32685:32693   */\n      dup5\n        /* \"#utility.yul\":32679:32683   */\n      dup5\n        /* \"#utility.yul\":32676:32677   */\n      0x01\n        /* \"#utility.yul\":32657:32699   */\n      tag_465\n      jump\t// in\n    tag_812:\n        /* \"#utility.yul\":32642:32699   */\n      swap3\n      pop\n      swap1\n      pop\n        /* \"#utility.yul\":32731:32735   */\n      dup2\n        /* \"#utility.yul\":32726:32729   */\n      dup5\n        /* \"#utility.yul\":32722:32736   */\n      div\n        /* \"#utility.yul\":32715:32720   */\n      dup2\n        /* \"#utility.yul\":32712:32737   */\n      gt\n        /* \"#utility.yul\":32709:32760   */\n      iszero\n      tag_813\n      jumpi\n        /* \"#utility.yul\":32740:32758   */\n      tag_814\n      tag_451\n      jump\t// in\n    tag_814:\n        /* \"#utility.yul\":32709:32760   */\n    tag_813:\n        /* \"#utility.yul\":32789:32793   */\n      dup2\n        /* \"#utility.yul\":32782:32787   */\n      dup2\n        /* \"#utility.yul\":32778:32794   */\n      mul\n        /* \"#utility.yul\":32769:32794   */\n      swap1\n      pop\n        /* \"#utility.yul\":31727:32800   */\n    tag_799:\n      swap4\n      swap3\n      pop\n      pop\n      pop\n      jump\t// out\n        /* \"#utility.yul\":32806:33091   */\n    tag_349:\n        /* \"#utility.yul\":32866:32871   */\n      0x00\n        /* \"#utility.yul\":32890:32913   */\n      tag_816\n        /* \"#utility.yul\":32908:32912   */\n      dup3\n        /* \"#utility.yul\":32890:32913   */\n      tag_389\n      jump\t// in\n    tag_816:\n        /* \"#utility.yul\":32882:32913   */\n      swap2\n      pop\n        /* \"#utility.yul\":32934:32961   */\n      tag_817\n        /* \"#utility.yul\":32952:32960   */\n      dup4\n        /* \"#utility.yul\":32934:32961   */\n      tag_389\n      jump\t// in\n    tag_817:\n        /* \"#utility.yul\":32922:32961   */\n      swap3\n      pop\n        /* \"#utility.yul\":32980:33084   */\n      tag_818\n        /* \"#utility.yul\":33017:33083   */\n      0xffffffffffffffffffffffffffffffffffffffffffffffffffffffffffffffff\n        /* \"#utility.yul\":33007:33015   */\n      dup5\n        /* \"#utility.yul\":33001:33005   */\n      dup5\n        /* \"#utility.yul\":32980:33084   */\n      tag_466\n      jump\t// in\n    tag_818:\n        /* \"#utility.yul\":32971:33084   */\n      swap1\n      pop\n        /* \"#utility.yul\":32806:33091   */\n      swap3\n      swap2\n      pop\n      pop\n      jump\t// out\n\n    auxdata: 0xa2646970667358221220d2e56a0004e14edd3de0cec41572f2ae8cca1426ef81f72dab3f769ad440125b64736f6c63430008090033\n}\n",
				"bytecode": {
					"linkReferences": {},
					"object": "6080604052600160045573a36085f69e2889c224210f603d836748e7dc0088600660006101000a81548173ffffffffffffffffffffffffffffffffffffffff021916908373ffffffffffffffffffffffffffffffffffffffff16021790555073fb0951ba1929336d2f621cc0f0928d89a91d508f600760006101000a81548173ffffffffffffffffffffffffffffffffffffffff021916908373ffffffffffffffffffffffffffffffffffffffff160217905550348015620000c057600080fd5b50620000f4600660009054906101000a900473ffffffffffffffffffffffffffffffffffffffff166200012d60201b60201c565b62000127600760009054906101000a900473ffffffffffffffffffffffffffffffffffffffff166200017160201b60201c565b620001b5565b80600260006101000a81548173ffffffffffffffffffffffffffffffffffffffff021916908373ffffffffffffffffffffffffffffffffffffffff16021790555050565b80600360006101000a81548173ffffffffffffffffffffffffffffffffffffffff021916908373ffffffffffffffffffffffffffffffffffffffff16021790555050565b612ca480620001c56000396000f3fe608060405234801561001057600080fd5b50600436106100a85760003560e01c806393d070721161007157806393d0707214610139578063a294360814610155578063b075f53214610185578063de00d107146101a3578063e3c046a7146101d3578063ec65d0f814610203576100a8565b8062aa2967146100ad578063303a712f146100c957806341ea27ca146100e557806349687cca146101015780637adbf9731461011d575b600080fd5b6100c760048036038101906100c29190611a4f565b61021f565b005b6100e360048036038101906100de9190611cf6565b610325565b005b6100ff60048036038101906100fa9190611db0565b610351565b005b61011b60048036038101906101169190611e4b565b6103f9565b005b61013760048036038101906101329190611f38565b610582565b005b610153600480360381019061014e9190611cf6565b61058e565b005b61016f600480360381019061016a9190611f65565b6106c0565b60405161017c919061202d565b60405180910390f35b61018d610779565b60405161019a919061205e565b60405180910390f35b6101bd60048036038101906101b89190611f65565b610788565b6040516101ca919061216c565b60405180910390f35b6101ed60048036038101906101e89190611f65565b610858565b6040516101fa9190612218565b60405180910390f35b61021d60048036038101906102189190612292565b610928565b005b6000610232866393d0707260e01b61093a565b905061027e6040518060400160405280600681526020017f6d61726b65740000000000000000000000000000000000000000000000000000815250858361096a9092919063ffffffff16565b6102c86040518060400160405280600881526020017f6c65616775654964000000000000000000000000000000000000000000000000815250848361096a9092919063ffffffff16565b6103126040518060400160405280600481526020017f6461746500000000000000000000000000000000000000000000000000000000815250838361096a9092919063ffffffff16565b61031c818661099d565b50505050505050565b8060086000848152602001908152602001600020908051906020019061034c929190611778565b505050565b600061035b6109d4565b90506103f48173ffffffffffffffffffffffffffffffffffffffff1663a9059cbb84866040518363ffffffff1660e01b815260040161039b929190612367565b602060405180830381600087803b1580156103b557600080fd5b505af11580156103c9573d6000803e3d6000fd5b505050506040513d601f19601f820116820180604052508101906103ed91906123c8565b83856109fe565b505050565b600061040c886393d0707260e01b61093a565b90506104586040518060400160405280600681526020017f6d61726b65740000000000000000000000000000000000000000000000000000815250878361096a9092919063ffffffff16565b6104a26040518060400160405280600881526020017f6c65616775654964000000000000000000000000000000000000000000000000815250868361096a9092919063ffffffff16565b6104ec6040518060400160405280600481526020017f6461746500000000000000000000000000000000000000000000000000000000815250858361096a9092919063ffffffff16565b61056d816040518060400160405280600781526020017f67616d6549647300000000000000000000000000000000000000000000000000815250858580806020026020016040519081016040528093929190818152602001838360200280828437600081840152601f19601f82011690508083019250505050505050610a47565b610577818861099d565b505050505050505050565b61058b81610ad5565b50565b816005600082815260200190815260200160002060009054906101000a900473ffffffffffffffffffffffffffffffffffffffff1673ffffffffffffffffffffffffffffffffffffffff163373ffffffffffffffffffffffffffffffffffffffff1614610630576040517f08c379a000000000000000000000000000000000000000000000000000000000815260040161062790612478565b60405180910390fd5b6005600082815260200190815260200160002060006101000a81549073ffffffffffffffffffffffffffffffffffffffff0219169055807f7cc135e0cebb02c3480ae5d74d377283180a2601f8f644edf7987b009316c63a60405160405180910390a2816008600085815260200190815260200160002090805190602001906106ba929190611778565b50505050565b600860205281600052604060002081815481106106dc57600080fd5b906000526020600020016000915091505080546106f8906124c7565b80601f0160208091040260200160405190810160405280929190818152602001828054610724906124c7565b80156107715780601f1061074657610100808354040283529160200191610771565b820191906000526020600020905b81548152906001019060200180831161075457829003601f168201915b505050505081565b6000610783610b19565b905090565b6107906117d8565b6108506008600085815260200190815260200160002083815481106107b8576107b76124f9565b5b9060005260206000200180546107cd906124c7565b80601f01602080910402602001604051908101604052809291908181526020018280546107f9906124c7565b80156108465780601f1061081b57610100808354040283529160200191610846565b820191906000526020600020905b81548152906001019060200180831161082957829003601f168201915b5050505050610b43565b905092915050565b61086061180c565b610920600860008581526020019081526020016000208381548110610888576108876124f9565b5b90600052602060002001805461089d906124c7565b80601f01602080910402602001604051908101604052809291908181526020018280546108c9906124c7565b80156109165780601f106108eb57610100808354040283529160200191610916565b820191906000526020600020905b8154815290600101906020018083116108f957829003601f168201915b5050505050610c03565b905092915050565b61093484848484610ce0565b50505050565b610942611841565b61094a611841565b61096184308584610df3909392919063ffffffff16565b91505092915050565b610981828460800151610ea390919063ffffffff16565b610998818460800151610ec890919063ffffffff16565b505050565b60006109cc600360009054906101000a900473ffffffffffffffffffffffffffffffffffffffff168484610ef8565b905092915050565b6000600260009054906101000a900473ffffffffffffffffffffffffffffffffffffffff16905090565b82610a425781816040517f7ab2f977000000000000000000000000000000000000000000000000000000008152600401610a39929190612528565b60405180910390fd5b505050565b6000839050610a63838260800151610ea390919063ffffffff16565b610a708160800151610fc2565b60008251905060005b81811015610abd57610ab2848281518110610a9757610a966124f9565b5b60200260200101518460800151610ec890919063ffffffff16565b806001019050610a79565b50610acb8260800151610fd0565b8194505050505050565b80600360006101000a81548173ffffffffffffffffffffffffffffffffffffffff021916908373ffffffffffffffffffffffffffffffffffffffff16021790555050565b6000600360009054906101000a900473ffffffffffffffffffffffffffffffffffffffff16905090565b610b4b6117d8565b6000610b5a6000600485610fde565b610b6390612583565b60e01c9050600083600481518110610b7e57610b7d6124f9565b5b602001015160f81c60f81b60f81c9050600084600581518110610ba457610ba36124f9565b5b602001015160f81c60f81b60f81c90506000610bc36006875188610fde565b9050600060405180608001604052808663ffffffff1681526020018560ff1681526020018460ff1681526020018381525090508095505050505050919050565b610c0b61180c565b6000610c1a6000600485610fde565b610c2390612583565b60e01c90506000610c376004600986610fde565b610c409061262b565b60d81c9050600084600981518110610c5b57610c5a6124f9565b5b602001015160f81c60f81b60f81c9050600081600a610c7a91906126c1565b60ff1690506000610c8d600a8389610fde565b90506000610c9d8389518a610fde565b9050600060405180608001604052808863ffffffff1681526020018764ffffffffff16815260200184815260200183815250905080975050505050505050919050565b60006005600086815260200190815260200160002060009054906101000a900473ffffffffffffffffffffffffffffffffffffffff1690506005600086815260200190815260200160002060006101000a81549073ffffffffffffffffffffffffffffffffffffffff0219169055847fe1fe3afa0f7f761ff0a8b89086790efd5140d2907ebd5b7ff6bfcb5e075fd4c560405160405180910390a28073ffffffffffffffffffffffffffffffffffffffff16636ee4d553868686866040518563ffffffff1660e01b8152600401610dba9493929190612716565b600060405180830381600087803b158015610dd457600080fd5b505af1158015610de8573d6000803e3d6000fd5b505050505050505050565b610dfb611841565b610e0b85608001516101006110da565b508385600001818152505082856020019073ffffffffffffffffffffffffffffffffffffffff16908173ffffffffffffffffffffffffffffffffffffffff16815250508185604001907bffffffffffffffffffffffffffffffffffffffffffffffffffffffff191690817bffffffffffffffffffffffffffffffffffffffffffffffffffffffff191681525050849050949350505050565b610eb08260038351611144565b610ec381836112c990919063ffffffff16565b505050565b67ffffffffffffffff811115610ee757610ee282826112eb565b610ef4565b610ef382600083611144565b5b5050565b6000806004549050600181610f0d919061275b565b6004819055506000633c6d41b960e01b600080876000015188604001518660028b6080015160000151604051602401610f4c97969594939291906127b1565b604051602081830303815290604052907bffffffffffffffffffffffffffffffffffffffffffffffffffffffff19166020820180517bffffffffffffffffffffffffffffffffffffffffffffffffffffffff83818316178352505050509050610fb786838684611337565b925050509392505050565b610fcd8160046114db565b50565b610fdb8160076114db565b50565b606060008484610fee9190612827565b67ffffffffffffffff81111561100757611006611ae0565b5b6040519080825280601f01601f1916602001820160405280156110395781602001600182028036833780820191505090505b50905060005b858561104b9190612827565b8110156110ce5783818761105f919061275b565b815181106110705761106f6124f9565b5b602001015160f81c60f81b82828151811061108e5761108d6124f9565b5b60200101907effffffffffffffffffffffffffffffffffffffffffffffffffffffffffffff1916908160001a905350806110c79061285b565b905061103f565b50809150509392505050565b6110e26118ae565b60006020836110f191906128d3565b1461111d5760208261110391906128d3565b602061110f9190612827565b8261111a919061275b565b91505b81836020018181525050604051808452600081528281016020016040525082905092915050565b60178167ffffffffffffffff161161117b576111758160058460ff16901b60ff1617846114fd90919063ffffffff16565b506112c4565b60ff8167ffffffffffffffff16116111d1576111aa601860058460ff16901b17846114fd90919063ffffffff16565b506111cb8167ffffffffffffffff1660018561151d9092919063ffffffff16565b506112c3565b61ffff8167ffffffffffffffff161161122857611201601960058460ff16901b17846114fd90919063ffffffff16565b506112228167ffffffffffffffff1660028561151d9092919063ffffffff16565b506112c2565b63ffffffff8167ffffffffffffffff16116112815761125a601a60058460ff16901b17846114fd90919063ffffffff16565b5061127b8167ffffffffffffffff1660048561151d9092919063ffffffff16565b506112c1565b61129e601b60058460ff16901b17846114fd90919063ffffffff16565b506112bf8167ffffffffffffffff1660088561151d9092919063ffffffff16565b505b5b5b5b505050565b6112d16118ae565b6112e38384600001515184855161153f565b905092915050565b61130960026005600660ff16901b17836114fd90919063ffffffff16565b50611333828260405160200161131f9190612904565b60405160208183030381529060405261162e565b5050565b6000308460405160200161134c92919061299a565b604051602081830303815290604052805190602001209050846005600083815260200190815260200160002060006101000a81548173ffffffffffffffffffffffffffffffffffffffff021916908373ffffffffffffffffffffffffffffffffffffffff160217905550807fb5e6e01e79f91267dc17b4e6314d5d4d03593d2ceee0fbb452b750bd70ea5af960405160405180910390a2600260009054906101000a900473ffffffffffffffffffffffffffffffffffffffff1673ffffffffffffffffffffffffffffffffffffffff16634000aea08685856040518463ffffffff1660e01b8152600401611442939291906129c6565b602060405180830381600087803b15801561145c57600080fd5b505af1158015611470573d6000803e3d6000fd5b505050506040513d601f19601f8201168201806040525081019061149491906123c8565b6114d3576040517f08c379a00000000000000000000000000000000000000000000000000000000081526004016114ca90612a76565b60405180910390fd5b949350505050565b6114f8601f60058360ff16901b17836114fd90919063ffffffff16565b505050565b6115056118ae565b6115158384600001515184611653565b905092915050565b6115256118ae565b6115368485600001515185856116aa565b90509392505050565b6115476118ae565b825182111561155557600080fd5b84602001518285611566919061275b565b111561159b5761159a85600261158b88602001518887611586919061275b565b611738565b6115959190612a96565b611754565b5b6000808651805187602083010193508088870111156115ba5787860182525b60208701925050505b6020841061160157805182526020826115dc919061275b565b91506020816115eb919061275b565b90506020846115fa9190612827565b93506115c3565b60006001856020036101000a03905080198251168184511681811785525050508692505050949350505050565b61163b8260028351611144565b61164e81836112c990919063ffffffff16565b505050565b61165b6118ae565b8360200151831061168157611680846002866020015161167b9190612a96565b611754565b5b835180516020858301018481538186141561169d576001820183525b5050508390509392505050565b6116b26118ae565b846020015184836116c3919061275b565b11156116eb576116ea85600286856116db919061275b565b6116e59190612a96565b611754565b5b60006001836101006116fd9190612c23565b6117079190612827565b9050855183868201018583198251161781528151858801111561172a5784870182525b505085915050949350505050565b60008183111561174a5782905061174e565b8190505b92915050565b60008260000151905061176783836110da565b5061177283826112c9565b50505050565b8280548282559060005260206000209081019282156117c7579160200282015b828111156117c65782518290805190602001906117b69291906118c8565b5091602001919060010190611798565b5b5090506117d4919061194e565b5090565b6040518060800160405280600063ffffffff168152602001600060ff168152602001600060ff168152602001606081525090565b6040518060800160405280600063ffffffff168152602001600064ffffffffff16815260200160608152602001606081525090565b6040518060a0016040528060008019168152602001600073ffffffffffffffffffffffffffffffffffffffff16815260200160007bffffffffffffffffffffffffffffffffffffffffffffffffffffffff19168152602001600081526020016118a86118ae565b81525090565b604051806040016040528060608152602001600081525090565b8280546118d4906124c7565b90600052602060002090601f0160209004810192826118f6576000855561193d565b82601f1061190f57805160ff191683800117855561193d565b8280016001018555821561193d579182015b8281111561193c578251825591602001919060010190611921565b5b50905061194a9190611972565b5090565b5b8082111561196e5760008181611965919061198f565b5060010161194f565b5090565b5b8082111561198b576000816000905550600101611973565b5090565b50805461199b906124c7565b6000825580601f106119ad57506119cc565b601f0160209004906000526020600020908101906119cb9190611972565b5b50565b6000604051905090565b600080fd5b600080fd5b6000819050919050565b6119f6816119e3565b8114611a0157600080fd5b50565b600081359050611a13816119ed565b92915050565b6000819050919050565b611a2c81611a19565b8114611a3757600080fd5b50565b600081359050611a4981611a23565b92915050565b600080600080600060a08688031215611a6b57611a6a6119d9565b5b6000611a7988828901611a04565b9550506020611a8a88828901611a3a565b9450506040611a9b88828901611a3a565b9350506060611aac88828901611a3a565b9250506080611abd88828901611a3a565b9150509295509295909350565b600080fd5b6000601f19601f8301169050919050565b7f4e487b7100000000000000000000000000000000000000000000000000000000600052604160045260246000fd5b611b1882611acf565b810181811067ffffffffffffffff82111715611b3757611b36611ae0565b5b80604052505050565b6000611b4a6119cf565b9050611b568282611b0f565b919050565b600067ffffffffffffffff821115611b7657611b75611ae0565b5b602082029050602081019050919050565b600080fd5b600080fd5b600067ffffffffffffffff821115611bac57611bab611ae0565b5b611bb582611acf565b9050602081019050919050565b82818337600083830152505050565b6000611be4611bdf84611b91565b611b40565b905082815260208101848484011115611c0057611bff611b8c565b5b611c0b848285611bc2565b509392505050565b600082601f830112611c2857611c27611aca565b5b8135611c38848260208601611bd1565b91505092915050565b6000611c54611c4f84611b5b565b611b40565b90508083825260208201905060208402830185811115611c7757611c76611b87565b5b835b81811015611cbe57803567ffffffffffffffff811115611c9c57611c9b611aca565b5b808601611ca98982611c13565b85526020850194505050602081019050611c79565b5050509392505050565b600082601f830112611cdd57611cdc611aca565b5b8135611ced848260208601611c41565b91505092915050565b60008060408385031215611d0d57611d0c6119d9565b5b6000611d1b85828601611a04565b925050602083013567ffffffffffffffff811115611d3c57611d3b6119de565b5b611d4885828601611cc8565b9150509250929050565b600073ffffffffffffffffffffffffffffffffffffffff82169050919050565b6000611d7d82611d52565b9050919050565b611d8d81611d72565b8114611d9857600080fd5b50565b600081359050611daa81611d84565b92915050565b60008060408385031215611dc757611dc66119d9565b5b6000611dd585828601611a3a565b9250506020611de685828601611d9b565b9150509250929050565b600080fd5b60008083601f840112611e0b57611e0a611aca565b5b8235905067ffffffffffffffff811115611e2857611e27611df0565b5b602083019150836020820283011115611e4457611e43611b87565b5b9250929050565b600080600080600080600060c0888a031215611e6a57611e696119d9565b5b6000611e788a828b01611a04565b9750506020611e898a828b01611a3a565b9650506040611e9a8a828b01611a3a565b9550506060611eab8a828b01611a3a565b9450506080611ebc8a828b01611a3a565b93505060a088013567ffffffffffffffff811115611edd57611edc6119de565b5b611ee98a828b01611df5565b925092505092959891949750929550565b6000611f0582611d52565b9050919050565b611f1581611efa565b8114611f2057600080fd5b50565b600081359050611f3281611f0c565b92915050565b600060208284031215611f4e57611f4d6119d9565b5b6000611f5c84828501611f23565b91505092915050565b60008060408385031215611f7c57611f7b6119d9565b5b6000611f8a85828601611a04565b9250506020611f9b85828601611a3a565b9150509250929050565b600081519050919050565b600082825260208201905092915050565b60005b83811015611fdf578082015181840152602081019050611fc4565b83811115611fee576000848401525b50505050565b6000611fff82611fa5565b6120098185611fb0565b9350612019818560208601611fc1565b61202281611acf565b840191505092915050565b600060208201905081810360008301526120478184611ff4565b905092915050565b61205881611efa565b82525050565b6000602082019050612073600083018461204f565b92915050565b600063ffffffff82169050919050565b61209281612079565b82525050565b600060ff82169050919050565b6120ae81612098565b82525050565b600081519050919050565b600082825260208201905092915050565b60006120db826120b4565b6120e581856120bf565b93506120f5818560208601611fc1565b6120fe81611acf565b840191505092915050565b60006080830160008301516121216000860182612089565b50602083015161213460208601826120a5565b50604083015161214760408601826120a5565b506060830151848203606086015261215f82826120d0565b9150508091505092915050565b600060208201905081810360008301526121868184612109565b905092915050565b600064ffffffffff82169050919050565b6121a88161218e565b82525050565b60006080830160008301516121c66000860182612089565b5060208301516121d9602086018261219f565b50604083015184820360408601526121f182826120d0565b9150506060830151848203606086015261220b82826120d0565b9150508091505092915050565b6000602082019050818103600083015261223281846121ae565b905092915050565b60007fffffffff0000000000000000000000000000000000000000000000000000000082169050919050565b61226f8161223a565b811461227a57600080fd5b50565b60008135905061228c81612266565b92915050565b600080600080608085870312156122ac576122ab6119d9565b5b60006122ba87828801611a04565b94505060206122cb87828801611a3a565b93505060406122dc8782880161227d565b92505060606122ed87828801611a3a565b91505092959194509250565b6000819050919050565b600061231e61231961231484611d52565b6122f9565b611d52565b9050919050565b600061233082612303565b9050919050565b600061234282612325565b9050919050565b61235281612337565b82525050565b61236181611a19565b82525050565b600060408201905061237c6000830185612349565b6123896020830184612358565b9392505050565b60008115159050919050565b6123a581612390565b81146123b057600080fd5b50565b6000815190506123c28161239c565b92915050565b6000602082840312156123de576123dd6119d9565b5b60006123ec848285016123b3565b91505092915050565b600082825260208201905092915050565b7f536f75726365206d75737420626520746865206f7261636c65206f662074686560008201527f2072657175657374000000000000000000000000000000000000000000000000602082015250565b60006124626028836123f5565b915061246d82612406565b604082019050919050565b6000602082019050818103600083015261249181612455565b9050919050565b7f4e487b7100000000000000000000000000000000000000000000000000000000600052602260045260246000fd5b600060028204905060018216806124df57607f821691505b602082108114156124f3576124f2612498565b5b50919050565b7f4e487b7100000000000000000000000000000000000000000000000000000000600052603260045260246000fd5b600060408201905061253d600083018561204f565b61254a6020830184612358565b9392505050565b6000819050602082019050919050565b600061256d825161223a565b80915050919050565b600082821b905092915050565b600061258e82611fa5565b8261259884612551565b90506125a381612561565b925060048210156125e3576125de7fffffffff0000000000000000000000000000000000000000000000000000000083600403600802612576565b831692505b5050919050565b60007fffffffffff00000000000000000000000000000000000000000000000000000082169050919050565b600061262282516125ea565b80915050919050565b600061263682611fa5565b8261264084612551565b905061264b81612616565b9250600582101561268b576126867fffffffffff00000000000000000000000000000000000000000000000000000083600503600802612576565b831692505b5050919050565b7f4e487b7100000000000000000000000000000000000000000000000000000000600052601160045260246000fd5b60006126cc82612098565b91506126d783612098565b92508260ff038211156126ed576126ec612692565b5b828201905092915050565b612701816119e3565b82525050565b6127108161223a565b82525050565b600060808201905061272b60008301876126f8565b6127386020830186612358565b6127456040830185612707565b6127526060830184612358565b95945050505050565b600061276682611a19565b915061277183611a19565b9250827fffffffffffffffffffffffffffffffffffffffffffffffffffffffffffffffff038211156127a6576127a5612692565b5b828201905092915050565b600060e0820190506127c6600083018a61204f565b6127d36020830189612358565b6127e060408301886126f8565b6127ed6060830187612707565b6127fa6080830186612358565b61280760a0830185612358565b81810360c08301526128198184611ff4565b905098975050505050505050565b600061283282611a19565b915061283d83611a19565b9250828210156128505761284f612692565b5b828203905092915050565b600061286682611a19565b91507fffffffffffffffffffffffffffffffffffffffffffffffffffffffffffffffff82141561289957612898612692565b5b600182019050919050565b7f4e487b7100000000000000000000000000000000000000000000000000000000600052601260045260246000fd5b60006128de82611a19565b91506128e983611a19565b9250826128f9576128f86128a4565b5b828206905092915050565b60006020820190506129196000830184612358565b92915050565b600061292a82612325565b9050919050565b60008160601b9050919050565b600061294982612931565b9050919050565b600061295b8261293e565b9050919050565b61297361296e8261291f565b612950565b82525050565b6000819050919050565b61299461298f82611a19565b612979565b82525050565b60006129a68285612962565b6014820191506129b68284612983565b6020820191508190509392505050565b60006060820190506129db600083018661204f565b6129e86020830185612358565b81810360408301526129fa8184611ff4565b9050949350505050565b7f756e61626c6520746f207472616e73666572416e6443616c6c20746f206f726160008201527f636c650000000000000000000000000000000000000000000000000000000000602082015250565b6000612a606023836123f5565b9150612a6b82612a04565b604082019050919050565b60006020820190508181036000830152612a8f81612a53565b9050919050565b6000612aa182611a19565b9150612aac83611a19565b9250817fffffffffffffffffffffffffffffffffffffffffffffffffffffffffffffffff0483118215151615612ae557612ae4612692565b5b828202905092915050565b60008160011c9050919050565b6000808291508390505b6001851115612b4757808604811115612b2357612b22612692565b5b6001851615612b325780820291505b8081029050612b4085612af0565b9450612b07565b94509492505050565b600082612b605760019050612c1c565b81612b6e5760009050612c1c565b8160018114612b845760028114612b8e57612bbd565b6001915050612c1c565b60ff841115612ba057612b9f612692565b5b8360020a915084821115612bb757612bb6612692565b5b50612c1c565b5060208310610133831016604e8410600b8410161715612bf25782820a905083811115612bed57612bec612692565b5b612c1c565b612bff8484846001612afd565b92509050818404811115612c1657612c15612692565b5b81810290505b9392505050565b6000612c2e82611a19565b9150612c3983611a19565b9250612c667fffffffffffffffffffffffffffffffffffffffffffffffffffffffffffffffff8484612b50565b90509291505056fea2646970667358221220d2e56a0004e14edd3de0cec41572f2ae8cca1426ef81f72dab3f769ad440125b64736f6c63430008090033",
					"opcodes": "PUSH1 0x80 PUSH1 0x40 MSTORE PUSH1 0x1 PUSH1 0x4 SSTORE PUSH20 0xA36085F69E2889C224210F603D836748E7DC0088 PUSH1 0x6 PUSH1 0x0 PUSH2 0x100 EXP DUP2 SLOAD DUP2 PUSH20 0xFFFFFFFFFFFFFFFFFFFFFFFFFFFFFFFFFFFFFFFF MUL NOT AND SWAP1 DUP4 PUSH20 0xFFFFFFFFFFFFFFFFFFFFFFFFFFFFFFFFFFFFFFFF AND MUL OR SWAP1 SSTORE POP PUSH20 0xFB0951BA1929336D2F621CC0F0928D89A91D508F PUSH1 0x7 PUSH1 0x0 PUSH2 0x100 EXP DUP2 SLOAD DUP2 PUSH20 0xFFFFFFFFFFFFFFFFFFFFFFFFFFFFFFFFFFFFFFFF MUL NOT AND SWAP1 DUP4 PUSH20 0xFFFFFFFFFFFFFFFFFFFFFFFFFFFFFFFFFFFFFFFF AND MUL OR SWAP1 SSTORE POP CALLVALUE DUP1 ISZERO PUSH3 0xC0 JUMPI PUSH1 0x0 DUP1 REVERT JUMPDEST POP PUSH3 0xF4 PUSH1 0x6 PUSH1 0x0 SWAP1 SLOAD SWAP1 PUSH2 0x100 EXP SWAP1 DIV PUSH20 0xFFFFFFFFFFFFFFFFFFFFFFFFFFFFFFFFFFFFFFFF AND PUSH3 0x12D PUSH1 0x20 SHL PUSH1 0x20 SHR JUMP JUMPDEST PUSH3 0x127 PUSH1 0x7 PUSH1 0x0 SWAP1 SLOAD SWAP1 PUSH2 0x100 EXP SWAP1 DIV PUSH20 0xFFFFFFFFFFFFFFFFFFFFFFFFFFFFFFFFFFFFFFFF AND PUSH3 0x171 PUSH1 0x20 SHL PUSH1 0x20 SHR JUMP JUMPDEST PUSH3 0x1B5 JUMP JUMPDEST DUP1 PUSH1 0x2 PUSH1 0x0 PUSH2 0x100 EXP DUP2 SLOAD DUP2 PUSH20 0xFFFFFFFFFFFFFFFFFFFFFFFFFFFFFFFFFFFFFFFF MUL NOT AND SWAP1 DUP4 PUSH20 0xFFFFFFFFFFFFFFFFFFFFFFFFFFFFFFFFFFFFFFFF AND MUL OR SWAP1 SSTORE POP POP JUMP JUMPDEST DUP1 PUSH1 0x3 PUSH1 0x0 PUSH2 0x100 EXP DUP2 SLOAD DUP2 PUSH20 0xFFFFFFFFFFFFFFFFFFFFFFFFFFFFFFFFFFFFFFFF MUL NOT AND SWAP1 DUP4 PUSH20 0xFFFFFFFFFFFFFFFFFFFFFFFFFFFFFFFFFFFFFFFF AND MUL OR SWAP1 SSTORE POP POP JUMP JUMPDEST PUSH2 0x2CA4 DUP1 PUSH3 0x1C5 PUSH1 0x0 CODECOPY PUSH1 0x0 RETURN INVALID PUSH1 0x80 PUSH1 0x40 MSTORE CALLVALUE DUP1 ISZERO PUSH2 0x10 JUMPI PUSH1 0x0 DUP1 REVERT JUMPDEST POP PUSH1 0x4 CALLDATASIZE LT PUSH2 0xA8 JUMPI PUSH1 0x0 CALLDATALOAD PUSH1 0xE0 SHR DUP1 PUSH4 0x93D07072 GT PUSH2 0x71 JUMPI DUP1 PUSH4 0x93D07072 EQ PUSH2 0x139 JUMPI DUP1 PUSH4 0xA2943608 EQ PUSH2 0x155 JUMPI DUP1 PUSH4 0xB075F532 EQ PUSH2 0x185 JUMPI DUP1 PUSH4 0xDE00D107 EQ PUSH2 0x1A3 JUMPI DUP1 PUSH4 0xE3C046A7 EQ PUSH2 0x1D3 JUMPI DUP1 PUSH4 0xEC65D0F8 EQ PUSH2 0x203 JUMPI PUSH2 0xA8 JUMP JUMPDEST DUP1 PUSH3 0xAA2967 EQ PUSH2 0xAD JUMPI DUP1 PUSH4 0x303A712F EQ PUSH2 0xC9 JUMPI DUP1 PUSH4 0x41EA27CA EQ PUSH2 0xE5 JUMPI DUP1 PUSH4 0x49687CCA EQ PUSH2 0x101 JUMPI DUP1 PUSH4 0x7ADBF973 EQ PUSH2 0x11D JUMPI JUMPDEST PUSH1 0x0 DUP1 REVERT JUMPDEST PUSH2 0xC7 PUSH1 0x4 DUP1 CALLDATASIZE SUB DUP2 ADD SWAP1 PUSH2 0xC2 SWAP2 SWAP1 PUSH2 0x1A4F JUMP JUMPDEST PUSH2 0x21F JUMP JUMPDEST STOP JUMPDEST PUSH2 0xE3 PUSH1 0x4 DUP1 CALLDATASIZE SUB DUP2 ADD SWAP1 PUSH2 0xDE SWAP2 SWAP1 PUSH2 0x1CF6 JUMP JUMPDEST PUSH2 0x325 JUMP JUMPDEST STOP JUMPDEST PUSH2 0xFF PUSH1 0x4 DUP1 CALLDATASIZE SUB DUP2 ADD SWAP1 PUSH2 0xFA SWAP2 SWAP1 PUSH2 0x1DB0 JUMP JUMPDEST PUSH2 0x351 JUMP JUMPDEST STOP JUMPDEST PUSH2 0x11B PUSH1 0x4 DUP1 CALLDATASIZE SUB DUP2 ADD SWAP1 PUSH2 0x116 SWAP2 SWAP1 PUSH2 0x1E4B JUMP JUMPDEST PUSH2 0x3F9 JUMP JUMPDEST STOP JUMPDEST PUSH2 0x137 PUSH1 0x4 DUP1 CALLDATASIZE SUB DUP2 ADD SWAP1 PUSH2 0x132 SWAP2 SWAP1 PUSH2 0x1F38 JUMP JUMPDEST PUSH2 0x582 JUMP JUMPDEST STOP JUMPDEST PUSH2 0x153 PUSH1 0x4 DUP1 CALLDATASIZE SUB DUP2 ADD SWAP1 PUSH2 0x14E SWAP2 SWAP1 PUSH2 0x1CF6 JUMP JUMPDEST PUSH2 0x58E JUMP JUMPDEST STOP JUMPDEST PUSH2 0x16F PUSH1 0x4 DUP1 CALLDATASIZE SUB DUP2 ADD SWAP1 PUSH2 0x16A SWAP2 SWAP1 PUSH2 0x1F65 JUMP JUMPDEST PUSH2 0x6C0 JUMP JUMPDEST PUSH1 0x40 MLOAD PUSH2 0x17C SWAP2 SWAP1 PUSH2 0x202D JUMP JUMPDEST PUSH1 0x40 MLOAD DUP1 SWAP2 SUB SWAP1 RETURN JUMPDEST PUSH2 0x18D PUSH2 0x779 JUMP JUMPDEST PUSH1 0x40 MLOAD PUSH2 0x19A SWAP2 SWAP1 PUSH2 0x205E JUMP JUMPDEST PUSH1 0x40 MLOAD DUP1 SWAP2 SUB SWAP1 RETURN JUMPDEST PUSH2 0x1BD PUSH1 0x4 DUP1 CALLDATASIZE SUB DUP2 ADD SWAP1 PUSH2 0x1B8 SWAP2 SWAP1 PUSH2 0x1F65 JUMP JUMPDEST PUSH2 0x788 JUMP JUMPDEST PUSH1 0x40 MLOAD PUSH2 0x1CA SWAP2 SWAP1 PUSH2 0x216C JUMP JUMPDEST PUSH1 0x40 MLOAD DUP1 SWAP2 SUB SWAP1 RETURN JUMPDEST PUSH2 0x1ED PUSH1 0x4 DUP1 CALLDATASIZE SUB DUP2 ADD SWAP1 PUSH2 0x1E8 SWAP2 SWAP1 PUSH2 0x1F65 JUMP JUMPDEST PUSH2 0x858 JUMP JUMPDEST PUSH1 0x40 MLOAD PUSH2 0x1FA SWAP2 SWAP1 PUSH2 0x2218 JUMP JUMPDEST PUSH1 0x40 MLOAD DUP1 SWAP2 SUB SWAP1 RETURN JUMPDEST PUSH2 0x21D PUSH1 0x4 DUP1 CALLDATASIZE SUB DUP2 ADD SWAP1 PUSH2 0x218 SWAP2 SWAP1 PUSH2 0x2292 JUMP JUMPDEST PUSH2 0x928 JUMP JUMPDEST STOP JUMPDEST PUSH1 0x0 PUSH2 0x232 DUP7 PUSH4 0x93D07072 PUSH1 0xE0 SHL PUSH2 0x93A JUMP JUMPDEST SWAP1 POP PUSH2 0x27E PUSH1 0x40 MLOAD DUP1 PUSH1 0x40 ADD PUSH1 0x40 MSTORE DUP1 PUSH1 0x6 DUP2 MSTORE PUSH1 0x20 ADD PUSH32 0x6D61726B65740000000000000000000000000000000000000000000000000000 DUP2 MSTORE POP DUP6 DUP4 PUSH2 0x96A SWAP1 SWAP3 SWAP2 SWAP1 PUSH4 0xFFFFFFFF AND JUMP JUMPDEST PUSH2 0x2C8 PUSH1 0x40 MLOAD DUP1 PUSH1 0x40 ADD PUSH1 0x40 MSTORE DUP1 PUSH1 0x8 DUP2 MSTORE PUSH1 0x20 ADD PUSH32 0x6C65616775654964000000000000000000000000000000000000000000000000 DUP2 MSTORE POP DUP5 DUP4 PUSH2 0x96A SWAP1 SWAP3 SWAP2 SWAP1 PUSH4 0xFFFFFFFF AND JUMP JUMPDEST PUSH2 0x312 PUSH1 0x40 MLOAD DUP1 PUSH1 0x40 ADD PUSH1 0x40 MSTORE DUP1 PUSH1 0x4 DUP2 MSTORE PUSH1 0x20 ADD PUSH32 0x6461746500000000000000000000000000000000000000000000000000000000 DUP2 MSTORE POP DUP4 DUP4 PUSH2 0x96A SWAP1 SWAP3 SWAP2 SWAP1 PUSH4 0xFFFFFFFF AND JUMP JUMPDEST PUSH2 0x31C DUP2 DUP7 PUSH2 0x99D JUMP JUMPDEST POP POP POP POP POP POP POP JUMP JUMPDEST DUP1 PUSH1 0x8 PUSH1 0x0 DUP5 DUP2 MSTORE PUSH1 0x20 ADD SWAP1 DUP2 MSTORE PUSH1 0x20 ADD PUSH1 0x0 KECCAK256 SWAP1 DUP1 MLOAD SWAP1 PUSH1 0x20 ADD SWAP1 PUSH2 0x34C SWAP3 SWAP2 SWAP1 PUSH2 0x1778 JUMP JUMPDEST POP POP POP JUMP JUMPDEST PUSH1 0x0 PUSH2 0x35B PUSH2 0x9D4 JUMP JUMPDEST SWAP1 POP PUSH2 0x3F4 DUP2 PUSH20 0xFFFFFFFFFFFFFFFFFFFFFFFFFFFFFFFFFFFFFFFF AND PUSH4 0xA9059CBB DUP5 DUP7 PUSH1 0x40 MLOAD DUP4 PUSH4 0xFFFFFFFF AND PUSH1 0xE0 SHL DUP2 MSTORE PUSH1 0x4 ADD PUSH2 0x39B SWAP3 SWAP2 SWAP1 PUSH2 0x2367 JUMP JUMPDEST PUSH1 0x20 PUSH1 0x40 MLOAD DUP1 DUP4 SUB DUP2 PUSH1 0x0 DUP8 DUP1 EXTCODESIZE ISZERO DUP1 ISZERO PUSH2 0x3B5 JUMPI PUSH1 0x0 DUP1 REVERT JUMPDEST POP GAS CALL ISZERO DUP1 ISZERO PUSH2 0x3C9 JUMPI RETURNDATASIZE PUSH1 0x0 DUP1 RETURNDATACOPY RETURNDATASIZE PUSH1 0x0 REVERT JUMPDEST POP POP POP POP PUSH1 0x40 MLOAD RETURNDATASIZE PUSH1 0x1F NOT PUSH1 0x1F DUP3 ADD AND DUP3 ADD DUP1 PUSH1 0x40 MSTORE POP DUP2 ADD SWAP1 PUSH2 0x3ED SWAP2 SWAP1 PUSH2 0x23C8 JUMP JUMPDEST DUP4 DUP6 PUSH2 0x9FE JUMP JUMPDEST POP POP POP JUMP JUMPDEST PUSH1 0x0 PUSH2 0x40C DUP9 PUSH4 0x93D07072 PUSH1 0xE0 SHL PUSH2 0x93A JUMP JUMPDEST SWAP1 POP PUSH2 0x458 PUSH1 0x40 MLOAD DUP1 PUSH1 0x40 ADD PUSH1 0x40 MSTORE DUP1 PUSH1 0x6 DUP2 MSTORE PUSH1 0x20 ADD PUSH32 0x6D61726B65740000000000000000000000000000000000000000000000000000 DUP2 MSTORE POP DUP8 DUP4 PUSH2 0x96A SWAP1 SWAP3 SWAP2 SWAP1 PUSH4 0xFFFFFFFF AND JUMP JUMPDEST PUSH2 0x4A2 PUSH1 0x40 MLOAD DUP1 PUSH1 0x40 ADD PUSH1 0x40 MSTORE DUP1 PUSH1 0x8 DUP2 MSTORE PUSH1 0x20 ADD PUSH32 0x6C65616775654964000000000000000000000000000000000000000000000000 DUP2 MSTORE POP DUP7 DUP4 PUSH2 0x96A SWAP1 SWAP3 SWAP2 SWAP1 PUSH4 0xFFFFFFFF AND JUMP JUMPDEST PUSH2 0x4EC PUSH1 0x40 MLOAD DUP1 PUSH1 0x40 ADD PUSH1 0x40 MSTORE DUP1 PUSH1 0x4 DUP2 MSTORE PUSH1 0x20 ADD PUSH32 0x6461746500000000000000000000000000000000000000000000000000000000 DUP2 MSTORE POP DUP6 DUP4 PUSH2 0x96A SWAP1 SWAP3 SWAP2 SWAP1 PUSH4 0xFFFFFFFF AND JUMP JUMPDEST PUSH2 0x56D DUP2 PUSH1 0x40 MLOAD DUP1 PUSH1 0x40 ADD PUSH1 0x40 MSTORE DUP1 PUSH1 0x7 DUP2 MSTORE PUSH1 0x20 ADD PUSH32 0x67616D6549647300000000000000000000000000000000000000000000000000 DUP2 MSTORE POP DUP6 DUP6 DUP1 DUP1 PUSH1 0x20 MUL PUSH1 0x20 ADD PUSH1 0x40 MLOAD SWAP1 DUP2 ADD PUSH1 0x40 MSTORE DUP1 SWAP4 SWAP3 SWAP2 SWAP1 DUP2 DUP2 MSTORE PUSH1 0x20 ADD DUP4 DUP4 PUSH1 0x20 MUL DUP1 DUP3 DUP5 CALLDATACOPY PUSH1 0x0 DUP2 DUP5 ADD MSTORE PUSH1 0x1F NOT PUSH1 0x1F DUP3 ADD AND SWAP1 POP DUP1 DUP4 ADD SWAP3 POP POP POP POP POP POP POP PUSH2 0xA47 JUMP JUMPDEST PUSH2 0x577 DUP2 DUP9 PUSH2 0x99D JUMP JUMPDEST POP POP POP POP POP POP POP POP POP JUMP JUMPDEST PUSH2 0x58B DUP2 PUSH2 0xAD5 JUMP JUMPDEST POP JUMP JUMPDEST DUP2 PUSH1 0x5 PUSH1 0x0 DUP3 DUP2 MSTORE PUSH1 0x20 ADD SWAP1 DUP2 MSTORE PUSH1 0x20 ADD PUSH1 0x0 KECCAK256 PUSH1 0x0 SWAP1 SLOAD SWAP1 PUSH2 0x100 EXP SWAP1 DIV PUSH20 0xFFFFFFFFFFFFFFFFFFFFFFFFFFFFFFFFFFFFFFFF AND PUSH20 0xFFFFFFFFFFFFFFFFFFFFFFFFFFFFFFFFFFFFFFFF AND CALLER PUSH20 0xFFFFFFFFFFFFFFFFFFFFFFFFFFFFFFFFFFFFFFFF AND EQ PUSH2 0x630 JUMPI PUSH1 0x40 MLOAD PUSH32 0x8C379A000000000000000000000000000000000000000000000000000000000 DUP2 MSTORE PUSH1 0x4 ADD PUSH2 0x627 SWAP1 PUSH2 0x2478 JUMP JUMPDEST PUSH1 0x40 MLOAD DUP1 SWAP2 SUB SWAP1 REVERT JUMPDEST PUSH1 0x5 PUSH1 0x0 DUP3 DUP2 MSTORE PUSH1 0x20 ADD SWAP1 DUP2 MSTORE PUSH1 0x20 ADD PUSH1 0x0 KECCAK256 PUSH1 0x0 PUSH2 0x100 EXP DUP2 SLOAD SWAP1 PUSH20 0xFFFFFFFFFFFFFFFFFFFFFFFFFFFFFFFFFFFFFFFF MUL NOT AND SWAP1 SSTORE DUP1 PUSH32 0x7CC135E0CEBB02C3480AE5D74D377283180A2601F8F644EDF7987B009316C63A PUSH1 0x40 MLOAD PUSH1 0x40 MLOAD DUP1 SWAP2 SUB SWAP1 LOG2 DUP2 PUSH1 0x8 PUSH1 0x0 DUP6 DUP2 MSTORE PUSH1 0x20 ADD SWAP1 DUP2 MSTORE PUSH1 0x20 ADD PUSH1 0x0 KECCAK256 SWAP1 DUP1 MLOAD SWAP1 PUSH1 0x20 ADD SWAP1 PUSH2 0x6BA SWAP3 SWAP2 SWAP1 PUSH2 0x1778 JUMP JUMPDEST POP POP POP POP JUMP JUMPDEST PUSH1 0x8 PUSH1 0x20 MSTORE DUP2 PUSH1 0x0 MSTORE PUSH1 0x40 PUSH1 0x0 KECCAK256 DUP2 DUP2 SLOAD DUP2 LT PUSH2 0x6DC JUMPI PUSH1 0x0 DUP1 REVERT JUMPDEST SWAP1 PUSH1 0x0 MSTORE PUSH1 0x20 PUSH1 0x0 KECCAK256 ADD PUSH1 0x0 SWAP2 POP SWAP2 POP POP DUP1 SLOAD PUSH2 0x6F8 SWAP1 PUSH2 0x24C7 JUMP JUMPDEST DUP1 PUSH1 0x1F ADD PUSH1 0x20 DUP1 SWAP2 DIV MUL PUSH1 0x20 ADD PUSH1 0x40 MLOAD SWAP1 DUP2 ADD PUSH1 0x40 MSTORE DUP1 SWAP3 SWAP2 SWAP1 DUP2 DUP2 MSTORE PUSH1 0x20 ADD DUP3 DUP1 SLOAD PUSH2 0x724 SWAP1 PUSH2 0x24C7 JUMP JUMPDEST DUP1 ISZERO PUSH2 0x771 JUMPI DUP1 PUSH1 0x1F LT PUSH2 0x746 JUMPI PUSH2 0x100 DUP1 DUP4 SLOAD DIV MUL DUP4 MSTORE SWAP2 PUSH1 0x20 ADD SWAP2 PUSH2 0x771 JUMP JUMPDEST DUP3 ADD SWAP2 SWAP1 PUSH1 0x0 MSTORE PUSH1 0x20 PUSH1 0x0 KECCAK256 SWAP1 JUMPDEST DUP2 SLOAD DUP2 MSTORE SWAP1 PUSH1 0x1 ADD SWAP1 PUSH1 0x20 ADD DUP1 DUP4 GT PUSH2 0x754 JUMPI DUP3 SWAP1 SUB PUSH1 0x1F AND DUP3 ADD SWAP2 JUMPDEST POP POP POP POP POP DUP2 JUMP JUMPDEST PUSH1 0x0 PUSH2 0x783 PUSH2 0xB19 JUMP JUMPDEST SWAP1 POP SWAP1 JUMP JUMPDEST PUSH2 0x790 PUSH2 0x17D8 JUMP JUMPDEST PUSH2 0x850 PUSH1 0x8 PUSH1 0x0 DUP6 DUP2 MSTORE PUSH1 0x20 ADD SWAP1 DUP2 MSTORE PUSH1 0x20 ADD PUSH1 0x0 KECCAK256 DUP4 DUP2 SLOAD DUP2 LT PUSH2 0x7B8 JUMPI PUSH2 0x7B7 PUSH2 0x24F9 JUMP JUMPDEST JUMPDEST SWAP1 PUSH1 0x0 MSTORE PUSH1 0x20 PUSH1 0x0 KECCAK256 ADD DUP1 SLOAD PUSH2 0x7CD SWAP1 PUSH2 0x24C7 JUMP JUMPDEST DUP1 PUSH1 0x1F ADD PUSH1 0x20 DUP1 SWAP2 DIV MUL PUSH1 0x20 ADD PUSH1 0x40 MLOAD SWAP1 DUP2 ADD PUSH1 0x40 MSTORE DUP1 SWAP3 SWAP2 SWAP1 DUP2 DUP2 MSTORE PUSH1 0x20 ADD DUP3 DUP1 SLOAD PUSH2 0x7F9 SWAP1 PUSH2 0x24C7 JUMP JUMPDEST DUP1 ISZERO PUSH2 0x846 JUMPI DUP1 PUSH1 0x1F LT PUSH2 0x81B JUMPI PUSH2 0x100 DUP1 DUP4 SLOAD DIV MUL DUP4 MSTORE SWAP2 PUSH1 0x20 ADD SWAP2 PUSH2 0x846 JUMP JUMPDEST DUP3 ADD SWAP2 SWAP1 PUSH1 0x0 MSTORE PUSH1 0x20 PUSH1 0x0 KECCAK256 SWAP1 JUMPDEST DUP2 SLOAD DUP2 MSTORE SWAP1 PUSH1 0x1 ADD SWAP1 PUSH1 0x20 ADD DUP1 DUP4 GT PUSH2 0x829 JUMPI DUP3 SWAP1 SUB PUSH1 0x1F AND DUP3 ADD SWAP2 JUMPDEST POP POP POP POP POP PUSH2 0xB43 JUMP JUMPDEST SWAP1 POP SWAP3 SWAP2 POP POP JUMP JUMPDEST PUSH2 0x860 PUSH2 0x180C JUMP JUMPDEST PUSH2 0x920 PUSH1 0x8 PUSH1 0x0 DUP6 DUP2 MSTORE PUSH1 0x20 ADD SWAP1 DUP2 MSTORE PUSH1 0x20 ADD PUSH1 0x0 KECCAK256 DUP4 DUP2 SLOAD DUP2 LT PUSH2 0x888 JUMPI PUSH2 0x887 PUSH2 0x24F9 JUMP JUMPDEST JUMPDEST SWAP1 PUSH1 0x0 MSTORE PUSH1 0x20 PUSH1 0x0 KECCAK256 ADD DUP1 SLOAD PUSH2 0x89D SWAP1 PUSH2 0x24C7 JUMP JUMPDEST DUP1 PUSH1 0x1F ADD PUSH1 0x20 DUP1 SWAP2 DIV MUL PUSH1 0x20 ADD PUSH1 0x40 MLOAD SWAP1 DUP2 ADD PUSH1 0x40 MSTORE DUP1 SWAP3 SWAP2 SWAP1 DUP2 DUP2 MSTORE PUSH1 0x20 ADD DUP3 DUP1 SLOAD PUSH2 0x8C9 SWAP1 PUSH2 0x24C7 JUMP JUMPDEST DUP1 ISZERO PUSH2 0x916 JUMPI DUP1 PUSH1 0x1F LT PUSH2 0x8EB JUMPI PUSH2 0x100 DUP1 DUP4 SLOAD DIV MUL DUP4 MSTORE SWAP2 PUSH1 0x20 ADD SWAP2 PUSH2 0x916 JUMP JUMPDEST DUP3 ADD SWAP2 SWAP1 PUSH1 0x0 MSTORE PUSH1 0x20 PUSH1 0x0 KECCAK256 SWAP1 JUMPDEST DUP2 SLOAD DUP2 MSTORE SWAP1 PUSH1 0x1 ADD SWAP1 PUSH1 0x20 ADD DUP1 DUP4 GT PUSH2 0x8F9 JUMPI DUP3 SWAP1 SUB PUSH1 0x1F AND DUP3 ADD SWAP2 JUMPDEST POP POP POP POP POP PUSH2 0xC03 JUMP JUMPDEST SWAP1 POP SWAP3 SWAP2 POP POP JUMP JUMPDEST PUSH2 0x934 DUP5 DUP5 DUP5 DUP5 PUSH2 0xCE0 JUMP JUMPDEST POP POP POP POP JUMP JUMPDEST PUSH2 0x942 PUSH2 0x1841 JUMP JUMPDEST PUSH2 0x94A PUSH2 0x1841 JUMP JUMPDEST PUSH2 0x961 DUP5 ADDRESS DUP6 DUP5 PUSH2 0xDF3 SWAP1 SWAP4 SWAP3 SWAP2 SWAP1 PUSH4 0xFFFFFFFF AND JUMP JUMPDEST SWAP2 POP POP SWAP3 SWAP2 POP POP JUMP JUMPDEST PUSH2 0x981 DUP3 DUP5 PUSH1 0x80 ADD MLOAD PUSH2 0xEA3 SWAP1 SWAP2 SWAP1 PUSH4 0xFFFFFFFF AND JUMP JUMPDEST PUSH2 0x998 DUP2 DUP5 PUSH1 0x80 ADD MLOAD PUSH2 0xEC8 SWAP1 SWAP2 SWAP1 PUSH4 0xFFFFFFFF AND JUMP JUMPDEST POP POP POP JUMP JUMPDEST PUSH1 0x0 PUSH2 0x9CC PUSH1 0x3 PUSH1 0x0 SWAP1 SLOAD SWAP1 PUSH2 0x100 EXP SWAP1 DIV PUSH20 0xFFFFFFFFFFFFFFFFFFFFFFFFFFFFFFFFFFFFFFFF AND DUP5 DUP5 PUSH2 0xEF8 JUMP JUMPDEST SWAP1 POP SWAP3 SWAP2 POP POP JUMP JUMPDEST PUSH1 0x0 PUSH1 0x2 PUSH1 0x0 SWAP1 SLOAD SWAP1 PUSH2 0x100 EXP SWAP1 DIV PUSH20 0xFFFFFFFFFFFFFFFFFFFFFFFFFFFFFFFFFFFFFFFF AND SWAP1 POP SWAP1 JUMP JUMPDEST DUP3 PUSH2 0xA42 JUMPI DUP2 DUP2 PUSH1 0x40 MLOAD PUSH32 0x7AB2F97700000000000000000000000000000000000000000000000000000000 DUP2 MSTORE PUSH1 0x4 ADD PUSH2 0xA39 SWAP3 SWAP2 SWAP1 PUSH2 0x2528 JUMP JUMPDEST PUSH1 0x40 MLOAD DUP1 SWAP2 SUB SWAP1 REVERT JUMPDEST POP POP POP JUMP JUMPDEST PUSH1 0x0 DUP4 SWAP1 POP PUSH2 0xA63 DUP4 DUP3 PUSH1 0x80 ADD MLOAD PUSH2 0xEA3 SWAP1 SWAP2 SWAP1 PUSH4 0xFFFFFFFF AND JUMP JUMPDEST PUSH2 0xA70 DUP2 PUSH1 0x80 ADD MLOAD PUSH2 0xFC2 JUMP JUMPDEST PUSH1 0x0 DUP3 MLOAD SWAP1 POP PUSH1 0x0 JUMPDEST DUP2 DUP2 LT ISZERO PUSH2 0xABD JUMPI PUSH2 0xAB2 DUP5 DUP3 DUP2 MLOAD DUP2 LT PUSH2 0xA97 JUMPI PUSH2 0xA96 PUSH2 0x24F9 JUMP JUMPDEST JUMPDEST PUSH1 0x20 MUL PUSH1 0x20 ADD ADD MLOAD DUP5 PUSH1 0x80 ADD MLOAD PUSH2 0xEC8 SWAP1 SWAP2 SWAP1 PUSH4 0xFFFFFFFF AND JUMP JUMPDEST DUP1 PUSH1 0x1 ADD SWAP1 POP PUSH2 0xA79 JUMP JUMPDEST POP PUSH2 0xACB DUP3 PUSH1 0x80 ADD MLOAD PUSH2 0xFD0 JUMP JUMPDEST DUP2 SWAP5 POP POP POP POP POP POP JUMP JUMPDEST DUP1 PUSH1 0x3 PUSH1 0x0 PUSH2 0x100 EXP DUP2 SLOAD DUP2 PUSH20 0xFFFFFFFFFFFFFFFFFFFFFFFFFFFFFFFFFFFFFFFF MUL NOT AND SWAP1 DUP4 PUSH20 0xFFFFFFFFFFFFFFFFFFFFFFFFFFFFFFFFFFFFFFFF AND MUL OR SWAP1 SSTORE POP POP JUMP JUMPDEST PUSH1 0x0 PUSH1 0x3 PUSH1 0x0 SWAP1 SLOAD SWAP1 PUSH2 0x100 EXP SWAP1 DIV PUSH20 0xFFFFFFFFFFFFFFFFFFFFFFFFFFFFFFFFFFFFFFFF AND SWAP1 POP SWAP1 JUMP JUMPDEST PUSH2 0xB4B PUSH2 0x17D8 JUMP JUMPDEST PUSH1 0x0 PUSH2 0xB5A PUSH1 0x0 PUSH1 0x4 DUP6 PUSH2 0xFDE JUMP JUMPDEST PUSH2 0xB63 SWAP1 PUSH2 0x2583 JUMP JUMPDEST PUSH1 0xE0 SHR SWAP1 POP PUSH1 0x0 DUP4 PUSH1 0x4 DUP2 MLOAD DUP2 LT PUSH2 0xB7E JUMPI PUSH2 0xB7D PUSH2 0x24F9 JUMP JUMPDEST JUMPDEST PUSH1 0x20 ADD ADD MLOAD PUSH1 0xF8 SHR PUSH1 0xF8 SHL PUSH1 0xF8 SHR SWAP1 POP PUSH1 0x0 DUP5 PUSH1 0x5 DUP2 MLOAD DUP2 LT PUSH2 0xBA4 JUMPI PUSH2 0xBA3 PUSH2 0x24F9 JUMP JUMPDEST JUMPDEST PUSH1 0x20 ADD ADD MLOAD PUSH1 0xF8 SHR PUSH1 0xF8 SHL PUSH1 0xF8 SHR SWAP1 POP PUSH1 0x0 PUSH2 0xBC3 PUSH1 0x6 DUP8 MLOAD DUP9 PUSH2 0xFDE JUMP JUMPDEST SWAP1 POP PUSH1 0x0 PUSH1 0x40 MLOAD DUP1 PUSH1 0x80 ADD PUSH1 0x40 MSTORE DUP1 DUP7 PUSH4 0xFFFFFFFF AND DUP2 MSTORE PUSH1 0x20 ADD DUP6 PUSH1 0xFF AND DUP2 MSTORE PUSH1 0x20 ADD DUP5 PUSH1 0xFF AND DUP2 MSTORE PUSH1 0x20 ADD DUP4 DUP2 MSTORE POP SWAP1 POP DUP1 SWAP6 POP POP POP POP POP POP SWAP2 SWAP1 POP JUMP JUMPDEST PUSH2 0xC0B PUSH2 0x180C JUMP JUMPDEST PUSH1 0x0 PUSH2 0xC1A PUSH1 0x0 PUSH1 0x4 DUP6 PUSH2 0xFDE JUMP JUMPDEST PUSH2 0xC23 SWAP1 PUSH2 0x2583 JUMP JUMPDEST PUSH1 0xE0 SHR SWAP1 POP PUSH1 0x0 PUSH2 0xC37 PUSH1 0x4 PUSH1 0x9 DUP7 PUSH2 0xFDE JUMP JUMPDEST PUSH2 0xC40 SWAP1 PUSH2 0x262B JUMP JUMPDEST PUSH1 0xD8 SHR SWAP1 POP PUSH1 0x0 DUP5 PUSH1 0x9 DUP2 MLOAD DUP2 LT PUSH2 0xC5B JUMPI PUSH2 0xC5A PUSH2 0x24F9 JUMP JUMPDEST JUMPDEST PUSH1 0x20 ADD ADD MLOAD PUSH1 0xF8 SHR PUSH1 0xF8 SHL PUSH1 0xF8 SHR SWAP1 POP PUSH1 0x0 DUP2 PUSH1 0xA PUSH2 0xC7A SWAP2 SWAP1 PUSH2 0x26C1 JUMP JUMPDEST PUSH1 0xFF AND SWAP1 POP PUSH1 0x0 PUSH2 0xC8D PUSH1 0xA DUP4 DUP10 PUSH2 0xFDE JUMP JUMPDEST SWAP1 POP PUSH1 0x0 PUSH2 0xC9D DUP4 DUP10 MLOAD DUP11 PUSH2 0xFDE JUMP JUMPDEST SWAP1 POP PUSH1 0x0 PUSH1 0x40 MLOAD DUP1 PUSH1 0x80 ADD PUSH1 0x40 MSTORE DUP1 DUP9 PUSH4 0xFFFFFFFF AND DUP2 MSTORE PUSH1 0x20 ADD DUP8 PUSH5 0xFFFFFFFFFF AND DUP2 MSTORE PUSH1 0x20 ADD DUP5 DUP2 MSTORE PUSH1 0x20 ADD DUP4 DUP2 MSTORE POP SWAP1 POP DUP1 SWAP8 POP POP POP POP POP POP POP POP SWAP2 SWAP1 POP JUMP JUMPDEST PUSH1 0x0 PUSH1 0x5 PUSH1 0x0 DUP7 DUP2 MSTORE PUSH1 0x20 ADD SWAP1 DUP2 MSTORE PUSH1 0x20 ADD PUSH1 0x0 KECCAK256 PUSH1 0x0 SWAP1 SLOAD SWAP1 PUSH2 0x100 EXP SWAP1 DIV PUSH20 0xFFFFFFFFFFFFFFFFFFFFFFFFFFFFFFFFFFFFFFFF AND SWAP1 POP PUSH1 0x5 PUSH1 0x0 DUP7 DUP2 MSTORE PUSH1 0x20 ADD SWAP1 DUP2 MSTORE PUSH1 0x20 ADD PUSH1 0x0 KECCAK256 PUSH1 0x0 PUSH2 0x100 EXP DUP2 SLOAD SWAP1 PUSH20 0xFFFFFFFFFFFFFFFFFFFFFFFFFFFFFFFFFFFFFFFF MUL NOT AND SWAP1 SSTORE DUP5 PUSH32 0xE1FE3AFA0F7F761FF0A8B89086790EFD5140D2907EBD5B7FF6BFCB5E075FD4C5 PUSH1 0x40 MLOAD PUSH1 0x40 MLOAD DUP1 SWAP2 SUB SWAP1 LOG2 DUP1 PUSH20 0xFFFFFFFFFFFFFFFFFFFFFFFFFFFFFFFFFFFFFFFF AND PUSH4 0x6EE4D553 DUP7 DUP7 DUP7 DUP7 PUSH1 0x40 MLOAD DUP6 PUSH4 0xFFFFFFFF AND PUSH1 0xE0 SHL DUP2 MSTORE PUSH1 0x4 ADD PUSH2 0xDBA SWAP5 SWAP4 SWAP3 SWAP2 SWAP1 PUSH2 0x2716 JUMP JUMPDEST PUSH1 0x0 PUSH1 0x40 MLOAD DUP1 DUP4 SUB DUP2 PUSH1 0x0 DUP8 DUP1 EXTCODESIZE ISZERO DUP1 ISZERO PUSH2 0xDD4 JUMPI PUSH1 0x0 DUP1 REVERT JUMPDEST POP GAS CALL ISZERO DUP1 ISZERO PUSH2 0xDE8 JUMPI RETURNDATASIZE PUSH1 0x0 DUP1 RETURNDATACOPY RETURNDATASIZE PUSH1 0x0 REVERT JUMPDEST POP POP POP POP POP POP POP POP POP JUMP JUMPDEST PUSH2 0xDFB PUSH2 0x1841 JUMP JUMPDEST PUSH2 0xE0B DUP6 PUSH1 0x80 ADD MLOAD PUSH2 0x100 PUSH2 0x10DA JUMP JUMPDEST POP DUP4 DUP6 PUSH1 0x0 ADD DUP2 DUP2 MSTORE POP POP DUP3 DUP6 PUSH1 0x20 ADD SWAP1 PUSH20 0xFFFFFFFFFFFFFFFFFFFFFFFFFFFFFFFFFFFFFFFF AND SWAP1 DUP2 PUSH20 0xFFFFFFFFFFFFFFFFFFFFFFFFFFFFFFFFFFFFFFFF AND DUP2 MSTORE POP POP DUP2 DUP6 PUSH1 0x40 ADD SWAP1 PUSH28 0xFFFFFFFFFFFFFFFFFFFFFFFFFFFFFFFFFFFFFFFFFFFFFFFFFFFFFFFF NOT AND SWAP1 DUP2 PUSH28 0xFFFFFFFFFFFFFFFFFFFFFFFFFFFFFFFFFFFFFFFFFFFFFFFFFFFFFFFF NOT AND DUP2 MSTORE POP POP DUP5 SWAP1 POP SWAP5 SWAP4 POP POP POP POP JUMP JUMPDEST PUSH2 0xEB0 DUP3 PUSH1 0x3 DUP4 MLOAD PUSH2 0x1144 JUMP JUMPDEST PUSH2 0xEC3 DUP2 DUP4 PUSH2 0x12C9 SWAP1 SWAP2 SWAP1 PUSH4 0xFFFFFFFF AND JUMP JUMPDEST POP POP POP JUMP JUMPDEST PUSH8 0xFFFFFFFFFFFFFFFF DUP2 GT ISZERO PUSH2 0xEE7 JUMPI PUSH2 0xEE2 DUP3 DUP3 PUSH2 0x12EB JUMP JUMPDEST PUSH2 0xEF4 JUMP JUMPDEST PUSH2 0xEF3 DUP3 PUSH1 0x0 DUP4 PUSH2 0x1144 JUMP JUMPDEST JUMPDEST POP POP JUMP JUMPDEST PUSH1 0x0 DUP1 PUSH1 0x4 SLOAD SWAP1 POP PUSH1 0x1 DUP2 PUSH2 0xF0D SWAP2 SWAP1 PUSH2 0x275B JUMP JUMPDEST PUSH1 0x4 DUP2 SWAP1 SSTORE POP PUSH1 0x0 PUSH4 0x3C6D41B9 PUSH1 0xE0 SHL PUSH1 0x0 DUP1 DUP8 PUSH1 0x0 ADD MLOAD DUP9 PUSH1 0x40 ADD MLOAD DUP7 PUSH1 0x2 DUP12 PUSH1 0x80 ADD MLOAD PUSH1 0x0 ADD MLOAD PUSH1 0x40 MLOAD PUSH1 0x24 ADD PUSH2 0xF4C SWAP8 SWAP7 SWAP6 SWAP5 SWAP4 SWAP3 SWAP2 SWAP1 PUSH2 0x27B1 JUMP JUMPDEST PUSH1 0x40 MLOAD PUSH1 0x20 DUP2 DUP4 SUB SUB DUP2 MSTORE SWAP1 PUSH1 0x40 MSTORE SWAP1 PUSH28 0xFFFFFFFFFFFFFFFFFFFFFFFFFFFFFFFFFFFFFFFFFFFFFFFFFFFFFFFF NOT AND PUSH1 0x20 DUP3 ADD DUP1 MLOAD PUSH28 0xFFFFFFFFFFFFFFFFFFFFFFFFFFFFFFFFFFFFFFFFFFFFFFFFFFFFFFFF DUP4 DUP2 DUP4 AND OR DUP4 MSTORE POP POP POP POP SWAP1 POP PUSH2 0xFB7 DUP7 DUP4 DUP7 DUP5 PUSH2 0x1337 JUMP JUMPDEST SWAP3 POP POP POP SWAP4 SWAP3 POP POP POP JUMP JUMPDEST PUSH2 0xFCD DUP2 PUSH1 0x4 PUSH2 0x14DB JUMP JUMPDEST POP JUMP JUMPDEST PUSH2 0xFDB DUP2 PUSH1 0x7 PUSH2 0x14DB JUMP JUMPDEST POP JUMP JUMPDEST PUSH1 0x60 PUSH1 0x0 DUP5 DUP5 PUSH2 0xFEE SWAP2 SWAP1 PUSH2 0x2827 JUMP JUMPDEST PUSH8 0xFFFFFFFFFFFFFFFF DUP2 GT ISZERO PUSH2 0x1007 JUMPI PUSH2 0x1006 PUSH2 0x1AE0 JUMP JUMPDEST JUMPDEST PUSH1 0x40 MLOAD SWAP1 DUP1 DUP3 MSTORE DUP1 PUSH1 0x1F ADD PUSH1 0x1F NOT AND PUSH1 0x20 ADD DUP3 ADD PUSH1 0x40 MSTORE DUP1 ISZERO PUSH2 0x1039 JUMPI DUP2 PUSH1 0x20 ADD PUSH1 0x1 DUP3 MUL DUP1 CALLDATASIZE DUP4 CALLDATACOPY DUP1 DUP3 ADD SWAP2 POP POP SWAP1 POP JUMPDEST POP SWAP1 POP PUSH1 0x0 JUMPDEST DUP6 DUP6 PUSH2 0x104B SWAP2 SWAP1 PUSH2 0x2827 JUMP JUMPDEST DUP2 LT ISZERO PUSH2 0x10CE JUMPI DUP4 DUP2 DUP8 PUSH2 0x105F SWAP2 SWAP1 PUSH2 0x275B JUMP JUMPDEST DUP2 MLOAD DUP2 LT PUSH2 0x1070 JUMPI PUSH2 0x106F PUSH2 0x24F9 JUMP JUMPDEST JUMPDEST PUSH1 0x20 ADD ADD MLOAD PUSH1 0xF8 SHR PUSH1 0xF8 SHL DUP3 DUP3 DUP2 MLOAD DUP2 LT PUSH2 0x108E JUMPI PUSH2 0x108D PUSH2 0x24F9 JUMP JUMPDEST JUMPDEST PUSH1 0x20 ADD ADD SWAP1 PUSH31 0xFFFFFFFFFFFFFFFFFFFFFFFFFFFFFFFFFFFFFFFFFFFFFFFFFFFFFFFFFFFFFF NOT AND SWAP1 DUP2 PUSH1 0x0 BYTE SWAP1 MSTORE8 POP DUP1 PUSH2 0x10C7 SWAP1 PUSH2 0x285B JUMP JUMPDEST SWAP1 POP PUSH2 0x103F JUMP JUMPDEST POP DUP1 SWAP2 POP POP SWAP4 SWAP3 POP POP POP JUMP JUMPDEST PUSH2 0x10E2 PUSH2 0x18AE JUMP JUMPDEST PUSH1 0x0 PUSH1 0x20 DUP4 PUSH2 0x10F1 SWAP2 SWAP1 PUSH2 0x28D3 JUMP JUMPDEST EQ PUSH2 0x111D JUMPI PUSH1 0x20 DUP3 PUSH2 0x1103 SWAP2 SWAP1 PUSH2 0x28D3 JUMP JUMPDEST PUSH1 0x20 PUSH2 0x110F SWAP2 SWAP1 PUSH2 0x2827 JUMP JUMPDEST DUP3 PUSH2 0x111A SWAP2 SWAP1 PUSH2 0x275B JUMP JUMPDEST SWAP2 POP JUMPDEST DUP2 DUP4 PUSH1 0x20 ADD DUP2 DUP2 MSTORE POP POP PUSH1 0x40 MLOAD DUP1 DUP5 MSTORE PUSH1 0x0 DUP2 MSTORE DUP3 DUP2 ADD PUSH1 0x20 ADD PUSH1 0x40 MSTORE POP DUP3 SWAP1 POP SWAP3 SWAP2 POP POP JUMP JUMPDEST PUSH1 0x17 DUP2 PUSH8 0xFFFFFFFFFFFFFFFF AND GT PUSH2 0x117B JUMPI PUSH2 0x1175 DUP2 PUSH1 0x5 DUP5 PUSH1 0xFF AND SWAP1 SHL PUSH1 0xFF AND OR DUP5 PUSH2 0x14FD SWAP1 SWAP2 SWAP1 PUSH4 0xFFFFFFFF AND JUMP JUMPDEST POP PUSH2 0x12C4 JUMP JUMPDEST PUSH1 0xFF DUP2 PUSH8 0xFFFFFFFFFFFFFFFF AND GT PUSH2 0x11D1 JUMPI PUSH2 0x11AA PUSH1 0x18 PUSH1 0x5 DUP5 PUSH1 0xFF AND SWAP1 SHL OR DUP5 PUSH2 0x14FD SWAP1 SWAP2 SWAP1 PUSH4 0xFFFFFFFF AND JUMP JUMPDEST POP PUSH2 0x11CB DUP2 PUSH8 0xFFFFFFFFFFFFFFFF AND PUSH1 0x1 DUP6 PUSH2 0x151D SWAP1 SWAP3 SWAP2 SWAP1 PUSH4 0xFFFFFFFF AND JUMP JUMPDEST POP PUSH2 0x12C3 JUMP JUMPDEST PUSH2 0xFFFF DUP2 PUSH8 0xFFFFFFFFFFFFFFFF AND GT PUSH2 0x1228 JUMPI PUSH2 0x1201 PUSH1 0x19 PUSH1 0x5 DUP5 PUSH1 0xFF AND SWAP1 SHL OR DUP5 PUSH2 0x14FD SWAP1 SWAP2 SWAP1 PUSH4 0xFFFFFFFF AND JUMP JUMPDEST POP PUSH2 0x1222 DUP2 PUSH8 0xFFFFFFFFFFFFFFFF AND PUSH1 0x2 DUP6 PUSH2 0x151D SWAP1 SWAP3 SWAP2 SWAP1 PUSH4 0xFFFFFFFF AND JUMP JUMPDEST POP PUSH2 0x12C2 JUMP JUMPDEST PUSH4 0xFFFFFFFF DUP2 PUSH8 0xFFFFFFFFFFFFFFFF AND GT PUSH2 0x1281 JUMPI PUSH2 0x125A PUSH1 0x1A PUSH1 0x5 DUP5 PUSH1 0xFF AND SWAP1 SHL OR DUP5 PUSH2 0x14FD SWAP1 SWAP2 SWAP1 PUSH4 0xFFFFFFFF AND JUMP JUMPDEST POP PUSH2 0x127B DUP2 PUSH8 0xFFFFFFFFFFFFFFFF AND PUSH1 0x4 DUP6 PUSH2 0x151D SWAP1 SWAP3 SWAP2 SWAP1 PUSH4 0xFFFFFFFF AND JUMP JUMPDEST POP PUSH2 0x12C1 JUMP JUMPDEST PUSH2 0x129E PUSH1 0x1B PUSH1 0x5 DUP5 PUSH1 0xFF AND SWAP1 SHL OR DUP5 PUSH2 0x14FD SWAP1 SWAP2 SWAP1 PUSH4 0xFFFFFFFF AND JUMP JUMPDEST POP PUSH2 0x12BF DUP2 PUSH8 0xFFFFFFFFFFFFFFFF AND PUSH1 0x8 DUP6 PUSH2 0x151D SWAP1 SWAP3 SWAP2 SWAP1 PUSH4 0xFFFFFFFF AND JUMP JUMPDEST POP JUMPDEST JUMPDEST JUMPDEST JUMPDEST POP POP POP JUMP JUMPDEST PUSH2 0x12D1 PUSH2 0x18AE JUMP JUMPDEST PUSH2 0x12E3 DUP4 DUP5 PUSH1 0x0 ADD MLOAD MLOAD DUP5 DUP6 MLOAD PUSH2 0x153F JUMP JUMPDEST SWAP1 POP SWAP3 SWAP2 POP POP JUMP JUMPDEST PUSH2 0x1309 PUSH1 0x2 PUSH1 0x5 PUSH1 0x6 PUSH1 0xFF AND SWAP1 SHL OR DUP4 PUSH2 0x14FD SWAP1 SWAP2 SWAP1 PUSH4 0xFFFFFFFF AND JUMP JUMPDEST POP PUSH2 0x1333 DUP3 DUP3 PUSH1 0x40 MLOAD PUSH1 0x20 ADD PUSH2 0x131F SWAP2 SWAP1 PUSH2 0x2904 JUMP JUMPDEST PUSH1 0x40 MLOAD PUSH1 0x20 DUP2 DUP4 SUB SUB DUP2 MSTORE SWAP1 PUSH1 0x40 MSTORE PUSH2 0x162E JUMP JUMPDEST POP POP JUMP JUMPDEST PUSH1 0x0 ADDRESS DUP5 PUSH1 0x40 MLOAD PUSH1 0x20 ADD PUSH2 0x134C SWAP3 SWAP2 SWAP1 PUSH2 0x299A JUMP JUMPDEST PUSH1 0x40 MLOAD PUSH1 0x20 DUP2 DUP4 SUB SUB DUP2 MSTORE SWAP1 PUSH1 0x40 MSTORE DUP1 MLOAD SWAP1 PUSH1 0x20 ADD KECCAK256 SWAP1 POP DUP5 PUSH1 0x5 PUSH1 0x0 DUP4 DUP2 MSTORE PUSH1 0x20 ADD SWAP1 DUP2 MSTORE PUSH1 0x20 ADD PUSH1 0x0 KECCAK256 PUSH1 0x0 PUSH2 0x100 EXP DUP2 SLOAD DUP2 PUSH20 0xFFFFFFFFFFFFFFFFFFFFFFFFFFFFFFFFFFFFFFFF MUL NOT AND SWAP1 DUP4 PUSH20 0xFFFFFFFFFFFFFFFFFFFFFFFFFFFFFFFFFFFFFFFF AND MUL OR SWAP1 SSTORE POP DUP1 PUSH32 0xB5E6E01E79F91267DC17B4E6314D5D4D03593D2CEEE0FBB452B750BD70EA5AF9 PUSH1 0x40 MLOAD PUSH1 0x40 MLOAD DUP1 SWAP2 SUB SWAP1 LOG2 PUSH1 0x2 PUSH1 0x0 SWAP1 SLOAD SWAP1 PUSH2 0x100 EXP SWAP1 DIV PUSH20 0xFFFFFFFFFFFFFFFFFFFFFFFFFFFFFFFFFFFFFFFF AND PUSH20 0xFFFFFFFFFFFFFFFFFFFFFFFFFFFFFFFFFFFFFFFF AND PUSH4 0x4000AEA0 DUP7 DUP6 DUP6 PUSH1 0x40 MLOAD DUP5 PUSH4 0xFFFFFFFF AND PUSH1 0xE0 SHL DUP2 MSTORE PUSH1 0x4 ADD PUSH2 0x1442 SWAP4 SWAP3 SWAP2 SWAP1 PUSH2 0x29C6 JUMP JUMPDEST PUSH1 0x20 PUSH1 0x40 MLOAD DUP1 DUP4 SUB DUP2 PUSH1 0x0 DUP8 DUP1 EXTCODESIZE ISZERO DUP1 ISZERO PUSH2 0x145C JUMPI PUSH1 0x0 DUP1 REVERT JUMPDEST POP GAS CALL ISZERO DUP1 ISZERO PUSH2 0x1470 JUMPI RETURNDATASIZE PUSH1 0x0 DUP1 RETURNDATACOPY RETURNDATASIZE PUSH1 0x0 REVERT JUMPDEST POP POP POP POP PUSH1 0x40 MLOAD RETURNDATASIZE PUSH1 0x1F NOT PUSH1 0x1F DUP3 ADD AND DUP3 ADD DUP1 PUSH1 0x40 MSTORE POP DUP2 ADD SWAP1 PUSH2 0x1494 SWAP2 SWAP1 PUSH2 0x23C8 JUMP JUMPDEST PUSH2 0x14D3 JUMPI PUSH1 0x40 MLOAD PUSH32 0x8C379A000000000000000000000000000000000000000000000000000000000 DUP2 MSTORE PUSH1 0x4 ADD PUSH2 0x14CA SWAP1 PUSH2 0x2A76 JUMP JUMPDEST PUSH1 0x40 MLOAD DUP1 SWAP2 SUB SWAP1 REVERT JUMPDEST SWAP5 SWAP4 POP POP POP POP JUMP JUMPDEST PUSH2 0x14F8 PUSH1 0x1F PUSH1 0x5 DUP4 PUSH1 0xFF AND SWAP1 SHL OR DUP4 PUSH2 0x14FD SWAP1 SWAP2 SWAP1 PUSH4 0xFFFFFFFF AND JUMP JUMPDEST POP POP POP JUMP JUMPDEST PUSH2 0x1505 PUSH2 0x18AE JUMP JUMPDEST PUSH2 0x1515 DUP4 DUP5 PUSH1 0x0 ADD MLOAD MLOAD DUP5 PUSH2 0x1653 JUMP JUMPDEST SWAP1 POP SWAP3 SWAP2 POP POP JUMP JUMPDEST PUSH2 0x1525 PUSH2 0x18AE JUMP JUMPDEST PUSH2 0x1536 DUP5 DUP6 PUSH1 0x0 ADD MLOAD MLOAD DUP6 DUP6 PUSH2 0x16AA JUMP JUMPDEST SWAP1 POP SWAP4 SWAP3 POP POP POP JUMP JUMPDEST PUSH2 0x1547 PUSH2 0x18AE JUMP JUMPDEST DUP3 MLOAD DUP3 GT ISZERO PUSH2 0x1555 JUMPI PUSH1 0x0 DUP1 REVERT JUMPDEST DUP5 PUSH1 0x20 ADD MLOAD DUP3 DUP6 PUSH2 0x1566 SWAP2 SWAP1 PUSH2 0x275B JUMP JUMPDEST GT ISZERO PUSH2 0x159B JUMPI PUSH2 0x159A DUP6 PUSH1 0x2 PUSH2 0x158B DUP9 PUSH1 0x20 ADD MLOAD DUP9 DUP8 PUSH2 0x1586 SWAP2 SWAP1 PUSH2 0x275B JUMP JUMPDEST PUSH2 0x1738 JUMP JUMPDEST PUSH2 0x1595 SWAP2 SWAP1 PUSH2 0x2A96 JUMP JUMPDEST PUSH2 0x1754 JUMP JUMPDEST JUMPDEST PUSH1 0x0 DUP1 DUP7 MLOAD DUP1 MLOAD DUP8 PUSH1 0x20 DUP4 ADD ADD SWAP4 POP DUP1 DUP9 DUP8 ADD GT ISZERO PUSH2 0x15BA JUMPI DUP8 DUP7 ADD DUP3 MSTORE JUMPDEST PUSH1 0x20 DUP8 ADD SWAP3 POP POP POP JUMPDEST PUSH1 0x20 DUP5 LT PUSH2 0x1601 JUMPI DUP1 MLOAD DUP3 MSTORE PUSH1 0x20 DUP3 PUSH2 0x15DC SWAP2 SWAP1 PUSH2 0x275B JUMP JUMPDEST SWAP2 POP PUSH1 0x20 DUP2 PUSH2 0x15EB SWAP2 SWAP1 PUSH2 0x275B JUMP JUMPDEST SWAP1 POP PUSH1 0x20 DUP5 PUSH2 0x15FA SWAP2 SWAP1 PUSH2 0x2827 JUMP JUMPDEST SWAP4 POP PUSH2 0x15C3 JUMP JUMPDEST PUSH1 0x0 PUSH1 0x1 DUP6 PUSH1 0x20 SUB PUSH2 0x100 EXP SUB SWAP1 POP DUP1 NOT DUP3 MLOAD AND DUP2 DUP5 MLOAD AND DUP2 DUP2 OR DUP6 MSTORE POP POP POP DUP7 SWAP3 POP POP POP SWAP5 SWAP4 POP POP POP POP JUMP JUMPDEST PUSH2 0x163B DUP3 PUSH1 0x2 DUP4 MLOAD PUSH2 0x1144 JUMP JUMPDEST PUSH2 0x164E DUP2 DUP4 PUSH2 0x12C9 SWAP1 SWAP2 SWAP1 PUSH4 0xFFFFFFFF AND JUMP JUMPDEST POP POP POP JUMP JUMPDEST PUSH2 0x165B PUSH2 0x18AE JUMP JUMPDEST DUP4 PUSH1 0x20 ADD MLOAD DUP4 LT PUSH2 0x1681 JUMPI PUSH2 0x1680 DUP5 PUSH1 0x2 DUP7 PUSH1 0x20 ADD MLOAD PUSH2 0x167B SWAP2 SWAP1 PUSH2 0x2A96 JUMP JUMPDEST PUSH2 0x1754 JUMP JUMPDEST JUMPDEST DUP4 MLOAD DUP1 MLOAD PUSH1 0x20 DUP6 DUP4 ADD ADD DUP5 DUP2 MSTORE8 DUP2 DUP7 EQ ISZERO PUSH2 0x169D JUMPI PUSH1 0x1 DUP3 ADD DUP4 MSTORE JUMPDEST POP POP POP DUP4 SWAP1 POP SWAP4 SWAP3 POP POP POP JUMP JUMPDEST PUSH2 0x16B2 PUSH2 0x18AE JUMP JUMPDEST DUP5 PUSH1 0x20 ADD MLOAD DUP5 DUP4 PUSH2 0x16C3 SWAP2 SWAP1 PUSH2 0x275B JUMP JUMPDEST GT ISZERO PUSH2 0x16EB JUMPI PUSH2 0x16EA DUP6 PUSH1 0x2 DUP7 DUP6 PUSH2 0x16DB SWAP2 SWAP1 PUSH2 0x275B JUMP JUMPDEST PUSH2 0x16E5 SWAP2 SWAP1 PUSH2 0x2A96 JUMP JUMPDEST PUSH2 0x1754 JUMP JUMPDEST JUMPDEST PUSH1 0x0 PUSH1 0x1 DUP4 PUSH2 0x100 PUSH2 0x16FD SWAP2 SWAP1 PUSH2 0x2C23 JUMP JUMPDEST PUSH2 0x1707 SWAP2 SWAP1 PUSH2 0x2827 JUMP JUMPDEST SWAP1 POP DUP6 MLOAD DUP4 DUP7 DUP3 ADD ADD DUP6 DUP4 NOT DUP3 MLOAD AND OR DUP2 MSTORE DUP2 MLOAD DUP6 DUP9 ADD GT ISZERO PUSH2 0x172A JUMPI DUP5 DUP8 ADD DUP3 MSTORE JUMPDEST POP POP DUP6 SWAP2 POP POP SWAP5 SWAP4 POP POP POP POP JUMP JUMPDEST PUSH1 0x0 DUP2 DUP4 GT ISZERO PUSH2 0x174A JUMPI DUP3 SWAP1 POP PUSH2 0x174E JUMP JUMPDEST DUP2 SWAP1 POP JUMPDEST SWAP3 SWAP2 POP POP JUMP JUMPDEST PUSH1 0x0 DUP3 PUSH1 0x0 ADD MLOAD SWAP1 POP PUSH2 0x1767 DUP4 DUP4 PUSH2 0x10DA JUMP JUMPDEST POP PUSH2 0x1772 DUP4 DUP3 PUSH2 0x12C9 JUMP JUMPDEST POP POP POP POP JUMP JUMPDEST DUP3 DUP1 SLOAD DUP3 DUP3 SSTORE SWAP1 PUSH1 0x0 MSTORE PUSH1 0x20 PUSH1 0x0 KECCAK256 SWAP1 DUP2 ADD SWAP3 DUP3 ISZERO PUSH2 0x17C7 JUMPI SWAP2 PUSH1 0x20 MUL DUP3 ADD JUMPDEST DUP3 DUP2 GT ISZERO PUSH2 0x17C6 JUMPI DUP3 MLOAD DUP3 SWAP1 DUP1 MLOAD SWAP1 PUSH1 0x20 ADD SWAP1 PUSH2 0x17B6 SWAP3 SWAP2 SWAP1 PUSH2 0x18C8 JUMP JUMPDEST POP SWAP2 PUSH1 0x20 ADD SWAP2 SWAP1 PUSH1 0x1 ADD SWAP1 PUSH2 0x1798 JUMP JUMPDEST JUMPDEST POP SWAP1 POP PUSH2 0x17D4 SWAP2 SWAP1 PUSH2 0x194E JUMP JUMPDEST POP SWAP1 JUMP JUMPDEST PUSH1 0x40 MLOAD DUP1 PUSH1 0x80 ADD PUSH1 0x40 MSTORE DUP1 PUSH1 0x0 PUSH4 0xFFFFFFFF AND DUP2 MSTORE PUSH1 0x20 ADD PUSH1 0x0 PUSH1 0xFF AND DUP2 MSTORE PUSH1 0x20 ADD PUSH1 0x0 PUSH1 0xFF AND DUP2 MSTORE PUSH1 0x20 ADD PUSH1 0x60 DUP2 MSTORE POP SWAP1 JUMP JUMPDEST PUSH1 0x40 MLOAD DUP1 PUSH1 0x80 ADD PUSH1 0x40 MSTORE DUP1 PUSH1 0x0 PUSH4 0xFFFFFFFF AND DUP2 MSTORE PUSH1 0x20 ADD PUSH1 0x0 PUSH5 0xFFFFFFFFFF AND DUP2 MSTORE PUSH1 0x20 ADD PUSH1 0x60 DUP2 MSTORE PUSH1 0x20 ADD PUSH1 0x60 DUP2 MSTORE POP SWAP1 JUMP JUMPDEST PUSH1 0x40 MLOAD DUP1 PUSH1 0xA0 ADD PUSH1 0x40 MSTORE DUP1 PUSH1 0x0 DUP1 NOT AND DUP2 MSTORE PUSH1 0x20 ADD PUSH1 0x0 PUSH20 0xFFFFFFFFFFFFFFFFFFFFFFFFFFFFFFFFFFFFFFFF AND DUP2 MSTORE PUSH1 0x20 ADD PUSH1 0x0 PUSH28 0xFFFFFFFFFFFFFFFFFFFFFFFFFFFFFFFFFFFFFFFFFFFFFFFFFFFFFFFF NOT AND DUP2 MSTORE PUSH1 0x20 ADD PUSH1 0x0 DUP2 MSTORE PUSH1 0x20 ADD PUSH2 0x18A8 PUSH2 0x18AE JUMP JUMPDEST DUP2 MSTORE POP SWAP1 JUMP JUMPDEST PUSH1 0x40 MLOAD DUP1 PUSH1 0x40 ADD PUSH1 0x40 MSTORE DUP1 PUSH1 0x60 DUP2 MSTORE PUSH1 0x20 ADD PUSH1 0x0 DUP2 MSTORE POP SWAP1 JUMP JUMPDEST DUP3 DUP1 SLOAD PUSH2 0x18D4 SWAP1 PUSH2 0x24C7 JUMP JUMPDEST SWAP1 PUSH1 0x0 MSTORE PUSH1 0x20 PUSH1 0x0 KECCAK256 SWAP1 PUSH1 0x1F ADD PUSH1 0x20 SWAP1 DIV DUP2 ADD SWAP3 DUP3 PUSH2 0x18F6 JUMPI PUSH1 0x0 DUP6 SSTORE PUSH2 0x193D JUMP JUMPDEST DUP3 PUSH1 0x1F LT PUSH2 0x190F JUMPI DUP1 MLOAD PUSH1 0xFF NOT AND DUP4 DUP1 ADD OR DUP6 SSTORE PUSH2 0x193D JUMP JUMPDEST DUP3 DUP1 ADD PUSH1 0x1 ADD DUP6 SSTORE DUP3 ISZERO PUSH2 0x193D JUMPI SWAP2 DUP3 ADD JUMPDEST DUP3 DUP2 GT ISZERO PUSH2 0x193C JUMPI DUP3 MLOAD DUP3 SSTORE SWAP2 PUSH1 0x20 ADD SWAP2 SWAP1 PUSH1 0x1 ADD SWAP1 PUSH2 0x1921 JUMP JUMPDEST JUMPDEST POP SWAP1 POP PUSH2 0x194A SWAP2 SWAP1 PUSH2 0x1972 JUMP JUMPDEST POP SWAP1 JUMP JUMPDEST JUMPDEST DUP1 DUP3 GT ISZERO PUSH2 0x196E JUMPI PUSH1 0x0 DUP2 DUP2 PUSH2 0x1965 SWAP2 SWAP1 PUSH2 0x198F JUMP JUMPDEST POP PUSH1 0x1 ADD PUSH2 0x194F JUMP JUMPDEST POP SWAP1 JUMP JUMPDEST JUMPDEST DUP1 DUP3 GT ISZERO PUSH2 0x198B JUMPI PUSH1 0x0 DUP2 PUSH1 0x0 SWAP1 SSTORE POP PUSH1 0x1 ADD PUSH2 0x1973 JUMP JUMPDEST POP SWAP1 JUMP JUMPDEST POP DUP1 SLOAD PUSH2 0x199B SWAP1 PUSH2 0x24C7 JUMP JUMPDEST PUSH1 0x0 DUP3 SSTORE DUP1 PUSH1 0x1F LT PUSH2 0x19AD JUMPI POP PUSH2 0x19CC JUMP JUMPDEST PUSH1 0x1F ADD PUSH1 0x20 SWAP1 DIV SWAP1 PUSH1 0x0 MSTORE PUSH1 0x20 PUSH1 0x0 KECCAK256 SWAP1 DUP2 ADD SWAP1 PUSH2 0x19CB SWAP2 SWAP1 PUSH2 0x1972 JUMP JUMPDEST JUMPDEST POP JUMP JUMPDEST PUSH1 0x0 PUSH1 0x40 MLOAD SWAP1 POP SWAP1 JUMP JUMPDEST PUSH1 0x0 DUP1 REVERT JUMPDEST PUSH1 0x0 DUP1 REVERT JUMPDEST PUSH1 0x0 DUP2 SWAP1 POP SWAP2 SWAP1 POP JUMP JUMPDEST PUSH2 0x19F6 DUP2 PUSH2 0x19E3 JUMP JUMPDEST DUP2 EQ PUSH2 0x1A01 JUMPI PUSH1 0x0 DUP1 REVERT JUMPDEST POP JUMP JUMPDEST PUSH1 0x0 DUP2 CALLDATALOAD SWAP1 POP PUSH2 0x1A13 DUP2 PUSH2 0x19ED JUMP JUMPDEST SWAP3 SWAP2 POP POP JUMP JUMPDEST PUSH1 0x0 DUP2 SWAP1 POP SWAP2 SWAP1 POP JUMP JUMPDEST PUSH2 0x1A2C DUP2 PUSH2 0x1A19 JUMP JUMPDEST DUP2 EQ PUSH2 0x1A37 JUMPI PUSH1 0x0 DUP1 REVERT JUMPDEST POP JUMP JUMPDEST PUSH1 0x0 DUP2 CALLDATALOAD SWAP1 POP PUSH2 0x1A49 DUP2 PUSH2 0x1A23 JUMP JUMPDEST SWAP3 SWAP2 POP POP JUMP JUMPDEST PUSH1 0x0 DUP1 PUSH1 0x0 DUP1 PUSH1 0x0 PUSH1 0xA0 DUP7 DUP9 SUB SLT ISZERO PUSH2 0x1A6B JUMPI PUSH2 0x1A6A PUSH2 0x19D9 JUMP JUMPDEST JUMPDEST PUSH1 0x0 PUSH2 0x1A79 DUP9 DUP3 DUP10 ADD PUSH2 0x1A04 JUMP JUMPDEST SWAP6 POP POP PUSH1 0x20 PUSH2 0x1A8A DUP9 DUP3 DUP10 ADD PUSH2 0x1A3A JUMP JUMPDEST SWAP5 POP POP PUSH1 0x40 PUSH2 0x1A9B DUP9 DUP3 DUP10 ADD PUSH2 0x1A3A JUMP JUMPDEST SWAP4 POP POP PUSH1 0x60 PUSH2 0x1AAC DUP9 DUP3 DUP10 ADD PUSH2 0x1A3A JUMP JUMPDEST SWAP3 POP POP PUSH1 0x80 PUSH2 0x1ABD DUP9 DUP3 DUP10 ADD PUSH2 0x1A3A JUMP JUMPDEST SWAP2 POP POP SWAP3 SWAP6 POP SWAP3 SWAP6 SWAP1 SWAP4 POP JUMP JUMPDEST PUSH1 0x0 DUP1 REVERT JUMPDEST PUSH1 0x0 PUSH1 0x1F NOT PUSH1 0x1F DUP4 ADD AND SWAP1 POP SWAP2 SWAP1 POP JUMP JUMPDEST PUSH32 0x4E487B7100000000000000000000000000000000000000000000000000000000 PUSH1 0x0 MSTORE PUSH1 0x41 PUSH1 0x4 MSTORE PUSH1 0x24 PUSH1 0x0 REVERT JUMPDEST PUSH2 0x1B18 DUP3 PUSH2 0x1ACF JUMP JUMPDEST DUP2 ADD DUP2 DUP2 LT PUSH8 0xFFFFFFFFFFFFFFFF DUP3 GT OR ISZERO PUSH2 0x1B37 JUMPI PUSH2 0x1B36 PUSH2 0x1AE0 JUMP JUMPDEST JUMPDEST DUP1 PUSH1 0x40 MSTORE POP POP POP JUMP JUMPDEST PUSH1 0x0 PUSH2 0x1B4A PUSH2 0x19CF JUMP JUMPDEST SWAP1 POP PUSH2 0x1B56 DUP3 DUP3 PUSH2 0x1B0F JUMP JUMPDEST SWAP2 SWAP1 POP JUMP JUMPDEST PUSH1 0x0 PUSH8 0xFFFFFFFFFFFFFFFF DUP3 GT ISZERO PUSH2 0x1B76 JUMPI PUSH2 0x1B75 PUSH2 0x1AE0 JUMP JUMPDEST JUMPDEST PUSH1 0x20 DUP3 MUL SWAP1 POP PUSH1 0x20 DUP2 ADD SWAP1 POP SWAP2 SWAP1 POP JUMP JUMPDEST PUSH1 0x0 DUP1 REVERT JUMPDEST PUSH1 0x0 DUP1 REVERT JUMPDEST PUSH1 0x0 PUSH8 0xFFFFFFFFFFFFFFFF DUP3 GT ISZERO PUSH2 0x1BAC JUMPI PUSH2 0x1BAB PUSH2 0x1AE0 JUMP JUMPDEST JUMPDEST PUSH2 0x1BB5 DUP3 PUSH2 0x1ACF JUMP JUMPDEST SWAP1 POP PUSH1 0x20 DUP2 ADD SWAP1 POP SWAP2 SWAP1 POP JUMP JUMPDEST DUP3 DUP2 DUP4 CALLDATACOPY PUSH1 0x0 DUP4 DUP4 ADD MSTORE POP POP POP JUMP JUMPDEST PUSH1 0x0 PUSH2 0x1BE4 PUSH2 0x1BDF DUP5 PUSH2 0x1B91 JUMP JUMPDEST PUSH2 0x1B40 JUMP JUMPDEST SWAP1 POP DUP3 DUP2 MSTORE PUSH1 0x20 DUP2 ADD DUP5 DUP5 DUP5 ADD GT ISZERO PUSH2 0x1C00 JUMPI PUSH2 0x1BFF PUSH2 0x1B8C JUMP JUMPDEST JUMPDEST PUSH2 0x1C0B DUP5 DUP3 DUP6 PUSH2 0x1BC2 JUMP JUMPDEST POP SWAP4 SWAP3 POP POP POP JUMP JUMPDEST PUSH1 0x0 DUP3 PUSH1 0x1F DUP4 ADD SLT PUSH2 0x1C28 JUMPI PUSH2 0x1C27 PUSH2 0x1ACA JUMP JUMPDEST JUMPDEST DUP2 CALLDATALOAD PUSH2 0x1C38 DUP5 DUP3 PUSH1 0x20 DUP7 ADD PUSH2 0x1BD1 JUMP JUMPDEST SWAP2 POP POP SWAP3 SWAP2 POP POP JUMP JUMPDEST PUSH1 0x0 PUSH2 0x1C54 PUSH2 0x1C4F DUP5 PUSH2 0x1B5B JUMP JUMPDEST PUSH2 0x1B40 JUMP JUMPDEST SWAP1 POP DUP1 DUP4 DUP3 MSTORE PUSH1 0x20 DUP3 ADD SWAP1 POP PUSH1 0x20 DUP5 MUL DUP4 ADD DUP6 DUP2 GT ISZERO PUSH2 0x1C77 JUMPI PUSH2 0x1C76 PUSH2 0x1B87 JUMP JUMPDEST JUMPDEST DUP4 JUMPDEST DUP2 DUP2 LT ISZERO PUSH2 0x1CBE JUMPI DUP1 CALLDATALOAD PUSH8 0xFFFFFFFFFFFFFFFF DUP2 GT ISZERO PUSH2 0x1C9C JUMPI PUSH2 0x1C9B PUSH2 0x1ACA JUMP JUMPDEST JUMPDEST DUP1 DUP7 ADD PUSH2 0x1CA9 DUP10 DUP3 PUSH2 0x1C13 JUMP JUMPDEST DUP6 MSTORE PUSH1 0x20 DUP6 ADD SWAP5 POP POP POP PUSH1 0x20 DUP2 ADD SWAP1 POP PUSH2 0x1C79 JUMP JUMPDEST POP POP POP SWAP4 SWAP3 POP POP POP JUMP JUMPDEST PUSH1 0x0 DUP3 PUSH1 0x1F DUP4 ADD SLT PUSH2 0x1CDD JUMPI PUSH2 0x1CDC PUSH2 0x1ACA JUMP JUMPDEST JUMPDEST DUP2 CALLDATALOAD PUSH2 0x1CED DUP5 DUP3 PUSH1 0x20 DUP7 ADD PUSH2 0x1C41 JUMP JUMPDEST SWAP2 POP POP SWAP3 SWAP2 POP POP JUMP JUMPDEST PUSH1 0x0 DUP1 PUSH1 0x40 DUP4 DUP6 SUB SLT ISZERO PUSH2 0x1D0D JUMPI PUSH2 0x1D0C PUSH2 0x19D9 JUMP JUMPDEST JUMPDEST PUSH1 0x0 PUSH2 0x1D1B DUP6 DUP3 DUP7 ADD PUSH2 0x1A04 JUMP JUMPDEST SWAP3 POP POP PUSH1 0x20 DUP4 ADD CALLDATALOAD PUSH8 0xFFFFFFFFFFFFFFFF DUP2 GT ISZERO PUSH2 0x1D3C JUMPI PUSH2 0x1D3B PUSH2 0x19DE JUMP JUMPDEST JUMPDEST PUSH2 0x1D48 DUP6 DUP3 DUP7 ADD PUSH2 0x1CC8 JUMP JUMPDEST SWAP2 POP POP SWAP3 POP SWAP3 SWAP1 POP JUMP JUMPDEST PUSH1 0x0 PUSH20 0xFFFFFFFFFFFFFFFFFFFFFFFFFFFFFFFFFFFFFFFF DUP3 AND SWAP1 POP SWAP2 SWAP1 POP JUMP JUMPDEST PUSH1 0x0 PUSH2 0x1D7D DUP3 PUSH2 0x1D52 JUMP JUMPDEST SWAP1 POP SWAP2 SWAP1 POP JUMP JUMPDEST PUSH2 0x1D8D DUP2 PUSH2 0x1D72 JUMP JUMPDEST DUP2 EQ PUSH2 0x1D98 JUMPI PUSH1 0x0 DUP1 REVERT JUMPDEST POP JUMP JUMPDEST PUSH1 0x0 DUP2 CALLDATALOAD SWAP1 POP PUSH2 0x1DAA DUP2 PUSH2 0x1D84 JUMP JUMPDEST SWAP3 SWAP2 POP POP JUMP JUMPDEST PUSH1 0x0 DUP1 PUSH1 0x40 DUP4 DUP6 SUB SLT ISZERO PUSH2 0x1DC7 JUMPI PUSH2 0x1DC6 PUSH2 0x19D9 JUMP JUMPDEST JUMPDEST PUSH1 0x0 PUSH2 0x1DD5 DUP6 DUP3 DUP7 ADD PUSH2 0x1A3A JUMP JUMPDEST SWAP3 POP POP PUSH1 0x20 PUSH2 0x1DE6 DUP6 DUP3 DUP7 ADD PUSH2 0x1D9B JUMP JUMPDEST SWAP2 POP POP SWAP3 POP SWAP3 SWAP1 POP JUMP JUMPDEST PUSH1 0x0 DUP1 REVERT JUMPDEST PUSH1 0x0 DUP1 DUP4 PUSH1 0x1F DUP5 ADD SLT PUSH2 0x1E0B JUMPI PUSH2 0x1E0A PUSH2 0x1ACA JUMP JUMPDEST JUMPDEST DUP3 CALLDATALOAD SWAP1 POP PUSH8 0xFFFFFFFFFFFFFFFF DUP2 GT ISZERO PUSH2 0x1E28 JUMPI PUSH2 0x1E27 PUSH2 0x1DF0 JUMP JUMPDEST JUMPDEST PUSH1 0x20 DUP4 ADD SWAP2 POP DUP4 PUSH1 0x20 DUP3 MUL DUP4 ADD GT ISZERO PUSH2 0x1E44 JUMPI PUSH2 0x1E43 PUSH2 0x1B87 JUMP JUMPDEST JUMPDEST SWAP3 POP SWAP3 SWAP1 POP JUMP JUMPDEST PUSH1 0x0 DUP1 PUSH1 0x0 DUP1 PUSH1 0x0 DUP1 PUSH1 0x0 PUSH1 0xC0 DUP9 DUP11 SUB SLT ISZERO PUSH2 0x1E6A JUMPI PUSH2 0x1E69 PUSH2 0x19D9 JUMP JUMPDEST JUMPDEST PUSH1 0x0 PUSH2 0x1E78 DUP11 DUP3 DUP12 ADD PUSH2 0x1A04 JUMP JUMPDEST SWAP8 POP POP PUSH1 0x20 PUSH2 0x1E89 DUP11 DUP3 DUP12 ADD PUSH2 0x1A3A JUMP JUMPDEST SWAP7 POP POP PUSH1 0x40 PUSH2 0x1E9A DUP11 DUP3 DUP12 ADD PUSH2 0x1A3A JUMP JUMPDEST SWAP6 POP POP PUSH1 0x60 PUSH2 0x1EAB DUP11 DUP3 DUP12 ADD PUSH2 0x1A3A JUMP JUMPDEST SWAP5 POP POP PUSH1 0x80 PUSH2 0x1EBC DUP11 DUP3 DUP12 ADD PUSH2 0x1A3A JUMP JUMPDEST SWAP4 POP POP PUSH1 0xA0 DUP9 ADD CALLDATALOAD PUSH8 0xFFFFFFFFFFFFFFFF DUP2 GT ISZERO PUSH2 0x1EDD JUMPI PUSH2 0x1EDC PUSH2 0x19DE JUMP JUMPDEST JUMPDEST PUSH2 0x1EE9 DUP11 DUP3 DUP12 ADD PUSH2 0x1DF5 JUMP JUMPDEST SWAP3 POP SWAP3 POP POP SWAP3 SWAP6 SWAP9 SWAP2 SWAP5 SWAP8 POP SWAP3 SWAP6 POP JUMP JUMPDEST PUSH1 0x0 PUSH2 0x1F05 DUP3 PUSH2 0x1D52 JUMP JUMPDEST SWAP1 POP SWAP2 SWAP1 POP JUMP JUMPDEST PUSH2 0x1F15 DUP2 PUSH2 0x1EFA JUMP JUMPDEST DUP2 EQ PUSH2 0x1F20 JUMPI PUSH1 0x0 DUP1 REVERT JUMPDEST POP JUMP JUMPDEST PUSH1 0x0 DUP2 CALLDATALOAD SWAP1 POP PUSH2 0x1F32 DUP2 PUSH2 0x1F0C JUMP JUMPDEST SWAP3 SWAP2 POP POP JUMP JUMPDEST PUSH1 0x0 PUSH1 0x20 DUP3 DUP5 SUB SLT ISZERO PUSH2 0x1F4E JUMPI PUSH2 0x1F4D PUSH2 0x19D9 JUMP JUMPDEST JUMPDEST PUSH1 0x0 PUSH2 0x1F5C DUP5 DUP3 DUP6 ADD PUSH2 0x1F23 JUMP JUMPDEST SWAP2 POP POP SWAP3 SWAP2 POP POP JUMP JUMPDEST PUSH1 0x0 DUP1 PUSH1 0x40 DUP4 DUP6 SUB SLT ISZERO PUSH2 0x1F7C JUMPI PUSH2 0x1F7B PUSH2 0x19D9 JUMP JUMPDEST JUMPDEST PUSH1 0x0 PUSH2 0x1F8A DUP6 DUP3 DUP7 ADD PUSH2 0x1A04 JUMP JUMPDEST SWAP3 POP POP PUSH1 0x20 PUSH2 0x1F9B DUP6 DUP3 DUP7 ADD PUSH2 0x1A3A JUMP JUMPDEST SWAP2 POP POP SWAP3 POP SWAP3 SWAP1 POP JUMP JUMPDEST PUSH1 0x0 DUP2 MLOAD SWAP1 POP SWAP2 SWAP1 POP JUMP JUMPDEST PUSH1 0x0 DUP3 DUP3 MSTORE PUSH1 0x20 DUP3 ADD SWAP1 POP SWAP3 SWAP2 POP POP JUMP JUMPDEST PUSH1 0x0 JUMPDEST DUP4 DUP2 LT ISZERO PUSH2 0x1FDF JUMPI DUP1 DUP3 ADD MLOAD DUP2 DUP5 ADD MSTORE PUSH1 0x20 DUP2 ADD SWAP1 POP PUSH2 0x1FC4 JUMP JUMPDEST DUP4 DUP2 GT ISZERO PUSH2 0x1FEE JUMPI PUSH1 0x0 DUP5 DUP5 ADD MSTORE JUMPDEST POP POP POP POP JUMP JUMPDEST PUSH1 0x0 PUSH2 0x1FFF DUP3 PUSH2 0x1FA5 JUMP JUMPDEST PUSH2 0x2009 DUP2 DUP6 PUSH2 0x1FB0 JUMP JUMPDEST SWAP4 POP PUSH2 0x2019 DUP2 DUP6 PUSH1 0x20 DUP7 ADD PUSH2 0x1FC1 JUMP JUMPDEST PUSH2 0x2022 DUP2 PUSH2 0x1ACF JUMP JUMPDEST DUP5 ADD SWAP2 POP POP SWAP3 SWAP2 POP POP JUMP JUMPDEST PUSH1 0x0 PUSH1 0x20 DUP3 ADD SWAP1 POP DUP2 DUP2 SUB PUSH1 0x0 DUP4 ADD MSTORE PUSH2 0x2047 DUP2 DUP5 PUSH2 0x1FF4 JUMP JUMPDEST SWAP1 POP SWAP3 SWAP2 POP POP JUMP JUMPDEST PUSH2 0x2058 DUP2 PUSH2 0x1EFA JUMP JUMPDEST DUP3 MSTORE POP POP JUMP JUMPDEST PUSH1 0x0 PUSH1 0x20 DUP3 ADD SWAP1 POP PUSH2 0x2073 PUSH1 0x0 DUP4 ADD DUP5 PUSH2 0x204F JUMP JUMPDEST SWAP3 SWAP2 POP POP JUMP JUMPDEST PUSH1 0x0 PUSH4 0xFFFFFFFF DUP3 AND SWAP1 POP SWAP2 SWAP1 POP JUMP JUMPDEST PUSH2 0x2092 DUP2 PUSH2 0x2079 JUMP JUMPDEST DUP3 MSTORE POP POP JUMP JUMPDEST PUSH1 0x0 PUSH1 0xFF DUP3 AND SWAP1 POP SWAP2 SWAP1 POP JUMP JUMPDEST PUSH2 0x20AE DUP2 PUSH2 0x2098 JUMP JUMPDEST DUP3 MSTORE POP POP JUMP JUMPDEST PUSH1 0x0 DUP2 MLOAD SWAP1 POP SWAP2 SWAP1 POP JUMP JUMPDEST PUSH1 0x0 DUP3 DUP3 MSTORE PUSH1 0x20 DUP3 ADD SWAP1 POP SWAP3 SWAP2 POP POP JUMP JUMPDEST PUSH1 0x0 PUSH2 0x20DB DUP3 PUSH2 0x20B4 JUMP JUMPDEST PUSH2 0x20E5 DUP2 DUP6 PUSH2 0x20BF JUMP JUMPDEST SWAP4 POP PUSH2 0x20F5 DUP2 DUP6 PUSH1 0x20 DUP7 ADD PUSH2 0x1FC1 JUMP JUMPDEST PUSH2 0x20FE DUP2 PUSH2 0x1ACF JUMP JUMPDEST DUP5 ADD SWAP2 POP POP SWAP3 SWAP2 POP POP JUMP JUMPDEST PUSH1 0x0 PUSH1 0x80 DUP4 ADD PUSH1 0x0 DUP4 ADD MLOAD PUSH2 0x2121 PUSH1 0x0 DUP7 ADD DUP3 PUSH2 0x2089 JUMP JUMPDEST POP PUSH1 0x20 DUP4 ADD MLOAD PUSH2 0x2134 PUSH1 0x20 DUP7 ADD DUP3 PUSH2 0x20A5 JUMP JUMPDEST POP PUSH1 0x40 DUP4 ADD MLOAD PUSH2 0x2147 PUSH1 0x40 DUP7 ADD DUP3 PUSH2 0x20A5 JUMP JUMPDEST POP PUSH1 0x60 DUP4 ADD MLOAD DUP5 DUP3 SUB PUSH1 0x60 DUP7 ADD MSTORE PUSH2 0x215F DUP3 DUP3 PUSH2 0x20D0 JUMP JUMPDEST SWAP2 POP POP DUP1 SWAP2 POP POP SWAP3 SWAP2 POP POP JUMP JUMPDEST PUSH1 0x0 PUSH1 0x20 DUP3 ADD SWAP1 POP DUP2 DUP2 SUB PUSH1 0x0 DUP4 ADD MSTORE PUSH2 0x2186 DUP2 DUP5 PUSH2 0x2109 JUMP JUMPDEST SWAP1 POP SWAP3 SWAP2 POP POP JUMP JUMPDEST PUSH1 0x0 PUSH5 0xFFFFFFFFFF DUP3 AND SWAP1 POP SWAP2 SWAP1 POP JUMP JUMPDEST PUSH2 0x21A8 DUP2 PUSH2 0x218E JUMP JUMPDEST DUP3 MSTORE POP POP JUMP JUMPDEST PUSH1 0x0 PUSH1 0x80 DUP4 ADD PUSH1 0x0 DUP4 ADD MLOAD PUSH2 0x21C6 PUSH1 0x0 DUP7 ADD DUP3 PUSH2 0x2089 JUMP JUMPDEST POP PUSH1 0x20 DUP4 ADD MLOAD PUSH2 0x21D9 PUSH1 0x20 DUP7 ADD DUP3 PUSH2 0x219F JUMP JUMPDEST POP PUSH1 0x40 DUP4 ADD MLOAD DUP5 DUP3 SUB PUSH1 0x40 DUP7 ADD MSTORE PUSH2 0x21F1 DUP3 DUP3 PUSH2 0x20D0 JUMP JUMPDEST SWAP2 POP POP PUSH1 0x60 DUP4 ADD MLOAD DUP5 DUP3 SUB PUSH1 0x60 DUP7 ADD MSTORE PUSH2 0x220B DUP3 DUP3 PUSH2 0x20D0 JUMP JUMPDEST SWAP2 POP POP DUP1 SWAP2 POP POP SWAP3 SWAP2 POP POP JUMP JUMPDEST PUSH1 0x0 PUSH1 0x20 DUP3 ADD SWAP1 POP DUP2 DUP2 SUB PUSH1 0x0 DUP4 ADD MSTORE PUSH2 0x2232 DUP2 DUP5 PUSH2 0x21AE JUMP JUMPDEST SWAP1 POP SWAP3 SWAP2 POP POP JUMP JUMPDEST PUSH1 0x0 PUSH32 0xFFFFFFFF00000000000000000000000000000000000000000000000000000000 DUP3 AND SWAP1 POP SWAP2 SWAP1 POP JUMP JUMPDEST PUSH2 0x226F DUP2 PUSH2 0x223A JUMP JUMPDEST DUP2 EQ PUSH2 0x227A JUMPI PUSH1 0x0 DUP1 REVERT JUMPDEST POP JUMP JUMPDEST PUSH1 0x0 DUP2 CALLDATALOAD SWAP1 POP PUSH2 0x228C DUP2 PUSH2 0x2266 JUMP JUMPDEST SWAP3 SWAP2 POP POP JUMP JUMPDEST PUSH1 0x0 DUP1 PUSH1 0x0 DUP1 PUSH1 0x80 DUP6 DUP8 SUB SLT ISZERO PUSH2 0x22AC JUMPI PUSH2 0x22AB PUSH2 0x19D9 JUMP JUMPDEST JUMPDEST PUSH1 0x0 PUSH2 0x22BA DUP8 DUP3 DUP9 ADD PUSH2 0x1A04 JUMP JUMPDEST SWAP5 POP POP PUSH1 0x20 PUSH2 0x22CB DUP8 DUP3 DUP9 ADD PUSH2 0x1A3A JUMP JUMPDEST SWAP4 POP POP PUSH1 0x40 PUSH2 0x22DC DUP8 DUP3 DUP9 ADD PUSH2 0x227D JUMP JUMPDEST SWAP3 POP POP PUSH1 0x60 PUSH2 0x22ED DUP8 DUP3 DUP9 ADD PUSH2 0x1A3A JUMP JUMPDEST SWAP2 POP POP SWAP3 SWAP6 SWAP2 SWAP5 POP SWAP3 POP JUMP JUMPDEST PUSH1 0x0 DUP2 SWAP1 POP SWAP2 SWAP1 POP JUMP JUMPDEST PUSH1 0x0 PUSH2 0x231E PUSH2 0x2319 PUSH2 0x2314 DUP5 PUSH2 0x1D52 JUMP JUMPDEST PUSH2 0x22F9 JUMP JUMPDEST PUSH2 0x1D52 JUMP JUMPDEST SWAP1 POP SWAP2 SWAP1 POP JUMP JUMPDEST PUSH1 0x0 PUSH2 0x2330 DUP3 PUSH2 0x2303 JUMP JUMPDEST SWAP1 POP SWAP2 SWAP1 POP JUMP JUMPDEST PUSH1 0x0 PUSH2 0x2342 DUP3 PUSH2 0x2325 JUMP JUMPDEST SWAP1 POP SWAP2 SWAP1 POP JUMP JUMPDEST PUSH2 0x2352 DUP2 PUSH2 0x2337 JUMP JUMPDEST DUP3 MSTORE POP POP JUMP JUMPDEST PUSH2 0x2361 DUP2 PUSH2 0x1A19 JUMP JUMPDEST DUP3 MSTORE POP POP JUMP JUMPDEST PUSH1 0x0 PUSH1 0x40 DUP3 ADD SWAP1 POP PUSH2 0x237C PUSH1 0x0 DUP4 ADD DUP6 PUSH2 0x2349 JUMP JUMPDEST PUSH2 0x2389 PUSH1 0x20 DUP4 ADD DUP5 PUSH2 0x2358 JUMP JUMPDEST SWAP4 SWAP3 POP POP POP JUMP JUMPDEST PUSH1 0x0 DUP2 ISZERO ISZERO SWAP1 POP SWAP2 SWAP1 POP JUMP JUMPDEST PUSH2 0x23A5 DUP2 PUSH2 0x2390 JUMP JUMPDEST DUP2 EQ PUSH2 0x23B0 JUMPI PUSH1 0x0 DUP1 REVERT JUMPDEST POP JUMP JUMPDEST PUSH1 0x0 DUP2 MLOAD SWAP1 POP PUSH2 0x23C2 DUP2 PUSH2 0x239C JUMP JUMPDEST SWAP3 SWAP2 POP POP JUMP JUMPDEST PUSH1 0x0 PUSH1 0x20 DUP3 DUP5 SUB SLT ISZERO PUSH2 0x23DE JUMPI PUSH2 0x23DD PUSH2 0x19D9 JUMP JUMPDEST JUMPDEST PUSH1 0x0 PUSH2 0x23EC DUP5 DUP3 DUP6 ADD PUSH2 0x23B3 JUMP JUMPDEST SWAP2 POP POP SWAP3 SWAP2 POP POP JUMP JUMPDEST PUSH1 0x0 DUP3 DUP3 MSTORE PUSH1 0x20 DUP3 ADD SWAP1 POP SWAP3 SWAP2 POP POP JUMP JUMPDEST PUSH32 0x536F75726365206D75737420626520746865206F7261636C65206F6620746865 PUSH1 0x0 DUP3 ADD MSTORE PUSH32 0x2072657175657374000000000000000000000000000000000000000000000000 PUSH1 0x20 DUP3 ADD MSTORE POP JUMP JUMPDEST PUSH1 0x0 PUSH2 0x2462 PUSH1 0x28 DUP4 PUSH2 0x23F5 JUMP JUMPDEST SWAP2 POP PUSH2 0x246D DUP3 PUSH2 0x2406 JUMP JUMPDEST PUSH1 0x40 DUP3 ADD SWAP1 POP SWAP2 SWAP1 POP JUMP JUMPDEST PUSH1 0x0 PUSH1 0x20 DUP3 ADD SWAP1 POP DUP2 DUP2 SUB PUSH1 0x0 DUP4 ADD MSTORE PUSH2 0x2491 DUP2 PUSH2 0x2455 JUMP JUMPDEST SWAP1 POP SWAP2 SWAP1 POP JUMP JUMPDEST PUSH32 0x4E487B7100000000000000000000000000000000000000000000000000000000 PUSH1 0x0 MSTORE PUSH1 0x22 PUSH1 0x4 MSTORE PUSH1 0x24 PUSH1 0x0 REVERT JUMPDEST PUSH1 0x0 PUSH1 0x2 DUP3 DIV SWAP1 POP PUSH1 0x1 DUP3 AND DUP1 PUSH2 0x24DF JUMPI PUSH1 0x7F DUP3 AND SWAP2 POP JUMPDEST PUSH1 0x20 DUP3 LT DUP2 EQ ISZERO PUSH2 0x24F3 JUMPI PUSH2 0x24F2 PUSH2 0x2498 JUMP JUMPDEST JUMPDEST POP SWAP2 SWAP1 POP JUMP JUMPDEST PUSH32 0x4E487B7100000000000000000000000000000000000000000000000000000000 PUSH1 0x0 MSTORE PUSH1 0x32 PUSH1 0x4 MSTORE PUSH1 0x24 PUSH1 0x0 REVERT JUMPDEST PUSH1 0x0 PUSH1 0x40 DUP3 ADD SWAP1 POP PUSH2 0x253D PUSH1 0x0 DUP4 ADD DUP6 PUSH2 0x204F JUMP JUMPDEST PUSH2 0x254A PUSH1 0x20 DUP4 ADD DUP5 PUSH2 0x2358 JUMP JUMPDEST SWAP4 SWAP3 POP POP POP JUMP JUMPDEST PUSH1 0x0 DUP2 SWAP1 POP PUSH1 0x20 DUP3 ADD SWAP1 POP SWAP2 SWAP1 POP JUMP JUMPDEST PUSH1 0x0 PUSH2 0x256D DUP3 MLOAD PUSH2 0x223A JUMP JUMPDEST DUP1 SWAP2 POP POP SWAP2 SWAP1 POP JUMP JUMPDEST PUSH1 0x0 DUP3 DUP3 SHL SWAP1 POP SWAP3 SWAP2 POP POP JUMP JUMPDEST PUSH1 0x0 PUSH2 0x258E DUP3 PUSH2 0x1FA5 JUMP JUMPDEST DUP3 PUSH2 0x2598 DUP5 PUSH2 0x2551 JUMP JUMPDEST SWAP1 POP PUSH2 0x25A3 DUP2 PUSH2 0x2561 JUMP JUMPDEST SWAP3 POP PUSH1 0x4 DUP3 LT ISZERO PUSH2 0x25E3 JUMPI PUSH2 0x25DE PUSH32 0xFFFFFFFF00000000000000000000000000000000000000000000000000000000 DUP4 PUSH1 0x4 SUB PUSH1 0x8 MUL PUSH2 0x2576 JUMP JUMPDEST DUP4 AND SWAP3 POP JUMPDEST POP POP SWAP2 SWAP1 POP JUMP JUMPDEST PUSH1 0x0 PUSH32 0xFFFFFFFFFF000000000000000000000000000000000000000000000000000000 DUP3 AND SWAP1 POP SWAP2 SWAP1 POP JUMP JUMPDEST PUSH1 0x0 PUSH2 0x2622 DUP3 MLOAD PUSH2 0x25EA JUMP JUMPDEST DUP1 SWAP2 POP POP SWAP2 SWAP1 POP JUMP JUMPDEST PUSH1 0x0 PUSH2 0x2636 DUP3 PUSH2 0x1FA5 JUMP JUMPDEST DUP3 PUSH2 0x2640 DUP5 PUSH2 0x2551 JUMP JUMPDEST SWAP1 POP PUSH2 0x264B DUP2 PUSH2 0x2616 JUMP JUMPDEST SWAP3 POP PUSH1 0x5 DUP3 LT ISZERO PUSH2 0x268B JUMPI PUSH2 0x2686 PUSH32 0xFFFFFFFFFF000000000000000000000000000000000000000000000000000000 DUP4 PUSH1 0x5 SUB PUSH1 0x8 MUL PUSH2 0x2576 JUMP JUMPDEST DUP4 AND SWAP3 POP JUMPDEST POP POP SWAP2 SWAP1 POP JUMP JUMPDEST PUSH32 0x4E487B7100000000000000000000000000000000000000000000000000000000 PUSH1 0x0 MSTORE PUSH1 0x11 PUSH1 0x4 MSTORE PUSH1 0x24 PUSH1 0x0 REVERT JUMPDEST PUSH1 0x0 PUSH2 0x26CC DUP3 PUSH2 0x2098 JUMP JUMPDEST SWAP2 POP PUSH2 0x26D7 DUP4 PUSH2 0x2098 JUMP JUMPDEST SWAP3 POP DUP3 PUSH1 0xFF SUB DUP3 GT ISZERO PUSH2 0x26ED JUMPI PUSH2 0x26EC PUSH2 0x2692 JUMP JUMPDEST JUMPDEST DUP3 DUP3 ADD SWAP1 POP SWAP3 SWAP2 POP POP JUMP JUMPDEST PUSH2 0x2701 DUP2 PUSH2 0x19E3 JUMP JUMPDEST DUP3 MSTORE POP POP JUMP JUMPDEST PUSH2 0x2710 DUP2 PUSH2 0x223A JUMP JUMPDEST DUP3 MSTORE POP POP JUMP JUMPDEST PUSH1 0x0 PUSH1 0x80 DUP3 ADD SWAP1 POP PUSH2 0x272B PUSH1 0x0 DUP4 ADD DUP8 PUSH2 0x26F8 JUMP JUMPDEST PUSH2 0x2738 PUSH1 0x20 DUP4 ADD DUP7 PUSH2 0x2358 JUMP JUMPDEST PUSH2 0x2745 PUSH1 0x40 DUP4 ADD DUP6 PUSH2 0x2707 JUMP JUMPDEST PUSH2 0x2752 PUSH1 0x60 DUP4 ADD DUP5 PUSH2 0x2358 JUMP JUMPDEST SWAP6 SWAP5 POP POP POP POP POP JUMP JUMPDEST PUSH1 0x0 PUSH2 0x2766 DUP3 PUSH2 0x1A19 JUMP JUMPDEST SWAP2 POP PUSH2 0x2771 DUP4 PUSH2 0x1A19 JUMP JUMPDEST SWAP3 POP DUP3 PUSH32 0xFFFFFFFFFFFFFFFFFFFFFFFFFFFFFFFFFFFFFFFFFFFFFFFFFFFFFFFFFFFFFFFF SUB DUP3 GT ISZERO PUSH2 0x27A6 JUMPI PUSH2 0x27A5 PUSH2 0x2692 JUMP JUMPDEST JUMPDEST DUP3 DUP3 ADD SWAP1 POP SWAP3 SWAP2 POP POP JUMP JUMPDEST PUSH1 0x0 PUSH1 0xE0 DUP3 ADD SWAP1 POP PUSH2 0x27C6 PUSH1 0x0 DUP4 ADD DUP11 PUSH2 0x204F JUMP JUMPDEST PUSH2 0x27D3 PUSH1 0x20 DUP4 ADD DUP10 PUSH2 0x2358 JUMP JUMPDEST PUSH2 0x27E0 PUSH1 0x40 DUP4 ADD DUP9 PUSH2 0x26F8 JUMP JUMPDEST PUSH2 0x27ED PUSH1 0x60 DUP4 ADD DUP8 PUSH2 0x2707 JUMP JUMPDEST PUSH2 0x27FA PUSH1 0x80 DUP4 ADD DUP7 PUSH2 0x2358 JUMP JUMPDEST PUSH2 0x2807 PUSH1 0xA0 DUP4 ADD DUP6 PUSH2 0x2358 JUMP JUMPDEST DUP2 DUP2 SUB PUSH1 0xC0 DUP4 ADD MSTORE PUSH2 0x2819 DUP2 DUP5 PUSH2 0x1FF4 JUMP JUMPDEST SWAP1 POP SWAP9 SWAP8 POP POP POP POP POP POP POP POP JUMP JUMPDEST PUSH1 0x0 PUSH2 0x2832 DUP3 PUSH2 0x1A19 JUMP JUMPDEST SWAP2 POP PUSH2 0x283D DUP4 PUSH2 0x1A19 JUMP JUMPDEST SWAP3 POP DUP3 DUP3 LT ISZERO PUSH2 0x2850 JUMPI PUSH2 0x284F PUSH2 0x2692 JUMP JUMPDEST JUMPDEST DUP3 DUP3 SUB SWAP1 POP SWAP3 SWAP2 POP POP JUMP JUMPDEST PUSH1 0x0 PUSH2 0x2866 DUP3 PUSH2 0x1A19 JUMP JUMPDEST SWAP2 POP PUSH32 0xFFFFFFFFFFFFFFFFFFFFFFFFFFFFFFFFFFFFFFFFFFFFFFFFFFFFFFFFFFFFFFFF DUP3 EQ ISZERO PUSH2 0x2899 JUMPI PUSH2 0x2898 PUSH2 0x2692 JUMP JUMPDEST JUMPDEST PUSH1 0x1 DUP3 ADD SWAP1 POP SWAP2 SWAP1 POP JUMP JUMPDEST PUSH32 0x4E487B7100000000000000000000000000000000000000000000000000000000 PUSH1 0x0 MSTORE PUSH1 0x12 PUSH1 0x4 MSTORE PUSH1 0x24 PUSH1 0x0 REVERT JUMPDEST PUSH1 0x0 PUSH2 0x28DE DUP3 PUSH2 0x1A19 JUMP JUMPDEST SWAP2 POP PUSH2 0x28E9 DUP4 PUSH2 0x1A19 JUMP JUMPDEST SWAP3 POP DUP3 PUSH2 0x28F9 JUMPI PUSH2 0x28F8 PUSH2 0x28A4 JUMP JUMPDEST JUMPDEST DUP3 DUP3 MOD SWAP1 POP SWAP3 SWAP2 POP POP JUMP JUMPDEST PUSH1 0x0 PUSH1 0x20 DUP3 ADD SWAP1 POP PUSH2 0x2919 PUSH1 0x0 DUP4 ADD DUP5 PUSH2 0x2358 JUMP JUMPDEST SWAP3 SWAP2 POP POP JUMP JUMPDEST PUSH1 0x0 PUSH2 0x292A DUP3 PUSH2 0x2325 JUMP JUMPDEST SWAP1 POP SWAP2 SWAP1 POP JUMP JUMPDEST PUSH1 0x0 DUP2 PUSH1 0x60 SHL SWAP1 POP SWAP2 SWAP1 POP JUMP JUMPDEST PUSH1 0x0 PUSH2 0x2949 DUP3 PUSH2 0x2931 JUMP JUMPDEST SWAP1 POP SWAP2 SWAP1 POP JUMP JUMPDEST PUSH1 0x0 PUSH2 0x295B DUP3 PUSH2 0x293E JUMP JUMPDEST SWAP1 POP SWAP2 SWAP1 POP JUMP JUMPDEST PUSH2 0x2973 PUSH2 0x296E DUP3 PUSH2 0x291F JUMP JUMPDEST PUSH2 0x2950 JUMP JUMPDEST DUP3 MSTORE POP POP JUMP JUMPDEST PUSH1 0x0 DUP2 SWAP1 POP SWAP2 SWAP1 POP JUMP JUMPDEST PUSH2 0x2994 PUSH2 0x298F DUP3 PUSH2 0x1A19 JUMP JUMPDEST PUSH2 0x2979 JUMP JUMPDEST DUP3 MSTORE POP POP JUMP JUMPDEST PUSH1 0x0 PUSH2 0x29A6 DUP3 DUP6 PUSH2 0x2962 JUMP JUMPDEST PUSH1 0x14 DUP3 ADD SWAP2 POP PUSH2 0x29B6 DUP3 DUP5 PUSH2 0x2983 JUMP JUMPDEST PUSH1 0x20 DUP3 ADD SWAP2 POP DUP2 SWAP1 POP SWAP4 SWAP3 POP POP POP JUMP JUMPDEST PUSH1 0x0 PUSH1 0x60 DUP3 ADD SWAP1 POP PUSH2 0x29DB PUSH1 0x0 DUP4 ADD DUP7 PUSH2 0x204F JUMP JUMPDEST PUSH2 0x29E8 PUSH1 0x20 DUP4 ADD DUP6 PUSH2 0x2358 JUMP JUMPDEST DUP2 DUP2 SUB PUSH1 0x40 DUP4 ADD MSTORE PUSH2 0x29FA DUP2 DUP5 PUSH2 0x1FF4 JUMP JUMPDEST SWAP1 POP SWAP5 SWAP4 POP POP POP POP JUMP JUMPDEST PUSH32 0x756E61626C6520746F207472616E73666572416E6443616C6C20746F206F7261 PUSH1 0x0 DUP3 ADD MSTORE PUSH32 0x636C650000000000000000000000000000000000000000000000000000000000 PUSH1 0x20 DUP3 ADD MSTORE POP JUMP JUMPDEST PUSH1 0x0 PUSH2 0x2A60 PUSH1 0x23 DUP4 PUSH2 0x23F5 JUMP JUMPDEST SWAP2 POP PUSH2 0x2A6B DUP3 PUSH2 0x2A04 JUMP JUMPDEST PUSH1 0x40 DUP3 ADD SWAP1 POP SWAP2 SWAP1 POP JUMP JUMPDEST PUSH1 0x0 PUSH1 0x20 DUP3 ADD SWAP1 POP DUP2 DUP2 SUB PUSH1 0x0 DUP4 ADD MSTORE PUSH2 0x2A8F DUP2 PUSH2 0x2A53 JUMP JUMPDEST SWAP1 POP SWAP2 SWAP1 POP JUMP JUMPDEST PUSH1 0x0 PUSH2 0x2AA1 DUP3 PUSH2 0x1A19 JUMP JUMPDEST SWAP2 POP PUSH2 0x2AAC DUP4 PUSH2 0x1A19 JUMP JUMPDEST SWAP3 POP DUP2 PUSH32 0xFFFFFFFFFFFFFFFFFFFFFFFFFFFFFFFFFFFFFFFFFFFFFFFFFFFFFFFFFFFFFFFF DIV DUP4 GT DUP3 ISZERO ISZERO AND ISZERO PUSH2 0x2AE5 JUMPI PUSH2 0x2AE4 PUSH2 0x2692 JUMP JUMPDEST JUMPDEST DUP3 DUP3 MUL SWAP1 POP SWAP3 SWAP2 POP POP JUMP JUMPDEST PUSH1 0x0 DUP2 PUSH1 0x1 SHR SWAP1 POP SWAP2 SWAP1 POP JUMP JUMPDEST PUSH1 0x0 DUP1 DUP3 SWAP2 POP DUP4 SWAP1 POP JUMPDEST PUSH1 0x1 DUP6 GT ISZERO PUSH2 0x2B47 JUMPI DUP1 DUP7 DIV DUP2 GT ISZERO PUSH2 0x2B23 JUMPI PUSH2 0x2B22 PUSH2 0x2692 JUMP JUMPDEST JUMPDEST PUSH1 0x1 DUP6 AND ISZERO PUSH2 0x2B32 JUMPI DUP1 DUP3 MUL SWAP2 POP JUMPDEST DUP1 DUP2 MUL SWAP1 POP PUSH2 0x2B40 DUP6 PUSH2 0x2AF0 JUMP JUMPDEST SWAP5 POP PUSH2 0x2B07 JUMP JUMPDEST SWAP5 POP SWAP5 SWAP3 POP POP POP JUMP JUMPDEST PUSH1 0x0 DUP3 PUSH2 0x2B60 JUMPI PUSH1 0x1 SWAP1 POP PUSH2 0x2C1C JUMP JUMPDEST DUP2 PUSH2 0x2B6E JUMPI PUSH1 0x0 SWAP1 POP PUSH2 0x2C1C JUMP JUMPDEST DUP2 PUSH1 0x1 DUP2 EQ PUSH2 0x2B84 JUMPI PUSH1 0x2 DUP2 EQ PUSH2 0x2B8E JUMPI PUSH2 0x2BBD JUMP JUMPDEST PUSH1 0x1 SWAP2 POP POP PUSH2 0x2C1C JUMP JUMPDEST PUSH1 0xFF DUP5 GT ISZERO PUSH2 0x2BA0 JUMPI PUSH2 0x2B9F PUSH2 0x2692 JUMP JUMPDEST JUMPDEST DUP4 PUSH1 0x2 EXP SWAP2 POP DUP5 DUP3 GT ISZERO PUSH2 0x2BB7 JUMPI PUSH2 0x2BB6 PUSH2 0x2692 JUMP JUMPDEST JUMPDEST POP PUSH2 0x2C1C JUMP JUMPDEST POP PUSH1 0x20 DUP4 LT PUSH2 0x133 DUP4 LT AND PUSH1 0x4E DUP5 LT PUSH1 0xB DUP5 LT AND OR ISZERO PUSH2 0x2BF2 JUMPI DUP3 DUP3 EXP SWAP1 POP DUP4 DUP2 GT ISZERO PUSH2 0x2BED JUMPI PUSH2 0x2BEC PUSH2 0x2692 JUMP JUMPDEST JUMPDEST PUSH2 0x2C1C JUMP JUMPDEST PUSH2 0x2BFF DUP5 DUP5 DUP5 PUSH1 0x1 PUSH2 0x2AFD JUMP JUMPDEST SWAP3 POP SWAP1 POP DUP2 DUP5 DIV DUP2 GT ISZERO PUSH2 0x2C16 JUMPI PUSH2 0x2C15 PUSH2 0x2692 JUMP JUMPDEST JUMPDEST DUP2 DUP2 MUL SWAP1 POP JUMPDEST SWAP4 SWAP3 POP POP POP JUMP JUMPDEST PUSH1 0x0 PUSH2 0x2C2E DUP3 PUSH2 0x1A19 JUMP JUMPDEST SWAP2 POP PUSH2 0x2C39 DUP4 PUSH2 0x1A19 JUMP JUMPDEST SWAP3 POP PUSH2 0x2C66 PUSH32 0xFFFFFFFFFFFFFFFFFFFFFFFFFFFFFFFFFFFFFFFFFFFFFFFFFFFFFFFFFFFFFFFF DUP5 DUP5 PUSH2 0x2B50 JUMP JUMPDEST SWAP1 POP SWAP3 SWAP2 POP POP JUMP INVALID LOG2 PUSH5 0x6970667358 0x22 SLT KECCAK256 0xD2 0xE5 PUSH11 0x4E14EDD3DE0CEC41572 CALLCODE 0xAE DUP13 0xCA EQ 0x26 0xEF DUP2 0xF7 0x2D 0xAB EXTCODEHASH PUSH23 0x9AD440125B64736F6C6343000809003300000000000000 "
				},
				"gasEstimates": {
					"creation": {
						"codeDepositCost": "2285600",
						"executionCost": "infinite",
						"totalCost": "infinite"
					},
					"external": {
						"_getOracleAddress()": "2601",
						"cancelRequest(bytes32,uint256,bytes4,uint256)": "infinite",
						"fulfillSchedule(bytes32,bytes[])": "infinite",
						"getGameCreate(bytes32,uint256)": "infinite",
						"getGameResolve(bytes32,uint256)": "infinite",
						"requestIdGames(bytes32,uint256)": "infinite",
						"requestSchedule(bytes32,uint256,uint256,uint256,uint256)": "infinite",
						"requestSchedule(bytes32,uint256,uint256,uint256,uint256,uint256[])": "infinite",
						"setOracle(address)": "24840",
						"setRequestIdGames(bytes32,bytes[])": "infinite",
						"withdrawLink(uint256,address)": "infinite"
					},
					"internal": {
						"_addUintArray(struct Chainlink.Request memory,string memory,uint256[] memory)": "infinite",
						"_getGameCreateStruct(bytes memory)": "infinite",
						"_getGameResolveStruct(bytes memory)": "infinite",
						"_requireTransferLINK(bool,address,uint256)": "infinite",
						"_sliceDynamicArray(uint256,uint256,bytes memory)": "infinite"
					}
				},
				"methodIdentifiers": {
					"_getOracleAddress()": "b075f532",
					"cancelRequest(bytes32,uint256,bytes4,uint256)": "ec65d0f8",
					"fulfillSchedule(bytes32,bytes[])": "93d07072",
					"getGameCreate(bytes32,uint256)": "e3c046a7",
					"getGameResolve(bytes32,uint256)": "de00d107",
					"requestIdGames(bytes32,uint256)": "a2943608",
					"requestSchedule(bytes32,uint256,uint256,uint256,uint256)": "00aa2967",
					"requestSchedule(bytes32,uint256,uint256,uint256,uint256,uint256[])": "49687cca",
					"setOracle(address)": "7adbf973",
					"setRequestIdGames(bytes32,bytes[])": "303a712f",
					"withdrawLink(uint256,address)": "41ea27ca"
				}
			},
			"storageLayout": {
				"storage": [
					{
						"astId": 932,
						"contract": ".git/contracts/enetscoreConsumer.sol:EnetscoresConsumer",
						"label": "s_ens",
						"offset": 0,
						"slot": "0",
						"type": "t_contract(ENSInterface)1587"
					},
					{
						"astId": 934,
						"contract": ".git/contracts/enetscoreConsumer.sol:EnetscoresConsumer",
						"label": "s_ensNode",
						"offset": 0,
						"slot": "1",
						"type": "t_bytes32"
					},
					{
						"astId": 937,
						"contract": ".git/contracts/enetscoreConsumer.sol:EnetscoresConsumer",
						"label": "s_link",
						"offset": 0,
						"slot": "2",
						"type": "t_contract(LinkTokenInterface)1682"
					},
					{
						"astId": 940,
						"contract": ".git/contracts/enetscoreConsumer.sol:EnetscoresConsumer",
						"label": "s_oracle",
						"offset": 0,
						"slot": "3",
						"type": "t_contract(OperatorInterface)1762"
					},
					{
						"astId": 943,
						"contract": ".git/contracts/enetscoreConsumer.sol:EnetscoresConsumer",
						"label": "s_requestCount",
						"offset": 0,
						"slot": "4",
						"type": "t_uint256"
					},
					{
						"astId": 947,
						"contract": ".git/contracts/enetscoreConsumer.sol:EnetscoresConsumer",
						"label": "s_pendingRequests",
						"offset": 0,
						"slot": "5",
						"type": "t_mapping(t_bytes32,t_address)"
					},
					{
						"astId": 16,
						"contract": ".git/contracts/enetscoreConsumer.sol:EnetscoresConsumer",
						"label": "link",
						"offset": 0,
						"slot": "6",
						"type": "t_address"
					},
					{
						"astId": 19,
						"contract": ".git/contracts/enetscoreConsumer.sol:EnetscoresConsumer",
						"label": "oracle",
						"offset": 0,
						"slot": "7",
						"type": "t_address"
					},
					{
						"astId": 42,
						"contract": ".git/contracts/enetscoreConsumer.sol:EnetscoresConsumer",
						"label": "requestIdGames",
						"offset": 0,
						"slot": "8",
						"type": "t_mapping(t_bytes32,t_array(t_bytes_storage)dyn_storage)"
					}
				],
				"types": {
					"t_address": {
						"encoding": "inplace",
						"label": "address",
						"numberOfBytes": "20"
					},
					"t_array(t_bytes_storage)dyn_storage": {
						"base": "t_bytes_storage",
						"encoding": "dynamic_array",
						"label": "bytes[]",
						"numberOfBytes": "32"
					},
					"t_bytes32": {
						"encoding": "inplace",
						"label": "bytes32",
						"numberOfBytes": "32"
					},
					"t_bytes_storage": {
						"encoding": "bytes",
						"label": "bytes",
						"numberOfBytes": "32"
					},
					"t_contract(ENSInterface)1587": {
						"encoding": "inplace",
						"label": "contract ENSInterface",
						"numberOfBytes": "20"
					},
					"t_contract(LinkTokenInterface)1682": {
						"encoding": "inplace",
						"label": "contract LinkTokenInterface",
						"numberOfBytes": "20"
					},
					"t_contract(OperatorInterface)1762": {
						"encoding": "inplace",
						"label": "contract OperatorInterface",
						"numberOfBytes": "20"
					},
					"t_mapping(t_bytes32,t_address)": {
						"encoding": "mapping",
						"key": "t_bytes32",
						"label": "mapping(bytes32 => address)",
						"numberOfBytes": "32",
						"value": "t_address"
					},
					"t_mapping(t_bytes32,t_array(t_bytes_storage)dyn_storage)": {
						"encoding": "mapping",
						"key": "t_bytes32",
						"label": "mapping(bytes32 => bytes[])",
						"numberOfBytes": "32",
						"value": "t_array(t_bytes_storage)dyn_storage"
					},
					"t_uint256": {
						"encoding": "inplace",
						"label": "uint256",
						"numberOfBytes": "32"
					}
				}
			},
			"userdoc": {
				"kind": "user",
				"methods": {
					"fulfillSchedule(bytes32,bytes[])": {
						"notice": "Stores the scheduled games."
					},
					"requestSchedule(bytes32,uint256,uint256,uint256,uint256)": {
						"notice": "Requests the tournament games either to be created or to be resolved on a specific date."
					},
					"requestSchedule(bytes32,uint256,uint256,uint256,uint256,uint256[])": {
						"notice": "Requests the tournament games either to be created or to be resolved on a specific date."
					}
				},
				"notice": "Interact with the daily events API.",
				"version": 1
			}
		}
	}
}